{"contracts/MezoVaultContract.sol":{"MezoVaultContract":{"abi":[{"inputs":[{"internalType":"address","name":"_musdToken","type":"address"}],"stateMutability":"nonpayable","type":"constructor"},{"inputs":[{"internalType":"address","name":"owner","type":"address"}],"name":"OwnableInvalidOwner","type":"error"},{"inputs":[{"internalType":"address","name":"account","type":"address"}],"name":"OwnableUnauthorizedAccount","type":"error"},{"inputs":[],"name":"ReentrancyGuardReentrantCall","type":"error"},{"anonymous":false,"inputs":[{"indexed":true,"internalType":"address","name":"user","type":"address"},{"indexed":false,"internalType":"uint256","name":"amount","type":"uint256"}],"name":"CollateralDeposited","type":"event"},{"anonymous":false,"inputs":[{"indexed":true,"internalType":"address","name":"user","type":"address"},{"indexed":false,"internalType":"uint256","name":"amount","type":"uint256"}],"name":"CollateralWithdrawn","type":"event"},{"anonymous":false,"inputs":[{"indexed":true,"internalType":"address","name":"user","type":"address"},{"indexed":false,"internalType":"uint256","name":"amount","type":"uint256"}],"name":"MUSDBorrowed","type":"event"},{"anonymous":false,"inputs":[{"indexed":true,"internalType":"address","name":"user","type":"address"},{"indexed":false,"internalType":"uint256","name":"amount","type":"uint256"}],"name":"MUSDRepaid","type":"event"},{"anonymous":false,"inputs":[{"indexed":true,"internalType":"address","name":"previousOwner","type":"address"},{"indexed":true,"internalType":"address","name":"newOwner","type":"address"}],"name":"OwnershipTransferred","type":"event"},{"anonymous":false,"inputs":[{"indexed":true,"internalType":"address","name":"user","type":"address"},{"indexed":false,"internalType":"uint256","name":"collateralAmount","type":"uint256"},{"indexed":false,"internalType":"uint256","name":"debtAmount","type":"uint256"}],"name":"VaultLiquidated","type":"event"},{"inputs":[],"name":"BTC_PRICE_USD","outputs":[{"internalType":"uint256","name":"","type":"uint256"}],"stateMutability":"view","type":"function"},{"inputs":[],"name":"INTEREST_RATE","outputs":[{"internalType":"uint256","name":"","type":"uint256"}],"stateMutability":"view","type":"function"},{"inputs":[],"name":"MIN_COLLATERAL_RATIO","outputs":[{"internalType":"uint256","name":"","type":"uint256"}],"stateMutability":"view","type":"function"},{"inputs":[{"internalType":"uint256","name":"amount","type":"uint256"}],"name":"borrowMUSD","outputs":[],"stateMutability":"nonpayable","type":"function"},{"inputs":[{"internalType":"uint256","name":"amount","type":"uint256"}],"name":"depositCollateral","outputs":[],"stateMutability":"payable","type":"function"},{"inputs":[],"name":"emergencyWithdraw","outputs":[],"stateMutability":"nonpayable","type":"function"},{"inputs":[{"internalType":"address","name":"user","type":"address"}],"name":"getBorrowedAmount","outputs":[{"internalType":"uint256","name":"","type":"uint256"}],"stateMutability":"view","type":"function"},{"inputs":[{"internalType":"address","name":"user","type":"address"}],"name":"getCollateralBalance","outputs":[{"internalType":"uint256","name":"","type":"uint256"}],"stateMutability":"view","type":"function"},{"inputs":[{"internalType":"address","name":"user","type":"address"}],"name":"getCollateralRatio","outputs":[{"internalType":"uint256","name":"","type":"uint256"}],"stateMutability":"view","type":"function"},{"inputs":[{"internalType":"address","name":"user","type":"address"}],"name":"getCurrentDebt","outputs":[{"internalType":"uint256","name":"","type":"uint256"}],"stateMutability":"view","type":"function"},{"inputs":[{"internalType":"address","name":"user","type":"address"}],"name":"getHealthFactor","outputs":[{"internalType":"uint256","name":"","type":"uint256"}],"stateMutability":"view","type":"function"},{"inputs":[],"name":"getInterestRate","outputs":[{"internalType":"uint256","name":"","type":"uint256"}],"stateMutability":"pure","type":"function"},{"inputs":[{"internalType":"address","name":"user","type":"address"}],"name":"getLiquidationPrice","outputs":[{"internalType":"uint256","name":"","type":"uint256"}],"stateMutability":"view","type":"function"},{"inputs":[{"internalType":"address","name":"user","type":"address"}],"name":"getMaxWithdrawable","outputs":[{"internalType":"uint256","name":"","type":"uint256"}],"stateMutability":"view","type":"function"},{"inputs":[],"name":"musdToken","outputs":[{"internalType":"address","name":"","type":"address"}],"stateMutability":"view","type":"function"},{"inputs":[],"name":"owner","outputs":[{"internalType":"address","name":"","type":"address"}],"stateMutability":"view","type":"function"},{"inputs":[],"name":"renounceOwnership","outputs":[],"stateMutability":"nonpayable","type":"function"},{"inputs":[{"internalType":"uint256","name":"amount","type":"uint256"}],"name":"repayMUSD","outputs":[],"stateMutability":"nonpayable","type":"function"},{"inputs":[],"name":"totalBorrowed","outputs":[{"internalType":"uint256","name":"","type":"uint256"}],"stateMutability":"view","type":"function"},{"inputs":[],"name":"totalCollateral","outputs":[{"internalType":"uint256","name":"","type":"uint256"}],"stateMutability":"view","type":"function"},{"inputs":[{"internalType":"address","name":"newOwner","type":"address"}],"name":"transferOwnership","outputs":[],"stateMutability":"nonpayable","type":"function"},{"inputs":[{"internalType":"address","name":"","type":"address"}],"name":"vaults","outputs":[{"internalType":"uint256","name":"collateralAmount","type":"uint256"},{"internalType":"uint256","name":"borrowedAmount","type":"uint256"},{"internalType":"uint256","name":"lastUpdateTime","type":"uint256"},{"internalType":"bool","name":"exists","type":"bool"}],"stateMutability":"view","type":"function"},{"inputs":[{"internalType":"uint256","name":"amount","type":"uint256"}],"name":"withdrawCollateral","outputs":[],"stateMutability":"nonpayable","type":"function"},{"stateMutability":"payable","type":"receive"}],"evm":{"bytecode":{"linkReferences":{},"object":"60803460d657601f61125438819003918201601f19168301916001600160401b0383118484101760db5780849260209460405283398101031260d657516001600160a01b0381169081900360d6576001600055331560c05760018054336001600160a01b0319821681179092556040519291906001600160a01b03167f8be0079c531659141344cd1fd0a4f28419497f9722a3daafe3b4186f6b6457e0600080a3600280546001600160a01b03191691909117905561116290816100f28239f35b631e4fbdf760e01b600052600060045260246000fd5b600080fd5b634e487b7160e01b600052604160045260246000fdfe608080604052600436101561001d575b50361561001b57600080fd5b005b600090813560e01c908163154fefc214610b155750806315a3ba4314610ae457806317d8de8214610ab3578063211f0277146108a15780632703ee85146108645780634ac8eb5f146108465780634c19386c146108285780635257b5661461080c5780635b72a33a1461080c5780636112fe2e146106a8578063652f3a3f14610677578063715018a61461061a57806378f3ef22146104715780637a9fffb7146104555780638da5cb5b1461042c5780639d78d46b14610403578063a622ee7c1461039e578063b86ef1cc1461036d578063b9f2c7b51461032d578063bad4a01f1461023f578063db2e21bc146101ef578063f2fde38b1461015e5763fe6bcd7c0361000f573461015b57602036600319011261015b57600435906001600160a01b038216820361015b57602061015383610f9a565b604051908152f35b80fd5b503461015b57602036600319011261015b576004356001600160a01b038116908190036101eb5761018d611103565b80156101d757600180546001600160a01b0319811683179091556001600160a01b03167f8be0079c531659141344cd1fd0a4f28419497f9722a3daafe3b4186f6b6457e08380a380f35b631e4fbdf760e01b82526004829052602482fd5b5080fd5b503461015b578060031936011261015b57610208611103565b8080808060018060a01b03600154164790828215610236575bf11561022a5780f35b604051903d90823e3d90fd5b506108fc610221565b50602036600319011261015b5760043561025761102f565b610262811515610cce565b8034036102f1573382526003602052604082206003810160ff8154166102e3575b61028e838354610d5d565b8255600160ff198254161790556002429101556102ad81600454610d5d565b6004556040519081527fd7243f6f8212d5188fd054141cf6ea89cfc0d91facb8c3afe2f88a135848014260203392a26001815580f35b6102ec33611051565b610283565b60405162461bcd60e51b8152602060048201526014602482015273125b98dbdc9c9958dd0811551208185b5bdd5b9d60621b6044820152606490fd5b503461015b57602036600319011261015b576004356001600160a01b038116908190036101eb576040826001926020945260038452200154604051908152f35b503461015b57602036600319011261015b57600435906001600160a01b038216820361015b57602061015383610ef9565b503461015b57602036600319011261015b576004356001600160a01b038116908190036101eb57816040916080935260036020522080549060018101549060ff6003600283015492015416916040519384526020840152604083015215156060820152f35b503461015b578060031936011261015b576002546040516001600160a01b039091168152602090f35b503461015b578060031936011261015b576001546040516001600160a01b039091168152602090f35b503461015b578060031936011261015b576020604051606e8152f35b503461015b57602036600319011261015b5760043561048e61102f565b610499811515610cce565b33825260036020526001604083206104b760ff600383015416610d1a565b6104c033611051565b018054918281111561060f57506104d78280610e4e565b90556104e581600554610e4e565b6005556002546040516323b872dd60e01b815233600482015230602482015260448101839052906020908290606490829087906001600160a01b03165af18015610604576105cc575b5060025482906001600160a01b0316803b156101eb57604051632770a7eb60e21b8152306004820152602481018490529082908290604490829084905af180156105c1576105ac575b50506040519081527fd8e31e478118d9c8ea5f823945962d1e74951bdee736d578121095bff7d5501860203392a26001815580f35b816105b691610b63565b6101eb578138610577565b6040513d84823e3d90fd5b6020813d6020116105fc575b816105e560209383610b63565b810103126105f85751801515811461052e575b8280fd5b3d91506105d8565b6040513d85823e3d90fd5b6104d7908093610e4e565b503461015b578060031936011261015b57610633611103565b600180546001600160a01b0319811690915581906001600160a01b03167f8be0079c531659141344cd1fd0a4f28419497f9722a3daafe3b4186f6b6457e08280a380f35b503461015b57602036600319011261015b57600435906001600160a01b038216820361015b57602061015383610e5b565b503461015b57602036600319011261015b576004356106c561102f565b8181156106d28115610cce565b3382526003602052604082206106ee60ff600383015416610d1a565b6106f733611051565b83815461070682821015610d6a565b60018301548061078d575b509061071c91610e4e565b905561072a83600454610e4e565b600455828291610783575b8280929181923390f115610776576040519081527fc30fcfbcaac9e0deffa719714eaa82396ff506a0d0d0eebe170830177288715d60203392a26001815580f35b50604051903d90823e3d90fd5b6108fc9150610735565b90945061079d6107a29286610e4e565b6110ba565b156107b05783859338610711565b60405162461bcd60e51b815260206004820152602e60248201527f496e73756666696369656e7420636f6c6c61746572616c20726174696f20616660448201526d1d195c881dda5d1a191c985dd85b60921b6064820152608490fd5b503461015b578060031936011261015b57602060405160fa8152f35b503461015b578060031936011261015b576020600554604051908152f35b503461015b578060031936011261015b576020600454604051908152f35b503461015b57602036600319011261015b576004356001600160a01b038116908190036101eb578160409160209352600383522054604051908152f35b503461015b57602036600319011261015b576004356108be61102f565b6108c9811515610cce565b3382526003602052604082206108e560ff600383015416610d1a565b6108ee33611051565b6001810161091061090b610903858454610d5d565b8094546110ba565b610d6a565b5561091d81600554610d5d565b6005556002546001600160a01b0316803b156105f8576040516340c10f1960e01b8152336004820152602481018390529083908290604490829084905af19081610a9f575b50610a6c57508060033d11610a5b575b506308c379a0146109c3575b60405162461bcd60e51b815260206004820152601d60248201527f4d696e74696e67206661696c65643a20556e6b6e6f776e206572726f720000006044820152606490fd5b6109cb610db6565b806109d6575061097e565b6044610a4d9160405190610a2560308360208101936f026b4b73a34b733903330b4b632b21d160851b8552610a148151809260208686019101610e2b565b81010301601f198101845283610b63565b60405193849262461bcd60e51b84526020600485015251809281602486015285850190610e2b565b601f01601f19168101030190fd5b9050600481803e5160e01c38610972565b6040519081527f20da8f6e39cc42d87e1a570c1a21fe80e2882e71d765e5543d17a0756449527860203392a26001815580f35b83610aac91949294610b63565b9138610962565b503461015b57602036600319011261015b57600435906001600160a01b038216820361015b57602061015383610c60565b503461015b57602036600319011261015b57600435906001600160a01b038216820361015b57602061015383610bce565b9050346101eb57816003193601126101eb578061c35060209252f35b6080810190811067ffffffffffffffff821117610b4d57604052565b634e487b7160e01b600052604160045260246000fd5b90601f8019910116810190811067ffffffffffffffff821117610b4d57604052565b81810292918115918404141715610b9857565b634e487b7160e01b600052601160045260246000fd5b8115610bb8570490565b634e487b7160e01b600052601260045260246000fd5b60018060a01b031660005260036020526040600020604051610bef81610b31565b815490818152600183015490606060ff6003602084019685885260028101546040860152015416151591015215610c595761c35081029080820461c3501481151715610b9857631dcd650002908082046127101490151715610b9857610c56915190610bae565b90565b5050600090565b60018060a01b03166000526003602052604060002060405190610c8282610b31565b805480835260ff6003600184015493846020870152600281015460408701520154161515606084015215610c5957606e810290808204606e1490151715610b9857610c56915190610bae565b15610cd557565b60405162461bcd60e51b815260206004820152601d60248201527f416d6f756e74206d7573742062652067726561746572207468616e20300000006044820152606490fd5b15610d2157565b60405162461bcd60e51b815260206004820152601460248201527315985d5b1d08191bd95cc81b9bdd08195e1a5cdd60621b6044820152606490fd5b91908201809211610b9857565b15610d7157565b60405162461bcd60e51b815260206004820152601760248201527f496e73756666696369656e7420636f6c6c61746572616c0000000000000000006044820152606490fd5b600060443d10610c56576040513d600319016004823e8051913d602484011167ffffffffffffffff841117610e25578282019283519167ffffffffffffffff8311610e1d573d84016003190185840160200111610e1d5750610c5692910160200190610b63565b949350505050565b92915050565b60005b838110610e3e5750506000910152565b8181015183820152602001610e2e565b91908203918211610b9857565b60018060a01b03166000526003602052604060002060405190610e7d82610b31565b805480835260ff6003600184015493846020870152600281015460408701520154161580159081606086015290610ef1575b610ee9578115610ee3575080606e0290606e820403610b9857631dcd6500900490519080821115610c5957610c5691610e4e565b91505090565b505050600090565b508015610eaf565b60018060a01b03166000526003602052604060002060405190610f1b82610b31565b8054825260606001820154602084019381855260ff600360028601549586604085015201541615908115938491015291610f91575b50610c5957610f5f9042610e4e565b9080519160fa83029280840460fa1490151715610b9857610f8964496cebb80091610c5694610b85565b049051610d5d565b90501538610f50565b6040516315a3ba4360e01b81526001600160a01b039091166004820152602081602481305afa90811561102357600091610ff1575b508015610feb5760648102908104606403610b9857606e900490565b50600090565b906020823d60201161101b575b8161100b60209383610b63565b8101031261015b57505138610fcf565b3d9150610ffe565b6040513d6000823e3d90fd5b600260005414611040576002600055565b633ee5aeb560e01b60005260046000fd5b6001600160a01b031660009081526003602052604090206001810180549182156110b55760020191611084835442610e4e565b9060fa81029181830460fa03610b98576110a764496cebb800916110ae94610b85565b0490610d5d565b9055429055565b505050565b81156110fc5761c35081029080820461c3501481151715610b9857631dcd650002908082046127101490151715610b9857606e916110f791610bae565b101590565b5050600190565b6001546001600160a01b0316330361111757565b63118cdaa760e01b6000523360045260246000fdfea264697066735822122043afd1c708a1489a0ed9b50e50b668dc86db8403aabba0b8d02920e98295fd7664736f6c634300081c0033","opcodes":"PUSH1 0x80 CALLVALUE PUSH1 0xD6 JUMPI PUSH1 0x1F PUSH2 0x1254 CODESIZE DUP2 SWAP1 SUB SWAP2 DUP3 ADD PUSH1 0x1F NOT AND DUP4 ADD SWAP2 PUSH1 0x1 PUSH1 0x1 PUSH1 0x40 SHL SUB DUP4 GT DUP5 DUP5 LT OR PUSH1 0xDB JUMPI DUP1 DUP5 SWAP3 PUSH1 0x20 SWAP5 PUSH1 0x40 MSTORE DUP4 CODECOPY DUP2 ADD SUB SLT PUSH1 0xD6 JUMPI MLOAD PUSH1 0x1 PUSH1 0x1 PUSH1 0xA0 SHL SUB DUP2 AND SWAP1 DUP2 SWAP1 SUB PUSH1 0xD6 JUMPI PUSH1 0x1 PUSH1 0x0 SSTORE CALLER ISZERO PUSH1 0xC0 JUMPI PUSH1 0x1 DUP1 SLOAD CALLER PUSH1 0x1 PUSH1 0x1 PUSH1 0xA0 SHL SUB NOT DUP3 AND DUP2 OR SWAP1 SWAP3 SSTORE PUSH1 0x40 MLOAD SWAP3 SWAP2 SWAP1 PUSH1 0x1 PUSH1 0x1 PUSH1 0xA0 SHL SUB AND PUSH32 0x8BE0079C531659141344CD1FD0A4F28419497F9722A3DAAFE3B4186F6B6457E0 PUSH1 0x0 DUP1 LOG3 PUSH1 0x2 DUP1 SLOAD PUSH1 0x1 PUSH1 0x1 PUSH1 0xA0 SHL SUB NOT AND SWAP2 SWAP1 SWAP2 OR SWAP1 SSTORE PUSH2 0x1162 SWAP1 DUP2 PUSH2 0xF2 DUP3 CODECOPY RETURN JUMPDEST PUSH4 0x1E4FBDF7 PUSH1 0xE0 SHL PUSH1 0x0 MSTORE PUSH1 0x0 PUSH1 0x4 MSTORE PUSH1 0x24 PUSH1 0x0 REVERT JUMPDEST PUSH1 0x0 DUP1 REVERT JUMPDEST PUSH4 0x4E487B71 PUSH1 0xE0 SHL PUSH1 0x0 MSTORE PUSH1 0x41 PUSH1 0x4 MSTORE PUSH1 0x24 PUSH1 0x0 REVERT INVALID PUSH1 0x80 DUP1 PUSH1 0x40 MSTORE PUSH1 0x4 CALLDATASIZE LT ISZERO PUSH2 0x1D JUMPI JUMPDEST POP CALLDATASIZE ISZERO PUSH2 0x1B JUMPI PUSH1 0x0 DUP1 REVERT JUMPDEST STOP JUMPDEST PUSH1 0x0 SWAP1 DUP2 CALLDATALOAD PUSH1 0xE0 SHR SWAP1 DUP2 PUSH4 0x154FEFC2 EQ PUSH2 0xB15 JUMPI POP DUP1 PUSH4 0x15A3BA43 EQ PUSH2 0xAE4 JUMPI DUP1 PUSH4 0x17D8DE82 EQ PUSH2 0xAB3 JUMPI DUP1 PUSH4 0x211F0277 EQ PUSH2 0x8A1 JUMPI DUP1 PUSH4 0x2703EE85 EQ PUSH2 0x864 JUMPI DUP1 PUSH4 0x4AC8EB5F EQ PUSH2 0x846 JUMPI DUP1 PUSH4 0x4C19386C EQ PUSH2 0x828 JUMPI DUP1 PUSH4 0x5257B566 EQ PUSH2 0x80C JUMPI DUP1 PUSH4 0x5B72A33A EQ PUSH2 0x80C JUMPI DUP1 PUSH4 0x6112FE2E EQ PUSH2 0x6A8 JUMPI DUP1 PUSH4 0x652F3A3F EQ PUSH2 0x677 JUMPI DUP1 PUSH4 0x715018A6 EQ PUSH2 0x61A JUMPI DUP1 PUSH4 0x78F3EF22 EQ PUSH2 0x471 JUMPI DUP1 PUSH4 0x7A9FFFB7 EQ PUSH2 0x455 JUMPI DUP1 PUSH4 0x8DA5CB5B EQ PUSH2 0x42C JUMPI DUP1 PUSH4 0x9D78D46B EQ PUSH2 0x403 JUMPI DUP1 PUSH4 0xA622EE7C EQ PUSH2 0x39E JUMPI DUP1 PUSH4 0xB86EF1CC EQ PUSH2 0x36D JUMPI DUP1 PUSH4 0xB9F2C7B5 EQ PUSH2 0x32D JUMPI DUP1 PUSH4 0xBAD4A01F EQ PUSH2 0x23F JUMPI DUP1 PUSH4 0xDB2E21BC EQ PUSH2 0x1EF JUMPI DUP1 PUSH4 0xF2FDE38B EQ PUSH2 0x15E JUMPI PUSH4 0xFE6BCD7C SUB PUSH2 0xF JUMPI CALLVALUE PUSH2 0x15B JUMPI PUSH1 0x20 CALLDATASIZE PUSH1 0x3 NOT ADD SLT PUSH2 0x15B JUMPI PUSH1 0x4 CALLDATALOAD SWAP1 PUSH1 0x1 PUSH1 0x1 PUSH1 0xA0 SHL SUB DUP3 AND DUP3 SUB PUSH2 0x15B JUMPI PUSH1 0x20 PUSH2 0x153 DUP4 PUSH2 0xF9A JUMP JUMPDEST PUSH1 0x40 MLOAD SWAP1 DUP2 MSTORE RETURN JUMPDEST DUP1 REVERT JUMPDEST POP CALLVALUE PUSH2 0x15B JUMPI PUSH1 0x20 CALLDATASIZE PUSH1 0x3 NOT ADD SLT PUSH2 0x15B JUMPI PUSH1 0x4 CALLDATALOAD PUSH1 0x1 PUSH1 0x1 PUSH1 0xA0 SHL SUB DUP2 AND SWAP1 DUP2 SWAP1 SUB PUSH2 0x1EB JUMPI PUSH2 0x18D PUSH2 0x1103 JUMP JUMPDEST DUP1 ISZERO PUSH2 0x1D7 JUMPI PUSH1 0x1 DUP1 SLOAD PUSH1 0x1 PUSH1 0x1 PUSH1 0xA0 SHL SUB NOT DUP2 AND DUP4 OR SWAP1 SWAP2 SSTORE PUSH1 0x1 PUSH1 0x1 PUSH1 0xA0 SHL SUB AND PUSH32 0x8BE0079C531659141344CD1FD0A4F28419497F9722A3DAAFE3B4186F6B6457E0 DUP4 DUP1 LOG3 DUP1 RETURN JUMPDEST PUSH4 0x1E4FBDF7 PUSH1 0xE0 SHL DUP3 MSTORE PUSH1 0x4 DUP3 SWAP1 MSTORE PUSH1 0x24 DUP3 REVERT JUMPDEST POP DUP1 REVERT JUMPDEST POP CALLVALUE PUSH2 0x15B JUMPI DUP1 PUSH1 0x3 NOT CALLDATASIZE ADD SLT PUSH2 0x15B JUMPI PUSH2 0x208 PUSH2 0x1103 JUMP JUMPDEST DUP1 DUP1 DUP1 DUP1 PUSH1 0x1 DUP1 PUSH1 0xA0 SHL SUB PUSH1 0x1 SLOAD AND SELFBALANCE SWAP1 DUP3 DUP3 ISZERO PUSH2 0x236 JUMPI JUMPDEST CALL ISZERO PUSH2 0x22A JUMPI DUP1 RETURN JUMPDEST PUSH1 0x40 MLOAD SWAP1 RETURNDATASIZE SWAP1 DUP3 RETURNDATACOPY RETURNDATASIZE SWAP1 REVERT JUMPDEST POP PUSH2 0x8FC PUSH2 0x221 JUMP JUMPDEST POP PUSH1 0x20 CALLDATASIZE PUSH1 0x3 NOT ADD SLT PUSH2 0x15B JUMPI PUSH1 0x4 CALLDATALOAD PUSH2 0x257 PUSH2 0x102F JUMP JUMPDEST PUSH2 0x262 DUP2 ISZERO ISZERO PUSH2 0xCCE JUMP JUMPDEST DUP1 CALLVALUE SUB PUSH2 0x2F1 JUMPI CALLER DUP3 MSTORE PUSH1 0x3 PUSH1 0x20 MSTORE PUSH1 0x40 DUP3 KECCAK256 PUSH1 0x3 DUP2 ADD PUSH1 0xFF DUP2 SLOAD AND PUSH2 0x2E3 JUMPI JUMPDEST PUSH2 0x28E DUP4 DUP4 SLOAD PUSH2 0xD5D JUMP JUMPDEST DUP3 SSTORE PUSH1 0x1 PUSH1 0xFF NOT DUP3 SLOAD AND OR SWAP1 SSTORE PUSH1 0x2 TIMESTAMP SWAP2 ADD SSTORE PUSH2 0x2AD DUP2 PUSH1 0x4 SLOAD PUSH2 0xD5D JUMP JUMPDEST PUSH1 0x4 SSTORE PUSH1 0x40 MLOAD SWAP1 DUP2 MSTORE PUSH32 0xD7243F6F8212D5188FD054141CF6EA89CFC0D91FACB8C3AFE2F88A1358480142 PUSH1 0x20 CALLER SWAP3 LOG2 PUSH1 0x1 DUP2 SSTORE DUP1 RETURN JUMPDEST PUSH2 0x2EC CALLER PUSH2 0x1051 JUMP JUMPDEST PUSH2 0x283 JUMP JUMPDEST PUSH1 0x40 MLOAD PUSH3 0x461BCD PUSH1 0xE5 SHL DUP2 MSTORE PUSH1 0x20 PUSH1 0x4 DUP3 ADD MSTORE PUSH1 0x14 PUSH1 0x24 DUP3 ADD MSTORE PUSH20 0x125B98DBDC9C9958DD0811551208185B5BDD5B9D PUSH1 0x62 SHL PUSH1 0x44 DUP3 ADD MSTORE PUSH1 0x64 SWAP1 REVERT JUMPDEST POP CALLVALUE PUSH2 0x15B JUMPI PUSH1 0x20 CALLDATASIZE PUSH1 0x3 NOT ADD SLT PUSH2 0x15B JUMPI PUSH1 0x4 CALLDATALOAD PUSH1 0x1 PUSH1 0x1 PUSH1 0xA0 SHL SUB DUP2 AND SWAP1 DUP2 SWAP1 SUB PUSH2 0x1EB JUMPI PUSH1 0x40 DUP3 PUSH1 0x1 SWAP3 PUSH1 0x20 SWAP5 MSTORE PUSH1 0x3 DUP5 MSTORE KECCAK256 ADD SLOAD PUSH1 0x40 MLOAD SWAP1 DUP2 MSTORE RETURN JUMPDEST POP CALLVALUE PUSH2 0x15B JUMPI PUSH1 0x20 CALLDATASIZE PUSH1 0x3 NOT ADD SLT PUSH2 0x15B JUMPI PUSH1 0x4 CALLDATALOAD SWAP1 PUSH1 0x1 PUSH1 0x1 PUSH1 0xA0 SHL SUB DUP3 AND DUP3 SUB PUSH2 0x15B JUMPI PUSH1 0x20 PUSH2 0x153 DUP4 PUSH2 0xEF9 JUMP JUMPDEST POP CALLVALUE PUSH2 0x15B JUMPI PUSH1 0x20 CALLDATASIZE PUSH1 0x3 NOT ADD SLT PUSH2 0x15B JUMPI PUSH1 0x4 CALLDATALOAD PUSH1 0x1 PUSH1 0x1 PUSH1 0xA0 SHL SUB DUP2 AND SWAP1 DUP2 SWAP1 SUB PUSH2 0x1EB JUMPI DUP2 PUSH1 0x40 SWAP2 PUSH1 0x80 SWAP4 MSTORE PUSH1 0x3 PUSH1 0x20 MSTORE KECCAK256 DUP1 SLOAD SWAP1 PUSH1 0x1 DUP2 ADD SLOAD SWAP1 PUSH1 0xFF PUSH1 0x3 PUSH1 0x2 DUP4 ADD SLOAD SWAP3 ADD SLOAD AND SWAP2 PUSH1 0x40 MLOAD SWAP4 DUP5 MSTORE PUSH1 0x20 DUP5 ADD MSTORE PUSH1 0x40 DUP4 ADD MSTORE ISZERO ISZERO PUSH1 0x60 DUP3 ADD MSTORE RETURN JUMPDEST POP CALLVALUE PUSH2 0x15B JUMPI DUP1 PUSH1 0x3 NOT CALLDATASIZE ADD SLT PUSH2 0x15B JUMPI PUSH1 0x2 SLOAD PUSH1 0x40 MLOAD PUSH1 0x1 PUSH1 0x1 PUSH1 0xA0 SHL SUB SWAP1 SWAP2 AND DUP2 MSTORE PUSH1 0x20 SWAP1 RETURN JUMPDEST POP CALLVALUE PUSH2 0x15B JUMPI DUP1 PUSH1 0x3 NOT CALLDATASIZE ADD SLT PUSH2 0x15B JUMPI PUSH1 0x1 SLOAD PUSH1 0x40 MLOAD PUSH1 0x1 PUSH1 0x1 PUSH1 0xA0 SHL SUB SWAP1 SWAP2 AND DUP2 MSTORE PUSH1 0x20 SWAP1 RETURN JUMPDEST POP CALLVALUE PUSH2 0x15B JUMPI DUP1 PUSH1 0x3 NOT CALLDATASIZE ADD SLT PUSH2 0x15B JUMPI PUSH1 0x20 PUSH1 0x40 MLOAD PUSH1 0x6E DUP2 MSTORE RETURN JUMPDEST POP CALLVALUE PUSH2 0x15B JUMPI PUSH1 0x20 CALLDATASIZE PUSH1 0x3 NOT ADD SLT PUSH2 0x15B JUMPI PUSH1 0x4 CALLDATALOAD PUSH2 0x48E PUSH2 0x102F JUMP JUMPDEST PUSH2 0x499 DUP2 ISZERO ISZERO PUSH2 0xCCE JUMP JUMPDEST CALLER DUP3 MSTORE PUSH1 0x3 PUSH1 0x20 MSTORE PUSH1 0x1 PUSH1 0x40 DUP4 KECCAK256 PUSH2 0x4B7 PUSH1 0xFF PUSH1 0x3 DUP4 ADD SLOAD AND PUSH2 0xD1A JUMP JUMPDEST PUSH2 0x4C0 CALLER PUSH2 0x1051 JUMP JUMPDEST ADD DUP1 SLOAD SWAP2 DUP3 DUP2 GT ISZERO PUSH2 0x60F JUMPI POP PUSH2 0x4D7 DUP3 DUP1 PUSH2 0xE4E JUMP JUMPDEST SWAP1 SSTORE PUSH2 0x4E5 DUP2 PUSH1 0x5 SLOAD PUSH2 0xE4E JUMP JUMPDEST PUSH1 0x5 SSTORE PUSH1 0x2 SLOAD PUSH1 0x40 MLOAD PUSH4 0x23B872DD PUSH1 0xE0 SHL DUP2 MSTORE CALLER PUSH1 0x4 DUP3 ADD MSTORE ADDRESS PUSH1 0x24 DUP3 ADD MSTORE PUSH1 0x44 DUP2 ADD DUP4 SWAP1 MSTORE SWAP1 PUSH1 0x20 SWAP1 DUP3 SWAP1 PUSH1 0x64 SWAP1 DUP3 SWAP1 DUP8 SWAP1 PUSH1 0x1 PUSH1 0x1 PUSH1 0xA0 SHL SUB AND GAS CALL DUP1 ISZERO PUSH2 0x604 JUMPI PUSH2 0x5CC JUMPI JUMPDEST POP PUSH1 0x2 SLOAD DUP3 SWAP1 PUSH1 0x1 PUSH1 0x1 PUSH1 0xA0 SHL SUB AND DUP1 EXTCODESIZE ISZERO PUSH2 0x1EB JUMPI PUSH1 0x40 MLOAD PUSH4 0x2770A7EB PUSH1 0xE2 SHL DUP2 MSTORE ADDRESS PUSH1 0x4 DUP3 ADD MSTORE PUSH1 0x24 DUP2 ADD DUP5 SWAP1 MSTORE SWAP1 DUP3 SWAP1 DUP3 SWAP1 PUSH1 0x44 SWAP1 DUP3 SWAP1 DUP5 SWAP1 GAS CALL DUP1 ISZERO PUSH2 0x5C1 JUMPI PUSH2 0x5AC JUMPI JUMPDEST POP POP PUSH1 0x40 MLOAD SWAP1 DUP2 MSTORE PUSH32 0xD8E31E478118D9C8EA5F823945962D1E74951BDEE736D578121095BFF7D55018 PUSH1 0x20 CALLER SWAP3 LOG2 PUSH1 0x1 DUP2 SSTORE DUP1 RETURN JUMPDEST DUP2 PUSH2 0x5B6 SWAP2 PUSH2 0xB63 JUMP JUMPDEST PUSH2 0x1EB JUMPI DUP2 CODESIZE PUSH2 0x577 JUMP JUMPDEST PUSH1 0x40 MLOAD RETURNDATASIZE DUP5 DUP3 RETURNDATACOPY RETURNDATASIZE SWAP1 REVERT JUMPDEST PUSH1 0x20 DUP2 RETURNDATASIZE PUSH1 0x20 GT PUSH2 0x5FC JUMPI JUMPDEST DUP2 PUSH2 0x5E5 PUSH1 0x20 SWAP4 DUP4 PUSH2 0xB63 JUMP JUMPDEST DUP2 ADD SUB SLT PUSH2 0x5F8 JUMPI MLOAD DUP1 ISZERO ISZERO DUP2 EQ PUSH2 0x52E JUMPI JUMPDEST DUP3 DUP1 REVERT JUMPDEST RETURNDATASIZE SWAP2 POP PUSH2 0x5D8 JUMP JUMPDEST PUSH1 0x40 MLOAD RETURNDATASIZE DUP6 DUP3 RETURNDATACOPY RETURNDATASIZE SWAP1 REVERT JUMPDEST PUSH2 0x4D7 SWAP1 DUP1 SWAP4 PUSH2 0xE4E JUMP JUMPDEST POP CALLVALUE PUSH2 0x15B JUMPI DUP1 PUSH1 0x3 NOT CALLDATASIZE ADD SLT PUSH2 0x15B JUMPI PUSH2 0x633 PUSH2 0x1103 JUMP JUMPDEST PUSH1 0x1 DUP1 SLOAD PUSH1 0x1 PUSH1 0x1 PUSH1 0xA0 SHL SUB NOT DUP2 AND SWAP1 SWAP2 SSTORE DUP2 SWAP1 PUSH1 0x1 PUSH1 0x1 PUSH1 0xA0 SHL SUB AND PUSH32 0x8BE0079C531659141344CD1FD0A4F28419497F9722A3DAAFE3B4186F6B6457E0 DUP3 DUP1 LOG3 DUP1 RETURN JUMPDEST POP CALLVALUE PUSH2 0x15B JUMPI PUSH1 0x20 CALLDATASIZE PUSH1 0x3 NOT ADD SLT PUSH2 0x15B JUMPI PUSH1 0x4 CALLDATALOAD SWAP1 PUSH1 0x1 PUSH1 0x1 PUSH1 0xA0 SHL SUB DUP3 AND DUP3 SUB PUSH2 0x15B JUMPI PUSH1 0x20 PUSH2 0x153 DUP4 PUSH2 0xE5B JUMP JUMPDEST POP CALLVALUE PUSH2 0x15B JUMPI PUSH1 0x20 CALLDATASIZE PUSH1 0x3 NOT ADD SLT PUSH2 0x15B JUMPI PUSH1 0x4 CALLDATALOAD PUSH2 0x6C5 PUSH2 0x102F JUMP JUMPDEST DUP2 DUP2 ISZERO PUSH2 0x6D2 DUP2 ISZERO PUSH2 0xCCE JUMP JUMPDEST CALLER DUP3 MSTORE PUSH1 0x3 PUSH1 0x20 MSTORE PUSH1 0x40 DUP3 KECCAK256 PUSH2 0x6EE PUSH1 0xFF PUSH1 0x3 DUP4 ADD SLOAD AND PUSH2 0xD1A JUMP JUMPDEST PUSH2 0x6F7 CALLER PUSH2 0x1051 JUMP JUMPDEST DUP4 DUP2 SLOAD PUSH2 0x706 DUP3 DUP3 LT ISZERO PUSH2 0xD6A JUMP JUMPDEST PUSH1 0x1 DUP4 ADD SLOAD DUP1 PUSH2 0x78D JUMPI JUMPDEST POP SWAP1 PUSH2 0x71C SWAP2 PUSH2 0xE4E JUMP JUMPDEST SWAP1 SSTORE PUSH2 0x72A DUP4 PUSH1 0x4 SLOAD PUSH2 0xE4E JUMP JUMPDEST PUSH1 0x4 SSTORE DUP3 DUP3 SWAP2 PUSH2 0x783 JUMPI JUMPDEST DUP3 DUP1 SWAP3 SWAP2 DUP2 SWAP3 CALLER SWAP1 CALL ISZERO PUSH2 0x776 JUMPI PUSH1 0x40 MLOAD SWAP1 DUP2 MSTORE PUSH32 0xC30FCFBCAAC9E0DEFFA719714EAA82396FF506A0D0D0EEBE170830177288715D PUSH1 0x20 CALLER SWAP3 LOG2 PUSH1 0x1 DUP2 SSTORE DUP1 RETURN JUMPDEST POP PUSH1 0x40 MLOAD SWAP1 RETURNDATASIZE SWAP1 DUP3 RETURNDATACOPY RETURNDATASIZE SWAP1 REVERT JUMPDEST PUSH2 0x8FC SWAP2 POP PUSH2 0x735 JUMP JUMPDEST SWAP1 SWAP5 POP PUSH2 0x79D PUSH2 0x7A2 SWAP3 DUP7 PUSH2 0xE4E JUMP JUMPDEST PUSH2 0x10BA JUMP JUMPDEST ISZERO PUSH2 0x7B0 JUMPI DUP4 DUP6 SWAP4 CODESIZE PUSH2 0x711 JUMP JUMPDEST PUSH1 0x40 MLOAD PUSH3 0x461BCD PUSH1 0xE5 SHL DUP2 MSTORE PUSH1 0x20 PUSH1 0x4 DUP3 ADD MSTORE PUSH1 0x2E PUSH1 0x24 DUP3 ADD MSTORE PUSH32 0x496E73756666696369656E7420636F6C6C61746572616C20726174696F206166 PUSH1 0x44 DUP3 ADD MSTORE PUSH14 0x1D195C881DDA5D1A191C985DD85B PUSH1 0x92 SHL PUSH1 0x64 DUP3 ADD MSTORE PUSH1 0x84 SWAP1 REVERT JUMPDEST POP CALLVALUE PUSH2 0x15B JUMPI DUP1 PUSH1 0x3 NOT CALLDATASIZE ADD SLT PUSH2 0x15B JUMPI PUSH1 0x20 PUSH1 0x40 MLOAD PUSH1 0xFA DUP2 MSTORE RETURN JUMPDEST POP CALLVALUE PUSH2 0x15B JUMPI DUP1 PUSH1 0x3 NOT CALLDATASIZE ADD SLT PUSH2 0x15B JUMPI PUSH1 0x20 PUSH1 0x5 SLOAD PUSH1 0x40 MLOAD SWAP1 DUP2 MSTORE RETURN JUMPDEST POP CALLVALUE PUSH2 0x15B JUMPI DUP1 PUSH1 0x3 NOT CALLDATASIZE ADD SLT PUSH2 0x15B JUMPI PUSH1 0x20 PUSH1 0x4 SLOAD PUSH1 0x40 MLOAD SWAP1 DUP2 MSTORE RETURN JUMPDEST POP CALLVALUE PUSH2 0x15B JUMPI PUSH1 0x20 CALLDATASIZE PUSH1 0x3 NOT ADD SLT PUSH2 0x15B JUMPI PUSH1 0x4 CALLDATALOAD PUSH1 0x1 PUSH1 0x1 PUSH1 0xA0 SHL SUB DUP2 AND SWAP1 DUP2 SWAP1 SUB PUSH2 0x1EB JUMPI DUP2 PUSH1 0x40 SWAP2 PUSH1 0x20 SWAP4 MSTORE PUSH1 0x3 DUP4 MSTORE KECCAK256 SLOAD PUSH1 0x40 MLOAD SWAP1 DUP2 MSTORE RETURN JUMPDEST POP CALLVALUE PUSH2 0x15B JUMPI PUSH1 0x20 CALLDATASIZE PUSH1 0x3 NOT ADD SLT PUSH2 0x15B JUMPI PUSH1 0x4 CALLDATALOAD PUSH2 0x8BE PUSH2 0x102F JUMP JUMPDEST PUSH2 0x8C9 DUP2 ISZERO ISZERO PUSH2 0xCCE JUMP JUMPDEST CALLER DUP3 MSTORE PUSH1 0x3 PUSH1 0x20 MSTORE PUSH1 0x40 DUP3 KECCAK256 PUSH2 0x8E5 PUSH1 0xFF PUSH1 0x3 DUP4 ADD SLOAD AND PUSH2 0xD1A JUMP JUMPDEST PUSH2 0x8EE CALLER PUSH2 0x1051 JUMP JUMPDEST PUSH1 0x1 DUP2 ADD PUSH2 0x910 PUSH2 0x90B PUSH2 0x903 DUP6 DUP5 SLOAD PUSH2 0xD5D JUMP JUMPDEST DUP1 SWAP5 SLOAD PUSH2 0x10BA JUMP JUMPDEST PUSH2 0xD6A JUMP JUMPDEST SSTORE PUSH2 0x91D DUP2 PUSH1 0x5 SLOAD PUSH2 0xD5D JUMP JUMPDEST PUSH1 0x5 SSTORE PUSH1 0x2 SLOAD PUSH1 0x1 PUSH1 0x1 PUSH1 0xA0 SHL SUB AND DUP1 EXTCODESIZE ISZERO PUSH2 0x5F8 JUMPI PUSH1 0x40 MLOAD PUSH4 0x40C10F19 PUSH1 0xE0 SHL DUP2 MSTORE CALLER PUSH1 0x4 DUP3 ADD MSTORE PUSH1 0x24 DUP2 ADD DUP4 SWAP1 MSTORE SWAP1 DUP4 SWAP1 DUP3 SWAP1 PUSH1 0x44 SWAP1 DUP3 SWAP1 DUP5 SWAP1 GAS CALL SWAP1 DUP2 PUSH2 0xA9F JUMPI JUMPDEST POP PUSH2 0xA6C JUMPI POP DUP1 PUSH1 0x3 RETURNDATASIZE GT PUSH2 0xA5B JUMPI JUMPDEST POP PUSH4 0x8C379A0 EQ PUSH2 0x9C3 JUMPI JUMPDEST PUSH1 0x40 MLOAD PUSH3 0x461BCD PUSH1 0xE5 SHL DUP2 MSTORE PUSH1 0x20 PUSH1 0x4 DUP3 ADD MSTORE PUSH1 0x1D PUSH1 0x24 DUP3 ADD MSTORE PUSH32 0x4D696E74696E67206661696C65643A20556E6B6E6F776E206572726F72000000 PUSH1 0x44 DUP3 ADD MSTORE PUSH1 0x64 SWAP1 REVERT JUMPDEST PUSH2 0x9CB PUSH2 0xDB6 JUMP JUMPDEST DUP1 PUSH2 0x9D6 JUMPI POP PUSH2 0x97E JUMP JUMPDEST PUSH1 0x44 PUSH2 0xA4D SWAP2 PUSH1 0x40 MLOAD SWAP1 PUSH2 0xA25 PUSH1 0x30 DUP4 PUSH1 0x20 DUP2 ADD SWAP4 PUSH16 0x26B4B73A34B733903330B4B632B21D1 PUSH1 0x85 SHL DUP6 MSTORE PUSH2 0xA14 DUP2 MLOAD DUP1 SWAP3 PUSH1 0x20 DUP7 DUP7 ADD SWAP2 ADD PUSH2 0xE2B JUMP JUMPDEST DUP2 ADD SUB ADD PUSH1 0x1F NOT DUP2 ADD DUP5 MSTORE DUP4 PUSH2 0xB63 JUMP JUMPDEST PUSH1 0x40 MLOAD SWAP4 DUP5 SWAP3 PUSH3 0x461BCD PUSH1 0xE5 SHL DUP5 MSTORE PUSH1 0x20 PUSH1 0x4 DUP6 ADD MSTORE MLOAD DUP1 SWAP3 DUP2 PUSH1 0x24 DUP7 ADD MSTORE DUP6 DUP6 ADD SWAP1 PUSH2 0xE2B JUMP JUMPDEST PUSH1 0x1F ADD PUSH1 0x1F NOT AND DUP2 ADD SUB ADD SWAP1 REVERT JUMPDEST SWAP1 POP PUSH1 0x4 DUP2 DUP1 RETURNDATACOPY MLOAD PUSH1 0xE0 SHR CODESIZE PUSH2 0x972 JUMP JUMPDEST PUSH1 0x40 MLOAD SWAP1 DUP2 MSTORE PUSH32 0x20DA8F6E39CC42D87E1A570C1A21FE80E2882E71D765E5543D17A07564495278 PUSH1 0x20 CALLER SWAP3 LOG2 PUSH1 0x1 DUP2 SSTORE DUP1 RETURN JUMPDEST DUP4 PUSH2 0xAAC SWAP2 SWAP5 SWAP3 SWAP5 PUSH2 0xB63 JUMP JUMPDEST SWAP2 CODESIZE PUSH2 0x962 JUMP JUMPDEST POP CALLVALUE PUSH2 0x15B JUMPI PUSH1 0x20 CALLDATASIZE PUSH1 0x3 NOT ADD SLT PUSH2 0x15B JUMPI PUSH1 0x4 CALLDATALOAD SWAP1 PUSH1 0x1 PUSH1 0x1 PUSH1 0xA0 SHL SUB DUP3 AND DUP3 SUB PUSH2 0x15B JUMPI PUSH1 0x20 PUSH2 0x153 DUP4 PUSH2 0xC60 JUMP JUMPDEST POP CALLVALUE PUSH2 0x15B JUMPI PUSH1 0x20 CALLDATASIZE PUSH1 0x3 NOT ADD SLT PUSH2 0x15B JUMPI PUSH1 0x4 CALLDATALOAD SWAP1 PUSH1 0x1 PUSH1 0x1 PUSH1 0xA0 SHL SUB DUP3 AND DUP3 SUB PUSH2 0x15B JUMPI PUSH1 0x20 PUSH2 0x153 DUP4 PUSH2 0xBCE JUMP JUMPDEST SWAP1 POP CALLVALUE PUSH2 0x1EB JUMPI DUP2 PUSH1 0x3 NOT CALLDATASIZE ADD SLT PUSH2 0x1EB JUMPI DUP1 PUSH2 0xC350 PUSH1 0x20 SWAP3 MSTORE RETURN JUMPDEST PUSH1 0x80 DUP2 ADD SWAP1 DUP2 LT PUSH8 0xFFFFFFFFFFFFFFFF DUP3 GT OR PUSH2 0xB4D JUMPI PUSH1 0x40 MSTORE JUMP JUMPDEST PUSH4 0x4E487B71 PUSH1 0xE0 SHL PUSH1 0x0 MSTORE PUSH1 0x41 PUSH1 0x4 MSTORE PUSH1 0x24 PUSH1 0x0 REVERT JUMPDEST SWAP1 PUSH1 0x1F DUP1 NOT SWAP2 ADD AND DUP2 ADD SWAP1 DUP2 LT PUSH8 0xFFFFFFFFFFFFFFFF DUP3 GT OR PUSH2 0xB4D JUMPI PUSH1 0x40 MSTORE JUMP JUMPDEST DUP2 DUP2 MUL SWAP3 SWAP2 DUP2 ISZERO SWAP2 DUP5 DIV EQ OR ISZERO PUSH2 0xB98 JUMPI JUMP JUMPDEST PUSH4 0x4E487B71 PUSH1 0xE0 SHL PUSH1 0x0 MSTORE PUSH1 0x11 PUSH1 0x4 MSTORE PUSH1 0x24 PUSH1 0x0 REVERT JUMPDEST DUP2 ISZERO PUSH2 0xBB8 JUMPI DIV SWAP1 JUMP JUMPDEST PUSH4 0x4E487B71 PUSH1 0xE0 SHL PUSH1 0x0 MSTORE PUSH1 0x12 PUSH1 0x4 MSTORE PUSH1 0x24 PUSH1 0x0 REVERT JUMPDEST PUSH1 0x1 DUP1 PUSH1 0xA0 SHL SUB AND PUSH1 0x0 MSTORE PUSH1 0x3 PUSH1 0x20 MSTORE PUSH1 0x40 PUSH1 0x0 KECCAK256 PUSH1 0x40 MLOAD PUSH2 0xBEF DUP2 PUSH2 0xB31 JUMP JUMPDEST DUP2 SLOAD SWAP1 DUP2 DUP2 MSTORE PUSH1 0x1 DUP4 ADD SLOAD SWAP1 PUSH1 0x60 PUSH1 0xFF PUSH1 0x3 PUSH1 0x20 DUP5 ADD SWAP7 DUP6 DUP9 MSTORE PUSH1 0x2 DUP2 ADD SLOAD PUSH1 0x40 DUP7 ADD MSTORE ADD SLOAD AND ISZERO ISZERO SWAP2 ADD MSTORE ISZERO PUSH2 0xC59 JUMPI PUSH2 0xC350 DUP2 MUL SWAP1 DUP1 DUP3 DIV PUSH2 0xC350 EQ DUP2 ISZERO OR ISZERO PUSH2 0xB98 JUMPI PUSH4 0x1DCD6500 MUL SWAP1 DUP1 DUP3 DIV PUSH2 0x2710 EQ SWAP1 ISZERO OR ISZERO PUSH2 0xB98 JUMPI PUSH2 0xC56 SWAP2 MLOAD SWAP1 PUSH2 0xBAE JUMP JUMPDEST SWAP1 JUMP JUMPDEST POP POP PUSH1 0x0 SWAP1 JUMP JUMPDEST PUSH1 0x1 DUP1 PUSH1 0xA0 SHL SUB AND PUSH1 0x0 MSTORE PUSH1 0x3 PUSH1 0x20 MSTORE PUSH1 0x40 PUSH1 0x0 KECCAK256 PUSH1 0x40 MLOAD SWAP1 PUSH2 0xC82 DUP3 PUSH2 0xB31 JUMP JUMPDEST DUP1 SLOAD DUP1 DUP4 MSTORE PUSH1 0xFF PUSH1 0x3 PUSH1 0x1 DUP5 ADD SLOAD SWAP4 DUP5 PUSH1 0x20 DUP8 ADD MSTORE PUSH1 0x2 DUP2 ADD SLOAD PUSH1 0x40 DUP8 ADD MSTORE ADD SLOAD AND ISZERO ISZERO PUSH1 0x60 DUP5 ADD MSTORE ISZERO PUSH2 0xC59 JUMPI PUSH1 0x6E DUP2 MUL SWAP1 DUP1 DUP3 DIV PUSH1 0x6E EQ SWAP1 ISZERO OR ISZERO PUSH2 0xB98 JUMPI PUSH2 0xC56 SWAP2 MLOAD SWAP1 PUSH2 0xBAE JUMP JUMPDEST ISZERO PUSH2 0xCD5 JUMPI JUMP JUMPDEST PUSH1 0x40 MLOAD PUSH3 0x461BCD PUSH1 0xE5 SHL DUP2 MSTORE PUSH1 0x20 PUSH1 0x4 DUP3 ADD MSTORE PUSH1 0x1D PUSH1 0x24 DUP3 ADD MSTORE PUSH32 0x416D6F756E74206D7573742062652067726561746572207468616E2030000000 PUSH1 0x44 DUP3 ADD MSTORE PUSH1 0x64 SWAP1 REVERT JUMPDEST ISZERO PUSH2 0xD21 JUMPI JUMP JUMPDEST PUSH1 0x40 MLOAD PUSH3 0x461BCD PUSH1 0xE5 SHL DUP2 MSTORE PUSH1 0x20 PUSH1 0x4 DUP3 ADD MSTORE PUSH1 0x14 PUSH1 0x24 DUP3 ADD MSTORE PUSH20 0x15985D5B1D08191BD95CC81B9BDD08195E1A5CDD PUSH1 0x62 SHL PUSH1 0x44 DUP3 ADD MSTORE PUSH1 0x64 SWAP1 REVERT JUMPDEST SWAP2 SWAP1 DUP3 ADD DUP1 SWAP3 GT PUSH2 0xB98 JUMPI JUMP JUMPDEST ISZERO PUSH2 0xD71 JUMPI JUMP JUMPDEST PUSH1 0x40 MLOAD PUSH3 0x461BCD PUSH1 0xE5 SHL DUP2 MSTORE PUSH1 0x20 PUSH1 0x4 DUP3 ADD MSTORE PUSH1 0x17 PUSH1 0x24 DUP3 ADD MSTORE PUSH32 0x496E73756666696369656E7420636F6C6C61746572616C000000000000000000 PUSH1 0x44 DUP3 ADD MSTORE PUSH1 0x64 SWAP1 REVERT JUMPDEST PUSH1 0x0 PUSH1 0x44 RETURNDATASIZE LT PUSH2 0xC56 JUMPI PUSH1 0x40 MLOAD RETURNDATASIZE PUSH1 0x3 NOT ADD PUSH1 0x4 DUP3 RETURNDATACOPY DUP1 MLOAD SWAP2 RETURNDATASIZE PUSH1 0x24 DUP5 ADD GT PUSH8 0xFFFFFFFFFFFFFFFF DUP5 GT OR PUSH2 0xE25 JUMPI DUP3 DUP3 ADD SWAP3 DUP4 MLOAD SWAP2 PUSH8 0xFFFFFFFFFFFFFFFF DUP4 GT PUSH2 0xE1D JUMPI RETURNDATASIZE DUP5 ADD PUSH1 0x3 NOT ADD DUP6 DUP5 ADD PUSH1 0x20 ADD GT PUSH2 0xE1D JUMPI POP PUSH2 0xC56 SWAP3 SWAP2 ADD PUSH1 0x20 ADD SWAP1 PUSH2 0xB63 JUMP JUMPDEST SWAP5 SWAP4 POP POP POP POP JUMP JUMPDEST SWAP3 SWAP2 POP POP JUMP JUMPDEST PUSH1 0x0 JUMPDEST DUP4 DUP2 LT PUSH2 0xE3E JUMPI POP POP PUSH1 0x0 SWAP2 ADD MSTORE JUMP JUMPDEST DUP2 DUP2 ADD MLOAD DUP4 DUP3 ADD MSTORE PUSH1 0x20 ADD PUSH2 0xE2E JUMP JUMPDEST SWAP2 SWAP1 DUP3 SUB SWAP2 DUP3 GT PUSH2 0xB98 JUMPI JUMP JUMPDEST PUSH1 0x1 DUP1 PUSH1 0xA0 SHL SUB AND PUSH1 0x0 MSTORE PUSH1 0x3 PUSH1 0x20 MSTORE PUSH1 0x40 PUSH1 0x0 KECCAK256 PUSH1 0x40 MLOAD SWAP1 PUSH2 0xE7D DUP3 PUSH2 0xB31 JUMP JUMPDEST DUP1 SLOAD DUP1 DUP4 MSTORE PUSH1 0xFF PUSH1 0x3 PUSH1 0x1 DUP5 ADD SLOAD SWAP4 DUP5 PUSH1 0x20 DUP8 ADD MSTORE PUSH1 0x2 DUP2 ADD SLOAD PUSH1 0x40 DUP8 ADD MSTORE ADD SLOAD AND ISZERO DUP1 ISZERO SWAP1 DUP2 PUSH1 0x60 DUP7 ADD MSTORE SWAP1 PUSH2 0xEF1 JUMPI JUMPDEST PUSH2 0xEE9 JUMPI DUP2 ISZERO PUSH2 0xEE3 JUMPI POP DUP1 PUSH1 0x6E MUL SWAP1 PUSH1 0x6E DUP3 DIV SUB PUSH2 0xB98 JUMPI PUSH4 0x1DCD6500 SWAP1 DIV SWAP1 MLOAD SWAP1 DUP1 DUP3 GT ISZERO PUSH2 0xC59 JUMPI PUSH2 0xC56 SWAP2 PUSH2 0xE4E JUMP JUMPDEST SWAP2 POP POP SWAP1 JUMP JUMPDEST POP POP POP PUSH1 0x0 SWAP1 JUMP JUMPDEST POP DUP1 ISZERO PUSH2 0xEAF JUMP JUMPDEST PUSH1 0x1 DUP1 PUSH1 0xA0 SHL SUB AND PUSH1 0x0 MSTORE PUSH1 0x3 PUSH1 0x20 MSTORE PUSH1 0x40 PUSH1 0x0 KECCAK256 PUSH1 0x40 MLOAD SWAP1 PUSH2 0xF1B DUP3 PUSH2 0xB31 JUMP JUMPDEST DUP1 SLOAD DUP3 MSTORE PUSH1 0x60 PUSH1 0x1 DUP3 ADD SLOAD PUSH1 0x20 DUP5 ADD SWAP4 DUP2 DUP6 MSTORE PUSH1 0xFF PUSH1 0x3 PUSH1 0x2 DUP7 ADD SLOAD SWAP6 DUP7 PUSH1 0x40 DUP6 ADD MSTORE ADD SLOAD AND ISZERO SWAP1 DUP2 ISZERO SWAP4 DUP5 SWAP2 ADD MSTORE SWAP2 PUSH2 0xF91 JUMPI JUMPDEST POP PUSH2 0xC59 JUMPI PUSH2 0xF5F SWAP1 TIMESTAMP PUSH2 0xE4E JUMP JUMPDEST SWAP1 DUP1 MLOAD SWAP2 PUSH1 0xFA DUP4 MUL SWAP3 DUP1 DUP5 DIV PUSH1 0xFA EQ SWAP1 ISZERO OR ISZERO PUSH2 0xB98 JUMPI PUSH2 0xF89 PUSH5 0x496CEBB800 SWAP2 PUSH2 0xC56 SWAP5 PUSH2 0xB85 JUMP JUMPDEST DIV SWAP1 MLOAD PUSH2 0xD5D JUMP JUMPDEST SWAP1 POP ISZERO CODESIZE PUSH2 0xF50 JUMP JUMPDEST PUSH1 0x40 MLOAD PUSH4 0x15A3BA43 PUSH1 0xE0 SHL DUP2 MSTORE PUSH1 0x1 PUSH1 0x1 PUSH1 0xA0 SHL SUB SWAP1 SWAP2 AND PUSH1 0x4 DUP3 ADD MSTORE PUSH1 0x20 DUP2 PUSH1 0x24 DUP2 ADDRESS GAS STATICCALL SWAP1 DUP2 ISZERO PUSH2 0x1023 JUMPI PUSH1 0x0 SWAP2 PUSH2 0xFF1 JUMPI JUMPDEST POP DUP1 ISZERO PUSH2 0xFEB JUMPI PUSH1 0x64 DUP2 MUL SWAP1 DUP2 DIV PUSH1 0x64 SUB PUSH2 0xB98 JUMPI PUSH1 0x6E SWAP1 DIV SWAP1 JUMP JUMPDEST POP PUSH1 0x0 SWAP1 JUMP JUMPDEST SWAP1 PUSH1 0x20 DUP3 RETURNDATASIZE PUSH1 0x20 GT PUSH2 0x101B JUMPI JUMPDEST DUP2 PUSH2 0x100B PUSH1 0x20 SWAP4 DUP4 PUSH2 0xB63 JUMP JUMPDEST DUP2 ADD SUB SLT PUSH2 0x15B JUMPI POP MLOAD CODESIZE PUSH2 0xFCF JUMP JUMPDEST RETURNDATASIZE SWAP2 POP PUSH2 0xFFE JUMP JUMPDEST PUSH1 0x40 MLOAD RETURNDATASIZE PUSH1 0x0 DUP3 RETURNDATACOPY RETURNDATASIZE SWAP1 REVERT JUMPDEST PUSH1 0x2 PUSH1 0x0 SLOAD EQ PUSH2 0x1040 JUMPI PUSH1 0x2 PUSH1 0x0 SSTORE JUMP JUMPDEST PUSH4 0x3EE5AEB5 PUSH1 0xE0 SHL PUSH1 0x0 MSTORE PUSH1 0x4 PUSH1 0x0 REVERT JUMPDEST PUSH1 0x1 PUSH1 0x1 PUSH1 0xA0 SHL SUB AND PUSH1 0x0 SWAP1 DUP2 MSTORE PUSH1 0x3 PUSH1 0x20 MSTORE PUSH1 0x40 SWAP1 KECCAK256 PUSH1 0x1 DUP2 ADD DUP1 SLOAD SWAP2 DUP3 ISZERO PUSH2 0x10B5 JUMPI PUSH1 0x2 ADD SWAP2 PUSH2 0x1084 DUP4 SLOAD TIMESTAMP PUSH2 0xE4E JUMP JUMPDEST SWAP1 PUSH1 0xFA DUP2 MUL SWAP2 DUP2 DUP4 DIV PUSH1 0xFA SUB PUSH2 0xB98 JUMPI PUSH2 0x10A7 PUSH5 0x496CEBB800 SWAP2 PUSH2 0x10AE SWAP5 PUSH2 0xB85 JUMP JUMPDEST DIV SWAP1 PUSH2 0xD5D JUMP JUMPDEST SWAP1 SSTORE TIMESTAMP SWAP1 SSTORE JUMP JUMPDEST POP POP POP JUMP JUMPDEST DUP2 ISZERO PUSH2 0x10FC JUMPI PUSH2 0xC350 DUP2 MUL SWAP1 DUP1 DUP3 DIV PUSH2 0xC350 EQ DUP2 ISZERO OR ISZERO PUSH2 0xB98 JUMPI PUSH4 0x1DCD6500 MUL SWAP1 DUP1 DUP3 DIV PUSH2 0x2710 EQ SWAP1 ISZERO OR ISZERO PUSH2 0xB98 JUMPI PUSH1 0x6E SWAP2 PUSH2 0x10F7 SWAP2 PUSH2 0xBAE JUMP JUMPDEST LT ISZERO SWAP1 JUMP JUMPDEST POP POP PUSH1 0x1 SWAP1 JUMP JUMPDEST PUSH1 0x1 SLOAD PUSH1 0x1 PUSH1 0x1 PUSH1 0xA0 SHL SUB AND CALLER SUB PUSH2 0x1117 JUMPI JUMP JUMPDEST PUSH4 0x118CDAA7 PUSH1 0xE0 SHL PUSH1 0x0 MSTORE CALLER PUSH1 0x4 MSTORE PUSH1 0x24 PUSH1 0x0 REVERT INVALID LOG2 PUSH5 0x6970667358 0x22 SLT KECCAK256 NUMBER 0xAF 0xD1 0xC7 ADDMOD LOG1 BASEFEE SWAP11 0xE 0xD9 0xB5 0xE POP 0xB6 PUSH9 0xDC86DB8403AABBA0B8 0xD0 0x29 KECCAK256 0xE9 DUP3 SWAP6 REVERT PUSH23 0x64736F6C634300081C0033000000000000000000000000 "},"methodIdentifiers":{"BTC_PRICE_USD()":"154fefc2","INTEREST_RATE()":"5b72a33a","MIN_COLLATERAL_RATIO()":"7a9fffb7","borrowMUSD(uint256)":"211f0277","depositCollateral(uint256)":"bad4a01f","emergencyWithdraw()":"db2e21bc","getBorrowedAmount(address)":"b9f2c7b5","getCollateralBalance(address)":"2703ee85","getCollateralRatio(address)":"15a3ba43","getCurrentDebt(address)":"b86ef1cc","getHealthFactor(address)":"fe6bcd7c","getInterestRate()":"5257b566","getLiquidationPrice(address)":"17d8de82","getMaxWithdrawable(address)":"652f3a3f","musdToken()":"9d78d46b","owner()":"8da5cb5b","renounceOwnership()":"715018a6","repayMUSD(uint256)":"78f3ef22","totalBorrowed()":"4c19386c","totalCollateral()":"4ac8eb5f","transferOwnership(address)":"f2fde38b","vaults(address)":"a622ee7c","withdrawCollateral(uint256)":"6112fe2e"}}}}}