{"contracts/InvoiceContract.sol":{"InvoiceContract":{"abi":[{"anonymous":false,"inputs":[{"indexed":true,"internalType":"uint256","name":"id","type":"uint256"},{"indexed":false,"internalType":"uint256","name":"timestamp","type":"uint256"}],"name":"InvoiceCancelled","type":"event"},{"anonymous":false,"inputs":[{"indexed":true,"internalType":"uint256","name":"id","type":"uint256"},{"indexed":true,"internalType":"address","name":"creator","type":"address"},{"indexed":true,"internalType":"address","name":"recipient","type":"address"},{"indexed":false,"internalType":"uint256","name":"amount","type":"uint256"},{"indexed":false,"internalType":"string","name":"bitcoinAddress","type":"string"},{"indexed":false,"internalType":"string","name":"clientName","type":"string"},{"indexed":false,"internalType":"string","name":"payToAddress","type":"string"},{"indexed":false,"internalType":"string","name":"currency","type":"string"},{"indexed":false,"internalType":"uint256","name":"expiresAt","type":"uint256"}],"name":"InvoiceCreated","type":"event"},{"anonymous":false,"inputs":[{"indexed":true,"internalType":"uint256","name":"id","type":"uint256"},{"indexed":false,"internalType":"uint256","name":"amount","type":"uint256"},{"indexed":false,"internalType":"uint256","name":"timestamp","type":"uint256"},{"indexed":false,"internalType":"string","name":"paymentTxHash","type":"string"},{"indexed":false,"internalType":"string","name":"observedInboundAmount","type":"string"}],"name":"InvoicePaid","type":"event"},{"inputs":[{"internalType":"uint256","name":"_id","type":"uint256"}],"name":"cancelInvoice","outputs":[],"stateMutability":"nonpayable","type":"function"},{"inputs":[{"internalType":"uint256","name":"_id","type":"uint256"},{"internalType":"string","name":"_paymentTxHash","type":"string"},{"internalType":"string","name":"_observedInboundAmount","type":"string"}],"name":"confirmPayment","outputs":[],"stateMutability":"nonpayable","type":"function"},{"inputs":[{"internalType":"address payable","name":"_recipient","type":"address"},{"internalType":"uint256","name":"_amount","type":"uint256"},{"internalType":"string","name":"_description","type":"string"},{"internalType":"string","name":"_bitcoinAddress","type":"string"},{"internalType":"string","name":"_clientName","type":"string"},{"internalType":"string","name":"_clientCode","type":"string"},{"internalType":"uint256","name":"_expiresAt","type":"uint256"},{"internalType":"string","name":"_payToAddress","type":"string"},{"internalType":"string","name":"_currency","type":"string"},{"internalType":"string","name":"_balanceAtCreation","type":"string"}],"name":"createInvoice","outputs":[{"internalType":"uint256","name":"","type":"uint256"}],"stateMutability":"nonpayable","type":"function"},{"inputs":[],"name":"getAllInvoices","outputs":[{"components":[{"internalType":"uint256","name":"id","type":"uint256"},{"internalType":"address payable","name":"creator","type":"address"},{"internalType":"address payable","name":"recipient","type":"address"},{"internalType":"uint256","name":"amount","type":"uint256"},{"internalType":"string","name":"description","type":"string"},{"internalType":"string","name":"bitcoinAddress","type":"string"},{"internalType":"string","name":"clientName","type":"string"},{"internalType":"string","name":"clientCode","type":"string"},{"internalType":"bool","name":"paid","type":"bool"},{"internalType":"bool","name":"cancelled","type":"bool"},{"internalType":"uint256","name":"createdAt","type":"uint256"},{"internalType":"uint256","name":"paidAt","type":"uint256"},{"internalType":"uint256","name":"expiresAt","type":"uint256"},{"internalType":"string","name":"payToAddress","type":"string"},{"internalType":"string","name":"paymentTxHash","type":"string"},{"internalType":"string","name":"observedInboundAmount","type":"string"},{"internalType":"string","name":"currency","type":"string"},{"internalType":"string","name":"balanceAtCreation","type":"string"}],"internalType":"struct InvoiceContract.Invoice[]","name":"","type":"tuple[]"}],"stateMutability":"view","type":"function"},{"inputs":[{"internalType":"uint256","name":"_id","type":"uint256"}],"name":"getInvoice","outputs":[{"components":[{"internalType":"uint256","name":"id","type":"uint256"},{"internalType":"address payable","name":"creator","type":"address"},{"internalType":"address payable","name":"recipient","type":"address"},{"internalType":"uint256","name":"amount","type":"uint256"},{"internalType":"string","name":"description","type":"string"},{"internalType":"string","name":"bitcoinAddress","type":"string"},{"internalType":"string","name":"clientName","type":"string"},{"internalType":"string","name":"clientCode","type":"string"},{"internalType":"bool","name":"paid","type":"bool"},{"internalType":"bool","name":"cancelled","type":"bool"},{"internalType":"uint256","name":"createdAt","type":"uint256"},{"internalType":"uint256","name":"paidAt","type":"uint256"},{"internalType":"uint256","name":"expiresAt","type":"uint256"},{"internalType":"string","name":"payToAddress","type":"string"},{"internalType":"string","name":"paymentTxHash","type":"string"},{"internalType":"string","name":"observedInboundAmount","type":"string"},{"internalType":"string","name":"currency","type":"string"},{"internalType":"string","name":"balanceAtCreation","type":"string"}],"internalType":"struct InvoiceContract.Invoice","name":"","type":"tuple"}],"stateMutability":"view","type":"function"},{"inputs":[{"internalType":"bool","name":"includePaid","type":"bool"},{"internalType":"bool","name":"includeCancelled","type":"bool"}],"name":"getInvoicesByStatus","outputs":[{"internalType":"uint256[]","name":"","type":"uint256[]"}],"stateMutability":"view","type":"function"},{"inputs":[{"internalType":"address","name":"_user","type":"address"}],"name":"getPaidInvoices","outputs":[{"internalType":"uint256[]","name":"","type":"uint256[]"}],"stateMutability":"view","type":"function"},{"inputs":[{"internalType":"address","name":"_user","type":"address"}],"name":"getPendingAmount","outputs":[{"internalType":"uint256","name":"","type":"uint256"}],"stateMutability":"view","type":"function"},{"inputs":[{"internalType":"address","name":"_user","type":"address"}],"name":"getPendingInvoices","outputs":[{"internalType":"uint256[]","name":"","type":"uint256[]"}],"stateMutability":"view","type":"function"},{"inputs":[{"internalType":"address","name":"_user","type":"address"}],"name":"getTotalRevenue","outputs":[{"internalType":"uint256","name":"","type":"uint256"}],"stateMutability":"view","type":"function"},{"inputs":[{"internalType":"address","name":"_user","type":"address"}],"name":"getUserInvoiceCount","outputs":[{"internalType":"uint256","name":"","type":"uint256"}],"stateMutability":"view","type":"function"},{"inputs":[{"internalType":"address","name":"_user","type":"address"}],"name":"getUserInvoices","outputs":[{"internalType":"uint256[]","name":"","type":"uint256[]"}],"stateMutability":"view","type":"function"},{"inputs":[],"name":"invoiceCount","outputs":[{"internalType":"uint256","name":"","type":"uint256"}],"stateMutability":"view","type":"function"},{"inputs":[{"internalType":"uint256","name":"","type":"uint256"}],"name":"invoices","outputs":[{"internalType":"uint256","name":"id","type":"uint256"},{"internalType":"address payable","name":"creator","type":"address"},{"internalType":"address payable","name":"recipient","type":"address"},{"internalType":"uint256","name":"amount","type":"uint256"},{"internalType":"string","name":"description","type":"string"},{"internalType":"string","name":"bitcoinAddress","type":"string"},{"internalType":"string","name":"clientName","type":"string"},{"internalType":"string","name":"clientCode","type":"string"},{"internalType":"bool","name":"paid","type":"bool"},{"internalType":"bool","name":"cancelled","type":"bool"},{"internalType":"uint256","name":"createdAt","type":"uint256"},{"internalType":"uint256","name":"paidAt","type":"uint256"},{"internalType":"uint256","name":"expiresAt","type":"uint256"},{"internalType":"string","name":"payToAddress","type":"string"},{"internalType":"string","name":"paymentTxHash","type":"string"},{"internalType":"string","name":"observedInboundAmount","type":"string"},{"internalType":"string","name":"currency","type":"string"},{"internalType":"string","name":"balanceAtCreation","type":"string"}],"stateMutability":"view","type":"function"},{"inputs":[{"internalType":"address","name":"","type":"address"},{"internalType":"uint256","name":"","type":"uint256"}],"name":"userInvoices","outputs":[{"internalType":"uint256","name":"","type":"uint256"}],"stateMutability":"view","type":"function"}],"evm":{"bytecode":{"linkReferences":{},"object":"6080806040523460155761257f908161001b8239f35b600080fdfe610100604052600436101561001357600080fd5b60003560e01c80630ad6b0a514611f185780631346f0c414611efa57806321e2a79114611ec057806324d3b3e214611e3d5780632542a1f914611d1a5780633a23cc0a14611cb357806349567e0114611be65780634e6d1405146119db578063511656db14610c39578063570bdad614610b0a5780637571af22146109ea57806396c579fa146108a0578063da9c273d146106ef578063e3f1a28d146105495763ea20f362146100c257600080fd5b34610544576060366003190112610544576004356024356001600160401b038111610544576100f590369060040161228f565b906044356001600160401b0381116105445761011590369060040161228f565b9181151580610538575b610128906123dc565b6000828152602081905260409020600101546001600160a01b031633036104e25781600052600060205260ff600860406000200154166104a65781600052600060205260ff60086040600020015460081c1661046a57600082815260208190526040902060088101805460ff1916600117905542600a8201558151600d909101906001600160401b03811161039e576101c18254612174565b601f8111610422575b50806020601f82116001146103bf576000916103b4575b508160011b916000199060031b1c19161790555b816000526000602052600e604060002001928051936001600160401b03851161039e576102228154612174565b601f8111610356575b506020601f86116001146102d05794807f261990519d41077a811fccda6680889d2ad9a7d4ae275f44d741c9364c2a370195966000916102c5575b508160011b916000199060031b1c19161790555b8360005260006020526102c0600360406000200154916102b26040519485948552426020860152608060408601526080850190611fef565b908382036060850152611fef565b0390a2005b905083015138610266565b601f1986169082600052806000209160005b81811061033e57509187917f261990519d41077a811fccda6680889d2ad9a7d4ae275f44d741c9364c2a3701979860019410610325575b5050811b01905561027a565b85015160001960f88460031b161c191690553880610319565b919260206001819286890151815501940192016102e2565b816000526020600020601f870160051c81019160208810610394575b601f0160051c01905b818110610388575061022b565b6000815560010161037b565b9091508190610372565b634e487b7160e01b600052604160045260246000fd5b9050830151386101e1565b60008481528181209250601f198416905b81811061040a575090836001949392106103f1575b5050811b0190556101f5565b85015160001960f88460031b161c1916905538806103e5565b9192602060018192868a0151815501940192016103d0565b826000526020600020601f830160051c81019160208410610460575b601f0160051c01905b81811061045457506101ca565b60008155600101610447565b909150819061043e565b60405162461bcd60e51b8152602060048201526014602482015273125b9d9bda58d9481a5cc818d85b98d95b1b195960621b6044820152606490fd5b60405162461bcd60e51b8152602060048201526014602482015273125b9d9bda58d948185b1c9958591e481c185a5960621b6044820152606490fd5b60405162461bcd60e51b815260206004820152602860248201527f4f6e6c7920696e766f6963652063726561746f722063616e20636f6e6669726d604482015267081c185e5b595b9d60c21b6064820152608490fd5b5060025482111561011f565b600080fd5b34610544576020366003190112610544576001600160a01b0361056a611f71565b16600052600160205260406000206040518082602082945493848152019060005260206000209260005b8181106106d65750506105a9925003826121ca565b6000805b8251811015610626576105c081846122e5565b51600052600060205260ff6008604060002001541615806105fd575b6105e9575b6001016105ad565b906105f56001916122f9565b9190506105e1565b5061060881846122e5565b51600052600060205260ff60086040600020015460081c16156105dc565b506106309061231f565b906000805b82518110156106c45761064881846122e5565b51600052600060205260ff60086040600020015416158061069b575b610671575b600101610635565b9061069360019161068284866122e5565b5161068d82886122e5565b526122f9565b919050610669565b506106a681846122e5565b51600052600060205260ff60086040600020015460081c1615610664565b604051806106d28682611fb5565b0390f35b8454835260019485019486945060209093019201610594565b346105445760203660031901126105445760043580151580610894575b610715906123dc565b6000818152602081905260409020600101546001600160a01b0316330361083f5780600052600060205260ff600860406000200154166107fa5780600052600060205260ff60086040600020015460081c166107b557806000526000602052600860406000200161010061ff00198254161790557fedaa303e89ee281697ba652192508238167c1d6bb056355d8daacf9887d946976020604051428152a2005b60405162461bcd60e51b815260206004820152601960248201527f496e766f69636520616c72656164792063616e63656c6c6564000000000000006044820152606490fd5b60405162461bcd60e51b815260206004820152601a60248201527f43616e6e6f742063616e63656c207061696420696e766f6963650000000000006044820152606490fd5b60405162461bcd60e51b815260206004820152602760248201527f4f6e6c7920696e766f6963652063726561746f722063616e2063616e63656c20604482015266696e766f69636560c81b6064820152608490fd5b5060025481111561070c565b346105445760403660031901126105445760043580151581036105445760243580151581036105445790600254916108d78361231f565b926000926001925b8284111561092a5785856108f28161231f565b9160005b82811061090b57604051806106d28682611fb5565b80610918600192846122e5565b5161092382876122e5565b52016108f6565b6000848152602081905260409020600890810154949593949293919260ff9181901c8216911680806109e3575b1561097e575050610970818661068d610976948a6122e5565b946122f9565b9291906108df565b81806109dc575b1561099e575050610970818661068d610976948a6122e5565b9591951590816109d3575b506109b8575b610976906122f9565b936109cb818661068d610976948a6122e5565b9490506109af565b905015876109a9565b5083610985565b5084610957565b34610544576020366003190112610544576001600160a01b03610a0b611f71565b16600052600160205260406000206040518082602082945493848152019060005260206000209260005b818110610af1575050610a4a925003826121ca565b60009060005b8151811015610ae657610a6381836122e5565b51600052600060205260ff600860406000200154161580610abd575b610a8c575b600101610a50565b91610ab5600191610a9d85856122e5565b5160005260006020526003604060002001549061253c565b929050610a84565b50610ac881836122e5565b51600052600060205260ff60086040600020015460081c1615610a7f565b602083604051908152f35b8454835260019485019486945060209093019201610a35565b3461054457600036600319011261054457600254610b2781612308565b90610b3560405192836121ca565b808252601f19610b4482612308565b0160005b818110610c2257505060015b81811115610bc457826040518091602082016020835281518091526040830190602060408260051b8601019301916000905b828210610b9557505050500390f35b91936001919395506020610bb48192603f198a82030186528851612030565b9601920192018594939192610b86565b806000526000602052604060002090600019810191818311610c0c57610c0792610bf0610c019261241d565b610bfa82886122e5565b52856122e5565b506122f9565b610b54565b634e487b7160e01b600052601160045260246000fd5b602090610c2d612351565b82828701015201610b48565b3461054457610140366003190112610544576004356001600160a01b0381168103610544576044356001600160401b03811161054457610c7d90369060040161228f565b906064356001600160401b03811161054457610c9d90369060040161228f565b906084356001600160401b03811161054457610cbd90369060040161228f565b9060a4356001600160401b03811161054457610cdd90369060040161228f565b9260e4356001600160401b03811161054457610cfd90369060040161228f565b92610104356001600160401b03811161054457610d1e90369060040161228f565b91610124356001600160401b03811161054457610d3f90369060040161228f565b96610d4b6002546122f9565b968760025560405191610d5d836121ae565b88835233602084015260018060a01b0387166040840152602435606084015260808301528260a08301528360c083015260e08201526000610100820152600061012082015242610140820152600061016082015260c435610180820152856101a0820152602097604051610dd18a826121ca565b600081526101c0830152604051610de88a826121ca565b60008082526101e084019190915261020083018690526102208301919091528781528089526040908190208251815560208301516001820180546001600160a01b03199081166001600160a01b0393841617909155928401516002830180549094169116179091556060820151600382015560808201518051906001600160401b03821161039e578190610e7f6004850154612174565b601f811161198a575b508b90601f831160011461191c57600092611911575b50508160011b916000199060031b1c19161760048201555b60a08201518051906001600160401b03821161039e578190610edb6005850154612174565b601f81116118c0575b508b90601f831160011461185257600092611847575b50508160011b916000199060031b1c19161760058201555b60c08201518051906001600160401b03821161039e578190610f376006850154612174565b601f81116117f6575b508b90601f83116001146117885760009261177d575b50508160011b916000199060031b1c19161760068201555b60e08201518051906001600160401b03821161039e578190610f936007850154612174565b601f811161172c575b508b90601f83116001146116be576000926116b3575b50508160011b916000199060031b1c19161760078201555b60088101610100830151151560ff80198354169116178155610120830151151561ff0082549160081b169061ff0019161790556101408201516009820155610160820151600a820155610180820151600b8201556101a08201518051906001600160401b03821161039e578190611044600c850154612174565b601f8111611662575b508b90601f83116001146115f4576000926115e9575b50508160011b916000199060031b1c191617600c8201555b6101c08201518051906001600160401b03821161039e5781906110a1600d850154612174565b601f8111611598575b508b90601f831160011461152a5760009261151f575b50508160011b916000199060031b1c191617600d8201555b6101e08201518051906001600160401b03821161039e5781906110fe600e850154612174565b601f81116114ce575b508b90601f831160011461146057600092611455575b50508160011b916000199060031b1c191617600e8201555b600f81016102008301518051906001600160401b03821161039e578b61115b8454612174565b601f811161140d575b50508b908c601f841160011461139d57509180601094926102209694600092611392575b50508160011b916000199060031b1c19161790555b019101518051906001600160401b03821161039e5781906111be8454612174565b601f8111611341575b508a90601f83116001146112dc576000926112d1575b50508160011b916000199060031b1c19161790555b33600052600187526040600020928354916801000000000000000083101561039e5788966112927f6b007c52cce1ea806e675913586ecd79214160b00f30204fdc38092b60ca07a0956112846112a094611256888e9b60016112ae9b018155611f87565b81549060031b908c821b91600019901b191617905560c06040519c8d60243590528d015260c08c0190611fef565b908a820360408c0152611fef565b9088820360608a0152611fef565b908682036080880152611fef565b60c43560a08601526001600160a01b0390931693339381900390a4604051908152f35b015190508a806111dd565b60008581528c81209350601f198516905b8d82821061132b575050908460019594939210611312575b505050811b0190556111f2565b015160001960f88460031b161c191690558a8080611305565b60018596829396860151815501950193016112ed565b909150836000528a600020601f840160051c8101918c8510611388575b90601f859493920160051c01905b81811061137957506111c7565b6000815584935060010161136c565b909150819061135e565b015190508e80611188565b9190601f1984168560005283600020936000905b8282106113f5575050926001928592610220989660109896106113dc575b505050811b01905561119d565b015160001960f88460031b161c191690558e80806113cf565b806001869782949787015181550196019401906113b1565b846000528160002090601f850160051c820192851061144b575b601f0160051c01905b81811061143f578d9150611164565b60008155600101611430565b9091508190611427565b015190508b8061111d565b600e850160009081528d81209350601f198516908e5b8282106114b657505090846001959493921061149d575b505050811b01600e820155611135565b015160001960f88460031b161c191690558b808061148d565b80600186978294978701518155019601940190611476565b909150600e84016000528b600020601f840160051c81018d8510611518575b90849392915b601f830160051c82018110611509575050611107565b600081558594506001016114f3565b50806114ed565b015190508b806110c0565b600d850160009081528d81209350601f198516908e5b828210611580575050908460019594939210611567575b505050811b01600d8201556110d8565b015160001960f88460031b161c191690558b8080611557565b80600186978294978701518155019601940190611540565b909150600d84016000528b600020601f840160051c81018d85106115e2575b90849392915b601f830160051c820181106115d35750506110aa565b600081558594506001016115bd565b50806115b7565b015190508b80611063565b600c850160009081528d81209350601f198516908e5b82821061164a575050908460019594939210611631575b505050811b01600c82015561107b565b015160001960f88460031b161c191690558b8080611621565b8060018697829497870151815501960194019061160a565b909150600c84016000528b600020601f840160051c81018d85106116ac575b90849392915b601f830160051c8201811061169d57505061104d565b60008155859450600101611687565b5080611681565b015190508b80610fb2565b6007850160009081528d81209350601f198516908e5b8282106117145750509084600195949392106116fb575b505050811b016007820155610fca565b015160001960f88460031b161c191690558b80806116eb565b806001869782949787015181550196019401906116d4565b909150600784016000528b600020601f840160051c81018d8510611776575b90849392915b601f830160051c82018110611767575050610f9c565b60008155859450600101611751565b508061174b565b015190508b80610f56565b6006850160009081528d81209350601f198516908e5b8282106117de5750509084600195949392106117c5575b505050811b016006820155610f6e565b015160001960f88460031b161c191690558b80806117b5565b8060018697829497870151815501960194019061179e565b909150600684016000528b600020601f840160051c81018d8510611840575b90849392915b601f830160051c82018110611831575050610f40565b6000815585945060010161181b565b5080611815565b015190508b80610efa565b6005850160009081528d81209350601f198516908e5b8282106118a857505090846001959493921061188f575b505050811b016005820155610f12565b015160001960f88460031b161c191690558b808061187f565b80600186978294978701518155019601940190611868565b909150600584016000528b600020601f840160051c81018d851061190a575b90849392915b601f830160051c820181106118fb575050610ee4565b600081558594506001016118e5565b50806118df565b015190508b80610e9e565b6004850160009081528d81209350601f198516908e5b828210611972575050908460019594939210611959575b505050811b016004820155610eb6565b015160001960f88460031b161c191690558b8080611949565b80600186978294978701518155019601940190611932565b909150600484016000528b600020601f840160051c81018d85106119d4575b90849392915b601f830160051c820181106119c5575050610e88565b600081558594506001016119af565b50806119a9565b3461054457602036600319011261054457600480356000908152602081905260409020805460018201546001600160a01b0390811660a05260028301541660e05260038201549192839290611a319084016121eb565b611a3d600585016121eb565b90611a4a600686016121eb565b91611a57600787016121eb565b92600887015493600988015491600a89015493600b8a015495600c8b01611a7d906121eb565b98611a8a600d8d016121eb565b9a611a97600e8e016121eb565b9c600f01611aa4906121eb565b9d601001611ab1906121eb565b60805260405160c05260c0515260a05160c0516020015260e05160c0516040015260c0516060015260c051608001610240905260c05161024001611af491611fef565b60c051810360c05160a00152611b0991611fef565b60c051810360c05160c00152611b1e91611fef565b60c051810360c05160e00152611b3391611fef565b9360ff8116151560c051610100015260081c60ff16151560c051610120015260c051610140015260c051610160015260c051610180015260c051810360c0516101a00152611b8091611fef565b60c051810360c0516101c00152611b9691611fef565b60c051810360c0516101e00152611bac91611fef565b60c051810360c0516102000152611bc291611fef565b60c051810360c051610220015260c0519060805190611be091611fef565b0360c051f35b34610544576020366003190112610544576001600160a01b03611c07611f71565b16600052600160205260406000206040518082602082945493848152019060005260206000209260005b818110611c9a575050611c46925003826121ca565b60009060005b8151811015610ae657611c5f81836122e5565b51600052600060205260ff60086040600020015416611c81575b600101611c4c565b91611c92600191610a9d85856122e5565b929050611c79565b8454835260019485019486945060209093019201611c31565b3461054457602036600319011261054457600435611ccf612351565b5080151580611d0e575b611ce2906123dc565b60005260006020526106d2611cfa604060002061241d565b604051918291602083526020830190612030565b50600254811115611cd9565b34610544576020366003190112610544576001600160a01b03611d3b611f71565b16600052600160205260406000206040518082602082945493848152019060005260206000209260005b818110611e24575050611d7a925003826121ca565b6000805b8251811015611dc757611d9181846122e5565b51600052600060205260ff60086040600020015416611db3575b600101611d7e565b90611dbf6001916122f9565b919050611dab565b50611dd19061231f565b906000805b82518110156106c457611de981846122e5565b51600052600060205260ff60086040600020015416611e0b575b600101611dd6565b90611e1c60019161068284866122e5565b919050611e03565b8454835260019485019486945060209093019201611d65565b34610544576020366003190112610544576001600160a01b03611e5e611f71565b166000526001602052604060002060405190816020825491828152019160005260206000209060005b818110611eaa576106d285611e9e818703826121ca565b60405191829182611fb5565b8254845260209093019260019283019201611e87565b34610544576020366003190112610544576001600160a01b03611ee1611f71565b1660005260016020526020604060002054604051908152f35b34610544576000366003190112610544576020600254604051908152f35b3461054457604036600319011261054457611f31611f71565b6001600160a01b031660009081526001602052604090208054602435919082101561054457602091611f6291611f87565b90549060031b1c604051908152f35b600435906001600160a01b038216820361054457565b8054821015611f9f5760005260206000200190600090565b634e487b7160e01b600052603260045260246000fd5b602060408183019282815284518094520192019060005b818110611fd95750505090565b8251845260209384019390920191600101611fcc565b919082519283825260005b84811061201b575050826000602080949584010152601f8019910116010190565b80602080928401015182828601015201611ffa565b612171918151815260018060a01b03602083015116602082015260018060a01b0360408301511660408201526060820151606082015261022061215f61214b6121376121236120cf6120bd6120ab61209960808b015161024060808c01526102408b0190611fef565b60a08b01518a820360a08c0152611fef565b60c08a015189820360c08b0152611fef565b60e089015188820360e08a0152611fef565b610100880151151561010088015261012088015115156101208801526101408801516101408801526101608801516101608801526101808801516101808801526101a08801518782036101a0890152611fef565b6101c08701518682036101c0880152611fef565b6101e08601518582036101e0870152611fef565b610200850151848203610200860152611fef565b92015190610220818403910152611fef565b90565b90600182811c921680156121a4575b602083101461218e57565b634e487b7160e01b600052602260045260246000fd5b91607f1691612183565b61024081019081106001600160401b0382111761039e57604052565b90601f801991011681019081106001600160401b0382111761039e57604052565b90604051918260008254926121ff84612174565b808452936001811690811561226d5750600114612226575b50612224925003836121ca565b565b90506000929192526020600020906000915b8183106122515750509060206122249282010138612217565b6020919350806001915483858901015201910190918492612238565b90506020925061222494915060ff191682840152151560051b82010138612217565b81601f82011215610544578035906001600160401b03821161039e57604051926122c3601f8401601f1916602001856121ca565b8284526020838301011161054457816000926020809301838601378301015290565b8051821015611f9f5760209160051b010190565b6000198114610c0c5760010190565b6001600160401b03811161039e5760051b60200190565b9061232982612308565b61233660405191826121ca565b8281528092612347601f1991612308565b0190602036910137565b6040519061235e826121ae565b6060610220836000815260006020820152600060408201526000838201528260808201528260a08201528260c08201528260e082015260006101008201526000610120820152600061014082015260006101608201526000610180820152826101a0820152826101c0820152826101e0820152826102008201520152565b156123e357565b60405162461bcd60e51b8152602060048201526012602482015271125b9d985b1a59081a5b9d9bda58d948125160721b6044820152606490fd5b9060405161242a816121ae565b8254815260018301546001600160a01b0390811660208301526002840154166040820152600383015460608201529182906102209061253790601090612472600482016121eb565b6080860152612483600582016121eb565b60a0860152612494600682016121eb565b60c08601526124a5600782016121eb565b60e086015260ff6008820154818116151561010088015260081c1615156101208601526009810154610140860152600a810154610160860152600b8101546101808601526124f5600c82016121eb565b6101a0860152612507600d82016121eb565b6101c0860152612519600e82016121eb565b6101e086015261252b600f82016121eb565b610200860152016121eb565b910152565b91908201809211610c0c5756fea2646970667358221220f475284050c4d6d4f10e343daee9153e2a75ba042868d1918b7c3c9d4b9f0a1e64736f6c634300081c0033","opcodes":"PUSH1 0x80 DUP1 PUSH1 0x40 MSTORE CALLVALUE PUSH1 0x15 JUMPI PUSH2 0x257F SWAP1 DUP2 PUSH2 0x1B DUP3 CODECOPY RETURN JUMPDEST PUSH1 0x0 DUP1 REVERT INVALID PUSH2 0x100 PUSH1 0x40 MSTORE PUSH1 0x4 CALLDATASIZE LT ISZERO PUSH2 0x13 JUMPI PUSH1 0x0 DUP1 REVERT JUMPDEST PUSH1 0x0 CALLDATALOAD PUSH1 0xE0 SHR DUP1 PUSH4 0xAD6B0A5 EQ PUSH2 0x1F18 JUMPI DUP1 PUSH4 0x1346F0C4 EQ PUSH2 0x1EFA JUMPI DUP1 PUSH4 0x21E2A791 EQ PUSH2 0x1EC0 JUMPI DUP1 PUSH4 0x24D3B3E2 EQ PUSH2 0x1E3D JUMPI DUP1 PUSH4 0x2542A1F9 EQ PUSH2 0x1D1A JUMPI DUP1 PUSH4 0x3A23CC0A EQ PUSH2 0x1CB3 JUMPI DUP1 PUSH4 0x49567E01 EQ PUSH2 0x1BE6 JUMPI DUP1 PUSH4 0x4E6D1405 EQ PUSH2 0x19DB JUMPI DUP1 PUSH4 0x511656DB EQ PUSH2 0xC39 JUMPI DUP1 PUSH4 0x570BDAD6 EQ PUSH2 0xB0A JUMPI DUP1 PUSH4 0x7571AF22 EQ PUSH2 0x9EA JUMPI DUP1 PUSH4 0x96C579FA EQ PUSH2 0x8A0 JUMPI DUP1 PUSH4 0xDA9C273D EQ PUSH2 0x6EF JUMPI DUP1 PUSH4 0xE3F1A28D EQ PUSH2 0x549 JUMPI PUSH4 0xEA20F362 EQ PUSH2 0xC2 JUMPI PUSH1 0x0 DUP1 REVERT JUMPDEST CALLVALUE PUSH2 0x544 JUMPI PUSH1 0x60 CALLDATASIZE PUSH1 0x3 NOT ADD SLT PUSH2 0x544 JUMPI PUSH1 0x4 CALLDATALOAD PUSH1 0x24 CALLDATALOAD PUSH1 0x1 PUSH1 0x1 PUSH1 0x40 SHL SUB DUP2 GT PUSH2 0x544 JUMPI PUSH2 0xF5 SWAP1 CALLDATASIZE SWAP1 PUSH1 0x4 ADD PUSH2 0x228F JUMP JUMPDEST SWAP1 PUSH1 0x44 CALLDATALOAD PUSH1 0x1 PUSH1 0x1 PUSH1 0x40 SHL SUB DUP2 GT PUSH2 0x544 JUMPI PUSH2 0x115 SWAP1 CALLDATASIZE SWAP1 PUSH1 0x4 ADD PUSH2 0x228F JUMP JUMPDEST SWAP2 DUP2 ISZERO ISZERO DUP1 PUSH2 0x538 JUMPI JUMPDEST PUSH2 0x128 SWAP1 PUSH2 0x23DC JUMP JUMPDEST PUSH1 0x0 DUP3 DUP2 MSTORE PUSH1 0x20 DUP2 SWAP1 MSTORE PUSH1 0x40 SWAP1 KECCAK256 PUSH1 0x1 ADD SLOAD PUSH1 0x1 PUSH1 0x1 PUSH1 0xA0 SHL SUB AND CALLER SUB PUSH2 0x4E2 JUMPI DUP2 PUSH1 0x0 MSTORE PUSH1 0x0 PUSH1 0x20 MSTORE PUSH1 0xFF PUSH1 0x8 PUSH1 0x40 PUSH1 0x0 KECCAK256 ADD SLOAD AND PUSH2 0x4A6 JUMPI DUP2 PUSH1 0x0 MSTORE PUSH1 0x0 PUSH1 0x20 MSTORE PUSH1 0xFF PUSH1 0x8 PUSH1 0x40 PUSH1 0x0 KECCAK256 ADD SLOAD PUSH1 0x8 SHR AND PUSH2 0x46A JUMPI PUSH1 0x0 DUP3 DUP2 MSTORE PUSH1 0x20 DUP2 SWAP1 MSTORE PUSH1 0x40 SWAP1 KECCAK256 PUSH1 0x8 DUP2 ADD DUP1 SLOAD PUSH1 0xFF NOT AND PUSH1 0x1 OR SWAP1 SSTORE TIMESTAMP PUSH1 0xA DUP3 ADD SSTORE DUP2 MLOAD PUSH1 0xD SWAP1 SWAP2 ADD SWAP1 PUSH1 0x1 PUSH1 0x1 PUSH1 0x40 SHL SUB DUP2 GT PUSH2 0x39E JUMPI PUSH2 0x1C1 DUP3 SLOAD PUSH2 0x2174 JUMP JUMPDEST PUSH1 0x1F DUP2 GT PUSH2 0x422 JUMPI JUMPDEST POP DUP1 PUSH1 0x20 PUSH1 0x1F DUP3 GT PUSH1 0x1 EQ PUSH2 0x3BF JUMPI PUSH1 0x0 SWAP2 PUSH2 0x3B4 JUMPI JUMPDEST POP DUP2 PUSH1 0x1 SHL SWAP2 PUSH1 0x0 NOT SWAP1 PUSH1 0x3 SHL SHR NOT AND OR SWAP1 SSTORE JUMPDEST DUP2 PUSH1 0x0 MSTORE PUSH1 0x0 PUSH1 0x20 MSTORE PUSH1 0xE PUSH1 0x40 PUSH1 0x0 KECCAK256 ADD SWAP3 DUP1 MLOAD SWAP4 PUSH1 0x1 PUSH1 0x1 PUSH1 0x40 SHL SUB DUP6 GT PUSH2 0x39E JUMPI PUSH2 0x222 DUP2 SLOAD PUSH2 0x2174 JUMP JUMPDEST PUSH1 0x1F DUP2 GT PUSH2 0x356 JUMPI JUMPDEST POP PUSH1 0x20 PUSH1 0x1F DUP7 GT PUSH1 0x1 EQ PUSH2 0x2D0 JUMPI SWAP5 DUP1 PUSH32 0x261990519D41077A811FCCDA6680889D2AD9A7D4AE275F44D741C9364C2A3701 SWAP6 SWAP7 PUSH1 0x0 SWAP2 PUSH2 0x2C5 JUMPI JUMPDEST POP DUP2 PUSH1 0x1 SHL SWAP2 PUSH1 0x0 NOT SWAP1 PUSH1 0x3 SHL SHR NOT AND OR SWAP1 SSTORE JUMPDEST DUP4 PUSH1 0x0 MSTORE PUSH1 0x0 PUSH1 0x20 MSTORE PUSH2 0x2C0 PUSH1 0x3 PUSH1 0x40 PUSH1 0x0 KECCAK256 ADD SLOAD SWAP2 PUSH2 0x2B2 PUSH1 0x40 MLOAD SWAP5 DUP6 SWAP5 DUP6 MSTORE TIMESTAMP PUSH1 0x20 DUP7 ADD MSTORE PUSH1 0x80 PUSH1 0x40 DUP7 ADD MSTORE PUSH1 0x80 DUP6 ADD SWAP1 PUSH2 0x1FEF JUMP JUMPDEST SWAP1 DUP4 DUP3 SUB PUSH1 0x60 DUP6 ADD MSTORE PUSH2 0x1FEF JUMP JUMPDEST SUB SWAP1 LOG2 STOP JUMPDEST SWAP1 POP DUP4 ADD MLOAD CODESIZE PUSH2 0x266 JUMP JUMPDEST PUSH1 0x1F NOT DUP7 AND SWAP1 DUP3 PUSH1 0x0 MSTORE DUP1 PUSH1 0x0 KECCAK256 SWAP2 PUSH1 0x0 JUMPDEST DUP2 DUP2 LT PUSH2 0x33E JUMPI POP SWAP2 DUP8 SWAP2 PUSH32 0x261990519D41077A811FCCDA6680889D2AD9A7D4AE275F44D741C9364C2A3701 SWAP8 SWAP9 PUSH1 0x1 SWAP5 LT PUSH2 0x325 JUMPI JUMPDEST POP POP DUP2 SHL ADD SWAP1 SSTORE PUSH2 0x27A JUMP JUMPDEST DUP6 ADD MLOAD PUSH1 0x0 NOT PUSH1 0xF8 DUP5 PUSH1 0x3 SHL AND SHR NOT AND SWAP1 SSTORE CODESIZE DUP1 PUSH2 0x319 JUMP JUMPDEST SWAP2 SWAP3 PUSH1 0x20 PUSH1 0x1 DUP2 SWAP3 DUP7 DUP10 ADD MLOAD DUP2 SSTORE ADD SWAP5 ADD SWAP3 ADD PUSH2 0x2E2 JUMP JUMPDEST DUP2 PUSH1 0x0 MSTORE PUSH1 0x20 PUSH1 0x0 KECCAK256 PUSH1 0x1F DUP8 ADD PUSH1 0x5 SHR DUP2 ADD SWAP2 PUSH1 0x20 DUP9 LT PUSH2 0x394 JUMPI JUMPDEST PUSH1 0x1F ADD PUSH1 0x5 SHR ADD SWAP1 JUMPDEST DUP2 DUP2 LT PUSH2 0x388 JUMPI POP PUSH2 0x22B JUMP JUMPDEST PUSH1 0x0 DUP2 SSTORE PUSH1 0x1 ADD PUSH2 0x37B JUMP JUMPDEST SWAP1 SWAP2 POP DUP2 SWAP1 PUSH2 0x372 JUMP JUMPDEST PUSH4 0x4E487B71 PUSH1 0xE0 SHL PUSH1 0x0 MSTORE PUSH1 0x41 PUSH1 0x4 MSTORE PUSH1 0x24 PUSH1 0x0 REVERT JUMPDEST SWAP1 POP DUP4 ADD MLOAD CODESIZE PUSH2 0x1E1 JUMP JUMPDEST PUSH1 0x0 DUP5 DUP2 MSTORE DUP2 DUP2 KECCAK256 SWAP3 POP PUSH1 0x1F NOT DUP5 AND SWAP1 JUMPDEST DUP2 DUP2 LT PUSH2 0x40A JUMPI POP SWAP1 DUP4 PUSH1 0x1 SWAP5 SWAP4 SWAP3 LT PUSH2 0x3F1 JUMPI JUMPDEST POP POP DUP2 SHL ADD SWAP1 SSTORE PUSH2 0x1F5 JUMP JUMPDEST DUP6 ADD MLOAD PUSH1 0x0 NOT PUSH1 0xF8 DUP5 PUSH1 0x3 SHL AND SHR NOT AND SWAP1 SSTORE CODESIZE DUP1 PUSH2 0x3E5 JUMP JUMPDEST SWAP2 SWAP3 PUSH1 0x20 PUSH1 0x1 DUP2 SWAP3 DUP7 DUP11 ADD MLOAD DUP2 SSTORE ADD SWAP5 ADD SWAP3 ADD PUSH2 0x3D0 JUMP JUMPDEST DUP3 PUSH1 0x0 MSTORE PUSH1 0x20 PUSH1 0x0 KECCAK256 PUSH1 0x1F DUP4 ADD PUSH1 0x5 SHR DUP2 ADD SWAP2 PUSH1 0x20 DUP5 LT PUSH2 0x460 JUMPI JUMPDEST PUSH1 0x1F ADD PUSH1 0x5 SHR ADD SWAP1 JUMPDEST DUP2 DUP2 LT PUSH2 0x454 JUMPI POP PUSH2 0x1CA JUMP JUMPDEST PUSH1 0x0 DUP2 SSTORE PUSH1 0x1 ADD PUSH2 0x447 JUMP JUMPDEST SWAP1 SWAP2 POP DUP2 SWAP1 PUSH2 0x43E JUMP JUMPDEST PUSH1 0x40 MLOAD PUSH3 0x461BCD PUSH1 0xE5 SHL DUP2 MSTORE PUSH1 0x20 PUSH1 0x4 DUP3 ADD MSTORE PUSH1 0x14 PUSH1 0x24 DUP3 ADD MSTORE PUSH20 0x125B9D9BDA58D9481A5CC818D85B98D95B1B1959 PUSH1 0x62 SHL PUSH1 0x44 DUP3 ADD MSTORE PUSH1 0x64 SWAP1 REVERT JUMPDEST PUSH1 0x40 MLOAD PUSH3 0x461BCD PUSH1 0xE5 SHL DUP2 MSTORE PUSH1 0x20 PUSH1 0x4 DUP3 ADD MSTORE PUSH1 0x14 PUSH1 0x24 DUP3 ADD MSTORE PUSH20 0x125B9D9BDA58D948185B1C9958591E481C185A59 PUSH1 0x62 SHL PUSH1 0x44 DUP3 ADD MSTORE PUSH1 0x64 SWAP1 REVERT JUMPDEST PUSH1 0x40 MLOAD PUSH3 0x461BCD PUSH1 0xE5 SHL DUP2 MSTORE PUSH1 0x20 PUSH1 0x4 DUP3 ADD MSTORE PUSH1 0x28 PUSH1 0x24 DUP3 ADD MSTORE PUSH32 0x4F6E6C7920696E766F6963652063726561746F722063616E20636F6E6669726D PUSH1 0x44 DUP3 ADD MSTORE PUSH8 0x81C185E5B595B9D PUSH1 0xC2 SHL PUSH1 0x64 DUP3 ADD MSTORE PUSH1 0x84 SWAP1 REVERT JUMPDEST POP PUSH1 0x2 SLOAD DUP3 GT ISZERO PUSH2 0x11F JUMP JUMPDEST PUSH1 0x0 DUP1 REVERT JUMPDEST CALLVALUE PUSH2 0x544 JUMPI PUSH1 0x20 CALLDATASIZE PUSH1 0x3 NOT ADD SLT PUSH2 0x544 JUMPI PUSH1 0x1 PUSH1 0x1 PUSH1 0xA0 SHL SUB PUSH2 0x56A PUSH2 0x1F71 JUMP JUMPDEST AND PUSH1 0x0 MSTORE PUSH1 0x1 PUSH1 0x20 MSTORE PUSH1 0x40 PUSH1 0x0 KECCAK256 PUSH1 0x40 MLOAD DUP1 DUP3 PUSH1 0x20 DUP3 SWAP5 SLOAD SWAP4 DUP5 DUP2 MSTORE ADD SWAP1 PUSH1 0x0 MSTORE PUSH1 0x20 PUSH1 0x0 KECCAK256 SWAP3 PUSH1 0x0 JUMPDEST DUP2 DUP2 LT PUSH2 0x6D6 JUMPI POP POP PUSH2 0x5A9 SWAP3 POP SUB DUP3 PUSH2 0x21CA JUMP JUMPDEST PUSH1 0x0 DUP1 JUMPDEST DUP3 MLOAD DUP2 LT ISZERO PUSH2 0x626 JUMPI PUSH2 0x5C0 DUP2 DUP5 PUSH2 0x22E5 JUMP JUMPDEST MLOAD PUSH1 0x0 MSTORE PUSH1 0x0 PUSH1 0x20 MSTORE PUSH1 0xFF PUSH1 0x8 PUSH1 0x40 PUSH1 0x0 KECCAK256 ADD SLOAD AND ISZERO DUP1 PUSH2 0x5FD JUMPI JUMPDEST PUSH2 0x5E9 JUMPI JUMPDEST PUSH1 0x1 ADD PUSH2 0x5AD JUMP JUMPDEST SWAP1 PUSH2 0x5F5 PUSH1 0x1 SWAP2 PUSH2 0x22F9 JUMP JUMPDEST SWAP2 SWAP1 POP PUSH2 0x5E1 JUMP JUMPDEST POP PUSH2 0x608 DUP2 DUP5 PUSH2 0x22E5 JUMP JUMPDEST MLOAD PUSH1 0x0 MSTORE PUSH1 0x0 PUSH1 0x20 MSTORE PUSH1 0xFF PUSH1 0x8 PUSH1 0x40 PUSH1 0x0 KECCAK256 ADD SLOAD PUSH1 0x8 SHR AND ISZERO PUSH2 0x5DC JUMP JUMPDEST POP PUSH2 0x630 SWAP1 PUSH2 0x231F JUMP JUMPDEST SWAP1 PUSH1 0x0 DUP1 JUMPDEST DUP3 MLOAD DUP2 LT ISZERO PUSH2 0x6C4 JUMPI PUSH2 0x648 DUP2 DUP5 PUSH2 0x22E5 JUMP JUMPDEST MLOAD PUSH1 0x0 MSTORE PUSH1 0x0 PUSH1 0x20 MSTORE PUSH1 0xFF PUSH1 0x8 PUSH1 0x40 PUSH1 0x0 KECCAK256 ADD SLOAD AND ISZERO DUP1 PUSH2 0x69B JUMPI JUMPDEST PUSH2 0x671 JUMPI JUMPDEST PUSH1 0x1 ADD PUSH2 0x635 JUMP JUMPDEST SWAP1 PUSH2 0x693 PUSH1 0x1 SWAP2 PUSH2 0x682 DUP5 DUP7 PUSH2 0x22E5 JUMP JUMPDEST MLOAD PUSH2 0x68D DUP3 DUP9 PUSH2 0x22E5 JUMP JUMPDEST MSTORE PUSH2 0x22F9 JUMP JUMPDEST SWAP2 SWAP1 POP PUSH2 0x669 JUMP JUMPDEST POP PUSH2 0x6A6 DUP2 DUP5 PUSH2 0x22E5 JUMP JUMPDEST MLOAD PUSH1 0x0 MSTORE PUSH1 0x0 PUSH1 0x20 MSTORE PUSH1 0xFF PUSH1 0x8 PUSH1 0x40 PUSH1 0x0 KECCAK256 ADD SLOAD PUSH1 0x8 SHR AND ISZERO PUSH2 0x664 JUMP JUMPDEST PUSH1 0x40 MLOAD DUP1 PUSH2 0x6D2 DUP7 DUP3 PUSH2 0x1FB5 JUMP JUMPDEST SUB SWAP1 RETURN JUMPDEST DUP5 SLOAD DUP4 MSTORE PUSH1 0x1 SWAP5 DUP6 ADD SWAP5 DUP7 SWAP5 POP PUSH1 0x20 SWAP1 SWAP4 ADD SWAP3 ADD PUSH2 0x594 JUMP JUMPDEST CALLVALUE PUSH2 0x544 JUMPI PUSH1 0x20 CALLDATASIZE PUSH1 0x3 NOT ADD SLT PUSH2 0x544 JUMPI PUSH1 0x4 CALLDATALOAD DUP1 ISZERO ISZERO DUP1 PUSH2 0x894 JUMPI JUMPDEST PUSH2 0x715 SWAP1 PUSH2 0x23DC JUMP JUMPDEST PUSH1 0x0 DUP2 DUP2 MSTORE PUSH1 0x20 DUP2 SWAP1 MSTORE PUSH1 0x40 SWAP1 KECCAK256 PUSH1 0x1 ADD SLOAD PUSH1 0x1 PUSH1 0x1 PUSH1 0xA0 SHL SUB AND CALLER SUB PUSH2 0x83F JUMPI DUP1 PUSH1 0x0 MSTORE PUSH1 0x0 PUSH1 0x20 MSTORE PUSH1 0xFF PUSH1 0x8 PUSH1 0x40 PUSH1 0x0 KECCAK256 ADD SLOAD AND PUSH2 0x7FA JUMPI DUP1 PUSH1 0x0 MSTORE PUSH1 0x0 PUSH1 0x20 MSTORE PUSH1 0xFF PUSH1 0x8 PUSH1 0x40 PUSH1 0x0 KECCAK256 ADD SLOAD PUSH1 0x8 SHR AND PUSH2 0x7B5 JUMPI DUP1 PUSH1 0x0 MSTORE PUSH1 0x0 PUSH1 0x20 MSTORE PUSH1 0x8 PUSH1 0x40 PUSH1 0x0 KECCAK256 ADD PUSH2 0x100 PUSH2 0xFF00 NOT DUP3 SLOAD AND OR SWAP1 SSTORE PUSH32 0xEDAA303E89EE281697BA652192508238167C1D6BB056355D8DAACF9887D94697 PUSH1 0x20 PUSH1 0x40 MLOAD TIMESTAMP DUP2 MSTORE LOG2 STOP JUMPDEST PUSH1 0x40 MLOAD PUSH3 0x461BCD PUSH1 0xE5 SHL DUP2 MSTORE PUSH1 0x20 PUSH1 0x4 DUP3 ADD MSTORE PUSH1 0x19 PUSH1 0x24 DUP3 ADD MSTORE PUSH32 0x496E766F69636520616C72656164792063616E63656C6C656400000000000000 PUSH1 0x44 DUP3 ADD MSTORE PUSH1 0x64 SWAP1 REVERT JUMPDEST PUSH1 0x40 MLOAD PUSH3 0x461BCD PUSH1 0xE5 SHL DUP2 MSTORE PUSH1 0x20 PUSH1 0x4 DUP3 ADD MSTORE PUSH1 0x1A PUSH1 0x24 DUP3 ADD MSTORE PUSH32 0x43616E6E6F742063616E63656C207061696420696E766F696365000000000000 PUSH1 0x44 DUP3 ADD MSTORE PUSH1 0x64 SWAP1 REVERT JUMPDEST PUSH1 0x40 MLOAD PUSH3 0x461BCD PUSH1 0xE5 SHL DUP2 MSTORE PUSH1 0x20 PUSH1 0x4 DUP3 ADD MSTORE PUSH1 0x27 PUSH1 0x24 DUP3 ADD MSTORE PUSH32 0x4F6E6C7920696E766F6963652063726561746F722063616E2063616E63656C20 PUSH1 0x44 DUP3 ADD MSTORE PUSH7 0x696E766F696365 PUSH1 0xC8 SHL PUSH1 0x64 DUP3 ADD MSTORE PUSH1 0x84 SWAP1 REVERT JUMPDEST POP PUSH1 0x2 SLOAD DUP2 GT ISZERO PUSH2 0x70C JUMP JUMPDEST CALLVALUE PUSH2 0x544 JUMPI PUSH1 0x40 CALLDATASIZE PUSH1 0x3 NOT ADD SLT PUSH2 0x544 JUMPI PUSH1 0x4 CALLDATALOAD DUP1 ISZERO ISZERO DUP2 SUB PUSH2 0x544 JUMPI PUSH1 0x24 CALLDATALOAD DUP1 ISZERO ISZERO DUP2 SUB PUSH2 0x544 JUMPI SWAP1 PUSH1 0x2 SLOAD SWAP2 PUSH2 0x8D7 DUP4 PUSH2 0x231F JUMP JUMPDEST SWAP3 PUSH1 0x0 SWAP3 PUSH1 0x1 SWAP3 JUMPDEST DUP3 DUP5 GT ISZERO PUSH2 0x92A JUMPI DUP6 DUP6 PUSH2 0x8F2 DUP2 PUSH2 0x231F JUMP JUMPDEST SWAP2 PUSH1 0x0 JUMPDEST DUP3 DUP2 LT PUSH2 0x90B JUMPI PUSH1 0x40 MLOAD DUP1 PUSH2 0x6D2 DUP7 DUP3 PUSH2 0x1FB5 JUMP JUMPDEST DUP1 PUSH2 0x918 PUSH1 0x1 SWAP3 DUP5 PUSH2 0x22E5 JUMP JUMPDEST MLOAD PUSH2 0x923 DUP3 DUP8 PUSH2 0x22E5 JUMP JUMPDEST MSTORE ADD PUSH2 0x8F6 JUMP JUMPDEST PUSH1 0x0 DUP5 DUP2 MSTORE PUSH1 0x20 DUP2 SWAP1 MSTORE PUSH1 0x40 SWAP1 KECCAK256 PUSH1 0x8 SWAP1 DUP2 ADD SLOAD SWAP5 SWAP6 SWAP4 SWAP5 SWAP3 SWAP4 SWAP2 SWAP3 PUSH1 0xFF SWAP2 DUP2 SWAP1 SHR DUP3 AND SWAP2 AND DUP1 DUP1 PUSH2 0x9E3 JUMPI JUMPDEST ISZERO PUSH2 0x97E JUMPI POP POP PUSH2 0x970 DUP2 DUP7 PUSH2 0x68D PUSH2 0x976 SWAP5 DUP11 PUSH2 0x22E5 JUMP JUMPDEST SWAP5 PUSH2 0x22F9 JUMP JUMPDEST SWAP3 SWAP2 SWAP1 PUSH2 0x8DF JUMP JUMPDEST DUP2 DUP1 PUSH2 0x9DC JUMPI JUMPDEST ISZERO PUSH2 0x99E JUMPI POP POP PUSH2 0x970 DUP2 DUP7 PUSH2 0x68D PUSH2 0x976 SWAP5 DUP11 PUSH2 0x22E5 JUMP JUMPDEST SWAP6 SWAP2 SWAP6 ISZERO SWAP1 DUP2 PUSH2 0x9D3 JUMPI JUMPDEST POP PUSH2 0x9B8 JUMPI JUMPDEST PUSH2 0x976 SWAP1 PUSH2 0x22F9 JUMP JUMPDEST SWAP4 PUSH2 0x9CB DUP2 DUP7 PUSH2 0x68D PUSH2 0x976 SWAP5 DUP11 PUSH2 0x22E5 JUMP JUMPDEST SWAP5 SWAP1 POP PUSH2 0x9AF JUMP JUMPDEST SWAP1 POP ISZERO DUP8 PUSH2 0x9A9 JUMP JUMPDEST POP DUP4 PUSH2 0x985 JUMP JUMPDEST POP DUP5 PUSH2 0x957 JUMP JUMPDEST CALLVALUE PUSH2 0x544 JUMPI PUSH1 0x20 CALLDATASIZE PUSH1 0x3 NOT ADD SLT PUSH2 0x544 JUMPI PUSH1 0x1 PUSH1 0x1 PUSH1 0xA0 SHL SUB PUSH2 0xA0B PUSH2 0x1F71 JUMP JUMPDEST AND PUSH1 0x0 MSTORE PUSH1 0x1 PUSH1 0x20 MSTORE PUSH1 0x40 PUSH1 0x0 KECCAK256 PUSH1 0x40 MLOAD DUP1 DUP3 PUSH1 0x20 DUP3 SWAP5 SLOAD SWAP4 DUP5 DUP2 MSTORE ADD SWAP1 PUSH1 0x0 MSTORE PUSH1 0x20 PUSH1 0x0 KECCAK256 SWAP3 PUSH1 0x0 JUMPDEST DUP2 DUP2 LT PUSH2 0xAF1 JUMPI POP POP PUSH2 0xA4A SWAP3 POP SUB DUP3 PUSH2 0x21CA JUMP JUMPDEST PUSH1 0x0 SWAP1 PUSH1 0x0 JUMPDEST DUP2 MLOAD DUP2 LT ISZERO PUSH2 0xAE6 JUMPI PUSH2 0xA63 DUP2 DUP4 PUSH2 0x22E5 JUMP JUMPDEST MLOAD PUSH1 0x0 MSTORE PUSH1 0x0 PUSH1 0x20 MSTORE PUSH1 0xFF PUSH1 0x8 PUSH1 0x40 PUSH1 0x0 KECCAK256 ADD SLOAD AND ISZERO DUP1 PUSH2 0xABD JUMPI JUMPDEST PUSH2 0xA8C JUMPI JUMPDEST PUSH1 0x1 ADD PUSH2 0xA50 JUMP JUMPDEST SWAP2 PUSH2 0xAB5 PUSH1 0x1 SWAP2 PUSH2 0xA9D DUP6 DUP6 PUSH2 0x22E5 JUMP JUMPDEST MLOAD PUSH1 0x0 MSTORE PUSH1 0x0 PUSH1 0x20 MSTORE PUSH1 0x3 PUSH1 0x40 PUSH1 0x0 KECCAK256 ADD SLOAD SWAP1 PUSH2 0x253C JUMP JUMPDEST SWAP3 SWAP1 POP PUSH2 0xA84 JUMP JUMPDEST POP PUSH2 0xAC8 DUP2 DUP4 PUSH2 0x22E5 JUMP JUMPDEST MLOAD PUSH1 0x0 MSTORE PUSH1 0x0 PUSH1 0x20 MSTORE PUSH1 0xFF PUSH1 0x8 PUSH1 0x40 PUSH1 0x0 KECCAK256 ADD SLOAD PUSH1 0x8 SHR AND ISZERO PUSH2 0xA7F JUMP JUMPDEST PUSH1 0x20 DUP4 PUSH1 0x40 MLOAD SWAP1 DUP2 MSTORE RETURN JUMPDEST DUP5 SLOAD DUP4 MSTORE PUSH1 0x1 SWAP5 DUP6 ADD SWAP5 DUP7 SWAP5 POP PUSH1 0x20 SWAP1 SWAP4 ADD SWAP3 ADD PUSH2 0xA35 JUMP JUMPDEST CALLVALUE PUSH2 0x544 JUMPI PUSH1 0x0 CALLDATASIZE PUSH1 0x3 NOT ADD SLT PUSH2 0x544 JUMPI PUSH1 0x2 SLOAD PUSH2 0xB27 DUP2 PUSH2 0x2308 JUMP JUMPDEST SWAP1 PUSH2 0xB35 PUSH1 0x40 MLOAD SWAP3 DUP4 PUSH2 0x21CA JUMP JUMPDEST DUP1 DUP3 MSTORE PUSH1 0x1F NOT PUSH2 0xB44 DUP3 PUSH2 0x2308 JUMP JUMPDEST ADD PUSH1 0x0 JUMPDEST DUP2 DUP2 LT PUSH2 0xC22 JUMPI POP POP PUSH1 0x1 JUMPDEST DUP2 DUP2 GT ISZERO PUSH2 0xBC4 JUMPI DUP3 PUSH1 0x40 MLOAD DUP1 SWAP2 PUSH1 0x20 DUP3 ADD PUSH1 0x20 DUP4 MSTORE DUP2 MLOAD DUP1 SWAP2 MSTORE PUSH1 0x40 DUP4 ADD SWAP1 PUSH1 0x20 PUSH1 0x40 DUP3 PUSH1 0x5 SHL DUP7 ADD ADD SWAP4 ADD SWAP2 PUSH1 0x0 SWAP1 JUMPDEST DUP3 DUP3 LT PUSH2 0xB95 JUMPI POP POP POP POP SUB SWAP1 RETURN JUMPDEST SWAP2 SWAP4 PUSH1 0x1 SWAP2 SWAP4 SWAP6 POP PUSH1 0x20 PUSH2 0xBB4 DUP2 SWAP3 PUSH1 0x3F NOT DUP11 DUP3 SUB ADD DUP7 MSTORE DUP9 MLOAD PUSH2 0x2030 JUMP JUMPDEST SWAP7 ADD SWAP3 ADD SWAP3 ADD DUP6 SWAP5 SWAP4 SWAP2 SWAP3 PUSH2 0xB86 JUMP JUMPDEST DUP1 PUSH1 0x0 MSTORE PUSH1 0x0 PUSH1 0x20 MSTORE PUSH1 0x40 PUSH1 0x0 KECCAK256 SWAP1 PUSH1 0x0 NOT DUP2 ADD SWAP2 DUP2 DUP4 GT PUSH2 0xC0C JUMPI PUSH2 0xC07 SWAP3 PUSH2 0xBF0 PUSH2 0xC01 SWAP3 PUSH2 0x241D JUMP JUMPDEST PUSH2 0xBFA DUP3 DUP9 PUSH2 0x22E5 JUMP JUMPDEST MSTORE DUP6 PUSH2 0x22E5 JUMP JUMPDEST POP PUSH2 0x22F9 JUMP JUMPDEST PUSH2 0xB54 JUMP JUMPDEST PUSH4 0x4E487B71 PUSH1 0xE0 SHL PUSH1 0x0 MSTORE PUSH1 0x11 PUSH1 0x4 MSTORE PUSH1 0x24 PUSH1 0x0 REVERT JUMPDEST PUSH1 0x20 SWAP1 PUSH2 0xC2D PUSH2 0x2351 JUMP JUMPDEST DUP3 DUP3 DUP8 ADD ADD MSTORE ADD PUSH2 0xB48 JUMP JUMPDEST CALLVALUE PUSH2 0x544 JUMPI PUSH2 0x140 CALLDATASIZE PUSH1 0x3 NOT ADD SLT PUSH2 0x544 JUMPI PUSH1 0x4 CALLDATALOAD PUSH1 0x1 PUSH1 0x1 PUSH1 0xA0 SHL SUB DUP2 AND DUP2 SUB PUSH2 0x544 JUMPI PUSH1 0x44 CALLDATALOAD PUSH1 0x1 PUSH1 0x1 PUSH1 0x40 SHL SUB DUP2 GT PUSH2 0x544 JUMPI PUSH2 0xC7D SWAP1 CALLDATASIZE SWAP1 PUSH1 0x4 ADD PUSH2 0x228F JUMP JUMPDEST SWAP1 PUSH1 0x64 CALLDATALOAD PUSH1 0x1 PUSH1 0x1 PUSH1 0x40 SHL SUB DUP2 GT PUSH2 0x544 JUMPI PUSH2 0xC9D SWAP1 CALLDATASIZE SWAP1 PUSH1 0x4 ADD PUSH2 0x228F JUMP JUMPDEST SWAP1 PUSH1 0x84 CALLDATALOAD PUSH1 0x1 PUSH1 0x1 PUSH1 0x40 SHL SUB DUP2 GT PUSH2 0x544 JUMPI PUSH2 0xCBD SWAP1 CALLDATASIZE SWAP1 PUSH1 0x4 ADD PUSH2 0x228F JUMP JUMPDEST SWAP1 PUSH1 0xA4 CALLDATALOAD PUSH1 0x1 PUSH1 0x1 PUSH1 0x40 SHL SUB DUP2 GT PUSH2 0x544 JUMPI PUSH2 0xCDD SWAP1 CALLDATASIZE SWAP1 PUSH1 0x4 ADD PUSH2 0x228F JUMP JUMPDEST SWAP3 PUSH1 0xE4 CALLDATALOAD PUSH1 0x1 PUSH1 0x1 PUSH1 0x40 SHL SUB DUP2 GT PUSH2 0x544 JUMPI PUSH2 0xCFD SWAP1 CALLDATASIZE SWAP1 PUSH1 0x4 ADD PUSH2 0x228F JUMP JUMPDEST SWAP3 PUSH2 0x104 CALLDATALOAD PUSH1 0x1 PUSH1 0x1 PUSH1 0x40 SHL SUB DUP2 GT PUSH2 0x544 JUMPI PUSH2 0xD1E SWAP1 CALLDATASIZE SWAP1 PUSH1 0x4 ADD PUSH2 0x228F JUMP JUMPDEST SWAP2 PUSH2 0x124 CALLDATALOAD PUSH1 0x1 PUSH1 0x1 PUSH1 0x40 SHL SUB DUP2 GT PUSH2 0x544 JUMPI PUSH2 0xD3F SWAP1 CALLDATASIZE SWAP1 PUSH1 0x4 ADD PUSH2 0x228F JUMP JUMPDEST SWAP7 PUSH2 0xD4B PUSH1 0x2 SLOAD PUSH2 0x22F9 JUMP JUMPDEST SWAP7 DUP8 PUSH1 0x2 SSTORE PUSH1 0x40 MLOAD SWAP2 PUSH2 0xD5D DUP4 PUSH2 0x21AE JUMP JUMPDEST DUP9 DUP4 MSTORE CALLER PUSH1 0x20 DUP5 ADD MSTORE PUSH1 0x1 DUP1 PUSH1 0xA0 SHL SUB DUP8 AND PUSH1 0x40 DUP5 ADD MSTORE PUSH1 0x24 CALLDATALOAD PUSH1 0x60 DUP5 ADD MSTORE PUSH1 0x80 DUP4 ADD MSTORE DUP3 PUSH1 0xA0 DUP4 ADD MSTORE DUP4 PUSH1 0xC0 DUP4 ADD MSTORE PUSH1 0xE0 DUP3 ADD MSTORE PUSH1 0x0 PUSH2 0x100 DUP3 ADD MSTORE PUSH1 0x0 PUSH2 0x120 DUP3 ADD MSTORE TIMESTAMP PUSH2 0x140 DUP3 ADD MSTORE PUSH1 0x0 PUSH2 0x160 DUP3 ADD MSTORE PUSH1 0xC4 CALLDATALOAD PUSH2 0x180 DUP3 ADD MSTORE DUP6 PUSH2 0x1A0 DUP3 ADD MSTORE PUSH1 0x20 SWAP8 PUSH1 0x40 MLOAD PUSH2 0xDD1 DUP11 DUP3 PUSH2 0x21CA JUMP JUMPDEST PUSH1 0x0 DUP2 MSTORE PUSH2 0x1C0 DUP4 ADD MSTORE PUSH1 0x40 MLOAD PUSH2 0xDE8 DUP11 DUP3 PUSH2 0x21CA JUMP JUMPDEST PUSH1 0x0 DUP1 DUP3 MSTORE PUSH2 0x1E0 DUP5 ADD SWAP2 SWAP1 SWAP2 MSTORE PUSH2 0x200 DUP4 ADD DUP7 SWAP1 MSTORE PUSH2 0x220 DUP4 ADD SWAP2 SWAP1 SWAP2 MSTORE DUP8 DUP2 MSTORE DUP1 DUP10 MSTORE PUSH1 0x40 SWAP1 DUP2 SWAP1 KECCAK256 DUP3 MLOAD DUP2 SSTORE PUSH1 0x20 DUP4 ADD MLOAD PUSH1 0x1 DUP3 ADD DUP1 SLOAD PUSH1 0x1 PUSH1 0x1 PUSH1 0xA0 SHL SUB NOT SWAP1 DUP2 AND PUSH1 0x1 PUSH1 0x1 PUSH1 0xA0 SHL SUB SWAP4 DUP5 AND OR SWAP1 SWAP2 SSTORE SWAP3 DUP5 ADD MLOAD PUSH1 0x2 DUP4 ADD DUP1 SLOAD SWAP1 SWAP5 AND SWAP2 AND OR SWAP1 SWAP2 SSTORE PUSH1 0x60 DUP3 ADD MLOAD PUSH1 0x3 DUP3 ADD SSTORE PUSH1 0x80 DUP3 ADD MLOAD DUP1 MLOAD SWAP1 PUSH1 0x1 PUSH1 0x1 PUSH1 0x40 SHL SUB DUP3 GT PUSH2 0x39E JUMPI DUP2 SWAP1 PUSH2 0xE7F PUSH1 0x4 DUP6 ADD SLOAD PUSH2 0x2174 JUMP JUMPDEST PUSH1 0x1F DUP2 GT PUSH2 0x198A JUMPI JUMPDEST POP DUP12 SWAP1 PUSH1 0x1F DUP4 GT PUSH1 0x1 EQ PUSH2 0x191C JUMPI PUSH1 0x0 SWAP3 PUSH2 0x1911 JUMPI JUMPDEST POP POP DUP2 PUSH1 0x1 SHL SWAP2 PUSH1 0x0 NOT SWAP1 PUSH1 0x3 SHL SHR NOT AND OR PUSH1 0x4 DUP3 ADD SSTORE JUMPDEST PUSH1 0xA0 DUP3 ADD MLOAD DUP1 MLOAD SWAP1 PUSH1 0x1 PUSH1 0x1 PUSH1 0x40 SHL SUB DUP3 GT PUSH2 0x39E JUMPI DUP2 SWAP1 PUSH2 0xEDB PUSH1 0x5 DUP6 ADD SLOAD PUSH2 0x2174 JUMP JUMPDEST PUSH1 0x1F DUP2 GT PUSH2 0x18C0 JUMPI JUMPDEST POP DUP12 SWAP1 PUSH1 0x1F DUP4 GT PUSH1 0x1 EQ PUSH2 0x1852 JUMPI PUSH1 0x0 SWAP3 PUSH2 0x1847 JUMPI JUMPDEST POP POP DUP2 PUSH1 0x1 SHL SWAP2 PUSH1 0x0 NOT SWAP1 PUSH1 0x3 SHL SHR NOT AND OR PUSH1 0x5 DUP3 ADD SSTORE JUMPDEST PUSH1 0xC0 DUP3 ADD MLOAD DUP1 MLOAD SWAP1 PUSH1 0x1 PUSH1 0x1 PUSH1 0x40 SHL SUB DUP3 GT PUSH2 0x39E JUMPI DUP2 SWAP1 PUSH2 0xF37 PUSH1 0x6 DUP6 ADD SLOAD PUSH2 0x2174 JUMP JUMPDEST PUSH1 0x1F DUP2 GT PUSH2 0x17F6 JUMPI JUMPDEST POP DUP12 SWAP1 PUSH1 0x1F DUP4 GT PUSH1 0x1 EQ PUSH2 0x1788 JUMPI PUSH1 0x0 SWAP3 PUSH2 0x177D JUMPI JUMPDEST POP POP DUP2 PUSH1 0x1 SHL SWAP2 PUSH1 0x0 NOT SWAP1 PUSH1 0x3 SHL SHR NOT AND OR PUSH1 0x6 DUP3 ADD SSTORE JUMPDEST PUSH1 0xE0 DUP3 ADD MLOAD DUP1 MLOAD SWAP1 PUSH1 0x1 PUSH1 0x1 PUSH1 0x40 SHL SUB DUP3 GT PUSH2 0x39E JUMPI DUP2 SWAP1 PUSH2 0xF93 PUSH1 0x7 DUP6 ADD SLOAD PUSH2 0x2174 JUMP JUMPDEST PUSH1 0x1F DUP2 GT PUSH2 0x172C JUMPI JUMPDEST POP DUP12 SWAP1 PUSH1 0x1F DUP4 GT PUSH1 0x1 EQ PUSH2 0x16BE JUMPI PUSH1 0x0 SWAP3 PUSH2 0x16B3 JUMPI JUMPDEST POP POP DUP2 PUSH1 0x1 SHL SWAP2 PUSH1 0x0 NOT SWAP1 PUSH1 0x3 SHL SHR NOT AND OR PUSH1 0x7 DUP3 ADD SSTORE JUMPDEST PUSH1 0x8 DUP2 ADD PUSH2 0x100 DUP4 ADD MLOAD ISZERO ISZERO PUSH1 0xFF DUP1 NOT DUP4 SLOAD AND SWAP2 AND OR DUP2 SSTORE PUSH2 0x120 DUP4 ADD MLOAD ISZERO ISZERO PUSH2 0xFF00 DUP3 SLOAD SWAP2 PUSH1 0x8 SHL AND SWAP1 PUSH2 0xFF00 NOT AND OR SWAP1 SSTORE PUSH2 0x140 DUP3 ADD MLOAD PUSH1 0x9 DUP3 ADD SSTORE PUSH2 0x160 DUP3 ADD MLOAD PUSH1 0xA DUP3 ADD SSTORE PUSH2 0x180 DUP3 ADD MLOAD PUSH1 0xB DUP3 ADD SSTORE PUSH2 0x1A0 DUP3 ADD MLOAD DUP1 MLOAD SWAP1 PUSH1 0x1 PUSH1 0x1 PUSH1 0x40 SHL SUB DUP3 GT PUSH2 0x39E JUMPI DUP2 SWAP1 PUSH2 0x1044 PUSH1 0xC DUP6 ADD SLOAD PUSH2 0x2174 JUMP JUMPDEST PUSH1 0x1F DUP2 GT PUSH2 0x1662 JUMPI JUMPDEST POP DUP12 SWAP1 PUSH1 0x1F DUP4 GT PUSH1 0x1 EQ PUSH2 0x15F4 JUMPI PUSH1 0x0 SWAP3 PUSH2 0x15E9 JUMPI JUMPDEST POP POP DUP2 PUSH1 0x1 SHL SWAP2 PUSH1 0x0 NOT SWAP1 PUSH1 0x3 SHL SHR NOT AND OR PUSH1 0xC DUP3 ADD SSTORE JUMPDEST PUSH2 0x1C0 DUP3 ADD MLOAD DUP1 MLOAD SWAP1 PUSH1 0x1 PUSH1 0x1 PUSH1 0x40 SHL SUB DUP3 GT PUSH2 0x39E JUMPI DUP2 SWAP1 PUSH2 0x10A1 PUSH1 0xD DUP6 ADD SLOAD PUSH2 0x2174 JUMP JUMPDEST PUSH1 0x1F DUP2 GT PUSH2 0x1598 JUMPI JUMPDEST POP DUP12 SWAP1 PUSH1 0x1F DUP4 GT PUSH1 0x1 EQ PUSH2 0x152A JUMPI PUSH1 0x0 SWAP3 PUSH2 0x151F JUMPI JUMPDEST POP POP DUP2 PUSH1 0x1 SHL SWAP2 PUSH1 0x0 NOT SWAP1 PUSH1 0x3 SHL SHR NOT AND OR PUSH1 0xD DUP3 ADD SSTORE JUMPDEST PUSH2 0x1E0 DUP3 ADD MLOAD DUP1 MLOAD SWAP1 PUSH1 0x1 PUSH1 0x1 PUSH1 0x40 SHL SUB DUP3 GT PUSH2 0x39E JUMPI DUP2 SWAP1 PUSH2 0x10FE PUSH1 0xE DUP6 ADD SLOAD PUSH2 0x2174 JUMP JUMPDEST PUSH1 0x1F DUP2 GT PUSH2 0x14CE JUMPI JUMPDEST POP DUP12 SWAP1 PUSH1 0x1F DUP4 GT PUSH1 0x1 EQ PUSH2 0x1460 JUMPI PUSH1 0x0 SWAP3 PUSH2 0x1455 JUMPI JUMPDEST POP POP DUP2 PUSH1 0x1 SHL SWAP2 PUSH1 0x0 NOT SWAP1 PUSH1 0x3 SHL SHR NOT AND OR PUSH1 0xE DUP3 ADD SSTORE JUMPDEST PUSH1 0xF DUP2 ADD PUSH2 0x200 DUP4 ADD MLOAD DUP1 MLOAD SWAP1 PUSH1 0x1 PUSH1 0x1 PUSH1 0x40 SHL SUB DUP3 GT PUSH2 0x39E JUMPI DUP12 PUSH2 0x115B DUP5 SLOAD PUSH2 0x2174 JUMP JUMPDEST PUSH1 0x1F DUP2 GT PUSH2 0x140D JUMPI JUMPDEST POP POP DUP12 SWAP1 DUP13 PUSH1 0x1F DUP5 GT PUSH1 0x1 EQ PUSH2 0x139D JUMPI POP SWAP2 DUP1 PUSH1 0x10 SWAP5 SWAP3 PUSH2 0x220 SWAP7 SWAP5 PUSH1 0x0 SWAP3 PUSH2 0x1392 JUMPI JUMPDEST POP POP DUP2 PUSH1 0x1 SHL SWAP2 PUSH1 0x0 NOT SWAP1 PUSH1 0x3 SHL SHR NOT AND OR SWAP1 SSTORE JUMPDEST ADD SWAP2 ADD MLOAD DUP1 MLOAD SWAP1 PUSH1 0x1 PUSH1 0x1 PUSH1 0x40 SHL SUB DUP3 GT PUSH2 0x39E JUMPI DUP2 SWAP1 PUSH2 0x11BE DUP5 SLOAD PUSH2 0x2174 JUMP JUMPDEST PUSH1 0x1F DUP2 GT PUSH2 0x1341 JUMPI JUMPDEST POP DUP11 SWAP1 PUSH1 0x1F DUP4 GT PUSH1 0x1 EQ PUSH2 0x12DC JUMPI PUSH1 0x0 SWAP3 PUSH2 0x12D1 JUMPI JUMPDEST POP POP DUP2 PUSH1 0x1 SHL SWAP2 PUSH1 0x0 NOT SWAP1 PUSH1 0x3 SHL SHR NOT AND OR SWAP1 SSTORE JUMPDEST CALLER PUSH1 0x0 MSTORE PUSH1 0x1 DUP8 MSTORE PUSH1 0x40 PUSH1 0x0 KECCAK256 SWAP3 DUP4 SLOAD SWAP2 PUSH9 0x10000000000000000 DUP4 LT ISZERO PUSH2 0x39E JUMPI DUP9 SWAP7 PUSH2 0x1292 PUSH32 0x6B007C52CCE1EA806E675913586ECD79214160B00F30204FDC38092B60CA07A0 SWAP6 PUSH2 0x1284 PUSH2 0x12A0 SWAP5 PUSH2 0x1256 DUP9 DUP15 SWAP12 PUSH1 0x1 PUSH2 0x12AE SWAP12 ADD DUP2 SSTORE PUSH2 0x1F87 JUMP JUMPDEST DUP2 SLOAD SWAP1 PUSH1 0x3 SHL SWAP1 DUP13 DUP3 SHL SWAP2 PUSH1 0x0 NOT SWAP1 SHL NOT AND OR SWAP1 SSTORE PUSH1 0xC0 PUSH1 0x40 MLOAD SWAP13 DUP14 PUSH1 0x24 CALLDATALOAD SWAP1 MSTORE DUP14 ADD MSTORE PUSH1 0xC0 DUP13 ADD SWAP1 PUSH2 0x1FEF JUMP JUMPDEST SWAP1 DUP11 DUP3 SUB PUSH1 0x40 DUP13 ADD MSTORE PUSH2 0x1FEF JUMP JUMPDEST SWAP1 DUP9 DUP3 SUB PUSH1 0x60 DUP11 ADD MSTORE PUSH2 0x1FEF JUMP JUMPDEST SWAP1 DUP7 DUP3 SUB PUSH1 0x80 DUP9 ADD MSTORE PUSH2 0x1FEF JUMP JUMPDEST PUSH1 0xC4 CALLDATALOAD PUSH1 0xA0 DUP7 ADD MSTORE PUSH1 0x1 PUSH1 0x1 PUSH1 0xA0 SHL SUB SWAP1 SWAP4 AND SWAP4 CALLER SWAP4 DUP2 SWAP1 SUB SWAP1 LOG4 PUSH1 0x40 MLOAD SWAP1 DUP2 MSTORE RETURN JUMPDEST ADD MLOAD SWAP1 POP DUP11 DUP1 PUSH2 0x11DD JUMP JUMPDEST PUSH1 0x0 DUP6 DUP2 MSTORE DUP13 DUP2 KECCAK256 SWAP4 POP PUSH1 0x1F NOT DUP6 AND SWAP1 JUMPDEST DUP14 DUP3 DUP3 LT PUSH2 0x132B JUMPI POP POP SWAP1 DUP5 PUSH1 0x1 SWAP6 SWAP5 SWAP4 SWAP3 LT PUSH2 0x1312 JUMPI JUMPDEST POP POP POP DUP2 SHL ADD SWAP1 SSTORE PUSH2 0x11F2 JUMP JUMPDEST ADD MLOAD PUSH1 0x0 NOT PUSH1 0xF8 DUP5 PUSH1 0x3 SHL AND SHR NOT AND SWAP1 SSTORE DUP11 DUP1 DUP1 PUSH2 0x1305 JUMP JUMPDEST PUSH1 0x1 DUP6 SWAP7 DUP3 SWAP4 SWAP7 DUP7 ADD MLOAD DUP2 SSTORE ADD SWAP6 ADD SWAP4 ADD PUSH2 0x12ED JUMP JUMPDEST SWAP1 SWAP2 POP DUP4 PUSH1 0x0 MSTORE DUP11 PUSH1 0x0 KECCAK256 PUSH1 0x1F DUP5 ADD PUSH1 0x5 SHR DUP2 ADD SWAP2 DUP13 DUP6 LT PUSH2 0x1388 JUMPI JUMPDEST SWAP1 PUSH1 0x1F DUP6 SWAP5 SWAP4 SWAP3 ADD PUSH1 0x5 SHR ADD SWAP1 JUMPDEST DUP2 DUP2 LT PUSH2 0x1379 JUMPI POP PUSH2 0x11C7 JUMP JUMPDEST PUSH1 0x0 DUP2 SSTORE DUP5 SWAP4 POP PUSH1 0x1 ADD PUSH2 0x136C JUMP JUMPDEST SWAP1 SWAP2 POP DUP2 SWAP1 PUSH2 0x135E JUMP JUMPDEST ADD MLOAD SWAP1 POP DUP15 DUP1 PUSH2 0x1188 JUMP JUMPDEST SWAP2 SWAP1 PUSH1 0x1F NOT DUP5 AND DUP6 PUSH1 0x0 MSTORE DUP4 PUSH1 0x0 KECCAK256 SWAP4 PUSH1 0x0 SWAP1 JUMPDEST DUP3 DUP3 LT PUSH2 0x13F5 JUMPI POP POP SWAP3 PUSH1 0x1 SWAP3 DUP6 SWAP3 PUSH2 0x220 SWAP9 SWAP7 PUSH1 0x10 SWAP9 SWAP7 LT PUSH2 0x13DC JUMPI JUMPDEST POP POP POP DUP2 SHL ADD SWAP1 SSTORE PUSH2 0x119D JUMP JUMPDEST ADD MLOAD PUSH1 0x0 NOT PUSH1 0xF8 DUP5 PUSH1 0x3 SHL AND SHR NOT AND SWAP1 SSTORE DUP15 DUP1 DUP1 PUSH2 0x13CF JUMP JUMPDEST DUP1 PUSH1 0x1 DUP7 SWAP8 DUP3 SWAP5 SWAP8 DUP8 ADD MLOAD DUP2 SSTORE ADD SWAP7 ADD SWAP5 ADD SWAP1 PUSH2 0x13B1 JUMP JUMPDEST DUP5 PUSH1 0x0 MSTORE DUP2 PUSH1 0x0 KECCAK256 SWAP1 PUSH1 0x1F DUP6 ADD PUSH1 0x5 SHR DUP3 ADD SWAP3 DUP6 LT PUSH2 0x144B JUMPI JUMPDEST PUSH1 0x1F ADD PUSH1 0x5 SHR ADD SWAP1 JUMPDEST DUP2 DUP2 LT PUSH2 0x143F JUMPI DUP14 SWAP2 POP PUSH2 0x1164 JUMP JUMPDEST PUSH1 0x0 DUP2 SSTORE PUSH1 0x1 ADD PUSH2 0x1430 JUMP JUMPDEST SWAP1 SWAP2 POP DUP2 SWAP1 PUSH2 0x1427 JUMP JUMPDEST ADD MLOAD SWAP1 POP DUP12 DUP1 PUSH2 0x111D JUMP JUMPDEST PUSH1 0xE DUP6 ADD PUSH1 0x0 SWAP1 DUP2 MSTORE DUP14 DUP2 KECCAK256 SWAP4 POP PUSH1 0x1F NOT DUP6 AND SWAP1 DUP15 JUMPDEST DUP3 DUP3 LT PUSH2 0x14B6 JUMPI POP POP SWAP1 DUP5 PUSH1 0x1 SWAP6 SWAP5 SWAP4 SWAP3 LT PUSH2 0x149D JUMPI JUMPDEST POP POP POP DUP2 SHL ADD PUSH1 0xE DUP3 ADD SSTORE PUSH2 0x1135 JUMP JUMPDEST ADD MLOAD PUSH1 0x0 NOT PUSH1 0xF8 DUP5 PUSH1 0x3 SHL AND SHR NOT AND SWAP1 SSTORE DUP12 DUP1 DUP1 PUSH2 0x148D JUMP JUMPDEST DUP1 PUSH1 0x1 DUP7 SWAP8 DUP3 SWAP5 SWAP8 DUP8 ADD MLOAD DUP2 SSTORE ADD SWAP7 ADD SWAP5 ADD SWAP1 PUSH2 0x1476 JUMP JUMPDEST SWAP1 SWAP2 POP PUSH1 0xE DUP5 ADD PUSH1 0x0 MSTORE DUP12 PUSH1 0x0 KECCAK256 PUSH1 0x1F DUP5 ADD PUSH1 0x5 SHR DUP2 ADD DUP14 DUP6 LT PUSH2 0x1518 JUMPI JUMPDEST SWAP1 DUP5 SWAP4 SWAP3 SWAP2 JUMPDEST PUSH1 0x1F DUP4 ADD PUSH1 0x5 SHR DUP3 ADD DUP2 LT PUSH2 0x1509 JUMPI POP POP PUSH2 0x1107 JUMP JUMPDEST PUSH1 0x0 DUP2 SSTORE DUP6 SWAP5 POP PUSH1 0x1 ADD PUSH2 0x14F3 JUMP JUMPDEST POP DUP1 PUSH2 0x14ED JUMP JUMPDEST ADD MLOAD SWAP1 POP DUP12 DUP1 PUSH2 0x10C0 JUMP JUMPDEST PUSH1 0xD DUP6 ADD PUSH1 0x0 SWAP1 DUP2 MSTORE DUP14 DUP2 KECCAK256 SWAP4 POP PUSH1 0x1F NOT DUP6 AND SWAP1 DUP15 JUMPDEST DUP3 DUP3 LT PUSH2 0x1580 JUMPI POP POP SWAP1 DUP5 PUSH1 0x1 SWAP6 SWAP5 SWAP4 SWAP3 LT PUSH2 0x1567 JUMPI JUMPDEST POP POP POP DUP2 SHL ADD PUSH1 0xD DUP3 ADD SSTORE PUSH2 0x10D8 JUMP JUMPDEST ADD MLOAD PUSH1 0x0 NOT PUSH1 0xF8 DUP5 PUSH1 0x3 SHL AND SHR NOT AND SWAP1 SSTORE DUP12 DUP1 DUP1 PUSH2 0x1557 JUMP JUMPDEST DUP1 PUSH1 0x1 DUP7 SWAP8 DUP3 SWAP5 SWAP8 DUP8 ADD MLOAD DUP2 SSTORE ADD SWAP7 ADD SWAP5 ADD SWAP1 PUSH2 0x1540 JUMP JUMPDEST SWAP1 SWAP2 POP PUSH1 0xD DUP5 ADD PUSH1 0x0 MSTORE DUP12 PUSH1 0x0 KECCAK256 PUSH1 0x1F DUP5 ADD PUSH1 0x5 SHR DUP2 ADD DUP14 DUP6 LT PUSH2 0x15E2 JUMPI JUMPDEST SWAP1 DUP5 SWAP4 SWAP3 SWAP2 JUMPDEST PUSH1 0x1F DUP4 ADD PUSH1 0x5 SHR DUP3 ADD DUP2 LT PUSH2 0x15D3 JUMPI POP POP PUSH2 0x10AA JUMP JUMPDEST PUSH1 0x0 DUP2 SSTORE DUP6 SWAP5 POP PUSH1 0x1 ADD PUSH2 0x15BD JUMP JUMPDEST POP DUP1 PUSH2 0x15B7 JUMP JUMPDEST ADD MLOAD SWAP1 POP DUP12 DUP1 PUSH2 0x1063 JUMP JUMPDEST PUSH1 0xC DUP6 ADD PUSH1 0x0 SWAP1 DUP2 MSTORE DUP14 DUP2 KECCAK256 SWAP4 POP PUSH1 0x1F NOT DUP6 AND SWAP1 DUP15 JUMPDEST DUP3 DUP3 LT PUSH2 0x164A JUMPI POP POP SWAP1 DUP5 PUSH1 0x1 SWAP6 SWAP5 SWAP4 SWAP3 LT PUSH2 0x1631 JUMPI JUMPDEST POP POP POP DUP2 SHL ADD PUSH1 0xC DUP3 ADD SSTORE PUSH2 0x107B JUMP JUMPDEST ADD MLOAD PUSH1 0x0 NOT PUSH1 0xF8 DUP5 PUSH1 0x3 SHL AND SHR NOT AND SWAP1 SSTORE DUP12 DUP1 DUP1 PUSH2 0x1621 JUMP JUMPDEST DUP1 PUSH1 0x1 DUP7 SWAP8 DUP3 SWAP5 SWAP8 DUP8 ADD MLOAD DUP2 SSTORE ADD SWAP7 ADD SWAP5 ADD SWAP1 PUSH2 0x160A JUMP JUMPDEST SWAP1 SWAP2 POP PUSH1 0xC DUP5 ADD PUSH1 0x0 MSTORE DUP12 PUSH1 0x0 KECCAK256 PUSH1 0x1F DUP5 ADD PUSH1 0x5 SHR DUP2 ADD DUP14 DUP6 LT PUSH2 0x16AC JUMPI JUMPDEST SWAP1 DUP5 SWAP4 SWAP3 SWAP2 JUMPDEST PUSH1 0x1F DUP4 ADD PUSH1 0x5 SHR DUP3 ADD DUP2 LT PUSH2 0x169D JUMPI POP POP PUSH2 0x104D JUMP JUMPDEST PUSH1 0x0 DUP2 SSTORE DUP6 SWAP5 POP PUSH1 0x1 ADD PUSH2 0x1687 JUMP JUMPDEST POP DUP1 PUSH2 0x1681 JUMP JUMPDEST ADD MLOAD SWAP1 POP DUP12 DUP1 PUSH2 0xFB2 JUMP JUMPDEST PUSH1 0x7 DUP6 ADD PUSH1 0x0 SWAP1 DUP2 MSTORE DUP14 DUP2 KECCAK256 SWAP4 POP PUSH1 0x1F NOT DUP6 AND SWAP1 DUP15 JUMPDEST DUP3 DUP3 LT PUSH2 0x1714 JUMPI POP POP SWAP1 DUP5 PUSH1 0x1 SWAP6 SWAP5 SWAP4 SWAP3 LT PUSH2 0x16FB JUMPI JUMPDEST POP POP POP DUP2 SHL ADD PUSH1 0x7 DUP3 ADD SSTORE PUSH2 0xFCA JUMP JUMPDEST ADD MLOAD PUSH1 0x0 NOT PUSH1 0xF8 DUP5 PUSH1 0x3 SHL AND SHR NOT AND SWAP1 SSTORE DUP12 DUP1 DUP1 PUSH2 0x16EB JUMP JUMPDEST DUP1 PUSH1 0x1 DUP7 SWAP8 DUP3 SWAP5 SWAP8 DUP8 ADD MLOAD DUP2 SSTORE ADD SWAP7 ADD SWAP5 ADD SWAP1 PUSH2 0x16D4 JUMP JUMPDEST SWAP1 SWAP2 POP PUSH1 0x7 DUP5 ADD PUSH1 0x0 MSTORE DUP12 PUSH1 0x0 KECCAK256 PUSH1 0x1F DUP5 ADD PUSH1 0x5 SHR DUP2 ADD DUP14 DUP6 LT PUSH2 0x1776 JUMPI JUMPDEST SWAP1 DUP5 SWAP4 SWAP3 SWAP2 JUMPDEST PUSH1 0x1F DUP4 ADD PUSH1 0x5 SHR DUP3 ADD DUP2 LT PUSH2 0x1767 JUMPI POP POP PUSH2 0xF9C JUMP JUMPDEST PUSH1 0x0 DUP2 SSTORE DUP6 SWAP5 POP PUSH1 0x1 ADD PUSH2 0x1751 JUMP JUMPDEST POP DUP1 PUSH2 0x174B JUMP JUMPDEST ADD MLOAD SWAP1 POP DUP12 DUP1 PUSH2 0xF56 JUMP JUMPDEST PUSH1 0x6 DUP6 ADD PUSH1 0x0 SWAP1 DUP2 MSTORE DUP14 DUP2 KECCAK256 SWAP4 POP PUSH1 0x1F NOT DUP6 AND SWAP1 DUP15 JUMPDEST DUP3 DUP3 LT PUSH2 0x17DE JUMPI POP POP SWAP1 DUP5 PUSH1 0x1 SWAP6 SWAP5 SWAP4 SWAP3 LT PUSH2 0x17C5 JUMPI JUMPDEST POP POP POP DUP2 SHL ADD PUSH1 0x6 DUP3 ADD SSTORE PUSH2 0xF6E JUMP JUMPDEST ADD MLOAD PUSH1 0x0 NOT PUSH1 0xF8 DUP5 PUSH1 0x3 SHL AND SHR NOT AND SWAP1 SSTORE DUP12 DUP1 DUP1 PUSH2 0x17B5 JUMP JUMPDEST DUP1 PUSH1 0x1 DUP7 SWAP8 DUP3 SWAP5 SWAP8 DUP8 ADD MLOAD DUP2 SSTORE ADD SWAP7 ADD SWAP5 ADD SWAP1 PUSH2 0x179E JUMP JUMPDEST SWAP1 SWAP2 POP PUSH1 0x6 DUP5 ADD PUSH1 0x0 MSTORE DUP12 PUSH1 0x0 KECCAK256 PUSH1 0x1F DUP5 ADD PUSH1 0x5 SHR DUP2 ADD DUP14 DUP6 LT PUSH2 0x1840 JUMPI JUMPDEST SWAP1 DUP5 SWAP4 SWAP3 SWAP2 JUMPDEST PUSH1 0x1F DUP4 ADD PUSH1 0x5 SHR DUP3 ADD DUP2 LT PUSH2 0x1831 JUMPI POP POP PUSH2 0xF40 JUMP JUMPDEST PUSH1 0x0 DUP2 SSTORE DUP6 SWAP5 POP PUSH1 0x1 ADD PUSH2 0x181B JUMP JUMPDEST POP DUP1 PUSH2 0x1815 JUMP JUMPDEST ADD MLOAD SWAP1 POP DUP12 DUP1 PUSH2 0xEFA JUMP JUMPDEST PUSH1 0x5 DUP6 ADD PUSH1 0x0 SWAP1 DUP2 MSTORE DUP14 DUP2 KECCAK256 SWAP4 POP PUSH1 0x1F NOT DUP6 AND SWAP1 DUP15 JUMPDEST DUP3 DUP3 LT PUSH2 0x18A8 JUMPI POP POP SWAP1 DUP5 PUSH1 0x1 SWAP6 SWAP5 SWAP4 SWAP3 LT PUSH2 0x188F JUMPI JUMPDEST POP POP POP DUP2 SHL ADD PUSH1 0x5 DUP3 ADD SSTORE PUSH2 0xF12 JUMP JUMPDEST ADD MLOAD PUSH1 0x0 NOT PUSH1 0xF8 DUP5 PUSH1 0x3 SHL AND SHR NOT AND SWAP1 SSTORE DUP12 DUP1 DUP1 PUSH2 0x187F JUMP JUMPDEST DUP1 PUSH1 0x1 DUP7 SWAP8 DUP3 SWAP5 SWAP8 DUP8 ADD MLOAD DUP2 SSTORE ADD SWAP7 ADD SWAP5 ADD SWAP1 PUSH2 0x1868 JUMP JUMPDEST SWAP1 SWAP2 POP PUSH1 0x5 DUP5 ADD PUSH1 0x0 MSTORE DUP12 PUSH1 0x0 KECCAK256 PUSH1 0x1F DUP5 ADD PUSH1 0x5 SHR DUP2 ADD DUP14 DUP6 LT PUSH2 0x190A JUMPI JUMPDEST SWAP1 DUP5 SWAP4 SWAP3 SWAP2 JUMPDEST PUSH1 0x1F DUP4 ADD PUSH1 0x5 SHR DUP3 ADD DUP2 LT PUSH2 0x18FB JUMPI POP POP PUSH2 0xEE4 JUMP JUMPDEST PUSH1 0x0 DUP2 SSTORE DUP6 SWAP5 POP PUSH1 0x1 ADD PUSH2 0x18E5 JUMP JUMPDEST POP DUP1 PUSH2 0x18DF JUMP JUMPDEST ADD MLOAD SWAP1 POP DUP12 DUP1 PUSH2 0xE9E JUMP JUMPDEST PUSH1 0x4 DUP6 ADD PUSH1 0x0 SWAP1 DUP2 MSTORE DUP14 DUP2 KECCAK256 SWAP4 POP PUSH1 0x1F NOT DUP6 AND SWAP1 DUP15 JUMPDEST DUP3 DUP3 LT PUSH2 0x1972 JUMPI POP POP SWAP1 DUP5 PUSH1 0x1 SWAP6 SWAP5 SWAP4 SWAP3 LT PUSH2 0x1959 JUMPI JUMPDEST POP POP POP DUP2 SHL ADD PUSH1 0x4 DUP3 ADD SSTORE PUSH2 0xEB6 JUMP JUMPDEST ADD MLOAD PUSH1 0x0 NOT PUSH1 0xF8 DUP5 PUSH1 0x3 SHL AND SHR NOT AND SWAP1 SSTORE DUP12 DUP1 DUP1 PUSH2 0x1949 JUMP JUMPDEST DUP1 PUSH1 0x1 DUP7 SWAP8 DUP3 SWAP5 SWAP8 DUP8 ADD MLOAD DUP2 SSTORE ADD SWAP7 ADD SWAP5 ADD SWAP1 PUSH2 0x1932 JUMP JUMPDEST SWAP1 SWAP2 POP PUSH1 0x4 DUP5 ADD PUSH1 0x0 MSTORE DUP12 PUSH1 0x0 KECCAK256 PUSH1 0x1F DUP5 ADD PUSH1 0x5 SHR DUP2 ADD DUP14 DUP6 LT PUSH2 0x19D4 JUMPI JUMPDEST SWAP1 DUP5 SWAP4 SWAP3 SWAP2 JUMPDEST PUSH1 0x1F DUP4 ADD PUSH1 0x5 SHR DUP3 ADD DUP2 LT PUSH2 0x19C5 JUMPI POP POP PUSH2 0xE88 JUMP JUMPDEST PUSH1 0x0 DUP2 SSTORE DUP6 SWAP5 POP PUSH1 0x1 ADD PUSH2 0x19AF JUMP JUMPDEST POP DUP1 PUSH2 0x19A9 JUMP JUMPDEST CALLVALUE PUSH2 0x544 JUMPI PUSH1 0x20 CALLDATASIZE PUSH1 0x3 NOT ADD SLT PUSH2 0x544 JUMPI PUSH1 0x4 DUP1 CALLDATALOAD PUSH1 0x0 SWAP1 DUP2 MSTORE PUSH1 0x20 DUP2 SWAP1 MSTORE PUSH1 0x40 SWAP1 KECCAK256 DUP1 SLOAD PUSH1 0x1 DUP3 ADD SLOAD PUSH1 0x1 PUSH1 0x1 PUSH1 0xA0 SHL SUB SWAP1 DUP2 AND PUSH1 0xA0 MSTORE PUSH1 0x2 DUP4 ADD SLOAD AND PUSH1 0xE0 MSTORE PUSH1 0x3 DUP3 ADD SLOAD SWAP2 SWAP3 DUP4 SWAP3 SWAP1 PUSH2 0x1A31 SWAP1 DUP5 ADD PUSH2 0x21EB JUMP JUMPDEST PUSH2 0x1A3D PUSH1 0x5 DUP6 ADD PUSH2 0x21EB JUMP JUMPDEST SWAP1 PUSH2 0x1A4A PUSH1 0x6 DUP7 ADD PUSH2 0x21EB JUMP JUMPDEST SWAP2 PUSH2 0x1A57 PUSH1 0x7 DUP8 ADD PUSH2 0x21EB JUMP JUMPDEST SWAP3 PUSH1 0x8 DUP8 ADD SLOAD SWAP4 PUSH1 0x9 DUP9 ADD SLOAD SWAP2 PUSH1 0xA DUP10 ADD SLOAD SWAP4 PUSH1 0xB DUP11 ADD SLOAD SWAP6 PUSH1 0xC DUP12 ADD PUSH2 0x1A7D SWAP1 PUSH2 0x21EB JUMP JUMPDEST SWAP9 PUSH2 0x1A8A PUSH1 0xD DUP14 ADD PUSH2 0x21EB JUMP JUMPDEST SWAP11 PUSH2 0x1A97 PUSH1 0xE DUP15 ADD PUSH2 0x21EB JUMP JUMPDEST SWAP13 PUSH1 0xF ADD PUSH2 0x1AA4 SWAP1 PUSH2 0x21EB JUMP JUMPDEST SWAP14 PUSH1 0x10 ADD PUSH2 0x1AB1 SWAP1 PUSH2 0x21EB JUMP JUMPDEST PUSH1 0x80 MSTORE PUSH1 0x40 MLOAD PUSH1 0xC0 MSTORE PUSH1 0xC0 MLOAD MSTORE PUSH1 0xA0 MLOAD PUSH1 0xC0 MLOAD PUSH1 0x20 ADD MSTORE PUSH1 0xE0 MLOAD PUSH1 0xC0 MLOAD PUSH1 0x40 ADD MSTORE PUSH1 0xC0 MLOAD PUSH1 0x60 ADD MSTORE PUSH1 0xC0 MLOAD PUSH1 0x80 ADD PUSH2 0x240 SWAP1 MSTORE PUSH1 0xC0 MLOAD PUSH2 0x240 ADD PUSH2 0x1AF4 SWAP2 PUSH2 0x1FEF JUMP JUMPDEST PUSH1 0xC0 MLOAD DUP2 SUB PUSH1 0xC0 MLOAD PUSH1 0xA0 ADD MSTORE PUSH2 0x1B09 SWAP2 PUSH2 0x1FEF JUMP JUMPDEST PUSH1 0xC0 MLOAD DUP2 SUB PUSH1 0xC0 MLOAD PUSH1 0xC0 ADD MSTORE PUSH2 0x1B1E SWAP2 PUSH2 0x1FEF JUMP JUMPDEST PUSH1 0xC0 MLOAD DUP2 SUB PUSH1 0xC0 MLOAD PUSH1 0xE0 ADD MSTORE PUSH2 0x1B33 SWAP2 PUSH2 0x1FEF JUMP JUMPDEST SWAP4 PUSH1 0xFF DUP2 AND ISZERO ISZERO PUSH1 0xC0 MLOAD PUSH2 0x100 ADD MSTORE PUSH1 0x8 SHR PUSH1 0xFF AND ISZERO ISZERO PUSH1 0xC0 MLOAD PUSH2 0x120 ADD MSTORE PUSH1 0xC0 MLOAD PUSH2 0x140 ADD MSTORE PUSH1 0xC0 MLOAD PUSH2 0x160 ADD MSTORE PUSH1 0xC0 MLOAD PUSH2 0x180 ADD MSTORE PUSH1 0xC0 MLOAD DUP2 SUB PUSH1 0xC0 MLOAD PUSH2 0x1A0 ADD MSTORE PUSH2 0x1B80 SWAP2 PUSH2 0x1FEF JUMP JUMPDEST PUSH1 0xC0 MLOAD DUP2 SUB PUSH1 0xC0 MLOAD PUSH2 0x1C0 ADD MSTORE PUSH2 0x1B96 SWAP2 PUSH2 0x1FEF JUMP JUMPDEST PUSH1 0xC0 MLOAD DUP2 SUB PUSH1 0xC0 MLOAD PUSH2 0x1E0 ADD MSTORE PUSH2 0x1BAC SWAP2 PUSH2 0x1FEF JUMP JUMPDEST PUSH1 0xC0 MLOAD DUP2 SUB PUSH1 0xC0 MLOAD PUSH2 0x200 ADD MSTORE PUSH2 0x1BC2 SWAP2 PUSH2 0x1FEF JUMP JUMPDEST PUSH1 0xC0 MLOAD DUP2 SUB PUSH1 0xC0 MLOAD PUSH2 0x220 ADD MSTORE PUSH1 0xC0 MLOAD SWAP1 PUSH1 0x80 MLOAD SWAP1 PUSH2 0x1BE0 SWAP2 PUSH2 0x1FEF JUMP JUMPDEST SUB PUSH1 0xC0 MLOAD RETURN JUMPDEST CALLVALUE PUSH2 0x544 JUMPI PUSH1 0x20 CALLDATASIZE PUSH1 0x3 NOT ADD SLT PUSH2 0x544 JUMPI PUSH1 0x1 PUSH1 0x1 PUSH1 0xA0 SHL SUB PUSH2 0x1C07 PUSH2 0x1F71 JUMP JUMPDEST AND PUSH1 0x0 MSTORE PUSH1 0x1 PUSH1 0x20 MSTORE PUSH1 0x40 PUSH1 0x0 KECCAK256 PUSH1 0x40 MLOAD DUP1 DUP3 PUSH1 0x20 DUP3 SWAP5 SLOAD SWAP4 DUP5 DUP2 MSTORE ADD SWAP1 PUSH1 0x0 MSTORE PUSH1 0x20 PUSH1 0x0 KECCAK256 SWAP3 PUSH1 0x0 JUMPDEST DUP2 DUP2 LT PUSH2 0x1C9A JUMPI POP POP PUSH2 0x1C46 SWAP3 POP SUB DUP3 PUSH2 0x21CA JUMP JUMPDEST PUSH1 0x0 SWAP1 PUSH1 0x0 JUMPDEST DUP2 MLOAD DUP2 LT ISZERO PUSH2 0xAE6 JUMPI PUSH2 0x1C5F DUP2 DUP4 PUSH2 0x22E5 JUMP JUMPDEST MLOAD PUSH1 0x0 MSTORE PUSH1 0x0 PUSH1 0x20 MSTORE PUSH1 0xFF PUSH1 0x8 PUSH1 0x40 PUSH1 0x0 KECCAK256 ADD SLOAD AND PUSH2 0x1C81 JUMPI JUMPDEST PUSH1 0x1 ADD PUSH2 0x1C4C JUMP JUMPDEST SWAP2 PUSH2 0x1C92 PUSH1 0x1 SWAP2 PUSH2 0xA9D DUP6 DUP6 PUSH2 0x22E5 JUMP JUMPDEST SWAP3 SWAP1 POP PUSH2 0x1C79 JUMP JUMPDEST DUP5 SLOAD DUP4 MSTORE PUSH1 0x1 SWAP5 DUP6 ADD SWAP5 DUP7 SWAP5 POP PUSH1 0x20 SWAP1 SWAP4 ADD SWAP3 ADD PUSH2 0x1C31 JUMP JUMPDEST CALLVALUE PUSH2 0x544 JUMPI PUSH1 0x20 CALLDATASIZE PUSH1 0x3 NOT ADD SLT PUSH2 0x544 JUMPI PUSH1 0x4 CALLDATALOAD PUSH2 0x1CCF PUSH2 0x2351 JUMP JUMPDEST POP DUP1 ISZERO ISZERO DUP1 PUSH2 0x1D0E JUMPI JUMPDEST PUSH2 0x1CE2 SWAP1 PUSH2 0x23DC JUMP JUMPDEST PUSH1 0x0 MSTORE PUSH1 0x0 PUSH1 0x20 MSTORE PUSH2 0x6D2 PUSH2 0x1CFA PUSH1 0x40 PUSH1 0x0 KECCAK256 PUSH2 0x241D JUMP JUMPDEST PUSH1 0x40 MLOAD SWAP2 DUP3 SWAP2 PUSH1 0x20 DUP4 MSTORE PUSH1 0x20 DUP4 ADD SWAP1 PUSH2 0x2030 JUMP JUMPDEST POP PUSH1 0x2 SLOAD DUP2 GT ISZERO PUSH2 0x1CD9 JUMP JUMPDEST CALLVALUE PUSH2 0x544 JUMPI PUSH1 0x20 CALLDATASIZE PUSH1 0x3 NOT ADD SLT PUSH2 0x544 JUMPI PUSH1 0x1 PUSH1 0x1 PUSH1 0xA0 SHL SUB PUSH2 0x1D3B PUSH2 0x1F71 JUMP JUMPDEST AND PUSH1 0x0 MSTORE PUSH1 0x1 PUSH1 0x20 MSTORE PUSH1 0x40 PUSH1 0x0 KECCAK256 PUSH1 0x40 MLOAD DUP1 DUP3 PUSH1 0x20 DUP3 SWAP5 SLOAD SWAP4 DUP5 DUP2 MSTORE ADD SWAP1 PUSH1 0x0 MSTORE PUSH1 0x20 PUSH1 0x0 KECCAK256 SWAP3 PUSH1 0x0 JUMPDEST DUP2 DUP2 LT PUSH2 0x1E24 JUMPI POP POP PUSH2 0x1D7A SWAP3 POP SUB DUP3 PUSH2 0x21CA JUMP JUMPDEST PUSH1 0x0 DUP1 JUMPDEST DUP3 MLOAD DUP2 LT ISZERO PUSH2 0x1DC7 JUMPI PUSH2 0x1D91 DUP2 DUP5 PUSH2 0x22E5 JUMP JUMPDEST MLOAD PUSH1 0x0 MSTORE PUSH1 0x0 PUSH1 0x20 MSTORE PUSH1 0xFF PUSH1 0x8 PUSH1 0x40 PUSH1 0x0 KECCAK256 ADD SLOAD AND PUSH2 0x1DB3 JUMPI JUMPDEST PUSH1 0x1 ADD PUSH2 0x1D7E JUMP JUMPDEST SWAP1 PUSH2 0x1DBF PUSH1 0x1 SWAP2 PUSH2 0x22F9 JUMP JUMPDEST SWAP2 SWAP1 POP PUSH2 0x1DAB JUMP JUMPDEST POP PUSH2 0x1DD1 SWAP1 PUSH2 0x231F JUMP JUMPDEST SWAP1 PUSH1 0x0 DUP1 JUMPDEST DUP3 MLOAD DUP2 LT ISZERO PUSH2 0x6C4 JUMPI PUSH2 0x1DE9 DUP2 DUP5 PUSH2 0x22E5 JUMP JUMPDEST MLOAD PUSH1 0x0 MSTORE PUSH1 0x0 PUSH1 0x20 MSTORE PUSH1 0xFF PUSH1 0x8 PUSH1 0x40 PUSH1 0x0 KECCAK256 ADD SLOAD AND PUSH2 0x1E0B JUMPI JUMPDEST PUSH1 0x1 ADD PUSH2 0x1DD6 JUMP JUMPDEST SWAP1 PUSH2 0x1E1C PUSH1 0x1 SWAP2 PUSH2 0x682 DUP5 DUP7 PUSH2 0x22E5 JUMP JUMPDEST SWAP2 SWAP1 POP PUSH2 0x1E03 JUMP JUMPDEST DUP5 SLOAD DUP4 MSTORE PUSH1 0x1 SWAP5 DUP6 ADD SWAP5 DUP7 SWAP5 POP PUSH1 0x20 SWAP1 SWAP4 ADD SWAP3 ADD PUSH2 0x1D65 JUMP JUMPDEST CALLVALUE PUSH2 0x544 JUMPI PUSH1 0x20 CALLDATASIZE PUSH1 0x3 NOT ADD SLT PUSH2 0x544 JUMPI PUSH1 0x1 PUSH1 0x1 PUSH1 0xA0 SHL SUB PUSH2 0x1E5E PUSH2 0x1F71 JUMP JUMPDEST AND PUSH1 0x0 MSTORE PUSH1 0x1 PUSH1 0x20 MSTORE PUSH1 0x40 PUSH1 0x0 KECCAK256 PUSH1 0x40 MLOAD SWAP1 DUP2 PUSH1 0x20 DUP3 SLOAD SWAP2 DUP3 DUP2 MSTORE ADD SWAP2 PUSH1 0x0 MSTORE PUSH1 0x20 PUSH1 0x0 KECCAK256 SWAP1 PUSH1 0x0 JUMPDEST DUP2 DUP2 LT PUSH2 0x1EAA JUMPI PUSH2 0x6D2 DUP6 PUSH2 0x1E9E DUP2 DUP8 SUB DUP3 PUSH2 0x21CA JUMP JUMPDEST PUSH1 0x40 MLOAD SWAP2 DUP3 SWAP2 DUP3 PUSH2 0x1FB5 JUMP JUMPDEST DUP3 SLOAD DUP5 MSTORE PUSH1 0x20 SWAP1 SWAP4 ADD SWAP3 PUSH1 0x1 SWAP3 DUP4 ADD SWAP3 ADD PUSH2 0x1E87 JUMP JUMPDEST CALLVALUE PUSH2 0x544 JUMPI PUSH1 0x20 CALLDATASIZE PUSH1 0x3 NOT ADD SLT PUSH2 0x544 JUMPI PUSH1 0x1 PUSH1 0x1 PUSH1 0xA0 SHL SUB PUSH2 0x1EE1 PUSH2 0x1F71 JUMP JUMPDEST AND PUSH1 0x0 MSTORE PUSH1 0x1 PUSH1 0x20 MSTORE PUSH1 0x20 PUSH1 0x40 PUSH1 0x0 KECCAK256 SLOAD PUSH1 0x40 MLOAD SWAP1 DUP2 MSTORE RETURN JUMPDEST CALLVALUE PUSH2 0x544 JUMPI PUSH1 0x0 CALLDATASIZE PUSH1 0x3 NOT ADD SLT PUSH2 0x544 JUMPI PUSH1 0x20 PUSH1 0x2 SLOAD PUSH1 0x40 MLOAD SWAP1 DUP2 MSTORE RETURN JUMPDEST CALLVALUE PUSH2 0x544 JUMPI PUSH1 0x40 CALLDATASIZE PUSH1 0x3 NOT ADD SLT PUSH2 0x544 JUMPI PUSH2 0x1F31 PUSH2 0x1F71 JUMP JUMPDEST PUSH1 0x1 PUSH1 0x1 PUSH1 0xA0 SHL SUB AND PUSH1 0x0 SWAP1 DUP2 MSTORE PUSH1 0x1 PUSH1 0x20 MSTORE PUSH1 0x40 SWAP1 KECCAK256 DUP1 SLOAD PUSH1 0x24 CALLDATALOAD SWAP2 SWAP1 DUP3 LT ISZERO PUSH2 0x544 JUMPI PUSH1 0x20 SWAP2 PUSH2 0x1F62 SWAP2 PUSH2 0x1F87 JUMP JUMPDEST SWAP1 SLOAD SWAP1 PUSH1 0x3 SHL SHR PUSH1 0x40 MLOAD SWAP1 DUP2 MSTORE RETURN JUMPDEST PUSH1 0x4 CALLDATALOAD SWAP1 PUSH1 0x1 PUSH1 0x1 PUSH1 0xA0 SHL SUB DUP3 AND DUP3 SUB PUSH2 0x544 JUMPI JUMP JUMPDEST DUP1 SLOAD DUP3 LT ISZERO PUSH2 0x1F9F JUMPI PUSH1 0x0 MSTORE PUSH1 0x20 PUSH1 0x0 KECCAK256 ADD SWAP1 PUSH1 0x0 SWAP1 JUMP JUMPDEST PUSH4 0x4E487B71 PUSH1 0xE0 SHL PUSH1 0x0 MSTORE PUSH1 0x32 PUSH1 0x4 MSTORE PUSH1 0x24 PUSH1 0x0 REVERT JUMPDEST PUSH1 0x20 PUSH1 0x40 DUP2 DUP4 ADD SWAP3 DUP3 DUP2 MSTORE DUP5 MLOAD DUP1 SWAP5 MSTORE ADD SWAP3 ADD SWAP1 PUSH1 0x0 JUMPDEST DUP2 DUP2 LT PUSH2 0x1FD9 JUMPI POP POP POP SWAP1 JUMP JUMPDEST DUP3 MLOAD DUP5 MSTORE PUSH1 0x20 SWAP4 DUP5 ADD SWAP4 SWAP1 SWAP3 ADD SWAP2 PUSH1 0x1 ADD PUSH2 0x1FCC JUMP JUMPDEST SWAP2 SWAP1 DUP3 MLOAD SWAP3 DUP4 DUP3 MSTORE PUSH1 0x0 JUMPDEST DUP5 DUP2 LT PUSH2 0x201B JUMPI POP POP DUP3 PUSH1 0x0 PUSH1 0x20 DUP1 SWAP5 SWAP6 DUP5 ADD ADD MSTORE PUSH1 0x1F DUP1 NOT SWAP2 ADD AND ADD ADD SWAP1 JUMP JUMPDEST DUP1 PUSH1 0x20 DUP1 SWAP3 DUP5 ADD ADD MLOAD DUP3 DUP3 DUP7 ADD ADD MSTORE ADD PUSH2 0x1FFA JUMP JUMPDEST PUSH2 0x2171 SWAP2 DUP2 MLOAD DUP2 MSTORE PUSH1 0x1 DUP1 PUSH1 0xA0 SHL SUB PUSH1 0x20 DUP4 ADD MLOAD AND PUSH1 0x20 DUP3 ADD MSTORE PUSH1 0x1 DUP1 PUSH1 0xA0 SHL SUB PUSH1 0x40 DUP4 ADD MLOAD AND PUSH1 0x40 DUP3 ADD MSTORE PUSH1 0x60 DUP3 ADD MLOAD PUSH1 0x60 DUP3 ADD MSTORE PUSH2 0x220 PUSH2 0x215F PUSH2 0x214B PUSH2 0x2137 PUSH2 0x2123 PUSH2 0x20CF PUSH2 0x20BD PUSH2 0x20AB PUSH2 0x2099 PUSH1 0x80 DUP12 ADD MLOAD PUSH2 0x240 PUSH1 0x80 DUP13 ADD MSTORE PUSH2 0x240 DUP12 ADD SWAP1 PUSH2 0x1FEF JUMP JUMPDEST PUSH1 0xA0 DUP12 ADD MLOAD DUP11 DUP3 SUB PUSH1 0xA0 DUP13 ADD MSTORE PUSH2 0x1FEF JUMP JUMPDEST PUSH1 0xC0 DUP11 ADD MLOAD DUP10 DUP3 SUB PUSH1 0xC0 DUP12 ADD MSTORE PUSH2 0x1FEF JUMP JUMPDEST PUSH1 0xE0 DUP10 ADD MLOAD DUP9 DUP3 SUB PUSH1 0xE0 DUP11 ADD MSTORE PUSH2 0x1FEF JUMP JUMPDEST PUSH2 0x100 DUP9 ADD MLOAD ISZERO ISZERO PUSH2 0x100 DUP9 ADD MSTORE PUSH2 0x120 DUP9 ADD MLOAD ISZERO ISZERO PUSH2 0x120 DUP9 ADD MSTORE PUSH2 0x140 DUP9 ADD MLOAD PUSH2 0x140 DUP9 ADD MSTORE PUSH2 0x160 DUP9 ADD MLOAD PUSH2 0x160 DUP9 ADD MSTORE PUSH2 0x180 DUP9 ADD MLOAD PUSH2 0x180 DUP9 ADD MSTORE PUSH2 0x1A0 DUP9 ADD MLOAD DUP8 DUP3 SUB PUSH2 0x1A0 DUP10 ADD MSTORE PUSH2 0x1FEF JUMP JUMPDEST PUSH2 0x1C0 DUP8 ADD MLOAD DUP7 DUP3 SUB PUSH2 0x1C0 DUP9 ADD MSTORE PUSH2 0x1FEF JUMP JUMPDEST PUSH2 0x1E0 DUP7 ADD MLOAD DUP6 DUP3 SUB PUSH2 0x1E0 DUP8 ADD MSTORE PUSH2 0x1FEF JUMP JUMPDEST PUSH2 0x200 DUP6 ADD MLOAD DUP5 DUP3 SUB PUSH2 0x200 DUP7 ADD MSTORE PUSH2 0x1FEF JUMP JUMPDEST SWAP3 ADD MLOAD SWAP1 PUSH2 0x220 DUP2 DUP5 SUB SWAP2 ADD MSTORE PUSH2 0x1FEF JUMP JUMPDEST SWAP1 JUMP JUMPDEST SWAP1 PUSH1 0x1 DUP3 DUP2 SHR SWAP3 AND DUP1 ISZERO PUSH2 0x21A4 JUMPI JUMPDEST PUSH1 0x20 DUP4 LT EQ PUSH2 0x218E JUMPI JUMP JUMPDEST PUSH4 0x4E487B71 PUSH1 0xE0 SHL PUSH1 0x0 MSTORE PUSH1 0x22 PUSH1 0x4 MSTORE PUSH1 0x24 PUSH1 0x0 REVERT JUMPDEST SWAP2 PUSH1 0x7F AND SWAP2 PUSH2 0x2183 JUMP JUMPDEST PUSH2 0x240 DUP2 ADD SWAP1 DUP2 LT PUSH1 0x1 PUSH1 0x1 PUSH1 0x40 SHL SUB DUP3 GT OR PUSH2 0x39E JUMPI PUSH1 0x40 MSTORE JUMP JUMPDEST SWAP1 PUSH1 0x1F DUP1 NOT SWAP2 ADD AND DUP2 ADD SWAP1 DUP2 LT PUSH1 0x1 PUSH1 0x1 PUSH1 0x40 SHL SUB DUP3 GT OR PUSH2 0x39E JUMPI PUSH1 0x40 MSTORE JUMP JUMPDEST SWAP1 PUSH1 0x40 MLOAD SWAP2 DUP3 PUSH1 0x0 DUP3 SLOAD SWAP3 PUSH2 0x21FF DUP5 PUSH2 0x2174 JUMP JUMPDEST DUP1 DUP5 MSTORE SWAP4 PUSH1 0x1 DUP2 AND SWAP1 DUP2 ISZERO PUSH2 0x226D JUMPI POP PUSH1 0x1 EQ PUSH2 0x2226 JUMPI JUMPDEST POP PUSH2 0x2224 SWAP3 POP SUB DUP4 PUSH2 0x21CA JUMP JUMPDEST JUMP JUMPDEST SWAP1 POP PUSH1 0x0 SWAP3 SWAP2 SWAP3 MSTORE PUSH1 0x20 PUSH1 0x0 KECCAK256 SWAP1 PUSH1 0x0 SWAP2 JUMPDEST DUP2 DUP4 LT PUSH2 0x2251 JUMPI POP POP SWAP1 PUSH1 0x20 PUSH2 0x2224 SWAP3 DUP3 ADD ADD CODESIZE PUSH2 0x2217 JUMP JUMPDEST PUSH1 0x20 SWAP2 SWAP4 POP DUP1 PUSH1 0x1 SWAP2 SLOAD DUP4 DUP6 DUP10 ADD ADD MSTORE ADD SWAP2 ADD SWAP1 SWAP2 DUP5 SWAP3 PUSH2 0x2238 JUMP JUMPDEST SWAP1 POP PUSH1 0x20 SWAP3 POP PUSH2 0x2224 SWAP5 SWAP2 POP PUSH1 0xFF NOT AND DUP3 DUP5 ADD MSTORE ISZERO ISZERO PUSH1 0x5 SHL DUP3 ADD ADD CODESIZE PUSH2 0x2217 JUMP JUMPDEST DUP2 PUSH1 0x1F DUP3 ADD SLT ISZERO PUSH2 0x544 JUMPI DUP1 CALLDATALOAD SWAP1 PUSH1 0x1 PUSH1 0x1 PUSH1 0x40 SHL SUB DUP3 GT PUSH2 0x39E JUMPI PUSH1 0x40 MLOAD SWAP3 PUSH2 0x22C3 PUSH1 0x1F DUP5 ADD PUSH1 0x1F NOT AND PUSH1 0x20 ADD DUP6 PUSH2 0x21CA JUMP JUMPDEST DUP3 DUP5 MSTORE PUSH1 0x20 DUP4 DUP4 ADD ADD GT PUSH2 0x544 JUMPI DUP2 PUSH1 0x0 SWAP3 PUSH1 0x20 DUP1 SWAP4 ADD DUP4 DUP7 ADD CALLDATACOPY DUP4 ADD ADD MSTORE SWAP1 JUMP JUMPDEST DUP1 MLOAD DUP3 LT ISZERO PUSH2 0x1F9F JUMPI PUSH1 0x20 SWAP2 PUSH1 0x5 SHL ADD ADD SWAP1 JUMP JUMPDEST PUSH1 0x0 NOT DUP2 EQ PUSH2 0xC0C JUMPI PUSH1 0x1 ADD SWAP1 JUMP JUMPDEST PUSH1 0x1 PUSH1 0x1 PUSH1 0x40 SHL SUB DUP2 GT PUSH2 0x39E JUMPI PUSH1 0x5 SHL PUSH1 0x20 ADD SWAP1 JUMP JUMPDEST SWAP1 PUSH2 0x2329 DUP3 PUSH2 0x2308 JUMP JUMPDEST PUSH2 0x2336 PUSH1 0x40 MLOAD SWAP2 DUP3 PUSH2 0x21CA JUMP JUMPDEST DUP3 DUP2 MSTORE DUP1 SWAP3 PUSH2 0x2347 PUSH1 0x1F NOT SWAP2 PUSH2 0x2308 JUMP JUMPDEST ADD SWAP1 PUSH1 0x20 CALLDATASIZE SWAP2 ADD CALLDATACOPY JUMP JUMPDEST PUSH1 0x40 MLOAD SWAP1 PUSH2 0x235E DUP3 PUSH2 0x21AE JUMP JUMPDEST PUSH1 0x60 PUSH2 0x220 DUP4 PUSH1 0x0 DUP2 MSTORE PUSH1 0x0 PUSH1 0x20 DUP3 ADD MSTORE PUSH1 0x0 PUSH1 0x40 DUP3 ADD MSTORE PUSH1 0x0 DUP4 DUP3 ADD MSTORE DUP3 PUSH1 0x80 DUP3 ADD MSTORE DUP3 PUSH1 0xA0 DUP3 ADD MSTORE DUP3 PUSH1 0xC0 DUP3 ADD MSTORE DUP3 PUSH1 0xE0 DUP3 ADD MSTORE PUSH1 0x0 PUSH2 0x100 DUP3 ADD MSTORE PUSH1 0x0 PUSH2 0x120 DUP3 ADD MSTORE PUSH1 0x0 PUSH2 0x140 DUP3 ADD MSTORE PUSH1 0x0 PUSH2 0x160 DUP3 ADD MSTORE PUSH1 0x0 PUSH2 0x180 DUP3 ADD MSTORE DUP3 PUSH2 0x1A0 DUP3 ADD MSTORE DUP3 PUSH2 0x1C0 DUP3 ADD MSTORE DUP3 PUSH2 0x1E0 DUP3 ADD MSTORE DUP3 PUSH2 0x200 DUP3 ADD MSTORE ADD MSTORE JUMP JUMPDEST ISZERO PUSH2 0x23E3 JUMPI JUMP JUMPDEST PUSH1 0x40 MLOAD PUSH3 0x461BCD PUSH1 0xE5 SHL DUP2 MSTORE PUSH1 0x20 PUSH1 0x4 DUP3 ADD MSTORE PUSH1 0x12 PUSH1 0x24 DUP3 ADD MSTORE PUSH18 0x125B9D985B1A59081A5B9D9BDA58D9481251 PUSH1 0x72 SHL PUSH1 0x44 DUP3 ADD MSTORE PUSH1 0x64 SWAP1 REVERT JUMPDEST SWAP1 PUSH1 0x40 MLOAD PUSH2 0x242A DUP2 PUSH2 0x21AE JUMP JUMPDEST DUP3 SLOAD DUP2 MSTORE PUSH1 0x1 DUP4 ADD SLOAD PUSH1 0x1 PUSH1 0x1 PUSH1 0xA0 SHL SUB SWAP1 DUP2 AND PUSH1 0x20 DUP4 ADD MSTORE PUSH1 0x2 DUP5 ADD SLOAD AND PUSH1 0x40 DUP3 ADD MSTORE PUSH1 0x3 DUP4 ADD SLOAD PUSH1 0x60 DUP3 ADD MSTORE SWAP2 DUP3 SWAP1 PUSH2 0x220 SWAP1 PUSH2 0x2537 SWAP1 PUSH1 0x10 SWAP1 PUSH2 0x2472 PUSH1 0x4 DUP3 ADD PUSH2 0x21EB JUMP JUMPDEST PUSH1 0x80 DUP7 ADD MSTORE PUSH2 0x2483 PUSH1 0x5 DUP3 ADD PUSH2 0x21EB JUMP JUMPDEST PUSH1 0xA0 DUP7 ADD MSTORE PUSH2 0x2494 PUSH1 0x6 DUP3 ADD PUSH2 0x21EB JUMP JUMPDEST PUSH1 0xC0 DUP7 ADD MSTORE PUSH2 0x24A5 PUSH1 0x7 DUP3 ADD PUSH2 0x21EB JUMP JUMPDEST PUSH1 0xE0 DUP7 ADD MSTORE PUSH1 0xFF PUSH1 0x8 DUP3 ADD SLOAD DUP2 DUP2 AND ISZERO ISZERO PUSH2 0x100 DUP9 ADD MSTORE PUSH1 0x8 SHR AND ISZERO ISZERO PUSH2 0x120 DUP7 ADD MSTORE PUSH1 0x9 DUP2 ADD SLOAD PUSH2 0x140 DUP7 ADD MSTORE PUSH1 0xA DUP2 ADD SLOAD PUSH2 0x160 DUP7 ADD MSTORE PUSH1 0xB DUP2 ADD SLOAD PUSH2 0x180 DUP7 ADD MSTORE PUSH2 0x24F5 PUSH1 0xC DUP3 ADD PUSH2 0x21EB JUMP JUMPDEST PUSH2 0x1A0 DUP7 ADD MSTORE PUSH2 0x2507 PUSH1 0xD DUP3 ADD PUSH2 0x21EB JUMP JUMPDEST PUSH2 0x1C0 DUP7 ADD MSTORE PUSH2 0x2519 PUSH1 0xE DUP3 ADD PUSH2 0x21EB JUMP JUMPDEST PUSH2 0x1E0 DUP7 ADD MSTORE PUSH2 0x252B PUSH1 0xF DUP3 ADD PUSH2 0x21EB JUMP JUMPDEST PUSH2 0x200 DUP7 ADD MSTORE ADD PUSH2 0x21EB JUMP JUMPDEST SWAP2 ADD MSTORE JUMP JUMPDEST SWAP2 SWAP1 DUP3 ADD DUP1 SWAP3 GT PUSH2 0xC0C JUMPI JUMP INVALID LOG2 PUSH5 0x6970667358 0x22 SLT KECCAK256 DELEGATECALL PUSH22 0x284050C4D6D4F10E343DAEE9153E2A75BA042868D191 DUP12 PUSH29 0x3C9D4B9F0A1E64736F6C634300081C0033000000000000000000000000 "},"methodIdentifiers":{"cancelInvoice(uint256)":"da9c273d","confirmPayment(uint256,string,string)":"ea20f362","createInvoice(address,uint256,string,string,string,string,uint256,string,string,string)":"511656db","getAllInvoices()":"570bdad6","getInvoice(uint256)":"3a23cc0a","getInvoicesByStatus(bool,bool)":"96c579fa","getPaidInvoices(address)":"2542a1f9","getPendingAmount(address)":"7571af22","getPendingInvoices(address)":"e3f1a28d","getTotalRevenue(address)":"49567e01","getUserInvoiceCount(address)":"21e2a791","getUserInvoices(address)":"24d3b3e2","invoiceCount()":"1346f0c4","invoices(uint256)":"4e6d1405","userInvoices(address,uint256)":"0ad6b0a5"}}}}}