{"contracts/MezoVaultContract.sol":{"MezoVaultContract":{"abi":[{"inputs":[{"internalType":"address","name":"_musdToken","type":"address"}],"stateMutability":"nonpayable","type":"constructor"},{"inputs":[{"internalType":"address","name":"owner","type":"address"}],"name":"OwnableInvalidOwner","type":"error"},{"inputs":[{"internalType":"address","name":"account","type":"address"}],"name":"OwnableUnauthorizedAccount","type":"error"},{"inputs":[],"name":"ReentrancyGuardReentrantCall","type":"error"},{"anonymous":false,"inputs":[{"indexed":true,"internalType":"address","name":"user","type":"address"},{"indexed":false,"internalType":"uint256","name":"amount","type":"uint256"}],"name":"CollateralDeposited","type":"event"},{"anonymous":false,"inputs":[{"indexed":true,"internalType":"address","name":"user","type":"address"},{"indexed":false,"internalType":"uint256","name":"amount","type":"uint256"}],"name":"CollateralWithdrawn","type":"event"},{"anonymous":false,"inputs":[{"indexed":true,"internalType":"address","name":"user","type":"address"},{"indexed":false,"internalType":"uint256","name":"amount","type":"uint256"}],"name":"MUSDBorrowed","type":"event"},{"anonymous":false,"inputs":[{"indexed":true,"internalType":"address","name":"user","type":"address"},{"indexed":false,"internalType":"uint256","name":"amount","type":"uint256"}],"name":"MUSDRepaid","type":"event"},{"anonymous":false,"inputs":[{"indexed":true,"internalType":"address","name":"previousOwner","type":"address"},{"indexed":true,"internalType":"address","name":"newOwner","type":"address"}],"name":"OwnershipTransferred","type":"event"},{"anonymous":false,"inputs":[{"indexed":true,"internalType":"address","name":"user","type":"address"},{"indexed":false,"internalType":"uint256","name":"collateralAmount","type":"uint256"},{"indexed":false,"internalType":"uint256","name":"debtAmount","type":"uint256"}],"name":"VaultLiquidated","type":"event"},{"inputs":[],"name":"BTC_PRICE_USD","outputs":[{"internalType":"uint256","name":"","type":"uint256"}],"stateMutability":"view","type":"function"},{"inputs":[],"name":"INTEREST_RATE","outputs":[{"internalType":"uint256","name":"","type":"uint256"}],"stateMutability":"view","type":"function"},{"inputs":[],"name":"MIN_COLLATERAL_RATIO","outputs":[{"internalType":"uint256","name":"","type":"uint256"}],"stateMutability":"view","type":"function"},{"inputs":[{"internalType":"uint256","name":"amount","type":"uint256"}],"name":"borrowMUSD","outputs":[],"stateMutability":"nonpayable","type":"function"},{"inputs":[{"internalType":"uint256","name":"amount","type":"uint256"}],"name":"depositCollateral","outputs":[],"stateMutability":"payable","type":"function"},{"inputs":[],"name":"emergencyWithdraw","outputs":[],"stateMutability":"nonpayable","type":"function"},{"inputs":[{"internalType":"address","name":"user","type":"address"}],"name":"getBorrowedAmount","outputs":[{"internalType":"uint256","name":"","type":"uint256"}],"stateMutability":"view","type":"function"},{"inputs":[{"internalType":"address","name":"user","type":"address"}],"name":"getCollateralBalance","outputs":[{"internalType":"uint256","name":"","type":"uint256"}],"stateMutability":"view","type":"function"},{"inputs":[{"internalType":"address","name":"user","type":"address"}],"name":"getCollateralRatio","outputs":[{"internalType":"uint256","name":"","type":"uint256"}],"stateMutability":"view","type":"function"},{"inputs":[{"internalType":"address","name":"user","type":"address"}],"name":"getHealthFactor","outputs":[{"internalType":"uint256","name":"","type":"uint256"}],"stateMutability":"view","type":"function"},{"inputs":[],"name":"getInterestRate","outputs":[{"internalType":"uint256","name":"","type":"uint256"}],"stateMutability":"pure","type":"function"},{"inputs":[{"internalType":"address","name":"user","type":"address"}],"name":"getLiquidationPrice","outputs":[{"internalType":"uint256","name":"","type":"uint256"}],"stateMutability":"view","type":"function"},{"inputs":[],"name":"musdToken","outputs":[{"internalType":"address","name":"","type":"address"}],"stateMutability":"view","type":"function"},{"inputs":[],"name":"owner","outputs":[{"internalType":"address","name":"","type":"address"}],"stateMutability":"view","type":"function"},{"inputs":[],"name":"renounceOwnership","outputs":[],"stateMutability":"nonpayable","type":"function"},{"inputs":[{"internalType":"uint256","name":"amount","type":"uint256"}],"name":"repayMUSD","outputs":[],"stateMutability":"nonpayable","type":"function"},{"inputs":[],"name":"totalBorrowed","outputs":[{"internalType":"uint256","name":"","type":"uint256"}],"stateMutability":"view","type":"function"},{"inputs":[],"name":"totalCollateral","outputs":[{"internalType":"uint256","name":"","type":"uint256"}],"stateMutability":"view","type":"function"},{"inputs":[{"internalType":"address","name":"newOwner","type":"address"}],"name":"transferOwnership","outputs":[],"stateMutability":"nonpayable","type":"function"},{"inputs":[{"internalType":"address","name":"","type":"address"}],"name":"vaults","outputs":[{"internalType":"uint256","name":"collateralAmount","type":"uint256"},{"internalType":"uint256","name":"borrowedAmount","type":"uint256"},{"internalType":"uint256","name":"lastUpdateTime","type":"uint256"},{"internalType":"bool","name":"exists","type":"bool"}],"stateMutability":"view","type":"function"},{"inputs":[{"internalType":"uint256","name":"amount","type":"uint256"}],"name":"withdrawCollateral","outputs":[],"stateMutability":"nonpayable","type":"function"},{"stateMutability":"payable","type":"receive"}],"evm":{"bytecode":{"linkReferences":{},"object":"608060405234801561001057600080fd5b506040516110c83803806110c883398101604081905261002f916100db565b6001600055338061005a57604051631e4fbdf760e01b81526000600482015260240160405180910390fd5b61006381610089565b50600280546001600160a01b0319166001600160a01b039290921691909117905561010b565b600180546001600160a01b038381166001600160a01b0319831681179093556040519116919082907f8be0079c531659141344cd1fd0a4f28419497f9722a3daafe3b4186f6b6457e090600090a35050565b6000602082840312156100ed57600080fd5b81516001600160a01b038116811461010457600080fd5b9392505050565b610fae8061011a6000396000f3fe60806040526004361061012e5760003560e01c8063715018a6116100ab578063a622ee7c1161006f578063a622ee7c1461030c578063b9f2c7b514610375578063bad4a01f146103ae578063db2e21bc146103c1578063f2fde38b146103d6578063fe6bcd7c146103f657600080fd5b8063715018a61461027057806378f3ef22146102855780637a9fffb7146102a55780638da5cb5b146102ba5780639d78d46b146102ec57600080fd5b80634ac8eb5f116100f25780634ac8eb5f146101fb5780634c19386c146102115780635257b566146102275780635b72a33a1461023b5780636112fe2e1461025057600080fd5b8063154fefc21461013a57806315a3ba431461016357806317d8de8214610183578063211f0277146101a35780632703ee85146101c557600080fd5b3661013557005b600080fd5b34801561014657600080fd5b5061015061c35081565b6040519081526020015b60405180910390f35b34801561016f57600080fd5b5061015061017e366004610e21565b610416565b34801561018f57600080fd5b5061015061019e366004610e21565b6104be565b3480156101af57600080fd5b506101c36101be366004610e4a565b61053f565b005b3480156101d157600080fd5b506101506101e0366004610e21565b6001600160a01b031660009081526003602052604090205490565b34801561020757600080fd5b5061015060045481565b34801561021d57600080fd5b5061015060055481565b34801561023357600080fd5b5060fa610150565b34801561024757600080fd5b5061015060fa81565b34801561025c57600080fd5b506101c361026b366004610e4a565b6106df565b34801561027c57600080fd5b506101c3610888565b34801561029157600080fd5b506101c36102a0366004610e4a565b61089c565b3480156102b157600080fd5b50610150606e81565b3480156102c657600080fd5b506001546001600160a01b03165b6040516001600160a01b03909116815260200161015a565b3480156102f857600080fd5b506002546102d4906001600160a01b031681565b34801561031857600080fd5b50610353610327366004610e21565b600360208190526000918252604090912080546001820154600283015492909301549092919060ff1684565b604080519485526020850193909352918301521515606082015260800161015a565b34801561038157600080fd5b50610150610390366004610e21565b6001600160a01b031660009081526003602052604090206001015490565b6101c36103bc366004610e4a565b610a61565b3480156103cd57600080fd5b506101c3610b7e565b3480156103e257600080fd5b506101c36103f1366004610e21565b610bbf565b34801561040257600080fd5b50610150610411366004610e21565b610bfa565b6001600160a01b038116600090815260036020818152604080842081516080810183528154815260018201549381018490526002820154928101929092529092015460ff161515606083015282036104715750600092915050565b6000670de0b6b3a764000061c350836000015161048e9190610e79565b6104989190610e90565b60208301519091506104ac82612710610e79565b6104b69190610e90565b949350505050565b6001600160a01b0381166000908152600360208181526040808420815160808101835281548082526001830154948201949094526002820154928101929092529092015460ff1615156060830152820361051b5750600092915050565b8051602082015161052e90606e90610e79565b6105389190610e90565b9392505050565b610547610c87565b600081116105705760405162461bcd60e51b815260040161056790610eb2565b60405180910390fd5b3360009081526003602081905260409091209081015460ff166105a55760405162461bcd60e51b815260040161056790610ee9565b6105ae33610cb1565b60008282600101546105c09190610f17565b90506105d0826000015482610d45565b6106165760405162461bcd60e51b8152602060048201526017602482015276125b9cdd59999a58da595b9d0818dbdb1b185d195c985b604a1b6044820152606401610567565b80826001018190555082600560008282546106319190610f17565b90915550506002546040516340c10f1960e01b8152336004820152602481018590526001600160a01b03909116906340c10f1990604401600060405180830381600087803b15801561068257600080fd5b505af1158015610696573d6000803e3d6000fd5b50506040518581523392507f20da8f6e39cc42d87e1a570c1a21fe80e2882e71d765e5543d17a0756449527891506020015b60405180910390a250506106dc6001600055565b50565b6106e7610c87565b600081116107075760405162461bcd60e51b815260040161056790610eb2565b3360009081526003602081905260409091209081015460ff1661073c5760405162461bcd60e51b815260040161056790610ee9565b61074533610cb1565b8054600090610755908490610f2a565b90506001820154156107c05761076f818360010154610d45565b6107bb5760405162461bcd60e51b815260206004820152601d60248201527f496e73756666696369656e7420636f6c6c61746572616c20726174696f0000006044820152606401610567565b61080b565b815483111561080b5760405162461bcd60e51b8152602060048201526017602482015276125b9cdd59999a58da595b9d0818dbdb1b185d195c985b604a1b6044820152606401610567565b80825560048054849190600090610823908490610f2a565b9091555050604051339084156108fc029085906000818181858888f19350505050158015610855573d6000803e3d6000fd5b5060405183815233907fc30fcfbcaac9e0deffa719714eaa82396ff506a0d0d0eebe170830177288715d906020016106c8565b610890610da2565b61089a6000610dcf565b565b6108a4610c87565b600081116108c45760405162461bcd60e51b815260040161056790610eb2565b3360009081526003602081905260409091209081015460ff166108f95760405162461bcd60e51b815260040161056790610ee9565b61090233610cb1565b600081600101548311610915578261091b565b81600101545b9050808260010160008282546109319190610f2a565b92505081905550806005600082825461094a9190610f2a565b90915550506002546040516323b872dd60e01b8152336004820152306024820152604481018390526001600160a01b03909116906323b872dd906064016020604051808303816000875af11580156109a6573d6000803e3d6000fd5b505050506040513d601f19601f820116820180604052508101906109ca9190610f3d565b50600254604051632770a7eb60e21b8152306004820152602481018390526001600160a01b0390911690639dc29fac90604401600060405180830381600087803b158015610a1757600080fd5b505af1158015610a2b573d6000803e3d6000fd5b50506040518381523392507fd8e31e478118d9c8ea5f823945962d1e74951bdee736d578121095bff7d5501891506020016106c8565b610a69610c87565b60008111610a895760405162461bcd60e51b815260040161056790610eb2565b803414610acf5760405162461bcd60e51b8152602060048201526014602482015273125b98dbdc9c9958dd0811551208185b5bdd5b9d60621b6044820152606401610567565b3360009081526003602081905260409091209081015460ff1615610af657610af633610cb1565b81816000016000828254610b0a9190610f17565b909155505060038101805460ff1916600117905542600282015560048054839190600090610b39908490610f17565b909155505060405182815233907fd7243f6f8212d5188fd054141cf6ea89cfc0d91facb8c3afe2f88a13584801429060200160405180910390a2506106dc6001600055565b610b86610da2565b6001546040516001600160a01b03909116904780156108fc02916000818181858888f193505050501580156106dc573d6000803e3d6000fd5b610bc7610da2565b6001600160a01b038116610bf157604051631e4fbdf760e01b815260006004820152602401610567565b6106dc81610dcf565b6040516315a3ba4360e01b81526001600160a01b0382166004820152600090819030906315a3ba4390602401602060405180830381865afa158015610c43573d6000803e3d6000fd5b505050506040513d601f19601f82011682018060405250810190610c679190610f5f565b905080600003610c7a5750600092915050565b606e61052e826064610e79565b600260005403610caa57604051633ee5aeb560e01b815260040160405180910390fd5b6002600055565b6001600160a01b03811660009081526003602052604081206001810154909103610cd9575050565b6000816002015442610ceb9190610f2a565b9050600064496cebb8008260fa8560010154610d079190610e79565b610d119190610e79565b610d1b9190610e90565b905080836001016000828254610d319190610f17565b909155505042600290930192909255505050565b600081600003610d5757506001610d9c565b6000670de0b6b3a7640000610d6e61c35086610e79565b610d789190610e90565b9050600083610d8983612710610e79565b610d939190610e90565b606e1115925050505b92915050565b6001546001600160a01b0316331461089a5760405163118cdaa760e01b8152336004820152602401610567565b600180546001600160a01b038381166001600160a01b0319831681179093556040519116919082907f8be0079c531659141344cd1fd0a4f28419497f9722a3daafe3b4186f6b6457e090600090a35050565b600060208284031215610e3357600080fd5b81356001600160a01b038116811461053857600080fd5b600060208284031215610e5c57600080fd5b5035919050565b634e487b7160e01b600052601160045260246000fd5b8082028115828204841417610d9c57610d9c610e63565b600082610ead57634e487b7160e01b600052601260045260246000fd5b500490565b6020808252601d908201527f416d6f756e74206d7573742062652067726561746572207468616e2030000000604082015260600190565b60208082526014908201527315985d5b1d08191bd95cc81b9bdd08195e1a5cdd60621b604082015260600190565b80820180821115610d9c57610d9c610e63565b81810381811115610d9c57610d9c610e63565b600060208284031215610f4f57600080fd5b8151801515811461053857600080fd5b600060208284031215610f7157600080fd5b505191905056fea26469706673582212200e5378bcebe99c97f65839d705336bd0a243961420c4759f4d8dd3f2941736dc64736f6c634300081c0033","opcodes":"PUSH1 0x80 PUSH1 0x40 MSTORE CALLVALUE DUP1 ISZERO PUSH2 0x10 JUMPI PUSH1 0x0 DUP1 REVERT JUMPDEST POP PUSH1 0x40 MLOAD PUSH2 0x10C8 CODESIZE SUB DUP1 PUSH2 0x10C8 DUP4 CODECOPY DUP2 ADD PUSH1 0x40 DUP2 SWAP1 MSTORE PUSH2 0x2F SWAP2 PUSH2 0xDB JUMP JUMPDEST PUSH1 0x1 PUSH1 0x0 SSTORE CALLER DUP1 PUSH2 0x5A JUMPI PUSH1 0x40 MLOAD PUSH4 0x1E4FBDF7 PUSH1 0xE0 SHL DUP2 MSTORE PUSH1 0x0 PUSH1 0x4 DUP3 ADD MSTORE PUSH1 0x24 ADD PUSH1 0x40 MLOAD DUP1 SWAP2 SUB SWAP1 REVERT JUMPDEST PUSH2 0x63 DUP2 PUSH2 0x89 JUMP JUMPDEST POP PUSH1 0x2 DUP1 SLOAD PUSH1 0x1 PUSH1 0x1 PUSH1 0xA0 SHL SUB NOT AND PUSH1 0x1 PUSH1 0x1 PUSH1 0xA0 SHL SUB SWAP3 SWAP1 SWAP3 AND SWAP2 SWAP1 SWAP2 OR SWAP1 SSTORE PUSH2 0x10B JUMP JUMPDEST PUSH1 0x1 DUP1 SLOAD PUSH1 0x1 PUSH1 0x1 PUSH1 0xA0 SHL SUB DUP4 DUP2 AND PUSH1 0x1 PUSH1 0x1 PUSH1 0xA0 SHL SUB NOT DUP4 AND DUP2 OR SWAP1 SWAP4 SSTORE PUSH1 0x40 MLOAD SWAP2 AND SWAP2 SWAP1 DUP3 SWAP1 PUSH32 0x8BE0079C531659141344CD1FD0A4F28419497F9722A3DAAFE3B4186F6B6457E0 SWAP1 PUSH1 0x0 SWAP1 LOG3 POP POP JUMP JUMPDEST PUSH1 0x0 PUSH1 0x20 DUP3 DUP5 SUB SLT ISZERO PUSH2 0xED JUMPI PUSH1 0x0 DUP1 REVERT JUMPDEST DUP2 MLOAD PUSH1 0x1 PUSH1 0x1 PUSH1 0xA0 SHL SUB DUP2 AND DUP2 EQ PUSH2 0x104 JUMPI PUSH1 0x0 DUP1 REVERT JUMPDEST SWAP4 SWAP3 POP POP POP JUMP JUMPDEST PUSH2 0xFAE DUP1 PUSH2 0x11A PUSH1 0x0 CODECOPY PUSH1 0x0 RETURN INVALID PUSH1 0x80 PUSH1 0x40 MSTORE PUSH1 0x4 CALLDATASIZE LT PUSH2 0x12E JUMPI PUSH1 0x0 CALLDATALOAD PUSH1 0xE0 SHR DUP1 PUSH4 0x715018A6 GT PUSH2 0xAB JUMPI DUP1 PUSH4 0xA622EE7C GT PUSH2 0x6F JUMPI DUP1 PUSH4 0xA622EE7C EQ PUSH2 0x30C JUMPI DUP1 PUSH4 0xB9F2C7B5 EQ PUSH2 0x375 JUMPI DUP1 PUSH4 0xBAD4A01F EQ PUSH2 0x3AE JUMPI DUP1 PUSH4 0xDB2E21BC EQ PUSH2 0x3C1 JUMPI DUP1 PUSH4 0xF2FDE38B EQ PUSH2 0x3D6 JUMPI DUP1 PUSH4 0xFE6BCD7C EQ PUSH2 0x3F6 JUMPI PUSH1 0x0 DUP1 REVERT JUMPDEST DUP1 PUSH4 0x715018A6 EQ PUSH2 0x270 JUMPI DUP1 PUSH4 0x78F3EF22 EQ PUSH2 0x285 JUMPI DUP1 PUSH4 0x7A9FFFB7 EQ PUSH2 0x2A5 JUMPI DUP1 PUSH4 0x8DA5CB5B EQ PUSH2 0x2BA JUMPI DUP1 PUSH4 0x9D78D46B EQ PUSH2 0x2EC JUMPI PUSH1 0x0 DUP1 REVERT JUMPDEST DUP1 PUSH4 0x4AC8EB5F GT PUSH2 0xF2 JUMPI DUP1 PUSH4 0x4AC8EB5F EQ PUSH2 0x1FB JUMPI DUP1 PUSH4 0x4C19386C EQ PUSH2 0x211 JUMPI DUP1 PUSH4 0x5257B566 EQ PUSH2 0x227 JUMPI DUP1 PUSH4 0x5B72A33A EQ PUSH2 0x23B JUMPI DUP1 PUSH4 0x6112FE2E EQ PUSH2 0x250 JUMPI PUSH1 0x0 DUP1 REVERT JUMPDEST DUP1 PUSH4 0x154FEFC2 EQ PUSH2 0x13A JUMPI DUP1 PUSH4 0x15A3BA43 EQ PUSH2 0x163 JUMPI DUP1 PUSH4 0x17D8DE82 EQ PUSH2 0x183 JUMPI DUP1 PUSH4 0x211F0277 EQ PUSH2 0x1A3 JUMPI DUP1 PUSH4 0x2703EE85 EQ PUSH2 0x1C5 JUMPI PUSH1 0x0 DUP1 REVERT JUMPDEST CALLDATASIZE PUSH2 0x135 JUMPI STOP JUMPDEST PUSH1 0x0 DUP1 REVERT JUMPDEST CALLVALUE DUP1 ISZERO PUSH2 0x146 JUMPI PUSH1 0x0 DUP1 REVERT JUMPDEST POP PUSH2 0x150 PUSH2 0xC350 DUP2 JUMP JUMPDEST PUSH1 0x40 MLOAD SWAP1 DUP2 MSTORE PUSH1 0x20 ADD JUMPDEST PUSH1 0x40 MLOAD DUP1 SWAP2 SUB SWAP1 RETURN JUMPDEST CALLVALUE DUP1 ISZERO PUSH2 0x16F JUMPI PUSH1 0x0 DUP1 REVERT JUMPDEST POP PUSH2 0x150 PUSH2 0x17E CALLDATASIZE PUSH1 0x4 PUSH2 0xE21 JUMP JUMPDEST PUSH2 0x416 JUMP JUMPDEST CALLVALUE DUP1 ISZERO PUSH2 0x18F JUMPI PUSH1 0x0 DUP1 REVERT JUMPDEST POP PUSH2 0x150 PUSH2 0x19E CALLDATASIZE PUSH1 0x4 PUSH2 0xE21 JUMP JUMPDEST PUSH2 0x4BE JUMP JUMPDEST CALLVALUE DUP1 ISZERO PUSH2 0x1AF JUMPI PUSH1 0x0 DUP1 REVERT JUMPDEST POP PUSH2 0x1C3 PUSH2 0x1BE CALLDATASIZE PUSH1 0x4 PUSH2 0xE4A JUMP JUMPDEST PUSH2 0x53F JUMP JUMPDEST STOP JUMPDEST CALLVALUE DUP1 ISZERO PUSH2 0x1D1 JUMPI PUSH1 0x0 DUP1 REVERT JUMPDEST POP PUSH2 0x150 PUSH2 0x1E0 CALLDATASIZE PUSH1 0x4 PUSH2 0xE21 JUMP JUMPDEST PUSH1 0x1 PUSH1 0x1 PUSH1 0xA0 SHL SUB AND PUSH1 0x0 SWAP1 DUP2 MSTORE PUSH1 0x3 PUSH1 0x20 MSTORE PUSH1 0x40 SWAP1 KECCAK256 SLOAD SWAP1 JUMP JUMPDEST CALLVALUE DUP1 ISZERO PUSH2 0x207 JUMPI PUSH1 0x0 DUP1 REVERT JUMPDEST POP PUSH2 0x150 PUSH1 0x4 SLOAD DUP2 JUMP JUMPDEST CALLVALUE DUP1 ISZERO PUSH2 0x21D JUMPI PUSH1 0x0 DUP1 REVERT JUMPDEST POP PUSH2 0x150 PUSH1 0x5 SLOAD DUP2 JUMP JUMPDEST CALLVALUE DUP1 ISZERO PUSH2 0x233 JUMPI PUSH1 0x0 DUP1 REVERT JUMPDEST POP PUSH1 0xFA PUSH2 0x150 JUMP JUMPDEST CALLVALUE DUP1 ISZERO PUSH2 0x247 JUMPI PUSH1 0x0 DUP1 REVERT JUMPDEST POP PUSH2 0x150 PUSH1 0xFA DUP2 JUMP JUMPDEST CALLVALUE DUP1 ISZERO PUSH2 0x25C JUMPI PUSH1 0x0 DUP1 REVERT JUMPDEST POP PUSH2 0x1C3 PUSH2 0x26B CALLDATASIZE PUSH1 0x4 PUSH2 0xE4A JUMP JUMPDEST PUSH2 0x6DF JUMP JUMPDEST CALLVALUE DUP1 ISZERO PUSH2 0x27C JUMPI PUSH1 0x0 DUP1 REVERT JUMPDEST POP PUSH2 0x1C3 PUSH2 0x888 JUMP JUMPDEST CALLVALUE DUP1 ISZERO PUSH2 0x291 JUMPI PUSH1 0x0 DUP1 REVERT JUMPDEST POP PUSH2 0x1C3 PUSH2 0x2A0 CALLDATASIZE PUSH1 0x4 PUSH2 0xE4A JUMP JUMPDEST PUSH2 0x89C JUMP JUMPDEST CALLVALUE DUP1 ISZERO PUSH2 0x2B1 JUMPI PUSH1 0x0 DUP1 REVERT JUMPDEST POP PUSH2 0x150 PUSH1 0x6E DUP2 JUMP JUMPDEST CALLVALUE DUP1 ISZERO PUSH2 0x2C6 JUMPI PUSH1 0x0 DUP1 REVERT JUMPDEST POP PUSH1 0x1 SLOAD PUSH1 0x1 PUSH1 0x1 PUSH1 0xA0 SHL SUB AND JUMPDEST PUSH1 0x40 MLOAD PUSH1 0x1 PUSH1 0x1 PUSH1 0xA0 SHL SUB SWAP1 SWAP2 AND DUP2 MSTORE PUSH1 0x20 ADD PUSH2 0x15A JUMP JUMPDEST CALLVALUE DUP1 ISZERO PUSH2 0x2F8 JUMPI PUSH1 0x0 DUP1 REVERT JUMPDEST POP PUSH1 0x2 SLOAD PUSH2 0x2D4 SWAP1 PUSH1 0x1 PUSH1 0x1 PUSH1 0xA0 SHL SUB AND DUP2 JUMP JUMPDEST CALLVALUE DUP1 ISZERO PUSH2 0x318 JUMPI PUSH1 0x0 DUP1 REVERT JUMPDEST POP PUSH2 0x353 PUSH2 0x327 CALLDATASIZE PUSH1 0x4 PUSH2 0xE21 JUMP JUMPDEST PUSH1 0x3 PUSH1 0x20 DUP2 SWAP1 MSTORE PUSH1 0x0 SWAP2 DUP3 MSTORE PUSH1 0x40 SWAP1 SWAP2 KECCAK256 DUP1 SLOAD PUSH1 0x1 DUP3 ADD SLOAD PUSH1 0x2 DUP4 ADD SLOAD SWAP3 SWAP1 SWAP4 ADD SLOAD SWAP1 SWAP3 SWAP2 SWAP1 PUSH1 0xFF AND DUP5 JUMP JUMPDEST PUSH1 0x40 DUP1 MLOAD SWAP5 DUP6 MSTORE PUSH1 0x20 DUP6 ADD SWAP4 SWAP1 SWAP4 MSTORE SWAP2 DUP4 ADD MSTORE ISZERO ISZERO PUSH1 0x60 DUP3 ADD MSTORE PUSH1 0x80 ADD PUSH2 0x15A JUMP JUMPDEST CALLVALUE DUP1 ISZERO PUSH2 0x381 JUMPI PUSH1 0x0 DUP1 REVERT JUMPDEST POP PUSH2 0x150 PUSH2 0x390 CALLDATASIZE PUSH1 0x4 PUSH2 0xE21 JUMP JUMPDEST PUSH1 0x1 PUSH1 0x1 PUSH1 0xA0 SHL SUB AND PUSH1 0x0 SWAP1 DUP2 MSTORE PUSH1 0x3 PUSH1 0x20 MSTORE PUSH1 0x40 SWAP1 KECCAK256 PUSH1 0x1 ADD SLOAD SWAP1 JUMP JUMPDEST PUSH2 0x1C3 PUSH2 0x3BC CALLDATASIZE PUSH1 0x4 PUSH2 0xE4A JUMP JUMPDEST PUSH2 0xA61 JUMP JUMPDEST CALLVALUE DUP1 ISZERO PUSH2 0x3CD JUMPI PUSH1 0x0 DUP1 REVERT JUMPDEST POP PUSH2 0x1C3 PUSH2 0xB7E JUMP JUMPDEST CALLVALUE DUP1 ISZERO PUSH2 0x3E2 JUMPI PUSH1 0x0 DUP1 REVERT JUMPDEST POP PUSH2 0x1C3 PUSH2 0x3F1 CALLDATASIZE PUSH1 0x4 PUSH2 0xE21 JUMP JUMPDEST PUSH2 0xBBF JUMP JUMPDEST CALLVALUE DUP1 ISZERO PUSH2 0x402 JUMPI PUSH1 0x0 DUP1 REVERT JUMPDEST POP PUSH2 0x150 PUSH2 0x411 CALLDATASIZE PUSH1 0x4 PUSH2 0xE21 JUMP JUMPDEST PUSH2 0xBFA JUMP JUMPDEST PUSH1 0x1 PUSH1 0x1 PUSH1 0xA0 SHL SUB DUP2 AND PUSH1 0x0 SWAP1 DUP2 MSTORE PUSH1 0x3 PUSH1 0x20 DUP2 DUP2 MSTORE PUSH1 0x40 DUP1 DUP5 KECCAK256 DUP2 MLOAD PUSH1 0x80 DUP2 ADD DUP4 MSTORE DUP2 SLOAD DUP2 MSTORE PUSH1 0x1 DUP3 ADD SLOAD SWAP4 DUP2 ADD DUP5 SWAP1 MSTORE PUSH1 0x2 DUP3 ADD SLOAD SWAP3 DUP2 ADD SWAP3 SWAP1 SWAP3 MSTORE SWAP1 SWAP3 ADD SLOAD PUSH1 0xFF AND ISZERO ISZERO PUSH1 0x60 DUP4 ADD MSTORE DUP3 SUB PUSH2 0x471 JUMPI POP PUSH1 0x0 SWAP3 SWAP2 POP POP JUMP JUMPDEST PUSH1 0x0 PUSH8 0xDE0B6B3A7640000 PUSH2 0xC350 DUP4 PUSH1 0x0 ADD MLOAD PUSH2 0x48E SWAP2 SWAP1 PUSH2 0xE79 JUMP JUMPDEST PUSH2 0x498 SWAP2 SWAP1 PUSH2 0xE90 JUMP JUMPDEST PUSH1 0x20 DUP4 ADD MLOAD SWAP1 SWAP2 POP PUSH2 0x4AC DUP3 PUSH2 0x2710 PUSH2 0xE79 JUMP JUMPDEST PUSH2 0x4B6 SWAP2 SWAP1 PUSH2 0xE90 JUMP JUMPDEST SWAP5 SWAP4 POP POP POP POP JUMP JUMPDEST PUSH1 0x1 PUSH1 0x1 PUSH1 0xA0 SHL SUB DUP2 AND PUSH1 0x0 SWAP1 DUP2 MSTORE PUSH1 0x3 PUSH1 0x20 DUP2 DUP2 MSTORE PUSH1 0x40 DUP1 DUP5 KECCAK256 DUP2 MLOAD PUSH1 0x80 DUP2 ADD DUP4 MSTORE DUP2 SLOAD DUP1 DUP3 MSTORE PUSH1 0x1 DUP4 ADD SLOAD SWAP5 DUP3 ADD SWAP5 SWAP1 SWAP5 MSTORE PUSH1 0x2 DUP3 ADD SLOAD SWAP3 DUP2 ADD SWAP3 SWAP1 SWAP3 MSTORE SWAP1 SWAP3 ADD SLOAD PUSH1 0xFF AND ISZERO ISZERO PUSH1 0x60 DUP4 ADD MSTORE DUP3 SUB PUSH2 0x51B JUMPI POP PUSH1 0x0 SWAP3 SWAP2 POP POP JUMP JUMPDEST DUP1 MLOAD PUSH1 0x20 DUP3 ADD MLOAD PUSH2 0x52E SWAP1 PUSH1 0x6E SWAP1 PUSH2 0xE79 JUMP JUMPDEST PUSH2 0x538 SWAP2 SWAP1 PUSH2 0xE90 JUMP JUMPDEST SWAP4 SWAP3 POP POP POP JUMP JUMPDEST PUSH2 0x547 PUSH2 0xC87 JUMP JUMPDEST PUSH1 0x0 DUP2 GT PUSH2 0x570 JUMPI PUSH1 0x40 MLOAD PUSH3 0x461BCD PUSH1 0xE5 SHL DUP2 MSTORE PUSH1 0x4 ADD PUSH2 0x567 SWAP1 PUSH2 0xEB2 JUMP JUMPDEST PUSH1 0x40 MLOAD DUP1 SWAP2 SUB SWAP1 REVERT JUMPDEST CALLER PUSH1 0x0 SWAP1 DUP2 MSTORE PUSH1 0x3 PUSH1 0x20 DUP2 SWAP1 MSTORE PUSH1 0x40 SWAP1 SWAP2 KECCAK256 SWAP1 DUP2 ADD SLOAD PUSH1 0xFF AND PUSH2 0x5A5 JUMPI PUSH1 0x40 MLOAD PUSH3 0x461BCD PUSH1 0xE5 SHL DUP2 MSTORE PUSH1 0x4 ADD PUSH2 0x567 SWAP1 PUSH2 0xEE9 JUMP JUMPDEST PUSH2 0x5AE CALLER PUSH2 0xCB1 JUMP JUMPDEST PUSH1 0x0 DUP3 DUP3 PUSH1 0x1 ADD SLOAD PUSH2 0x5C0 SWAP2 SWAP1 PUSH2 0xF17 JUMP JUMPDEST SWAP1 POP PUSH2 0x5D0 DUP3 PUSH1 0x0 ADD SLOAD DUP3 PUSH2 0xD45 JUMP JUMPDEST PUSH2 0x616 JUMPI PUSH1 0x40 MLOAD PUSH3 0x461BCD PUSH1 0xE5 SHL DUP2 MSTORE PUSH1 0x20 PUSH1 0x4 DUP3 ADD MSTORE PUSH1 0x17 PUSH1 0x24 DUP3 ADD MSTORE PUSH23 0x125B9CDD59999A58DA595B9D0818DBDB1B185D195C985B PUSH1 0x4A SHL PUSH1 0x44 DUP3 ADD MSTORE PUSH1 0x64 ADD PUSH2 0x567 JUMP JUMPDEST DUP1 DUP3 PUSH1 0x1 ADD DUP2 SWAP1 SSTORE POP DUP3 PUSH1 0x5 PUSH1 0x0 DUP3 DUP3 SLOAD PUSH2 0x631 SWAP2 SWAP1 PUSH2 0xF17 JUMP JUMPDEST SWAP1 SWAP2 SSTORE POP POP PUSH1 0x2 SLOAD PUSH1 0x40 MLOAD PUSH4 0x40C10F19 PUSH1 0xE0 SHL DUP2 MSTORE CALLER PUSH1 0x4 DUP3 ADD MSTORE PUSH1 0x24 DUP2 ADD DUP6 SWAP1 MSTORE PUSH1 0x1 PUSH1 0x1 PUSH1 0xA0 SHL SUB SWAP1 SWAP2 AND SWAP1 PUSH4 0x40C10F19 SWAP1 PUSH1 0x44 ADD PUSH1 0x0 PUSH1 0x40 MLOAD DUP1 DUP4 SUB DUP2 PUSH1 0x0 DUP8 DUP1 EXTCODESIZE ISZERO DUP1 ISZERO PUSH2 0x682 JUMPI PUSH1 0x0 DUP1 REVERT JUMPDEST POP GAS CALL ISZERO DUP1 ISZERO PUSH2 0x696 JUMPI RETURNDATASIZE PUSH1 0x0 DUP1 RETURNDATACOPY RETURNDATASIZE PUSH1 0x0 REVERT JUMPDEST POP POP PUSH1 0x40 MLOAD DUP6 DUP2 MSTORE CALLER SWAP3 POP PUSH32 0x20DA8F6E39CC42D87E1A570C1A21FE80E2882E71D765E5543D17A07564495278 SWAP2 POP PUSH1 0x20 ADD JUMPDEST PUSH1 0x40 MLOAD DUP1 SWAP2 SUB SWAP1 LOG2 POP POP PUSH2 0x6DC PUSH1 0x1 PUSH1 0x0 SSTORE JUMP JUMPDEST POP JUMP JUMPDEST PUSH2 0x6E7 PUSH2 0xC87 JUMP JUMPDEST PUSH1 0x0 DUP2 GT PUSH2 0x707 JUMPI PUSH1 0x40 MLOAD PUSH3 0x461BCD PUSH1 0xE5 SHL DUP2 MSTORE PUSH1 0x4 ADD PUSH2 0x567 SWAP1 PUSH2 0xEB2 JUMP JUMPDEST CALLER PUSH1 0x0 SWAP1 DUP2 MSTORE PUSH1 0x3 PUSH1 0x20 DUP2 SWAP1 MSTORE PUSH1 0x40 SWAP1 SWAP2 KECCAK256 SWAP1 DUP2 ADD SLOAD PUSH1 0xFF AND PUSH2 0x73C JUMPI PUSH1 0x40 MLOAD PUSH3 0x461BCD PUSH1 0xE5 SHL DUP2 MSTORE PUSH1 0x4 ADD PUSH2 0x567 SWAP1 PUSH2 0xEE9 JUMP JUMPDEST PUSH2 0x745 CALLER PUSH2 0xCB1 JUMP JUMPDEST DUP1 SLOAD PUSH1 0x0 SWAP1 PUSH2 0x755 SWAP1 DUP5 SWAP1 PUSH2 0xF2A JUMP JUMPDEST SWAP1 POP PUSH1 0x1 DUP3 ADD SLOAD ISZERO PUSH2 0x7C0 JUMPI PUSH2 0x76F DUP2 DUP4 PUSH1 0x1 ADD SLOAD PUSH2 0xD45 JUMP JUMPDEST PUSH2 0x7BB JUMPI PUSH1 0x40 MLOAD PUSH3 0x461BCD PUSH1 0xE5 SHL DUP2 MSTORE PUSH1 0x20 PUSH1 0x4 DUP3 ADD MSTORE PUSH1 0x1D PUSH1 0x24 DUP3 ADD MSTORE PUSH32 0x496E73756666696369656E7420636F6C6C61746572616C20726174696F000000 PUSH1 0x44 DUP3 ADD MSTORE PUSH1 0x64 ADD PUSH2 0x567 JUMP JUMPDEST PUSH2 0x80B JUMP JUMPDEST DUP2 SLOAD DUP4 GT ISZERO PUSH2 0x80B JUMPI PUSH1 0x40 MLOAD PUSH3 0x461BCD PUSH1 0xE5 SHL DUP2 MSTORE PUSH1 0x20 PUSH1 0x4 DUP3 ADD MSTORE PUSH1 0x17 PUSH1 0x24 DUP3 ADD MSTORE PUSH23 0x125B9CDD59999A58DA595B9D0818DBDB1B185D195C985B PUSH1 0x4A SHL PUSH1 0x44 DUP3 ADD MSTORE PUSH1 0x64 ADD PUSH2 0x567 JUMP JUMPDEST DUP1 DUP3 SSTORE PUSH1 0x4 DUP1 SLOAD DUP5 SWAP2 SWAP1 PUSH1 0x0 SWAP1 PUSH2 0x823 SWAP1 DUP5 SWAP1 PUSH2 0xF2A JUMP JUMPDEST SWAP1 SWAP2 SSTORE POP POP PUSH1 0x40 MLOAD CALLER SWAP1 DUP5 ISZERO PUSH2 0x8FC MUL SWAP1 DUP6 SWAP1 PUSH1 0x0 DUP2 DUP2 DUP2 DUP6 DUP9 DUP9 CALL SWAP4 POP POP POP POP ISZERO DUP1 ISZERO PUSH2 0x855 JUMPI RETURNDATASIZE PUSH1 0x0 DUP1 RETURNDATACOPY RETURNDATASIZE PUSH1 0x0 REVERT JUMPDEST POP PUSH1 0x40 MLOAD DUP4 DUP2 MSTORE CALLER SWAP1 PUSH32 0xC30FCFBCAAC9E0DEFFA719714EAA82396FF506A0D0D0EEBE170830177288715D SWAP1 PUSH1 0x20 ADD PUSH2 0x6C8 JUMP JUMPDEST PUSH2 0x890 PUSH2 0xDA2 JUMP JUMPDEST PUSH2 0x89A PUSH1 0x0 PUSH2 0xDCF JUMP JUMPDEST JUMP JUMPDEST PUSH2 0x8A4 PUSH2 0xC87 JUMP JUMPDEST PUSH1 0x0 DUP2 GT PUSH2 0x8C4 JUMPI PUSH1 0x40 MLOAD PUSH3 0x461BCD PUSH1 0xE5 SHL DUP2 MSTORE PUSH1 0x4 ADD PUSH2 0x567 SWAP1 PUSH2 0xEB2 JUMP JUMPDEST CALLER PUSH1 0x0 SWAP1 DUP2 MSTORE PUSH1 0x3 PUSH1 0x20 DUP2 SWAP1 MSTORE PUSH1 0x40 SWAP1 SWAP2 KECCAK256 SWAP1 DUP2 ADD SLOAD PUSH1 0xFF AND PUSH2 0x8F9 JUMPI PUSH1 0x40 MLOAD PUSH3 0x461BCD PUSH1 0xE5 SHL DUP2 MSTORE PUSH1 0x4 ADD PUSH2 0x567 SWAP1 PUSH2 0xEE9 JUMP JUMPDEST PUSH2 0x902 CALLER PUSH2 0xCB1 JUMP JUMPDEST PUSH1 0x0 DUP2 PUSH1 0x1 ADD SLOAD DUP4 GT PUSH2 0x915 JUMPI DUP3 PUSH2 0x91B JUMP JUMPDEST DUP2 PUSH1 0x1 ADD SLOAD JUMPDEST SWAP1 POP DUP1 DUP3 PUSH1 0x1 ADD PUSH1 0x0 DUP3 DUP3 SLOAD PUSH2 0x931 SWAP2 SWAP1 PUSH2 0xF2A JUMP JUMPDEST SWAP3 POP POP DUP2 SWAP1 SSTORE POP DUP1 PUSH1 0x5 PUSH1 0x0 DUP3 DUP3 SLOAD PUSH2 0x94A SWAP2 SWAP1 PUSH2 0xF2A JUMP JUMPDEST SWAP1 SWAP2 SSTORE POP POP PUSH1 0x2 SLOAD PUSH1 0x40 MLOAD PUSH4 0x23B872DD PUSH1 0xE0 SHL DUP2 MSTORE CALLER PUSH1 0x4 DUP3 ADD MSTORE ADDRESS PUSH1 0x24 DUP3 ADD MSTORE PUSH1 0x44 DUP2 ADD DUP4 SWAP1 MSTORE PUSH1 0x1 PUSH1 0x1 PUSH1 0xA0 SHL SUB SWAP1 SWAP2 AND SWAP1 PUSH4 0x23B872DD SWAP1 PUSH1 0x64 ADD PUSH1 0x20 PUSH1 0x40 MLOAD DUP1 DUP4 SUB DUP2 PUSH1 0x0 DUP8 GAS CALL ISZERO DUP1 ISZERO PUSH2 0x9A6 JUMPI RETURNDATASIZE PUSH1 0x0 DUP1 RETURNDATACOPY RETURNDATASIZE PUSH1 0x0 REVERT JUMPDEST POP POP POP POP PUSH1 0x40 MLOAD RETURNDATASIZE PUSH1 0x1F NOT PUSH1 0x1F DUP3 ADD AND DUP3 ADD DUP1 PUSH1 0x40 MSTORE POP DUP2 ADD SWAP1 PUSH2 0x9CA SWAP2 SWAP1 PUSH2 0xF3D JUMP JUMPDEST POP PUSH1 0x2 SLOAD PUSH1 0x40 MLOAD PUSH4 0x2770A7EB PUSH1 0xE2 SHL DUP2 MSTORE ADDRESS PUSH1 0x4 DUP3 ADD MSTORE PUSH1 0x24 DUP2 ADD DUP4 SWAP1 MSTORE PUSH1 0x1 PUSH1 0x1 PUSH1 0xA0 SHL SUB SWAP1 SWAP2 AND SWAP1 PUSH4 0x9DC29FAC SWAP1 PUSH1 0x44 ADD PUSH1 0x0 PUSH1 0x40 MLOAD DUP1 DUP4 SUB DUP2 PUSH1 0x0 DUP8 DUP1 EXTCODESIZE ISZERO DUP1 ISZERO PUSH2 0xA17 JUMPI PUSH1 0x0 DUP1 REVERT JUMPDEST POP GAS CALL ISZERO DUP1 ISZERO PUSH2 0xA2B JUMPI RETURNDATASIZE PUSH1 0x0 DUP1 RETURNDATACOPY RETURNDATASIZE PUSH1 0x0 REVERT JUMPDEST POP POP PUSH1 0x40 MLOAD DUP4 DUP2 MSTORE CALLER SWAP3 POP PUSH32 0xD8E31E478118D9C8EA5F823945962D1E74951BDEE736D578121095BFF7D55018 SWAP2 POP PUSH1 0x20 ADD PUSH2 0x6C8 JUMP JUMPDEST PUSH2 0xA69 PUSH2 0xC87 JUMP JUMPDEST PUSH1 0x0 DUP2 GT PUSH2 0xA89 JUMPI PUSH1 0x40 MLOAD PUSH3 0x461BCD PUSH1 0xE5 SHL DUP2 MSTORE PUSH1 0x4 ADD PUSH2 0x567 SWAP1 PUSH2 0xEB2 JUMP JUMPDEST DUP1 CALLVALUE EQ PUSH2 0xACF JUMPI PUSH1 0x40 MLOAD PUSH3 0x461BCD PUSH1 0xE5 SHL DUP2 MSTORE PUSH1 0x20 PUSH1 0x4 DUP3 ADD MSTORE PUSH1 0x14 PUSH1 0x24 DUP3 ADD MSTORE PUSH20 0x125B98DBDC9C9958DD0811551208185B5BDD5B9D PUSH1 0x62 SHL PUSH1 0x44 DUP3 ADD MSTORE PUSH1 0x64 ADD PUSH2 0x567 JUMP JUMPDEST CALLER PUSH1 0x0 SWAP1 DUP2 MSTORE PUSH1 0x3 PUSH1 0x20 DUP2 SWAP1 MSTORE PUSH1 0x40 SWAP1 SWAP2 KECCAK256 SWAP1 DUP2 ADD SLOAD PUSH1 0xFF AND ISZERO PUSH2 0xAF6 JUMPI PUSH2 0xAF6 CALLER PUSH2 0xCB1 JUMP JUMPDEST DUP2 DUP2 PUSH1 0x0 ADD PUSH1 0x0 DUP3 DUP3 SLOAD PUSH2 0xB0A SWAP2 SWAP1 PUSH2 0xF17 JUMP JUMPDEST SWAP1 SWAP2 SSTORE POP POP PUSH1 0x3 DUP2 ADD DUP1 SLOAD PUSH1 0xFF NOT AND PUSH1 0x1 OR SWAP1 SSTORE TIMESTAMP PUSH1 0x2 DUP3 ADD SSTORE PUSH1 0x4 DUP1 SLOAD DUP4 SWAP2 SWAP1 PUSH1 0x0 SWAP1 PUSH2 0xB39 SWAP1 DUP5 SWAP1 PUSH2 0xF17 JUMP JUMPDEST SWAP1 SWAP2 SSTORE POP POP PUSH1 0x40 MLOAD DUP3 DUP2 MSTORE CALLER SWAP1 PUSH32 0xD7243F6F8212D5188FD054141CF6EA89CFC0D91FACB8C3AFE2F88A1358480142 SWAP1 PUSH1 0x20 ADD PUSH1 0x40 MLOAD DUP1 SWAP2 SUB SWAP1 LOG2 POP PUSH2 0x6DC PUSH1 0x1 PUSH1 0x0 SSTORE JUMP JUMPDEST PUSH2 0xB86 PUSH2 0xDA2 JUMP JUMPDEST PUSH1 0x1 SLOAD PUSH1 0x40 MLOAD PUSH1 0x1 PUSH1 0x1 PUSH1 0xA0 SHL SUB SWAP1 SWAP2 AND SWAP1 SELFBALANCE DUP1 ISZERO PUSH2 0x8FC MUL SWAP2 PUSH1 0x0 DUP2 DUP2 DUP2 DUP6 DUP9 DUP9 CALL SWAP4 POP POP POP POP ISZERO DUP1 ISZERO PUSH2 0x6DC JUMPI RETURNDATASIZE PUSH1 0x0 DUP1 RETURNDATACOPY RETURNDATASIZE PUSH1 0x0 REVERT JUMPDEST PUSH2 0xBC7 PUSH2 0xDA2 JUMP JUMPDEST PUSH1 0x1 PUSH1 0x1 PUSH1 0xA0 SHL SUB DUP2 AND PUSH2 0xBF1 JUMPI PUSH1 0x40 MLOAD PUSH4 0x1E4FBDF7 PUSH1 0xE0 SHL DUP2 MSTORE PUSH1 0x0 PUSH1 0x4 DUP3 ADD MSTORE PUSH1 0x24 ADD PUSH2 0x567 JUMP JUMPDEST PUSH2 0x6DC DUP2 PUSH2 0xDCF JUMP JUMPDEST PUSH1 0x40 MLOAD PUSH4 0x15A3BA43 PUSH1 0xE0 SHL DUP2 MSTORE PUSH1 0x1 PUSH1 0x1 PUSH1 0xA0 SHL SUB DUP3 AND PUSH1 0x4 DUP3 ADD MSTORE PUSH1 0x0 SWAP1 DUP2 SWAP1 ADDRESS SWAP1 PUSH4 0x15A3BA43 SWAP1 PUSH1 0x24 ADD PUSH1 0x20 PUSH1 0x40 MLOAD DUP1 DUP4 SUB DUP2 DUP7 GAS STATICCALL ISZERO DUP1 ISZERO PUSH2 0xC43 JUMPI RETURNDATASIZE PUSH1 0x0 DUP1 RETURNDATACOPY RETURNDATASIZE PUSH1 0x0 REVERT JUMPDEST POP POP POP POP PUSH1 0x40 MLOAD RETURNDATASIZE PUSH1 0x1F NOT PUSH1 0x1F DUP3 ADD AND DUP3 ADD DUP1 PUSH1 0x40 MSTORE POP DUP2 ADD SWAP1 PUSH2 0xC67 SWAP2 SWAP1 PUSH2 0xF5F JUMP JUMPDEST SWAP1 POP DUP1 PUSH1 0x0 SUB PUSH2 0xC7A JUMPI POP PUSH1 0x0 SWAP3 SWAP2 POP POP JUMP JUMPDEST PUSH1 0x6E PUSH2 0x52E DUP3 PUSH1 0x64 PUSH2 0xE79 JUMP JUMPDEST PUSH1 0x2 PUSH1 0x0 SLOAD SUB PUSH2 0xCAA JUMPI PUSH1 0x40 MLOAD PUSH4 0x3EE5AEB5 PUSH1 0xE0 SHL DUP2 MSTORE PUSH1 0x4 ADD PUSH1 0x40 MLOAD DUP1 SWAP2 SUB SWAP1 REVERT JUMPDEST PUSH1 0x2 PUSH1 0x0 SSTORE JUMP JUMPDEST PUSH1 0x1 PUSH1 0x1 PUSH1 0xA0 SHL SUB DUP2 AND PUSH1 0x0 SWAP1 DUP2 MSTORE PUSH1 0x3 PUSH1 0x20 MSTORE PUSH1 0x40 DUP2 KECCAK256 PUSH1 0x1 DUP2 ADD SLOAD SWAP1 SWAP2 SUB PUSH2 0xCD9 JUMPI POP POP JUMP JUMPDEST PUSH1 0x0 DUP2 PUSH1 0x2 ADD SLOAD TIMESTAMP PUSH2 0xCEB SWAP2 SWAP1 PUSH2 0xF2A JUMP JUMPDEST SWAP1 POP PUSH1 0x0 PUSH5 0x496CEBB800 DUP3 PUSH1 0xFA DUP6 PUSH1 0x1 ADD SLOAD PUSH2 0xD07 SWAP2 SWAP1 PUSH2 0xE79 JUMP JUMPDEST PUSH2 0xD11 SWAP2 SWAP1 PUSH2 0xE79 JUMP JUMPDEST PUSH2 0xD1B SWAP2 SWAP1 PUSH2 0xE90 JUMP JUMPDEST SWAP1 POP DUP1 DUP4 PUSH1 0x1 ADD PUSH1 0x0 DUP3 DUP3 SLOAD PUSH2 0xD31 SWAP2 SWAP1 PUSH2 0xF17 JUMP JUMPDEST SWAP1 SWAP2 SSTORE POP POP TIMESTAMP PUSH1 0x2 SWAP1 SWAP4 ADD SWAP3 SWAP1 SWAP3 SSTORE POP POP POP JUMP JUMPDEST PUSH1 0x0 DUP2 PUSH1 0x0 SUB PUSH2 0xD57 JUMPI POP PUSH1 0x1 PUSH2 0xD9C JUMP JUMPDEST PUSH1 0x0 PUSH8 0xDE0B6B3A7640000 PUSH2 0xD6E PUSH2 0xC350 DUP7 PUSH2 0xE79 JUMP JUMPDEST PUSH2 0xD78 SWAP2 SWAP1 PUSH2 0xE90 JUMP JUMPDEST SWAP1 POP PUSH1 0x0 DUP4 PUSH2 0xD89 DUP4 PUSH2 0x2710 PUSH2 0xE79 JUMP JUMPDEST PUSH2 0xD93 SWAP2 SWAP1 PUSH2 0xE90 JUMP JUMPDEST PUSH1 0x6E GT ISZERO SWAP3 POP POP POP JUMPDEST SWAP3 SWAP2 POP POP JUMP JUMPDEST PUSH1 0x1 SLOAD PUSH1 0x1 PUSH1 0x1 PUSH1 0xA0 SHL SUB AND CALLER EQ PUSH2 0x89A JUMPI PUSH1 0x40 MLOAD PUSH4 0x118CDAA7 PUSH1 0xE0 SHL DUP2 MSTORE CALLER PUSH1 0x4 DUP3 ADD MSTORE PUSH1 0x24 ADD PUSH2 0x567 JUMP JUMPDEST PUSH1 0x1 DUP1 SLOAD PUSH1 0x1 PUSH1 0x1 PUSH1 0xA0 SHL SUB DUP4 DUP2 AND PUSH1 0x1 PUSH1 0x1 PUSH1 0xA0 SHL SUB NOT DUP4 AND DUP2 OR SWAP1 SWAP4 SSTORE PUSH1 0x40 MLOAD SWAP2 AND SWAP2 SWAP1 DUP3 SWAP1 PUSH32 0x8BE0079C531659141344CD1FD0A4F28419497F9722A3DAAFE3B4186F6B6457E0 SWAP1 PUSH1 0x0 SWAP1 LOG3 POP POP JUMP JUMPDEST PUSH1 0x0 PUSH1 0x20 DUP3 DUP5 SUB SLT ISZERO PUSH2 0xE33 JUMPI PUSH1 0x0 DUP1 REVERT JUMPDEST DUP2 CALLDATALOAD PUSH1 0x1 PUSH1 0x1 PUSH1 0xA0 SHL SUB DUP2 AND DUP2 EQ PUSH2 0x538 JUMPI PUSH1 0x0 DUP1 REVERT JUMPDEST PUSH1 0x0 PUSH1 0x20 DUP3 DUP5 SUB SLT ISZERO PUSH2 0xE5C JUMPI PUSH1 0x0 DUP1 REVERT JUMPDEST POP CALLDATALOAD SWAP2 SWAP1 POP JUMP JUMPDEST PUSH4 0x4E487B71 PUSH1 0xE0 SHL PUSH1 0x0 MSTORE PUSH1 0x11 PUSH1 0x4 MSTORE PUSH1 0x24 PUSH1 0x0 REVERT JUMPDEST DUP1 DUP3 MUL DUP2 ISZERO DUP3 DUP3 DIV DUP5 EQ OR PUSH2 0xD9C JUMPI PUSH2 0xD9C PUSH2 0xE63 JUMP JUMPDEST PUSH1 0x0 DUP3 PUSH2 0xEAD JUMPI PUSH4 0x4E487B71 PUSH1 0xE0 SHL PUSH1 0x0 MSTORE PUSH1 0x12 PUSH1 0x4 MSTORE PUSH1 0x24 PUSH1 0x0 REVERT JUMPDEST POP DIV SWAP1 JUMP JUMPDEST PUSH1 0x20 DUP1 DUP3 MSTORE PUSH1 0x1D SWAP1 DUP3 ADD MSTORE PUSH32 0x416D6F756E74206D7573742062652067726561746572207468616E2030000000 PUSH1 0x40 DUP3 ADD MSTORE PUSH1 0x60 ADD SWAP1 JUMP JUMPDEST PUSH1 0x20 DUP1 DUP3 MSTORE PUSH1 0x14 SWAP1 DUP3 ADD MSTORE PUSH20 0x15985D5B1D08191BD95CC81B9BDD08195E1A5CDD PUSH1 0x62 SHL PUSH1 0x40 DUP3 ADD MSTORE PUSH1 0x60 ADD SWAP1 JUMP JUMPDEST DUP1 DUP3 ADD DUP1 DUP3 GT ISZERO PUSH2 0xD9C JUMPI PUSH2 0xD9C PUSH2 0xE63 JUMP JUMPDEST DUP2 DUP2 SUB DUP2 DUP2 GT ISZERO PUSH2 0xD9C JUMPI PUSH2 0xD9C PUSH2 0xE63 JUMP JUMPDEST PUSH1 0x0 PUSH1 0x20 DUP3 DUP5 SUB SLT ISZERO PUSH2 0xF4F JUMPI PUSH1 0x0 DUP1 REVERT JUMPDEST DUP2 MLOAD DUP1 ISZERO ISZERO DUP2 EQ PUSH2 0x538 JUMPI PUSH1 0x0 DUP1 REVERT JUMPDEST PUSH1 0x0 PUSH1 0x20 DUP3 DUP5 SUB SLT ISZERO PUSH2 0xF71 JUMPI PUSH1 0x0 DUP1 REVERT JUMPDEST POP MLOAD SWAP2 SWAP1 POP JUMP INVALID LOG2 PUSH5 0x6970667358 0x22 SLT KECCAK256 0xE MSTORE8 PUSH25 0xBCEBE99C97F65839D705336BD0A243961420C4759F4D8DD3F2 SWAP5 OR CALLDATASIZE 0xDC PUSH5 0x736F6C6343 STOP ADDMOD SHR STOP CALLER "},"methodIdentifiers":{"BTC_PRICE_USD()":"154fefc2","INTEREST_RATE()":"5b72a33a","MIN_COLLATERAL_RATIO()":"7a9fffb7","borrowMUSD(uint256)":"211f0277","depositCollateral(uint256)":"bad4a01f","emergencyWithdraw()":"db2e21bc","getBorrowedAmount(address)":"b9f2c7b5","getCollateralBalance(address)":"2703ee85","getCollateralRatio(address)":"15a3ba43","getHealthFactor(address)":"fe6bcd7c","getInterestRate()":"5257b566","getLiquidationPrice(address)":"17d8de82","musdToken()":"9d78d46b","owner()":"8da5cb5b","renounceOwnership()":"715018a6","repayMUSD(uint256)":"78f3ef22","totalBorrowed()":"4c19386c","totalCollateral()":"4ac8eb5f","transferOwnership(address)":"f2fde38b","vaults(address)":"a622ee7c","withdrawCollateral(uint256)":"6112fe2e"}}}}}