{"contracts/InvoiceContract.sol":{"InvoiceContract":{"abi":[{"inputs":[],"stateMutability":"nonpayable","type":"constructor"},{"inputs":[],"name":"AccessControlBadConfirmation","type":"error"},{"inputs":[{"internalType":"address","name":"account","type":"address"},{"internalType":"bytes32","name":"neededRole","type":"bytes32"}],"name":"AccessControlUnauthorizedAccount","type":"error"},{"anonymous":false,"inputs":[{"indexed":true,"internalType":"uint256","name":"id","type":"uint256"},{"indexed":true,"internalType":"address","name":"approver","type":"address"},{"indexed":false,"internalType":"uint256","name":"timestamp","type":"uint256"}],"name":"InvoiceApproved","type":"event"},{"anonymous":false,"inputs":[{"indexed":true,"internalType":"uint256","name":"id","type":"uint256"},{"indexed":false,"internalType":"uint256","name":"timestamp","type":"uint256"}],"name":"InvoiceCancelled","type":"event"},{"anonymous":false,"inputs":[{"indexed":true,"internalType":"uint256","name":"id","type":"uint256"},{"indexed":true,"internalType":"address","name":"creator","type":"address"},{"indexed":true,"internalType":"address","name":"recipient","type":"address"},{"indexed":false,"internalType":"uint256","name":"amount","type":"uint256"},{"indexed":false,"internalType":"string","name":"bitcoinAddress","type":"string"},{"indexed":false,"internalType":"string","name":"clientName","type":"string"},{"indexed":false,"internalType":"string","name":"payToAddress","type":"string"},{"indexed":false,"internalType":"string","name":"currency","type":"string"},{"indexed":false,"internalType":"uint256","name":"expiresAt","type":"uint256"}],"name":"InvoiceCreated","type":"event"},{"anonymous":false,"inputs":[{"indexed":true,"internalType":"uint256","name":"id","type":"uint256"},{"indexed":false,"internalType":"uint256","name":"amount","type":"uint256"},{"indexed":false,"internalType":"uint256","name":"timestamp","type":"uint256"},{"indexed":false,"internalType":"string","name":"paymentTxHash","type":"string"},{"indexed":false,"internalType":"string","name":"observedInboundAmount","type":"string"}],"name":"InvoicePaid","type":"event"},{"anonymous":false,"inputs":[{"indexed":true,"internalType":"bytes32","name":"role","type":"bytes32"},{"indexed":true,"internalType":"bytes32","name":"previousAdminRole","type":"bytes32"},{"indexed":true,"internalType":"bytes32","name":"newAdminRole","type":"bytes32"}],"name":"RoleAdminChanged","type":"event"},{"anonymous":false,"inputs":[{"indexed":true,"internalType":"bytes32","name":"role","type":"bytes32"},{"indexed":true,"internalType":"address","name":"account","type":"address"},{"indexed":true,"internalType":"address","name":"sender","type":"address"}],"name":"RoleGranted","type":"event"},{"anonymous":false,"inputs":[{"indexed":true,"internalType":"bytes32","name":"role","type":"bytes32"},{"indexed":true,"internalType":"address","name":"account","type":"address"},{"indexed":true,"internalType":"address","name":"sender","type":"address"}],"name":"RoleRevoked","type":"event"},{"inputs":[],"name":"BOARD_ROLE","outputs":[{"internalType":"bytes32","name":"","type":"bytes32"}],"stateMutability":"view","type":"function"},{"inputs":[],"name":"DEFAULT_ADMIN_ROLE","outputs":[{"internalType":"bytes32","name":"","type":"bytes32"}],"stateMutability":"view","type":"function"},{"inputs":[],"name":"PAYMENT_ORACLE_ROLE","outputs":[{"internalType":"bytes32","name":"","type":"bytes32"}],"stateMutability":"view","type":"function"},{"inputs":[{"internalType":"uint256","name":"_id","type":"uint256"}],"name":"approveInvoice","outputs":[],"stateMutability":"nonpayable","type":"function"},{"inputs":[{"internalType":"uint256","name":"_id","type":"uint256"}],"name":"cancelInvoice","outputs":[],"stateMutability":"nonpayable","type":"function"},{"inputs":[{"internalType":"uint256","name":"_id","type":"uint256"},{"internalType":"string","name":"_paymentTxHash","type":"string"},{"internalType":"string","name":"_observedInboundAmount","type":"string"}],"name":"confirmPayment","outputs":[],"stateMutability":"nonpayable","type":"function"},{"inputs":[{"internalType":"address payable","name":"_recipient","type":"address"},{"internalType":"uint256","name":"_amount","type":"uint256"},{"internalType":"string","name":"_description","type":"string"},{"internalType":"string","name":"_bitcoinAddress","type":"string"},{"internalType":"string","name":"_clientName","type":"string"},{"internalType":"string","name":"_clientCode","type":"string"},{"internalType":"uint256","name":"_expiresAt","type":"uint256"},{"internalType":"string","name":"_payToAddress","type":"string"},{"internalType":"string","name":"_currency","type":"string"},{"internalType":"string","name":"_balanceAtCreation","type":"string"}],"name":"createInvoice","outputs":[{"internalType":"uint256","name":"","type":"uint256"}],"stateMutability":"nonpayable","type":"function"},{"inputs":[],"name":"getAllInvoices","outputs":[{"components":[{"internalType":"uint256","name":"id","type":"uint256"},{"internalType":"address payable","name":"creator","type":"address"},{"internalType":"address payable","name":"recipient","type":"address"},{"internalType":"uint256","name":"amount","type":"uint256"},{"internalType":"string","name":"description","type":"string"},{"internalType":"string","name":"bitcoinAddress","type":"string"},{"internalType":"string","name":"clientName","type":"string"},{"internalType":"string","name":"clientCode","type":"string"},{"internalType":"bool","name":"paid","type":"bool"},{"internalType":"bool","name":"cancelled","type":"bool"},{"internalType":"uint256","name":"createdAt","type":"uint256"},{"internalType":"uint256","name":"paidAt","type":"uint256"},{"internalType":"uint256","name":"expiresAt","type":"uint256"},{"internalType":"string","name":"payToAddress","type":"string"},{"internalType":"string","name":"paymentTxHash","type":"string"},{"internalType":"string","name":"observedInboundAmount","type":"string"},{"internalType":"string","name":"currency","type":"string"},{"internalType":"string","name":"balanceAtCreation","type":"string"}],"internalType":"struct InvoiceContract.Invoice[]","name":"","type":"tuple[]"}],"stateMutability":"view","type":"function"},{"inputs":[{"internalType":"uint256","name":"_id","type":"uint256"}],"name":"getInvoice","outputs":[{"components":[{"internalType":"uint256","name":"id","type":"uint256"},{"internalType":"address payable","name":"creator","type":"address"},{"internalType":"address payable","name":"recipient","type":"address"},{"internalType":"uint256","name":"amount","type":"uint256"},{"internalType":"string","name":"description","type":"string"},{"internalType":"string","name":"bitcoinAddress","type":"string"},{"internalType":"string","name":"clientName","type":"string"},{"internalType":"string","name":"clientCode","type":"string"},{"internalType":"bool","name":"paid","type":"bool"},{"internalType":"bool","name":"cancelled","type":"bool"},{"internalType":"uint256","name":"createdAt","type":"uint256"},{"internalType":"uint256","name":"paidAt","type":"uint256"},{"internalType":"uint256","name":"expiresAt","type":"uint256"},{"internalType":"string","name":"payToAddress","type":"string"},{"internalType":"string","name":"paymentTxHash","type":"string"},{"internalType":"string","name":"observedInboundAmount","type":"string"},{"internalType":"string","name":"currency","type":"string"},{"internalType":"string","name":"balanceAtCreation","type":"string"}],"internalType":"struct InvoiceContract.Invoice","name":"","type":"tuple"}],"stateMutability":"view","type":"function"},{"inputs":[{"internalType":"bool","name":"includePaid","type":"bool"},{"internalType":"bool","name":"includeCancelled","type":"bool"}],"name":"getInvoicesByStatus","outputs":[{"internalType":"uint256[]","name":"","type":"uint256[]"}],"stateMutability":"view","type":"function"},{"inputs":[{"internalType":"address","name":"_user","type":"address"}],"name":"getPaidInvoices","outputs":[{"internalType":"uint256[]","name":"","type":"uint256[]"}],"stateMutability":"view","type":"function"},{"inputs":[{"internalType":"address","name":"_user","type":"address"}],"name":"getPendingAmount","outputs":[{"internalType":"uint256","name":"","type":"uint256"}],"stateMutability":"view","type":"function"},{"inputs":[{"internalType":"address","name":"_user","type":"address"}],"name":"getPendingInvoices","outputs":[{"internalType":"uint256[]","name":"","type":"uint256[]"}],"stateMutability":"view","type":"function"},{"inputs":[{"internalType":"bytes32","name":"role","type":"bytes32"}],"name":"getRoleAdmin","outputs":[{"internalType":"bytes32","name":"","type":"bytes32"}],"stateMutability":"view","type":"function"},{"inputs":[{"internalType":"address","name":"_user","type":"address"}],"name":"getTotalRevenue","outputs":[{"internalType":"uint256","name":"","type":"uint256"}],"stateMutability":"view","type":"function"},{"inputs":[{"internalType":"address","name":"_user","type":"address"}],"name":"getUserInvoiceCount","outputs":[{"internalType":"uint256","name":"","type":"uint256"}],"stateMutability":"view","type":"function"},{"inputs":[{"internalType":"address","name":"_user","type":"address"}],"name":"getUserInvoices","outputs":[{"internalType":"uint256[]","name":"","type":"uint256[]"}],"stateMutability":"view","type":"function"},{"inputs":[{"internalType":"bytes32","name":"role","type":"bytes32"},{"internalType":"address","name":"account","type":"address"}],"name":"grantRole","outputs":[],"stateMutability":"nonpayable","type":"function"},{"inputs":[{"internalType":"bytes32","name":"role","type":"bytes32"},{"internalType":"address","name":"account","type":"address"}],"name":"hasRole","outputs":[{"internalType":"bool","name":"","type":"bool"}],"stateMutability":"view","type":"function"},{"inputs":[],"name":"invoiceCount","outputs":[{"internalType":"uint256","name":"","type":"uint256"}],"stateMutability":"view","type":"function"},{"inputs":[{"internalType":"uint256","name":"","type":"uint256"}],"name":"invoices","outputs":[{"internalType":"uint256","name":"id","type":"uint256"},{"internalType":"address payable","name":"creator","type":"address"},{"internalType":"address payable","name":"recipient","type":"address"},{"internalType":"uint256","name":"amount","type":"uint256"},{"internalType":"string","name":"description","type":"string"},{"internalType":"string","name":"bitcoinAddress","type":"string"},{"internalType":"string","name":"clientName","type":"string"},{"internalType":"string","name":"clientCode","type":"string"},{"internalType":"bool","name":"paid","type":"bool"},{"internalType":"bool","name":"cancelled","type":"bool"},{"internalType":"uint256","name":"createdAt","type":"uint256"},{"internalType":"uint256","name":"paidAt","type":"uint256"},{"internalType":"uint256","name":"expiresAt","type":"uint256"},{"internalType":"string","name":"payToAddress","type":"string"},{"internalType":"string","name":"paymentTxHash","type":"string"},{"internalType":"string","name":"observedInboundAmount","type":"string"},{"internalType":"string","name":"currency","type":"string"},{"internalType":"string","name":"balanceAtCreation","type":"string"}],"stateMutability":"view","type":"function"},{"inputs":[{"internalType":"bytes32","name":"role","type":"bytes32"},{"internalType":"address","name":"callerConfirmation","type":"address"}],"name":"renounceRole","outputs":[],"stateMutability":"nonpayable","type":"function"},{"inputs":[{"internalType":"bytes32","name":"role","type":"bytes32"},{"internalType":"address","name":"account","type":"address"}],"name":"revokeRole","outputs":[],"stateMutability":"nonpayable","type":"function"},{"inputs":[{"internalType":"bytes4","name":"interfaceId","type":"bytes4"}],"name":"supportsInterface","outputs":[{"internalType":"bool","name":"","type":"bool"}],"stateMutability":"view","type":"function"},{"inputs":[{"internalType":"address","name":"","type":"address"},{"internalType":"uint256","name":"","type":"uint256"}],"name":"userInvoices","outputs":[{"internalType":"uint256","name":"","type":"uint256"}],"stateMutability":"view","type":"function"}],"evm":{"bytecode":{"linkReferences":{},"object":"60806040523461002c5761001233610031565b5061001c336100ad565b50604051612b2f90816101468239f35b600080fd5b6001600160a01b0381166000908152600080516020612cb5833981519152602052604090205460ff166100a7576001600160a01b03166000818152600080516020612cb583398151915260205260408120805460ff19166001179055339190600080516020612c758339815191528180a4600190565b50600090565b6001600160a01b0381166000908152600080516020612c95833981519152602052604090205460ff166100a7576001600160a01b03166000818152600080516020612c9583398151915260205260408120805460ff191660011790553391907f0182a37f4cfe4a11c9cc13af6a96350bc084bedfd41df0928670dbabcfe3aea190600080516020612c758339815191529080a460019056fe61010080604052600436101561001457600080fd5b60003560e01c90816301ffc9a7146123705750806305b11d37146123355780630ad6b0a5146122dc5780631346f0c4146122be57806321e2a79114612284578063248a9ca31461224f57806324d3b3e2146121cc5780632542a1f9146120a95780632f2ff15d1461206957806336568abe146120235780633a23cc0a14611fbc57806349567e0114611eef5780634e6d140514611ce0578063511656db14610f3a578063570bdad614610e0b5780637571af2214610cec57806378defd9e14610cb157806391d1485414610c6457806396c579fa14610b1a578063a217fddf14610afe578063b32413b7146109da578063d547741f14610993578063da9c273d146107e1578063e3f1a28d1461063b5763ea20f3621461013357600080fd5b34610636576060366003190112610636576004356024356001600160401b038111610636576101669036906004016126f7565b906044356001600160401b038111610636576101869036906004016126f7565b918115158061062a575b61019990612844565b81600052600160205260ff600860406000200154166105ee5781600052600160205260ff60086040600020015460081c166105b257816000526001602052600b60406000200154421161057b5781600052600160205260018060a01b036001604060002001541633148015610543575b156104fe57600082815260016020819052604090912060088101805460ff191690921790915542600a8201558151600d909101906001600160401b0381116104325761025582546125dc565b601f81116104b6575b50806020601f821160011461045357600091610448575b508160011b916000199060031b1c19161790555b816000526001602052600e604060002001928051936001600160401b038511610432576102b681546125dc565b601f81116103ea575b506020601f86116001146103645794807f261990519d41077a811fccda6680889d2ad9a7d4ae275f44d741c9364c2a37019596600091610359575b508160011b916000199060031b1c19161790555b836000526001602052610354600360406000200154916103466040519485948552426020860152608060408601526080850190612457565b908382036060850152612457565b0390a2005b9050830151386102fa565b601f1986169082600052806000209160005b8181106103d257509187917f261990519d41077a811fccda6680889d2ad9a7d4ae275f44d741c9364c2a37019798600194106103b9575b5050811b01905561030e565b85015160001960f88460031b161c1916905538806103ad565b91926020600181928689015181550194019201610376565b816000526020600020601f870160051c81019160208810610428575b601f0160051c01905b81811061041c57506102bf565b6000815560010161040f565b9091508190610406565b634e487b7160e01b600052604160045260246000fd5b905083015138610275565b60008481528181209250601f198416905b81811061049e57509083600194939210610485575b5050811b019055610289565b85015160001960f88460031b161c191690553880610479565b9192602060018192868a015181550194019201610464565b826000526020600020601f830160051c810191602084106104f4575b601f0160051c01905b8181106104e8575061025e565b600081556001016104db565b90915081906104d2565b60405162461bcd60e51b815260206004820152601960248201527f4e6f7420617574686f72697a656420746f20636f6e6669726d000000000000006044820152606490fd5b503360009081527f7f9dbda07a537866789973ab16b834c90972ae7073b94d82f3d33f1b9e5c4cbb602052604090205460ff16610209565b60405162461bcd60e51b815260206004820152600f60248201526e125b9d9bda58d948195e1c1a5c9959608a1b6044820152606490fd5b60405162461bcd60e51b8152602060048201526014602482015273125b9d9bda58d9481a5cc818d85b98d95b1b195960621b6044820152606490fd5b60405162461bcd60e51b8152602060048201526014602482015273125b9d9bda58d948185b1c9958591e481c185a5960621b6044820152606490fd5b50600354821115610190565b600080fd5b34610636576020366003190112610636576001600160a01b0361065c6123c3565b16600052600260205260406000206040518082602082945493848152019060005260206000209260005b8181106107c857505061069b92500382612632565b6000805b8251811015610718576106b2818461274d565b51600052600160205260ff6008604060002001541615806106ef575b6106db575b60010161069f565b906106e7600191612761565b9190506106d3565b506106fa818461274d565b51600052600160205260ff60086040600020015460081c16156106ce565b5061072290612787565b906000805b82518110156107b65761073a818461274d565b51600052600160205260ff60086040600020015416158061078d575b610763575b600101610727565b90610785600191610774848661274d565b5161077f828861274d565b52612761565b91905061075b565b50610798818461274d565b51600052600160205260ff60086040600020015460081c1615610756565b604051806107c4868261241d565b0390f35b8454835260019485019486945060209093019201610686565b346106365760203660031901126106365760043580151580610987575b61080790612844565b600081815260016020819052604090912001546001600160a01b031633036109325780600052600160205260ff600860406000200154166108ed5780600052600160205260ff60086040600020015460081c166108a857806000526001602052600860406000200161010061ff00198254161790557fedaa303e89ee281697ba652192508238167c1d6bb056355d8daacf9887d946976020604051428152a2005b60405162461bcd60e51b815260206004820152601960248201527f496e766f69636520616c72656164792063616e63656c6c6564000000000000006044820152606490fd5b60405162461bcd60e51b815260206004820152601a60248201527f43616e6e6f742063616e63656c207061696420696e766f6963650000000000006044820152606490fd5b60405162461bcd60e51b815260206004820152602760248201527f4f6e6c7920696e766f6963652063726561746f722063616e2063616e63656c20604482015266696e766f69636560c81b6064820152608490fd5b506003548111156107fe565b34610636576040366003190112610636576109d86004356109b26123d9565b906109d36109ce82600052600060205260016040600020015490565b6129b1565b612a77565b005b34610636576020366003190112610636573360009081527fa7a29618debaa59f0fc05b2ba996e7c1b75722f511d61514074624c13af3c80160205260409020546004359060ff1615610ac55780151580610ab9575b610a3890612844565b80600052600160205260ff6008604060002001541615610a8157604051904282527f4573fe636d53209670f6ddf9b5ca0a3b206c1d4bda8cd616f82f8ef48f06624660203393a3005b60405162461bcd60e51b815260206004820152601060248201526f125b9d9bda58d9481b9bdd081c185a5960821b6044820152606490fd5b50600354811115610a2f565b63e2517d3f60e01b600052336004527f0182a37f4cfe4a11c9cc13af6a96350bc084bedfd41df0928670dbabcfe3aea160245260446000fd5b3461063657600036600319011261063657602060405160008152f35b34610636576040366003190112610636576004358015158103610636576024358015158103610636579060035491610b5183612787565b926000926001925b82841115610ba4578585610b6c81612787565b9160005b828110610b8557604051806107c4868261241d565b80610b926001928461274d565b51610b9d828761274d565b5201610b70565b6000848152600160205260409020600890810154949593949293919260ff9181901c821691168080610c5d575b15610bf8575050610bea818661077f610bf0948a61274d565b94612761565b929190610b59565b8180610c56575b15610c18575050610bea818661077f610bf0948a61274d565b959195159081610c4d575b50610c32575b610bf090612761565b93610c45818661077f610bf0948a61274d565b949050610c29565b90501587610c23565b5083610bff565b5084610bd1565b3461063657604036600319011261063657610c7d6123d9565b600435600052600060205260406000209060018060a01b0316600052602052602060ff604060002054166040519015158152f35b346106365760003660031901126106365760206040517fe9b912fd022fbec9e35b4431d7e4d4ec1d1069c0ba719cc57abaa4f7052354ac8152f35b34610636576020366003190112610636576001600160a01b03610d0d6123c3565b16600052600260205260406000206040518082602082945493848152019060005260206000209260005b818110610df2575050610d4c92500382612632565b60009060005b8151811015610de757610d65818361274d565b51600052600160205260ff600860406000200154161580610dbe575b610d8e575b600101610d52565b91610db6600191610d9f858561274d565b5160005282602052600360406000200154906129a4565b929050610d86565b50610dc9818361274d565b51600052600160205260ff60086040600020015460081c1615610d81565b602083604051908152f35b8454835260019485019486945060209093019201610d37565b3461063657600036600319011261063657600354610e2881612770565b90610e366040519283612632565b808252601f19610e4582612770565b0160005b818110610f2357505060015b81811115610ec557826040518091602082016020835281518091526040830190602060408260051b8601019301916000905b828210610e9657505050500390f35b91936001919395506020610eb58192603f198a82030186528851612498565b9601920192018594939192610e87565b806000526001602052604060002090600019810191818311610f0d57610f0892610ef1610f0292612885565b610efb828861274d565b528561274d565b50612761565b610e55565b634e487b7160e01b600052601160045260246000fd5b602090610f2e6127b9565b82828701015201610e49565b3461063657610140366003190112610636576004356001600160a01b0381168103610636576044356001600160401b03811161063657610f7e9036906004016126f7565b906064356001600160401b03811161063657610f9e9036906004016126f7565b906084356001600160401b03811161063657610fbe9036906004016126f7565b9060a4356001600160401b03811161063657610fde9036906004016126f7565b9260e4356001600160401b03811161063657610ffe9036906004016126f7565b92610104356001600160401b0381116106365761101f9036906004016126f7565b91610124356001600160401b038111610636576110409036906004016126f7565b9661104c600354612761565b96876003556040519161105e83612616565b88835233602084015260018060a01b0387166040840152602435606084015260808301528260a08301528360c083015260e08201526000610100820152600061012082015242610140820152600061016082015260c435610180820152856101a08201526020976040516110d28a82612632565b600081526101c08301526040516110e98a82612632565b60008082526101e084019190915261020083018690526102208301919091528781526001808a5260409182902083518155602084015191810180546001600160a01b03199081166001600160a01b0394851617909155928401516002820180549094169216919091179091556060820151600382015560808201518051906001600160401b03821161043257819061118460048501546125dc565b601f8111611c8f575b508b90601f8311600114611c2157600092611c16575b50508160011b916000199060031b1c19161760048201555b60a08201518051906001600160401b0382116104325781906111e060058501546125dc565b601f8111611bc5575b508b90601f8311600114611b5757600092611b4c575b50508160011b916000199060031b1c19161760058201555b60c08201518051906001600160401b03821161043257819061123c60068501546125dc565b601f8111611afb575b508b90601f8311600114611a8d57600092611a82575b50508160011b916000199060031b1c19161760068201555b60e08201518051906001600160401b03821161043257819061129860078501546125dc565b601f8111611a31575b508b90601f83116001146119c3576000926119b8575b50508160011b916000199060031b1c19161760078201555b60088101610100830151151560ff80198354169116178155610120830151151561ff0082549160081b169061ff0019161790556101408201516009820155610160820151600a820155610180820151600b8201556101a08201518051906001600160401b038211610432578190611349600c8501546125dc565b601f8111611967575b508b90601f83116001146118f9576000926118ee575b50508160011b916000199060031b1c191617600c8201555b6101c08201518051906001600160401b0382116104325781906113a6600d8501546125dc565b601f811161189d575b508b90601f831160011461182f57600092611824575b50508160011b916000199060031b1c191617600d8201555b6101e08201518051906001600160401b038211610432578190611403600e8501546125dc565b601f81116117d3575b508b90601f83116001146117655760009261175a575b50508160011b916000199060031b1c191617600e8201555b600f81016102008301518051906001600160401b038211610432578b61146084546125dc565b601f8111611712575b50508b908c601f84116001146116a257509180601094926102209694600092611697575b50508160011b916000199060031b1c19161790555b019101518051906001600160401b0382116104325781906114c384546125dc565b601f8111611646575b508a90601f83116001146115e1576000926115d6575b50508160011b916000199060031b1c19161790555b3360005260028752604060002092835491680100000000000000008310156104325788966115977f6b007c52cce1ea806e675913586ecd79214160b00f30204fdc38092b60ca07a0956115896115a59461155b888e9b60016115b39b0181556123ef565b81549060031b908c821b91600019901b191617905560c06040519c8d60243590528d015260c08c0190612457565b908a820360408c0152612457565b9088820360608a0152612457565b908682036080880152612457565b60c43560a08601526001600160a01b0390931693339381900390a4604051908152f35b015190508a806114e2565b60008581528c81209350601f198516905b8d828210611630575050908460019594939210611617575b505050811b0190556114f7565b015160001960f88460031b161c191690558a808061160a565b60018596829396860151815501950193016115f2565b909150836000528a600020601f840160051c8101918c851061168d575b90601f859493920160051c01905b81811061167e57506114cc565b60008155849350600101611671565b9091508190611663565b015190508e8061148d565b9190601f1984168560005283600020936000905b8282106116fa575050926001928592610220989660109896106116e1575b505050811b0190556114a2565b015160001960f88460031b161c191690558e80806116d4565b806001869782949787015181550196019401906116b6565b846000528160002090601f850160051c8201928510611750575b601f0160051c01905b818110611744578d9150611469565b60008155600101611735565b909150819061172c565b015190508b80611422565b600e850160009081528d81209350601f198516908e5b8282106117bb5750509084600195949392106117a2575b505050811b01600e82015561143a565b015160001960f88460031b161c191690558b8080611792565b8060018697829497870151815501960194019061177b565b909150600e84016000528b600020601f840160051c81018d851061181d575b90849392915b601f830160051c8201811061180e57505061140c565b600081558594506001016117f8565b50806117f2565b015190508b806113c5565b600d850160009081528d81209350601f198516908e5b82821061188557505090846001959493921061186c575b505050811b01600d8201556113dd565b015160001960f88460031b161c191690558b808061185c565b80600186978294978701518155019601940190611845565b909150600d84016000528b600020601f840160051c81018d85106118e7575b90849392915b601f830160051c820181106118d85750506113af565b600081558594506001016118c2565b50806118bc565b015190508b80611368565b600c850160009081528d81209350601f198516908e5b82821061194f575050908460019594939210611936575b505050811b01600c820155611380565b015160001960f88460031b161c191690558b8080611926565b8060018697829497870151815501960194019061190f565b909150600c84016000528b600020601f840160051c81018d85106119b1575b90849392915b601f830160051c820181106119a2575050611352565b6000815585945060010161198c565b5080611986565b015190508b806112b7565b6007850160009081528d81209350601f198516908e5b828210611a19575050908460019594939210611a00575b505050811b0160078201556112cf565b015160001960f88460031b161c191690558b80806119f0565b806001869782949787015181550196019401906119d9565b909150600784016000528b600020601f840160051c81018d8510611a7b575b90849392915b601f830160051c82018110611a6c5750506112a1565b60008155859450600101611a56565b5080611a50565b015190508b8061125b565b6006850160009081528d81209350601f198516908e5b828210611ae3575050908460019594939210611aca575b505050811b016006820155611273565b015160001960f88460031b161c191690558b8080611aba565b80600186978294978701518155019601940190611aa3565b909150600684016000528b600020601f840160051c81018d8510611b45575b90849392915b601f830160051c82018110611b36575050611245565b60008155859450600101611b20565b5080611b1a565b015190508b806111ff565b6005850160009081528d81209350601f198516908e5b828210611bad575050908460019594939210611b94575b505050811b016005820155611217565b015160001960f88460031b161c191690558b8080611b84565b80600186978294978701518155019601940190611b6d565b909150600584016000528b600020601f840160051c81018d8510611c0f575b90849392915b601f830160051c82018110611c005750506111e9565b60008155859450600101611bea565b5080611be4565b015190508b806111a3565b6004850160009081528d81209350601f198516908e5b828210611c77575050908460019594939210611c5e575b505050811b0160048201556111bb565b015160001960f88460031b161c191690558b8080611c4e565b80600186978294978701518155019601940190611c37565b909150600484016000528b600020601f840160051c81018d8510611cd9575b90849392915b601f830160051c82018110611cca57505061118d565b60008155859450600101611cb4565b5080611cae565b346106365760203660031901126106365760043560005260016020526040600020808054600160a01b6001900360018301541660a052600160a01b6001900360028301541660e052600382015460048301611d3a90612653565b611d4660058501612653565b90611d5360068601612653565b91611d6060078701612653565b92600887015493600988015491600a89015493600b8a015495600c8b01611d8690612653565b98611d93600d8d01612653565b9a611da0600e8e01612653565b9c600f01611dad90612653565b9d601001611dba90612653565b60805260405160c05260c0515260a05160c0516020015260e05160c0516040015260c0516060015260c051608001610240905260c05161024001611dfd91612457565b60c051810360c05160a00152611e1291612457565b60c051810360c05160c00152611e2791612457565b60c051810360c05160e00152611e3c91612457565b9360ff8116151560c051610100015260081c60ff16151560c051610120015260c051610140015260c051610160015260c051610180015260c051810360c0516101a00152611e8991612457565b60c051810360c0516101c00152611e9f91612457565b60c051810360c0516101e00152611eb591612457565b60c051810360c0516102000152611ecb91612457565b60c051810360c051610220015260c0519060805190611ee991612457565b0360c051f35b34610636576020366003190112610636576001600160a01b03611f106123c3565b16600052600260205260406000206040518082602082945493848152019060005260206000209260005b818110611fa3575050611f4f92500382612632565b60009060005b8151811015610de757611f68818361274d565b51600052600160205260ff60086040600020015416611f8a575b600101611f55565b91611f9b600191610d9f858561274d565b929050611f82565b8454835260019485019486945060209093019201611f3a565b3461063657602036600319011261063657600435611fd86127b9565b5080151580612017575b611feb90612844565b60005260016020526107c46120036040600020612885565b604051918291602083526020830190612498565b50600354811115611fe2565b346106365760403660031901126106365761203c6123d9565b336001600160a01b03821603612058576109d890600435612a77565b63334bd91960e11b60005260046000fd5b34610636576040366003190112610636576109d86004356120886123d9565b906120a46109ce82600052600060205260016040600020015490565b6129ec565b34610636576020366003190112610636576001600160a01b036120ca6123c3565b16600052600260205260406000206040518082602082945493848152019060005260206000209260005b8181106121b357505061210992500382612632565b6000805b825181101561215657612120818461274d565b51600052600160205260ff60086040600020015416612142575b60010161210d565b9061214e600191612761565b91905061213a565b5061216090612787565b906000805b82518110156107b657612178818461274d565b51600052600160205260ff6008604060002001541661219a575b600101612165565b906121ab600191610774848661274d565b919050612192565b84548352600194850194869450602090930192016120f4565b34610636576020366003190112610636576001600160a01b036121ed6123c3565b166000526002602052604060002060405190816020825491828152019160005260206000209060005b818110612239576107c48561222d81870382612632565b6040519182918261241d565b8254845260209093019260019283019201612216565b3461063657602036600319011261063657602061227c600435600052600060205260016040600020015490565b604051908152f35b34610636576020366003190112610636576001600160a01b036122a56123c3565b1660005260026020526020604060002054604051908152f35b34610636576000366003190112610636576020600354604051908152f35b34610636576040366003190112610636576122f56123c3565b6001600160a01b031660009081526002602052604090208054602435919082101561063657602091612326916123ef565b90549060031b1c604051908152f35b346106365760003660031901126106365760206040517f0182a37f4cfe4a11c9cc13af6a96350bc084bedfd41df0928670dbabcfe3aea18152f35b34610636576020366003190112610636576004359063ffffffff60e01b821680920361063657602091637965db0b60e01b81149081156123b2575b5015158152f35b6301ffc9a760e01b149050836123ab565b600435906001600160a01b038216820361063657565b602435906001600160a01b038216820361063657565b80548210156124075760005260206000200190600090565b634e487b7160e01b600052603260045260246000fd5b602060408183019282815284518094520192019060005b8181106124415750505090565b8251845260209384019390920191600101612434565b919082519283825260005b848110612483575050826000602080949584010152601f8019910116010190565b80602080928401015182828601015201612462565b6125d9918151815260018060a01b03602083015116602082015260018060a01b036040830151166040820152606082015160608201526102206125c76125b361259f61258b61253761252561251361250160808b015161024060808c01526102408b0190612457565b60a08b01518a820360a08c0152612457565b60c08a015189820360c08b0152612457565b60e089015188820360e08a0152612457565b610100880151151561010088015261012088015115156101208801526101408801516101408801526101608801516101608801526101808801516101808801526101a08801518782036101a0890152612457565b6101c08701518682036101c0880152612457565b6101e08601518582036101e0870152612457565b610200850151848203610200860152612457565b92015190610220818403910152612457565b90565b90600182811c9216801561260c575b60208310146125f657565b634e487b7160e01b600052602260045260246000fd5b91607f16916125eb565b61024081019081106001600160401b0382111761043257604052565b90601f801991011681019081106001600160401b0382111761043257604052565b9060405191826000825492612667846125dc565b80845293600181169081156126d5575060011461268e575b5061268c92500383612632565b565b90506000929192526020600020906000915b8183106126b957505090602061268c928201013861267f565b60209193508060019154838589010152019101909184926126a0565b90506020925061268c94915060ff191682840152151560051b8201013861267f565b81601f82011215610636578035906001600160401b038211610432576040519261272b601f8401601f191660200185612632565b8284526020838301011161063657816000926020809301838601378301015290565b80518210156124075760209160051b010190565b6000198114610f0d5760010190565b6001600160401b0381116104325760051b60200190565b9061279182612770565b61279e6040519182612632565b82815280926127af601f1991612770565b0190602036910137565b604051906127c682612616565b6060610220836000815260006020820152600060408201526000838201528260808201528260a08201528260c08201528260e082015260006101008201526000610120820152600061014082015260006101608201526000610180820152826101a0820152826101c0820152826101e0820152826102008201520152565b1561284b57565b60405162461bcd60e51b8152602060048201526012602482015271125b9d985b1a59081a5b9d9bda58d948125160721b6044820152606490fd5b9060405161289281612616565b8254815260018301546001600160a01b0390811660208301526002840154166040820152600383015460608201529182906102209061299f906010906128da60048201612653565b60808601526128eb60058201612653565b60a08601526128fc60068201612653565b60c086015261290d60078201612653565b60e086015260ff6008820154818116151561010088015260081c1615156101208601526009810154610140860152600a810154610160860152600b81015461018086015261295d600c8201612653565b6101a086015261296f600d8201612653565b6101c0860152612981600e8201612653565b6101e0860152612993600f8201612653565b61020086015201612653565b910152565b91908201809211610f0d57565b60008181526020818152604080832033845290915290205460ff16156129d45750565b63e2517d3f60e01b6000523360045260245260446000fd5b6000818152602081815260408083206001600160a01b038616845290915290205460ff16612a70576000818152602081815260408083206001600160a01b0395909516808452949091528120805460ff19166001179055339291907f2f8788117e7eff1d82e926ec794901d17c78024a50270940304540a733656f0d9080a4600190565b5050600090565b6000818152602081815260408083206001600160a01b038616845290915290205460ff1615612a70576000818152602081815260408083206001600160a01b0395909516808452949091528120805460ff19169055339291907ff6391f5c32d9c69d2a47ea670b442974b53935d1edc7fd64eb21e047a839171b9080a460019056fea264697066735822122011efc32e893351f6366c6f2cfadeff6aec91e99bbed968a91914623ee935be1964736f6c634300081c00332f8788117e7eff1d82e926ec794901d17c78024a50270940304540a733656f0da7a29618debaa59f0fc05b2ba996e7c1b75722f511d61514074624c13af3c801ad3228b676f7d3cd4284a5443f17f1962b36e491b30a40b2405849e597ba5fb5","opcodes":"PUSH1 0x80 PUSH1 0x40 MSTORE CALLVALUE PUSH2 0x2C JUMPI PUSH2 0x12 CALLER PUSH2 0x31 JUMP JUMPDEST POP PUSH2 0x1C CALLER PUSH2 0xAD JUMP JUMPDEST POP PUSH1 0x40 MLOAD PUSH2 0x2B2F SWAP1 DUP2 PUSH2 0x146 DUP3 CODECOPY RETURN JUMPDEST PUSH1 0x0 DUP1 REVERT JUMPDEST PUSH1 0x1 PUSH1 0x1 PUSH1 0xA0 SHL SUB DUP2 AND PUSH1 0x0 SWAP1 DUP2 MSTORE PUSH1 0x0 DUP1 MLOAD PUSH1 0x20 PUSH2 0x2CB5 DUP4 CODECOPY DUP2 MLOAD SWAP2 MSTORE PUSH1 0x20 MSTORE PUSH1 0x40 SWAP1 KECCAK256 SLOAD PUSH1 0xFF AND PUSH2 0xA7 JUMPI PUSH1 0x1 PUSH1 0x1 PUSH1 0xA0 SHL SUB AND PUSH1 0x0 DUP2 DUP2 MSTORE PUSH1 0x0 DUP1 MLOAD PUSH1 0x20 PUSH2 0x2CB5 DUP4 CODECOPY DUP2 MLOAD SWAP2 MSTORE PUSH1 0x20 MSTORE PUSH1 0x40 DUP2 KECCAK256 DUP1 SLOAD PUSH1 0xFF NOT AND PUSH1 0x1 OR SWAP1 SSTORE CALLER SWAP2 SWAP1 PUSH1 0x0 DUP1 MLOAD PUSH1 0x20 PUSH2 0x2C75 DUP4 CODECOPY DUP2 MLOAD SWAP2 MSTORE DUP2 DUP1 LOG4 PUSH1 0x1 SWAP1 JUMP JUMPDEST POP PUSH1 0x0 SWAP1 JUMP JUMPDEST PUSH1 0x1 PUSH1 0x1 PUSH1 0xA0 SHL SUB DUP2 AND PUSH1 0x0 SWAP1 DUP2 MSTORE PUSH1 0x0 DUP1 MLOAD PUSH1 0x20 PUSH2 0x2C95 DUP4 CODECOPY DUP2 MLOAD SWAP2 MSTORE PUSH1 0x20 MSTORE PUSH1 0x40 SWAP1 KECCAK256 SLOAD PUSH1 0xFF AND PUSH2 0xA7 JUMPI PUSH1 0x1 PUSH1 0x1 PUSH1 0xA0 SHL SUB AND PUSH1 0x0 DUP2 DUP2 MSTORE PUSH1 0x0 DUP1 MLOAD PUSH1 0x20 PUSH2 0x2C95 DUP4 CODECOPY DUP2 MLOAD SWAP2 MSTORE PUSH1 0x20 MSTORE PUSH1 0x40 DUP2 KECCAK256 DUP1 SLOAD PUSH1 0xFF NOT AND PUSH1 0x1 OR SWAP1 SSTORE CALLER SWAP2 SWAP1 PUSH32 0x182A37F4CFE4A11C9CC13AF6A96350BC084BEDFD41DF0928670DBABCFE3AEA1 SWAP1 PUSH1 0x0 DUP1 MLOAD PUSH1 0x20 PUSH2 0x2C75 DUP4 CODECOPY DUP2 MLOAD SWAP2 MSTORE SWAP1 DUP1 LOG4 PUSH1 0x1 SWAP1 JUMP INVALID PUSH2 0x100 DUP1 PUSH1 0x40 MSTORE PUSH1 0x4 CALLDATASIZE LT ISZERO PUSH2 0x14 JUMPI PUSH1 0x0 DUP1 REVERT JUMPDEST PUSH1 0x0 CALLDATALOAD PUSH1 0xE0 SHR SWAP1 DUP2 PUSH4 0x1FFC9A7 EQ PUSH2 0x2370 JUMPI POP DUP1 PUSH4 0x5B11D37 EQ PUSH2 0x2335 JUMPI DUP1 PUSH4 0xAD6B0A5 EQ PUSH2 0x22DC JUMPI DUP1 PUSH4 0x1346F0C4 EQ PUSH2 0x22BE JUMPI DUP1 PUSH4 0x21E2A791 EQ PUSH2 0x2284 JUMPI DUP1 PUSH4 0x248A9CA3 EQ PUSH2 0x224F JUMPI DUP1 PUSH4 0x24D3B3E2 EQ PUSH2 0x21CC JUMPI DUP1 PUSH4 0x2542A1F9 EQ PUSH2 0x20A9 JUMPI DUP1 PUSH4 0x2F2FF15D EQ PUSH2 0x2069 JUMPI DUP1 PUSH4 0x36568ABE EQ PUSH2 0x2023 JUMPI DUP1 PUSH4 0x3A23CC0A EQ PUSH2 0x1FBC JUMPI DUP1 PUSH4 0x49567E01 EQ PUSH2 0x1EEF JUMPI DUP1 PUSH4 0x4E6D1405 EQ PUSH2 0x1CE0 JUMPI DUP1 PUSH4 0x511656DB EQ PUSH2 0xF3A JUMPI DUP1 PUSH4 0x570BDAD6 EQ PUSH2 0xE0B JUMPI DUP1 PUSH4 0x7571AF22 EQ PUSH2 0xCEC JUMPI DUP1 PUSH4 0x78DEFD9E EQ PUSH2 0xCB1 JUMPI DUP1 PUSH4 0x91D14854 EQ PUSH2 0xC64 JUMPI DUP1 PUSH4 0x96C579FA EQ PUSH2 0xB1A JUMPI DUP1 PUSH4 0xA217FDDF EQ PUSH2 0xAFE JUMPI DUP1 PUSH4 0xB32413B7 EQ PUSH2 0x9DA JUMPI DUP1 PUSH4 0xD547741F EQ PUSH2 0x993 JUMPI DUP1 PUSH4 0xDA9C273D EQ PUSH2 0x7E1 JUMPI DUP1 PUSH4 0xE3F1A28D EQ PUSH2 0x63B JUMPI PUSH4 0xEA20F362 EQ PUSH2 0x133 JUMPI PUSH1 0x0 DUP1 REVERT JUMPDEST CALLVALUE PUSH2 0x636 JUMPI PUSH1 0x60 CALLDATASIZE PUSH1 0x3 NOT ADD SLT PUSH2 0x636 JUMPI PUSH1 0x4 CALLDATALOAD PUSH1 0x24 CALLDATALOAD PUSH1 0x1 PUSH1 0x1 PUSH1 0x40 SHL SUB DUP2 GT PUSH2 0x636 JUMPI PUSH2 0x166 SWAP1 CALLDATASIZE SWAP1 PUSH1 0x4 ADD PUSH2 0x26F7 JUMP JUMPDEST SWAP1 PUSH1 0x44 CALLDATALOAD PUSH1 0x1 PUSH1 0x1 PUSH1 0x40 SHL SUB DUP2 GT PUSH2 0x636 JUMPI PUSH2 0x186 SWAP1 CALLDATASIZE SWAP1 PUSH1 0x4 ADD PUSH2 0x26F7 JUMP JUMPDEST SWAP2 DUP2 ISZERO ISZERO DUP1 PUSH2 0x62A JUMPI JUMPDEST PUSH2 0x199 SWAP1 PUSH2 0x2844 JUMP JUMPDEST DUP2 PUSH1 0x0 MSTORE PUSH1 0x1 PUSH1 0x20 MSTORE PUSH1 0xFF PUSH1 0x8 PUSH1 0x40 PUSH1 0x0 KECCAK256 ADD SLOAD AND PUSH2 0x5EE JUMPI DUP2 PUSH1 0x0 MSTORE PUSH1 0x1 PUSH1 0x20 MSTORE PUSH1 0xFF PUSH1 0x8 PUSH1 0x40 PUSH1 0x0 KECCAK256 ADD SLOAD PUSH1 0x8 SHR AND PUSH2 0x5B2 JUMPI DUP2 PUSH1 0x0 MSTORE PUSH1 0x1 PUSH1 0x20 MSTORE PUSH1 0xB PUSH1 0x40 PUSH1 0x0 KECCAK256 ADD SLOAD TIMESTAMP GT PUSH2 0x57B JUMPI DUP2 PUSH1 0x0 MSTORE PUSH1 0x1 PUSH1 0x20 MSTORE PUSH1 0x1 DUP1 PUSH1 0xA0 SHL SUB PUSH1 0x1 PUSH1 0x40 PUSH1 0x0 KECCAK256 ADD SLOAD AND CALLER EQ DUP1 ISZERO PUSH2 0x543 JUMPI JUMPDEST ISZERO PUSH2 0x4FE JUMPI PUSH1 0x0 DUP3 DUP2 MSTORE PUSH1 0x1 PUSH1 0x20 DUP2 SWAP1 MSTORE PUSH1 0x40 SWAP1 SWAP2 KECCAK256 PUSH1 0x8 DUP2 ADD DUP1 SLOAD PUSH1 0xFF NOT AND SWAP1 SWAP3 OR SWAP1 SWAP2 SSTORE TIMESTAMP PUSH1 0xA DUP3 ADD SSTORE DUP2 MLOAD PUSH1 0xD SWAP1 SWAP2 ADD SWAP1 PUSH1 0x1 PUSH1 0x1 PUSH1 0x40 SHL SUB DUP2 GT PUSH2 0x432 JUMPI PUSH2 0x255 DUP3 SLOAD PUSH2 0x25DC JUMP JUMPDEST PUSH1 0x1F DUP2 GT PUSH2 0x4B6 JUMPI JUMPDEST POP DUP1 PUSH1 0x20 PUSH1 0x1F DUP3 GT PUSH1 0x1 EQ PUSH2 0x453 JUMPI PUSH1 0x0 SWAP2 PUSH2 0x448 JUMPI JUMPDEST POP DUP2 PUSH1 0x1 SHL SWAP2 PUSH1 0x0 NOT SWAP1 PUSH1 0x3 SHL SHR NOT AND OR SWAP1 SSTORE JUMPDEST DUP2 PUSH1 0x0 MSTORE PUSH1 0x1 PUSH1 0x20 MSTORE PUSH1 0xE PUSH1 0x40 PUSH1 0x0 KECCAK256 ADD SWAP3 DUP1 MLOAD SWAP4 PUSH1 0x1 PUSH1 0x1 PUSH1 0x40 SHL SUB DUP6 GT PUSH2 0x432 JUMPI PUSH2 0x2B6 DUP2 SLOAD PUSH2 0x25DC JUMP JUMPDEST PUSH1 0x1F DUP2 GT PUSH2 0x3EA JUMPI JUMPDEST POP PUSH1 0x20 PUSH1 0x1F DUP7 GT PUSH1 0x1 EQ PUSH2 0x364 JUMPI SWAP5 DUP1 PUSH32 0x261990519D41077A811FCCDA6680889D2AD9A7D4AE275F44D741C9364C2A3701 SWAP6 SWAP7 PUSH1 0x0 SWAP2 PUSH2 0x359 JUMPI JUMPDEST POP DUP2 PUSH1 0x1 SHL SWAP2 PUSH1 0x0 NOT SWAP1 PUSH1 0x3 SHL SHR NOT AND OR SWAP1 SSTORE JUMPDEST DUP4 PUSH1 0x0 MSTORE PUSH1 0x1 PUSH1 0x20 MSTORE PUSH2 0x354 PUSH1 0x3 PUSH1 0x40 PUSH1 0x0 KECCAK256 ADD SLOAD SWAP2 PUSH2 0x346 PUSH1 0x40 MLOAD SWAP5 DUP6 SWAP5 DUP6 MSTORE TIMESTAMP PUSH1 0x20 DUP7 ADD MSTORE PUSH1 0x80 PUSH1 0x40 DUP7 ADD MSTORE PUSH1 0x80 DUP6 ADD SWAP1 PUSH2 0x2457 JUMP JUMPDEST SWAP1 DUP4 DUP3 SUB PUSH1 0x60 DUP6 ADD MSTORE PUSH2 0x2457 JUMP JUMPDEST SUB SWAP1 LOG2 STOP JUMPDEST SWAP1 POP DUP4 ADD MLOAD CODESIZE PUSH2 0x2FA JUMP JUMPDEST PUSH1 0x1F NOT DUP7 AND SWAP1 DUP3 PUSH1 0x0 MSTORE DUP1 PUSH1 0x0 KECCAK256 SWAP2 PUSH1 0x0 JUMPDEST DUP2 DUP2 LT PUSH2 0x3D2 JUMPI POP SWAP2 DUP8 SWAP2 PUSH32 0x261990519D41077A811FCCDA6680889D2AD9A7D4AE275F44D741C9364C2A3701 SWAP8 SWAP9 PUSH1 0x1 SWAP5 LT PUSH2 0x3B9 JUMPI JUMPDEST POP POP DUP2 SHL ADD SWAP1 SSTORE PUSH2 0x30E JUMP JUMPDEST DUP6 ADD MLOAD PUSH1 0x0 NOT PUSH1 0xF8 DUP5 PUSH1 0x3 SHL AND SHR NOT AND SWAP1 SSTORE CODESIZE DUP1 PUSH2 0x3AD JUMP JUMPDEST SWAP2 SWAP3 PUSH1 0x20 PUSH1 0x1 DUP2 SWAP3 DUP7 DUP10 ADD MLOAD DUP2 SSTORE ADD SWAP5 ADD SWAP3 ADD PUSH2 0x376 JUMP JUMPDEST DUP2 PUSH1 0x0 MSTORE PUSH1 0x20 PUSH1 0x0 KECCAK256 PUSH1 0x1F DUP8 ADD PUSH1 0x5 SHR DUP2 ADD SWAP2 PUSH1 0x20 DUP9 LT PUSH2 0x428 JUMPI JUMPDEST PUSH1 0x1F ADD PUSH1 0x5 SHR ADD SWAP1 JUMPDEST DUP2 DUP2 LT PUSH2 0x41C JUMPI POP PUSH2 0x2BF JUMP JUMPDEST PUSH1 0x0 DUP2 SSTORE PUSH1 0x1 ADD PUSH2 0x40F JUMP JUMPDEST SWAP1 SWAP2 POP DUP2 SWAP1 PUSH2 0x406 JUMP JUMPDEST PUSH4 0x4E487B71 PUSH1 0xE0 SHL PUSH1 0x0 MSTORE PUSH1 0x41 PUSH1 0x4 MSTORE PUSH1 0x24 PUSH1 0x0 REVERT JUMPDEST SWAP1 POP DUP4 ADD MLOAD CODESIZE PUSH2 0x275 JUMP JUMPDEST PUSH1 0x0 DUP5 DUP2 MSTORE DUP2 DUP2 KECCAK256 SWAP3 POP PUSH1 0x1F NOT DUP5 AND SWAP1 JUMPDEST DUP2 DUP2 LT PUSH2 0x49E JUMPI POP SWAP1 DUP4 PUSH1 0x1 SWAP5 SWAP4 SWAP3 LT PUSH2 0x485 JUMPI JUMPDEST POP POP DUP2 SHL ADD SWAP1 SSTORE PUSH2 0x289 JUMP JUMPDEST DUP6 ADD MLOAD PUSH1 0x0 NOT PUSH1 0xF8 DUP5 PUSH1 0x3 SHL AND SHR NOT AND SWAP1 SSTORE CODESIZE DUP1 PUSH2 0x479 JUMP JUMPDEST SWAP2 SWAP3 PUSH1 0x20 PUSH1 0x1 DUP2 SWAP3 DUP7 DUP11 ADD MLOAD DUP2 SSTORE ADD SWAP5 ADD SWAP3 ADD PUSH2 0x464 JUMP JUMPDEST DUP3 PUSH1 0x0 MSTORE PUSH1 0x20 PUSH1 0x0 KECCAK256 PUSH1 0x1F DUP4 ADD PUSH1 0x5 SHR DUP2 ADD SWAP2 PUSH1 0x20 DUP5 LT PUSH2 0x4F4 JUMPI JUMPDEST PUSH1 0x1F ADD PUSH1 0x5 SHR ADD SWAP1 JUMPDEST DUP2 DUP2 LT PUSH2 0x4E8 JUMPI POP PUSH2 0x25E JUMP JUMPDEST PUSH1 0x0 DUP2 SSTORE PUSH1 0x1 ADD PUSH2 0x4DB JUMP JUMPDEST SWAP1 SWAP2 POP DUP2 SWAP1 PUSH2 0x4D2 JUMP JUMPDEST PUSH1 0x40 MLOAD PUSH3 0x461BCD PUSH1 0xE5 SHL DUP2 MSTORE PUSH1 0x20 PUSH1 0x4 DUP3 ADD MSTORE PUSH1 0x19 PUSH1 0x24 DUP3 ADD MSTORE PUSH32 0x4E6F7420617574686F72697A656420746F20636F6E6669726D00000000000000 PUSH1 0x44 DUP3 ADD MSTORE PUSH1 0x64 SWAP1 REVERT JUMPDEST POP CALLER PUSH1 0x0 SWAP1 DUP2 MSTORE PUSH32 0x7F9DBDA07A537866789973AB16B834C90972AE7073B94D82F3D33F1B9E5C4CBB PUSH1 0x20 MSTORE PUSH1 0x40 SWAP1 KECCAK256 SLOAD PUSH1 0xFF AND PUSH2 0x209 JUMP JUMPDEST PUSH1 0x40 MLOAD PUSH3 0x461BCD PUSH1 0xE5 SHL DUP2 MSTORE PUSH1 0x20 PUSH1 0x4 DUP3 ADD MSTORE PUSH1 0xF PUSH1 0x24 DUP3 ADD MSTORE PUSH15 0x125B9D9BDA58D948195E1C1A5C9959 PUSH1 0x8A SHL PUSH1 0x44 DUP3 ADD MSTORE PUSH1 0x64 SWAP1 REVERT JUMPDEST PUSH1 0x40 MLOAD PUSH3 0x461BCD PUSH1 0xE5 SHL DUP2 MSTORE PUSH1 0x20 PUSH1 0x4 DUP3 ADD MSTORE PUSH1 0x14 PUSH1 0x24 DUP3 ADD MSTORE PUSH20 0x125B9D9BDA58D9481A5CC818D85B98D95B1B1959 PUSH1 0x62 SHL PUSH1 0x44 DUP3 ADD MSTORE PUSH1 0x64 SWAP1 REVERT JUMPDEST PUSH1 0x40 MLOAD PUSH3 0x461BCD PUSH1 0xE5 SHL DUP2 MSTORE PUSH1 0x20 PUSH1 0x4 DUP3 ADD MSTORE PUSH1 0x14 PUSH1 0x24 DUP3 ADD MSTORE PUSH20 0x125B9D9BDA58D948185B1C9958591E481C185A59 PUSH1 0x62 SHL PUSH1 0x44 DUP3 ADD MSTORE PUSH1 0x64 SWAP1 REVERT JUMPDEST POP PUSH1 0x3 SLOAD DUP3 GT ISZERO PUSH2 0x190 JUMP JUMPDEST PUSH1 0x0 DUP1 REVERT JUMPDEST CALLVALUE PUSH2 0x636 JUMPI PUSH1 0x20 CALLDATASIZE PUSH1 0x3 NOT ADD SLT PUSH2 0x636 JUMPI PUSH1 0x1 PUSH1 0x1 PUSH1 0xA0 SHL SUB PUSH2 0x65C PUSH2 0x23C3 JUMP JUMPDEST AND PUSH1 0x0 MSTORE PUSH1 0x2 PUSH1 0x20 MSTORE PUSH1 0x40 PUSH1 0x0 KECCAK256 PUSH1 0x40 MLOAD DUP1 DUP3 PUSH1 0x20 DUP3 SWAP5 SLOAD SWAP4 DUP5 DUP2 MSTORE ADD SWAP1 PUSH1 0x0 MSTORE PUSH1 0x20 PUSH1 0x0 KECCAK256 SWAP3 PUSH1 0x0 JUMPDEST DUP2 DUP2 LT PUSH2 0x7C8 JUMPI POP POP PUSH2 0x69B SWAP3 POP SUB DUP3 PUSH2 0x2632 JUMP JUMPDEST PUSH1 0x0 DUP1 JUMPDEST DUP3 MLOAD DUP2 LT ISZERO PUSH2 0x718 JUMPI PUSH2 0x6B2 DUP2 DUP5 PUSH2 0x274D JUMP JUMPDEST MLOAD PUSH1 0x0 MSTORE PUSH1 0x1 PUSH1 0x20 MSTORE PUSH1 0xFF PUSH1 0x8 PUSH1 0x40 PUSH1 0x0 KECCAK256 ADD SLOAD AND ISZERO DUP1 PUSH2 0x6EF JUMPI JUMPDEST PUSH2 0x6DB JUMPI JUMPDEST PUSH1 0x1 ADD PUSH2 0x69F JUMP JUMPDEST SWAP1 PUSH2 0x6E7 PUSH1 0x1 SWAP2 PUSH2 0x2761 JUMP JUMPDEST SWAP2 SWAP1 POP PUSH2 0x6D3 JUMP JUMPDEST POP PUSH2 0x6FA DUP2 DUP5 PUSH2 0x274D JUMP JUMPDEST MLOAD PUSH1 0x0 MSTORE PUSH1 0x1 PUSH1 0x20 MSTORE PUSH1 0xFF PUSH1 0x8 PUSH1 0x40 PUSH1 0x0 KECCAK256 ADD SLOAD PUSH1 0x8 SHR AND ISZERO PUSH2 0x6CE JUMP JUMPDEST POP PUSH2 0x722 SWAP1 PUSH2 0x2787 JUMP JUMPDEST SWAP1 PUSH1 0x0 DUP1 JUMPDEST DUP3 MLOAD DUP2 LT ISZERO PUSH2 0x7B6 JUMPI PUSH2 0x73A DUP2 DUP5 PUSH2 0x274D JUMP JUMPDEST MLOAD PUSH1 0x0 MSTORE PUSH1 0x1 PUSH1 0x20 MSTORE PUSH1 0xFF PUSH1 0x8 PUSH1 0x40 PUSH1 0x0 KECCAK256 ADD SLOAD AND ISZERO DUP1 PUSH2 0x78D JUMPI JUMPDEST PUSH2 0x763 JUMPI JUMPDEST PUSH1 0x1 ADD PUSH2 0x727 JUMP JUMPDEST SWAP1 PUSH2 0x785 PUSH1 0x1 SWAP2 PUSH2 0x774 DUP5 DUP7 PUSH2 0x274D JUMP JUMPDEST MLOAD PUSH2 0x77F DUP3 DUP9 PUSH2 0x274D JUMP JUMPDEST MSTORE PUSH2 0x2761 JUMP JUMPDEST SWAP2 SWAP1 POP PUSH2 0x75B JUMP JUMPDEST POP PUSH2 0x798 DUP2 DUP5 PUSH2 0x274D JUMP JUMPDEST MLOAD PUSH1 0x0 MSTORE PUSH1 0x1 PUSH1 0x20 MSTORE PUSH1 0xFF PUSH1 0x8 PUSH1 0x40 PUSH1 0x0 KECCAK256 ADD SLOAD PUSH1 0x8 SHR AND ISZERO PUSH2 0x756 JUMP JUMPDEST PUSH1 0x40 MLOAD DUP1 PUSH2 0x7C4 DUP7 DUP3 PUSH2 0x241D JUMP JUMPDEST SUB SWAP1 RETURN JUMPDEST DUP5 SLOAD DUP4 MSTORE PUSH1 0x1 SWAP5 DUP6 ADD SWAP5 DUP7 SWAP5 POP PUSH1 0x20 SWAP1 SWAP4 ADD SWAP3 ADD PUSH2 0x686 JUMP JUMPDEST CALLVALUE PUSH2 0x636 JUMPI PUSH1 0x20 CALLDATASIZE PUSH1 0x3 NOT ADD SLT PUSH2 0x636 JUMPI PUSH1 0x4 CALLDATALOAD DUP1 ISZERO ISZERO DUP1 PUSH2 0x987 JUMPI JUMPDEST PUSH2 0x807 SWAP1 PUSH2 0x2844 JUMP JUMPDEST PUSH1 0x0 DUP2 DUP2 MSTORE PUSH1 0x1 PUSH1 0x20 DUP2 SWAP1 MSTORE PUSH1 0x40 SWAP1 SWAP2 KECCAK256 ADD SLOAD PUSH1 0x1 PUSH1 0x1 PUSH1 0xA0 SHL SUB AND CALLER SUB PUSH2 0x932 JUMPI DUP1 PUSH1 0x0 MSTORE PUSH1 0x1 PUSH1 0x20 MSTORE PUSH1 0xFF PUSH1 0x8 PUSH1 0x40 PUSH1 0x0 KECCAK256 ADD SLOAD AND PUSH2 0x8ED JUMPI DUP1 PUSH1 0x0 MSTORE PUSH1 0x1 PUSH1 0x20 MSTORE PUSH1 0xFF PUSH1 0x8 PUSH1 0x40 PUSH1 0x0 KECCAK256 ADD SLOAD PUSH1 0x8 SHR AND PUSH2 0x8A8 JUMPI DUP1 PUSH1 0x0 MSTORE PUSH1 0x1 PUSH1 0x20 MSTORE PUSH1 0x8 PUSH1 0x40 PUSH1 0x0 KECCAK256 ADD PUSH2 0x100 PUSH2 0xFF00 NOT DUP3 SLOAD AND OR SWAP1 SSTORE PUSH32 0xEDAA303E89EE281697BA652192508238167C1D6BB056355D8DAACF9887D94697 PUSH1 0x20 PUSH1 0x40 MLOAD TIMESTAMP DUP2 MSTORE LOG2 STOP JUMPDEST PUSH1 0x40 MLOAD PUSH3 0x461BCD PUSH1 0xE5 SHL DUP2 MSTORE PUSH1 0x20 PUSH1 0x4 DUP3 ADD MSTORE PUSH1 0x19 PUSH1 0x24 DUP3 ADD MSTORE PUSH32 0x496E766F69636520616C72656164792063616E63656C6C656400000000000000 PUSH1 0x44 DUP3 ADD MSTORE PUSH1 0x64 SWAP1 REVERT JUMPDEST PUSH1 0x40 MLOAD PUSH3 0x461BCD PUSH1 0xE5 SHL DUP2 MSTORE PUSH1 0x20 PUSH1 0x4 DUP3 ADD MSTORE PUSH1 0x1A PUSH1 0x24 DUP3 ADD MSTORE PUSH32 0x43616E6E6F742063616E63656C207061696420696E766F696365000000000000 PUSH1 0x44 DUP3 ADD MSTORE PUSH1 0x64 SWAP1 REVERT JUMPDEST PUSH1 0x40 MLOAD PUSH3 0x461BCD PUSH1 0xE5 SHL DUP2 MSTORE PUSH1 0x20 PUSH1 0x4 DUP3 ADD MSTORE PUSH1 0x27 PUSH1 0x24 DUP3 ADD MSTORE PUSH32 0x4F6E6C7920696E766F6963652063726561746F722063616E2063616E63656C20 PUSH1 0x44 DUP3 ADD MSTORE PUSH7 0x696E766F696365 PUSH1 0xC8 SHL PUSH1 0x64 DUP3 ADD MSTORE PUSH1 0x84 SWAP1 REVERT JUMPDEST POP PUSH1 0x3 SLOAD DUP2 GT ISZERO PUSH2 0x7FE JUMP JUMPDEST CALLVALUE PUSH2 0x636 JUMPI PUSH1 0x40 CALLDATASIZE PUSH1 0x3 NOT ADD SLT PUSH2 0x636 JUMPI PUSH2 0x9D8 PUSH1 0x4 CALLDATALOAD PUSH2 0x9B2 PUSH2 0x23D9 JUMP JUMPDEST SWAP1 PUSH2 0x9D3 PUSH2 0x9CE DUP3 PUSH1 0x0 MSTORE PUSH1 0x0 PUSH1 0x20 MSTORE PUSH1 0x1 PUSH1 0x40 PUSH1 0x0 KECCAK256 ADD SLOAD SWAP1 JUMP JUMPDEST PUSH2 0x29B1 JUMP JUMPDEST PUSH2 0x2A77 JUMP JUMPDEST STOP JUMPDEST CALLVALUE PUSH2 0x636 JUMPI PUSH1 0x20 CALLDATASIZE PUSH1 0x3 NOT ADD SLT PUSH2 0x636 JUMPI CALLER PUSH1 0x0 SWAP1 DUP2 MSTORE PUSH32 0xA7A29618DEBAA59F0FC05B2BA996E7C1B75722F511D61514074624C13AF3C801 PUSH1 0x20 MSTORE PUSH1 0x40 SWAP1 KECCAK256 SLOAD PUSH1 0x4 CALLDATALOAD SWAP1 PUSH1 0xFF AND ISZERO PUSH2 0xAC5 JUMPI DUP1 ISZERO ISZERO DUP1 PUSH2 0xAB9 JUMPI JUMPDEST PUSH2 0xA38 SWAP1 PUSH2 0x2844 JUMP JUMPDEST DUP1 PUSH1 0x0 MSTORE PUSH1 0x1 PUSH1 0x20 MSTORE PUSH1 0xFF PUSH1 0x8 PUSH1 0x40 PUSH1 0x0 KECCAK256 ADD SLOAD AND ISZERO PUSH2 0xA81 JUMPI PUSH1 0x40 MLOAD SWAP1 TIMESTAMP DUP3 MSTORE PUSH32 0x4573FE636D53209670F6DDF9B5CA0A3B206C1D4BDA8CD616F82F8EF48F066246 PUSH1 0x20 CALLER SWAP4 LOG3 STOP JUMPDEST PUSH1 0x40 MLOAD PUSH3 0x461BCD PUSH1 0xE5 SHL DUP2 MSTORE PUSH1 0x20 PUSH1 0x4 DUP3 ADD MSTORE PUSH1 0x10 PUSH1 0x24 DUP3 ADD MSTORE PUSH16 0x125B9D9BDA58D9481B9BDD081C185A59 PUSH1 0x82 SHL PUSH1 0x44 DUP3 ADD MSTORE PUSH1 0x64 SWAP1 REVERT JUMPDEST POP PUSH1 0x3 SLOAD DUP2 GT ISZERO PUSH2 0xA2F JUMP JUMPDEST PUSH4 0xE2517D3F PUSH1 0xE0 SHL PUSH1 0x0 MSTORE CALLER PUSH1 0x4 MSTORE PUSH32 0x182A37F4CFE4A11C9CC13AF6A96350BC084BEDFD41DF0928670DBABCFE3AEA1 PUSH1 0x24 MSTORE PUSH1 0x44 PUSH1 0x0 REVERT JUMPDEST CALLVALUE PUSH2 0x636 JUMPI PUSH1 0x0 CALLDATASIZE PUSH1 0x3 NOT ADD SLT PUSH2 0x636 JUMPI PUSH1 0x20 PUSH1 0x40 MLOAD PUSH1 0x0 DUP2 MSTORE RETURN JUMPDEST CALLVALUE PUSH2 0x636 JUMPI PUSH1 0x40 CALLDATASIZE PUSH1 0x3 NOT ADD SLT PUSH2 0x636 JUMPI PUSH1 0x4 CALLDATALOAD DUP1 ISZERO ISZERO DUP2 SUB PUSH2 0x636 JUMPI PUSH1 0x24 CALLDATALOAD DUP1 ISZERO ISZERO DUP2 SUB PUSH2 0x636 JUMPI SWAP1 PUSH1 0x3 SLOAD SWAP2 PUSH2 0xB51 DUP4 PUSH2 0x2787 JUMP JUMPDEST SWAP3 PUSH1 0x0 SWAP3 PUSH1 0x1 SWAP3 JUMPDEST DUP3 DUP5 GT ISZERO PUSH2 0xBA4 JUMPI DUP6 DUP6 PUSH2 0xB6C DUP2 PUSH2 0x2787 JUMP JUMPDEST SWAP2 PUSH1 0x0 JUMPDEST DUP3 DUP2 LT PUSH2 0xB85 JUMPI PUSH1 0x40 MLOAD DUP1 PUSH2 0x7C4 DUP7 DUP3 PUSH2 0x241D JUMP JUMPDEST DUP1 PUSH2 0xB92 PUSH1 0x1 SWAP3 DUP5 PUSH2 0x274D JUMP JUMPDEST MLOAD PUSH2 0xB9D DUP3 DUP8 PUSH2 0x274D JUMP JUMPDEST MSTORE ADD PUSH2 0xB70 JUMP JUMPDEST PUSH1 0x0 DUP5 DUP2 MSTORE PUSH1 0x1 PUSH1 0x20 MSTORE PUSH1 0x40 SWAP1 KECCAK256 PUSH1 0x8 SWAP1 DUP2 ADD SLOAD SWAP5 SWAP6 SWAP4 SWAP5 SWAP3 SWAP4 SWAP2 SWAP3 PUSH1 0xFF SWAP2 DUP2 SWAP1 SHR DUP3 AND SWAP2 AND DUP1 DUP1 PUSH2 0xC5D JUMPI JUMPDEST ISZERO PUSH2 0xBF8 JUMPI POP POP PUSH2 0xBEA DUP2 DUP7 PUSH2 0x77F PUSH2 0xBF0 SWAP5 DUP11 PUSH2 0x274D JUMP JUMPDEST SWAP5 PUSH2 0x2761 JUMP JUMPDEST SWAP3 SWAP2 SWAP1 PUSH2 0xB59 JUMP JUMPDEST DUP2 DUP1 PUSH2 0xC56 JUMPI JUMPDEST ISZERO PUSH2 0xC18 JUMPI POP POP PUSH2 0xBEA DUP2 DUP7 PUSH2 0x77F PUSH2 0xBF0 SWAP5 DUP11 PUSH2 0x274D JUMP JUMPDEST SWAP6 SWAP2 SWAP6 ISZERO SWAP1 DUP2 PUSH2 0xC4D JUMPI JUMPDEST POP PUSH2 0xC32 JUMPI JUMPDEST PUSH2 0xBF0 SWAP1 PUSH2 0x2761 JUMP JUMPDEST SWAP4 PUSH2 0xC45 DUP2 DUP7 PUSH2 0x77F PUSH2 0xBF0 SWAP5 DUP11 PUSH2 0x274D JUMP JUMPDEST SWAP5 SWAP1 POP PUSH2 0xC29 JUMP JUMPDEST SWAP1 POP ISZERO DUP8 PUSH2 0xC23 JUMP JUMPDEST POP DUP4 PUSH2 0xBFF JUMP JUMPDEST POP DUP5 PUSH2 0xBD1 JUMP JUMPDEST CALLVALUE PUSH2 0x636 JUMPI PUSH1 0x40 CALLDATASIZE PUSH1 0x3 NOT ADD SLT PUSH2 0x636 JUMPI PUSH2 0xC7D PUSH2 0x23D9 JUMP JUMPDEST PUSH1 0x4 CALLDATALOAD PUSH1 0x0 MSTORE PUSH1 0x0 PUSH1 0x20 MSTORE PUSH1 0x40 PUSH1 0x0 KECCAK256 SWAP1 PUSH1 0x1 DUP1 PUSH1 0xA0 SHL SUB AND PUSH1 0x0 MSTORE PUSH1 0x20 MSTORE PUSH1 0x20 PUSH1 0xFF PUSH1 0x40 PUSH1 0x0 KECCAK256 SLOAD AND PUSH1 0x40 MLOAD SWAP1 ISZERO ISZERO DUP2 MSTORE RETURN JUMPDEST CALLVALUE PUSH2 0x636 JUMPI PUSH1 0x0 CALLDATASIZE PUSH1 0x3 NOT ADD SLT PUSH2 0x636 JUMPI PUSH1 0x20 PUSH1 0x40 MLOAD PUSH32 0xE9B912FD022FBEC9E35B4431D7E4D4EC1D1069C0BA719CC57ABAA4F7052354AC DUP2 MSTORE RETURN JUMPDEST CALLVALUE PUSH2 0x636 JUMPI PUSH1 0x20 CALLDATASIZE PUSH1 0x3 NOT ADD SLT PUSH2 0x636 JUMPI PUSH1 0x1 PUSH1 0x1 PUSH1 0xA0 SHL SUB PUSH2 0xD0D PUSH2 0x23C3 JUMP JUMPDEST AND PUSH1 0x0 MSTORE PUSH1 0x2 PUSH1 0x20 MSTORE PUSH1 0x40 PUSH1 0x0 KECCAK256 PUSH1 0x40 MLOAD DUP1 DUP3 PUSH1 0x20 DUP3 SWAP5 SLOAD SWAP4 DUP5 DUP2 MSTORE ADD SWAP1 PUSH1 0x0 MSTORE PUSH1 0x20 PUSH1 0x0 KECCAK256 SWAP3 PUSH1 0x0 JUMPDEST DUP2 DUP2 LT PUSH2 0xDF2 JUMPI POP POP PUSH2 0xD4C SWAP3 POP SUB DUP3 PUSH2 0x2632 JUMP JUMPDEST PUSH1 0x0 SWAP1 PUSH1 0x0 JUMPDEST DUP2 MLOAD DUP2 LT ISZERO PUSH2 0xDE7 JUMPI PUSH2 0xD65 DUP2 DUP4 PUSH2 0x274D JUMP JUMPDEST MLOAD PUSH1 0x0 MSTORE PUSH1 0x1 PUSH1 0x20 MSTORE PUSH1 0xFF PUSH1 0x8 PUSH1 0x40 PUSH1 0x0 KECCAK256 ADD SLOAD AND ISZERO DUP1 PUSH2 0xDBE JUMPI JUMPDEST PUSH2 0xD8E JUMPI JUMPDEST PUSH1 0x1 ADD PUSH2 0xD52 JUMP JUMPDEST SWAP2 PUSH2 0xDB6 PUSH1 0x1 SWAP2 PUSH2 0xD9F DUP6 DUP6 PUSH2 0x274D JUMP JUMPDEST MLOAD PUSH1 0x0 MSTORE DUP3 PUSH1 0x20 MSTORE PUSH1 0x3 PUSH1 0x40 PUSH1 0x0 KECCAK256 ADD SLOAD SWAP1 PUSH2 0x29A4 JUMP JUMPDEST SWAP3 SWAP1 POP PUSH2 0xD86 JUMP JUMPDEST POP PUSH2 0xDC9 DUP2 DUP4 PUSH2 0x274D JUMP JUMPDEST MLOAD PUSH1 0x0 MSTORE PUSH1 0x1 PUSH1 0x20 MSTORE PUSH1 0xFF PUSH1 0x8 PUSH1 0x40 PUSH1 0x0 KECCAK256 ADD SLOAD PUSH1 0x8 SHR AND ISZERO PUSH2 0xD81 JUMP JUMPDEST PUSH1 0x20 DUP4 PUSH1 0x40 MLOAD SWAP1 DUP2 MSTORE RETURN JUMPDEST DUP5 SLOAD DUP4 MSTORE PUSH1 0x1 SWAP5 DUP6 ADD SWAP5 DUP7 SWAP5 POP PUSH1 0x20 SWAP1 SWAP4 ADD SWAP3 ADD PUSH2 0xD37 JUMP JUMPDEST CALLVALUE PUSH2 0x636 JUMPI PUSH1 0x0 CALLDATASIZE PUSH1 0x3 NOT ADD SLT PUSH2 0x636 JUMPI PUSH1 0x3 SLOAD PUSH2 0xE28 DUP2 PUSH2 0x2770 JUMP JUMPDEST SWAP1 PUSH2 0xE36 PUSH1 0x40 MLOAD SWAP3 DUP4 PUSH2 0x2632 JUMP JUMPDEST DUP1 DUP3 MSTORE PUSH1 0x1F NOT PUSH2 0xE45 DUP3 PUSH2 0x2770 JUMP JUMPDEST ADD PUSH1 0x0 JUMPDEST DUP2 DUP2 LT PUSH2 0xF23 JUMPI POP POP PUSH1 0x1 JUMPDEST DUP2 DUP2 GT ISZERO PUSH2 0xEC5 JUMPI DUP3 PUSH1 0x40 MLOAD DUP1 SWAP2 PUSH1 0x20 DUP3 ADD PUSH1 0x20 DUP4 MSTORE DUP2 MLOAD DUP1 SWAP2 MSTORE PUSH1 0x40 DUP4 ADD SWAP1 PUSH1 0x20 PUSH1 0x40 DUP3 PUSH1 0x5 SHL DUP7 ADD ADD SWAP4 ADD SWAP2 PUSH1 0x0 SWAP1 JUMPDEST DUP3 DUP3 LT PUSH2 0xE96 JUMPI POP POP POP POP SUB SWAP1 RETURN JUMPDEST SWAP2 SWAP4 PUSH1 0x1 SWAP2 SWAP4 SWAP6 POP PUSH1 0x20 PUSH2 0xEB5 DUP2 SWAP3 PUSH1 0x3F NOT DUP11 DUP3 SUB ADD DUP7 MSTORE DUP9 MLOAD PUSH2 0x2498 JUMP JUMPDEST SWAP7 ADD SWAP3 ADD SWAP3 ADD DUP6 SWAP5 SWAP4 SWAP2 SWAP3 PUSH2 0xE87 JUMP JUMPDEST DUP1 PUSH1 0x0 MSTORE PUSH1 0x1 PUSH1 0x20 MSTORE PUSH1 0x40 PUSH1 0x0 KECCAK256 SWAP1 PUSH1 0x0 NOT DUP2 ADD SWAP2 DUP2 DUP4 GT PUSH2 0xF0D JUMPI PUSH2 0xF08 SWAP3 PUSH2 0xEF1 PUSH2 0xF02 SWAP3 PUSH2 0x2885 JUMP JUMPDEST PUSH2 0xEFB DUP3 DUP9 PUSH2 0x274D JUMP JUMPDEST MSTORE DUP6 PUSH2 0x274D JUMP JUMPDEST POP PUSH2 0x2761 JUMP JUMPDEST PUSH2 0xE55 JUMP JUMPDEST PUSH4 0x4E487B71 PUSH1 0xE0 SHL PUSH1 0x0 MSTORE PUSH1 0x11 PUSH1 0x4 MSTORE PUSH1 0x24 PUSH1 0x0 REVERT JUMPDEST PUSH1 0x20 SWAP1 PUSH2 0xF2E PUSH2 0x27B9 JUMP JUMPDEST DUP3 DUP3 DUP8 ADD ADD MSTORE ADD PUSH2 0xE49 JUMP JUMPDEST CALLVALUE PUSH2 0x636 JUMPI PUSH2 0x140 CALLDATASIZE PUSH1 0x3 NOT ADD SLT PUSH2 0x636 JUMPI PUSH1 0x4 CALLDATALOAD PUSH1 0x1 PUSH1 0x1 PUSH1 0xA0 SHL SUB DUP2 AND DUP2 SUB PUSH2 0x636 JUMPI PUSH1 0x44 CALLDATALOAD PUSH1 0x1 PUSH1 0x1 PUSH1 0x40 SHL SUB DUP2 GT PUSH2 0x636 JUMPI PUSH2 0xF7E SWAP1 CALLDATASIZE SWAP1 PUSH1 0x4 ADD PUSH2 0x26F7 JUMP JUMPDEST SWAP1 PUSH1 0x64 CALLDATALOAD PUSH1 0x1 PUSH1 0x1 PUSH1 0x40 SHL SUB DUP2 GT PUSH2 0x636 JUMPI PUSH2 0xF9E SWAP1 CALLDATASIZE SWAP1 PUSH1 0x4 ADD PUSH2 0x26F7 JUMP JUMPDEST SWAP1 PUSH1 0x84 CALLDATALOAD PUSH1 0x1 PUSH1 0x1 PUSH1 0x40 SHL SUB DUP2 GT PUSH2 0x636 JUMPI PUSH2 0xFBE SWAP1 CALLDATASIZE SWAP1 PUSH1 0x4 ADD PUSH2 0x26F7 JUMP JUMPDEST SWAP1 PUSH1 0xA4 CALLDATALOAD PUSH1 0x1 PUSH1 0x1 PUSH1 0x40 SHL SUB DUP2 GT PUSH2 0x636 JUMPI PUSH2 0xFDE SWAP1 CALLDATASIZE SWAP1 PUSH1 0x4 ADD PUSH2 0x26F7 JUMP JUMPDEST SWAP3 PUSH1 0xE4 CALLDATALOAD PUSH1 0x1 PUSH1 0x1 PUSH1 0x40 SHL SUB DUP2 GT PUSH2 0x636 JUMPI PUSH2 0xFFE SWAP1 CALLDATASIZE SWAP1 PUSH1 0x4 ADD PUSH2 0x26F7 JUMP JUMPDEST SWAP3 PUSH2 0x104 CALLDATALOAD PUSH1 0x1 PUSH1 0x1 PUSH1 0x40 SHL SUB DUP2 GT PUSH2 0x636 JUMPI PUSH2 0x101F SWAP1 CALLDATASIZE SWAP1 PUSH1 0x4 ADD PUSH2 0x26F7 JUMP JUMPDEST SWAP2 PUSH2 0x124 CALLDATALOAD PUSH1 0x1 PUSH1 0x1 PUSH1 0x40 SHL SUB DUP2 GT PUSH2 0x636 JUMPI PUSH2 0x1040 SWAP1 CALLDATASIZE SWAP1 PUSH1 0x4 ADD PUSH2 0x26F7 JUMP JUMPDEST SWAP7 PUSH2 0x104C PUSH1 0x3 SLOAD PUSH2 0x2761 JUMP JUMPDEST SWAP7 DUP8 PUSH1 0x3 SSTORE PUSH1 0x40 MLOAD SWAP2 PUSH2 0x105E DUP4 PUSH2 0x2616 JUMP JUMPDEST DUP9 DUP4 MSTORE CALLER PUSH1 0x20 DUP5 ADD MSTORE PUSH1 0x1 DUP1 PUSH1 0xA0 SHL SUB DUP8 AND PUSH1 0x40 DUP5 ADD MSTORE PUSH1 0x24 CALLDATALOAD PUSH1 0x60 DUP5 ADD MSTORE PUSH1 0x80 DUP4 ADD MSTORE DUP3 PUSH1 0xA0 DUP4 ADD MSTORE DUP4 PUSH1 0xC0 DUP4 ADD MSTORE PUSH1 0xE0 DUP3 ADD MSTORE PUSH1 0x0 PUSH2 0x100 DUP3 ADD MSTORE PUSH1 0x0 PUSH2 0x120 DUP3 ADD MSTORE TIMESTAMP PUSH2 0x140 DUP3 ADD MSTORE PUSH1 0x0 PUSH2 0x160 DUP3 ADD MSTORE PUSH1 0xC4 CALLDATALOAD PUSH2 0x180 DUP3 ADD MSTORE DUP6 PUSH2 0x1A0 DUP3 ADD MSTORE PUSH1 0x20 SWAP8 PUSH1 0x40 MLOAD PUSH2 0x10D2 DUP11 DUP3 PUSH2 0x2632 JUMP JUMPDEST PUSH1 0x0 DUP2 MSTORE PUSH2 0x1C0 DUP4 ADD MSTORE PUSH1 0x40 MLOAD PUSH2 0x10E9 DUP11 DUP3 PUSH2 0x2632 JUMP JUMPDEST PUSH1 0x0 DUP1 DUP3 MSTORE PUSH2 0x1E0 DUP5 ADD SWAP2 SWAP1 SWAP2 MSTORE PUSH2 0x200 DUP4 ADD DUP7 SWAP1 MSTORE PUSH2 0x220 DUP4 ADD SWAP2 SWAP1 SWAP2 MSTORE DUP8 DUP2 MSTORE PUSH1 0x1 DUP1 DUP11 MSTORE PUSH1 0x40 SWAP2 DUP3 SWAP1 KECCAK256 DUP4 MLOAD DUP2 SSTORE PUSH1 0x20 DUP5 ADD MLOAD SWAP2 DUP2 ADD DUP1 SLOAD PUSH1 0x1 PUSH1 0x1 PUSH1 0xA0 SHL SUB NOT SWAP1 DUP2 AND PUSH1 0x1 PUSH1 0x1 PUSH1 0xA0 SHL SUB SWAP5 DUP6 AND OR SWAP1 SWAP2 SSTORE SWAP3 DUP5 ADD MLOAD PUSH1 0x2 DUP3 ADD DUP1 SLOAD SWAP1 SWAP5 AND SWAP3 AND SWAP2 SWAP1 SWAP2 OR SWAP1 SWAP2 SSTORE PUSH1 0x60 DUP3 ADD MLOAD PUSH1 0x3 DUP3 ADD SSTORE PUSH1 0x80 DUP3 ADD MLOAD DUP1 MLOAD SWAP1 PUSH1 0x1 PUSH1 0x1 PUSH1 0x40 SHL SUB DUP3 GT PUSH2 0x432 JUMPI DUP2 SWAP1 PUSH2 0x1184 PUSH1 0x4 DUP6 ADD SLOAD PUSH2 0x25DC JUMP JUMPDEST PUSH1 0x1F DUP2 GT PUSH2 0x1C8F JUMPI JUMPDEST POP DUP12 SWAP1 PUSH1 0x1F DUP4 GT PUSH1 0x1 EQ PUSH2 0x1C21 JUMPI PUSH1 0x0 SWAP3 PUSH2 0x1C16 JUMPI JUMPDEST POP POP DUP2 PUSH1 0x1 SHL SWAP2 PUSH1 0x0 NOT SWAP1 PUSH1 0x3 SHL SHR NOT AND OR PUSH1 0x4 DUP3 ADD SSTORE JUMPDEST PUSH1 0xA0 DUP3 ADD MLOAD DUP1 MLOAD SWAP1 PUSH1 0x1 PUSH1 0x1 PUSH1 0x40 SHL SUB DUP3 GT PUSH2 0x432 JUMPI DUP2 SWAP1 PUSH2 0x11E0 PUSH1 0x5 DUP6 ADD SLOAD PUSH2 0x25DC JUMP JUMPDEST PUSH1 0x1F DUP2 GT PUSH2 0x1BC5 JUMPI JUMPDEST POP DUP12 SWAP1 PUSH1 0x1F DUP4 GT PUSH1 0x1 EQ PUSH2 0x1B57 JUMPI PUSH1 0x0 SWAP3 PUSH2 0x1B4C JUMPI JUMPDEST POP POP DUP2 PUSH1 0x1 SHL SWAP2 PUSH1 0x0 NOT SWAP1 PUSH1 0x3 SHL SHR NOT AND OR PUSH1 0x5 DUP3 ADD SSTORE JUMPDEST PUSH1 0xC0 DUP3 ADD MLOAD DUP1 MLOAD SWAP1 PUSH1 0x1 PUSH1 0x1 PUSH1 0x40 SHL SUB DUP3 GT PUSH2 0x432 JUMPI DUP2 SWAP1 PUSH2 0x123C PUSH1 0x6 DUP6 ADD SLOAD PUSH2 0x25DC JUMP JUMPDEST PUSH1 0x1F DUP2 GT PUSH2 0x1AFB JUMPI JUMPDEST POP DUP12 SWAP1 PUSH1 0x1F DUP4 GT PUSH1 0x1 EQ PUSH2 0x1A8D JUMPI PUSH1 0x0 SWAP3 PUSH2 0x1A82 JUMPI JUMPDEST POP POP DUP2 PUSH1 0x1 SHL SWAP2 PUSH1 0x0 NOT SWAP1 PUSH1 0x3 SHL SHR NOT AND OR PUSH1 0x6 DUP3 ADD SSTORE JUMPDEST PUSH1 0xE0 DUP3 ADD MLOAD DUP1 MLOAD SWAP1 PUSH1 0x1 PUSH1 0x1 PUSH1 0x40 SHL SUB DUP3 GT PUSH2 0x432 JUMPI DUP2 SWAP1 PUSH2 0x1298 PUSH1 0x7 DUP6 ADD SLOAD PUSH2 0x25DC JUMP JUMPDEST PUSH1 0x1F DUP2 GT PUSH2 0x1A31 JUMPI JUMPDEST POP DUP12 SWAP1 PUSH1 0x1F DUP4 GT PUSH1 0x1 EQ PUSH2 0x19C3 JUMPI PUSH1 0x0 SWAP3 PUSH2 0x19B8 JUMPI JUMPDEST POP POP DUP2 PUSH1 0x1 SHL SWAP2 PUSH1 0x0 NOT SWAP1 PUSH1 0x3 SHL SHR NOT AND OR PUSH1 0x7 DUP3 ADD SSTORE JUMPDEST PUSH1 0x8 DUP2 ADD PUSH2 0x100 DUP4 ADD MLOAD ISZERO ISZERO PUSH1 0xFF DUP1 NOT DUP4 SLOAD AND SWAP2 AND OR DUP2 SSTORE PUSH2 0x120 DUP4 ADD MLOAD ISZERO ISZERO PUSH2 0xFF00 DUP3 SLOAD SWAP2 PUSH1 0x8 SHL AND SWAP1 PUSH2 0xFF00 NOT AND OR SWAP1 SSTORE PUSH2 0x140 DUP3 ADD MLOAD PUSH1 0x9 DUP3 ADD SSTORE PUSH2 0x160 DUP3 ADD MLOAD PUSH1 0xA DUP3 ADD SSTORE PUSH2 0x180 DUP3 ADD MLOAD PUSH1 0xB DUP3 ADD SSTORE PUSH2 0x1A0 DUP3 ADD MLOAD DUP1 MLOAD SWAP1 PUSH1 0x1 PUSH1 0x1 PUSH1 0x40 SHL SUB DUP3 GT PUSH2 0x432 JUMPI DUP2 SWAP1 PUSH2 0x1349 PUSH1 0xC DUP6 ADD SLOAD PUSH2 0x25DC JUMP JUMPDEST PUSH1 0x1F DUP2 GT PUSH2 0x1967 JUMPI JUMPDEST POP DUP12 SWAP1 PUSH1 0x1F DUP4 GT PUSH1 0x1 EQ PUSH2 0x18F9 JUMPI PUSH1 0x0 SWAP3 PUSH2 0x18EE JUMPI JUMPDEST POP POP DUP2 PUSH1 0x1 SHL SWAP2 PUSH1 0x0 NOT SWAP1 PUSH1 0x3 SHL SHR NOT AND OR PUSH1 0xC DUP3 ADD SSTORE JUMPDEST PUSH2 0x1C0 DUP3 ADD MLOAD DUP1 MLOAD SWAP1 PUSH1 0x1 PUSH1 0x1 PUSH1 0x40 SHL SUB DUP3 GT PUSH2 0x432 JUMPI DUP2 SWAP1 PUSH2 0x13A6 PUSH1 0xD DUP6 ADD SLOAD PUSH2 0x25DC JUMP JUMPDEST PUSH1 0x1F DUP2 GT PUSH2 0x189D JUMPI JUMPDEST POP DUP12 SWAP1 PUSH1 0x1F DUP4 GT PUSH1 0x1 EQ PUSH2 0x182F JUMPI PUSH1 0x0 SWAP3 PUSH2 0x1824 JUMPI JUMPDEST POP POP DUP2 PUSH1 0x1 SHL SWAP2 PUSH1 0x0 NOT SWAP1 PUSH1 0x3 SHL SHR NOT AND OR PUSH1 0xD DUP3 ADD SSTORE JUMPDEST PUSH2 0x1E0 DUP3 ADD MLOAD DUP1 MLOAD SWAP1 PUSH1 0x1 PUSH1 0x1 PUSH1 0x40 SHL SUB DUP3 GT PUSH2 0x432 JUMPI DUP2 SWAP1 PUSH2 0x1403 PUSH1 0xE DUP6 ADD SLOAD PUSH2 0x25DC JUMP JUMPDEST PUSH1 0x1F DUP2 GT PUSH2 0x17D3 JUMPI JUMPDEST POP DUP12 SWAP1 PUSH1 0x1F DUP4 GT PUSH1 0x1 EQ PUSH2 0x1765 JUMPI PUSH1 0x0 SWAP3 PUSH2 0x175A JUMPI JUMPDEST POP POP DUP2 PUSH1 0x1 SHL SWAP2 PUSH1 0x0 NOT SWAP1 PUSH1 0x3 SHL SHR NOT AND OR PUSH1 0xE DUP3 ADD SSTORE JUMPDEST PUSH1 0xF DUP2 ADD PUSH2 0x200 DUP4 ADD MLOAD DUP1 MLOAD SWAP1 PUSH1 0x1 PUSH1 0x1 PUSH1 0x40 SHL SUB DUP3 GT PUSH2 0x432 JUMPI DUP12 PUSH2 0x1460 DUP5 SLOAD PUSH2 0x25DC JUMP JUMPDEST PUSH1 0x1F DUP2 GT PUSH2 0x1712 JUMPI JUMPDEST POP POP DUP12 SWAP1 DUP13 PUSH1 0x1F DUP5 GT PUSH1 0x1 EQ PUSH2 0x16A2 JUMPI POP SWAP2 DUP1 PUSH1 0x10 SWAP5 SWAP3 PUSH2 0x220 SWAP7 SWAP5 PUSH1 0x0 SWAP3 PUSH2 0x1697 JUMPI JUMPDEST POP POP DUP2 PUSH1 0x1 SHL SWAP2 PUSH1 0x0 NOT SWAP1 PUSH1 0x3 SHL SHR NOT AND OR SWAP1 SSTORE JUMPDEST ADD SWAP2 ADD MLOAD DUP1 MLOAD SWAP1 PUSH1 0x1 PUSH1 0x1 PUSH1 0x40 SHL SUB DUP3 GT PUSH2 0x432 JUMPI DUP2 SWAP1 PUSH2 0x14C3 DUP5 SLOAD PUSH2 0x25DC JUMP JUMPDEST PUSH1 0x1F DUP2 GT PUSH2 0x1646 JUMPI JUMPDEST POP DUP11 SWAP1 PUSH1 0x1F DUP4 GT PUSH1 0x1 EQ PUSH2 0x15E1 JUMPI PUSH1 0x0 SWAP3 PUSH2 0x15D6 JUMPI JUMPDEST POP POP DUP2 PUSH1 0x1 SHL SWAP2 PUSH1 0x0 NOT SWAP1 PUSH1 0x3 SHL SHR NOT AND OR SWAP1 SSTORE JUMPDEST CALLER PUSH1 0x0 MSTORE PUSH1 0x2 DUP8 MSTORE PUSH1 0x40 PUSH1 0x0 KECCAK256 SWAP3 DUP4 SLOAD SWAP2 PUSH9 0x10000000000000000 DUP4 LT ISZERO PUSH2 0x432 JUMPI DUP9 SWAP7 PUSH2 0x1597 PUSH32 0x6B007C52CCE1EA806E675913586ECD79214160B00F30204FDC38092B60CA07A0 SWAP6 PUSH2 0x1589 PUSH2 0x15A5 SWAP5 PUSH2 0x155B DUP9 DUP15 SWAP12 PUSH1 0x1 PUSH2 0x15B3 SWAP12 ADD DUP2 SSTORE PUSH2 0x23EF JUMP JUMPDEST DUP2 SLOAD SWAP1 PUSH1 0x3 SHL SWAP1 DUP13 DUP3 SHL SWAP2 PUSH1 0x0 NOT SWAP1 SHL NOT AND OR SWAP1 SSTORE PUSH1 0xC0 PUSH1 0x40 MLOAD SWAP13 DUP14 PUSH1 0x24 CALLDATALOAD SWAP1 MSTORE DUP14 ADD MSTORE PUSH1 0xC0 DUP13 ADD SWAP1 PUSH2 0x2457 JUMP JUMPDEST SWAP1 DUP11 DUP3 SUB PUSH1 0x40 DUP13 ADD MSTORE PUSH2 0x2457 JUMP JUMPDEST SWAP1 DUP9 DUP3 SUB PUSH1 0x60 DUP11 ADD MSTORE PUSH2 0x2457 JUMP JUMPDEST SWAP1 DUP7 DUP3 SUB PUSH1 0x80 DUP9 ADD MSTORE PUSH2 0x2457 JUMP JUMPDEST PUSH1 0xC4 CALLDATALOAD PUSH1 0xA0 DUP7 ADD MSTORE PUSH1 0x1 PUSH1 0x1 PUSH1 0xA0 SHL SUB SWAP1 SWAP4 AND SWAP4 CALLER SWAP4 DUP2 SWAP1 SUB SWAP1 LOG4 PUSH1 0x40 MLOAD SWAP1 DUP2 MSTORE RETURN JUMPDEST ADD MLOAD SWAP1 POP DUP11 DUP1 PUSH2 0x14E2 JUMP JUMPDEST PUSH1 0x0 DUP6 DUP2 MSTORE DUP13 DUP2 KECCAK256 SWAP4 POP PUSH1 0x1F NOT DUP6 AND SWAP1 JUMPDEST DUP14 DUP3 DUP3 LT PUSH2 0x1630 JUMPI POP POP SWAP1 DUP5 PUSH1 0x1 SWAP6 SWAP5 SWAP4 SWAP3 LT PUSH2 0x1617 JUMPI JUMPDEST POP POP POP DUP2 SHL ADD SWAP1 SSTORE PUSH2 0x14F7 JUMP JUMPDEST ADD MLOAD PUSH1 0x0 NOT PUSH1 0xF8 DUP5 PUSH1 0x3 SHL AND SHR NOT AND SWAP1 SSTORE DUP11 DUP1 DUP1 PUSH2 0x160A JUMP JUMPDEST PUSH1 0x1 DUP6 SWAP7 DUP3 SWAP4 SWAP7 DUP7 ADD MLOAD DUP2 SSTORE ADD SWAP6 ADD SWAP4 ADD PUSH2 0x15F2 JUMP JUMPDEST SWAP1 SWAP2 POP DUP4 PUSH1 0x0 MSTORE DUP11 PUSH1 0x0 KECCAK256 PUSH1 0x1F DUP5 ADD PUSH1 0x5 SHR DUP2 ADD SWAP2 DUP13 DUP6 LT PUSH2 0x168D JUMPI JUMPDEST SWAP1 PUSH1 0x1F DUP6 SWAP5 SWAP4 SWAP3 ADD PUSH1 0x5 SHR ADD SWAP1 JUMPDEST DUP2 DUP2 LT PUSH2 0x167E JUMPI POP PUSH2 0x14CC JUMP JUMPDEST PUSH1 0x0 DUP2 SSTORE DUP5 SWAP4 POP PUSH1 0x1 ADD PUSH2 0x1671 JUMP JUMPDEST SWAP1 SWAP2 POP DUP2 SWAP1 PUSH2 0x1663 JUMP JUMPDEST ADD MLOAD SWAP1 POP DUP15 DUP1 PUSH2 0x148D JUMP JUMPDEST SWAP2 SWAP1 PUSH1 0x1F NOT DUP5 AND DUP6 PUSH1 0x0 MSTORE DUP4 PUSH1 0x0 KECCAK256 SWAP4 PUSH1 0x0 SWAP1 JUMPDEST DUP3 DUP3 LT PUSH2 0x16FA JUMPI POP POP SWAP3 PUSH1 0x1 SWAP3 DUP6 SWAP3 PUSH2 0x220 SWAP9 SWAP7 PUSH1 0x10 SWAP9 SWAP7 LT PUSH2 0x16E1 JUMPI JUMPDEST POP POP POP DUP2 SHL ADD SWAP1 SSTORE PUSH2 0x14A2 JUMP JUMPDEST ADD MLOAD PUSH1 0x0 NOT PUSH1 0xF8 DUP5 PUSH1 0x3 SHL AND SHR NOT AND SWAP1 SSTORE DUP15 DUP1 DUP1 PUSH2 0x16D4 JUMP JUMPDEST DUP1 PUSH1 0x1 DUP7 SWAP8 DUP3 SWAP5 SWAP8 DUP8 ADD MLOAD DUP2 SSTORE ADD SWAP7 ADD SWAP5 ADD SWAP1 PUSH2 0x16B6 JUMP JUMPDEST DUP5 PUSH1 0x0 MSTORE DUP2 PUSH1 0x0 KECCAK256 SWAP1 PUSH1 0x1F DUP6 ADD PUSH1 0x5 SHR DUP3 ADD SWAP3 DUP6 LT PUSH2 0x1750 JUMPI JUMPDEST PUSH1 0x1F ADD PUSH1 0x5 SHR ADD SWAP1 JUMPDEST DUP2 DUP2 LT PUSH2 0x1744 JUMPI DUP14 SWAP2 POP PUSH2 0x1469 JUMP JUMPDEST PUSH1 0x0 DUP2 SSTORE PUSH1 0x1 ADD PUSH2 0x1735 JUMP JUMPDEST SWAP1 SWAP2 POP DUP2 SWAP1 PUSH2 0x172C JUMP JUMPDEST ADD MLOAD SWAP1 POP DUP12 DUP1 PUSH2 0x1422 JUMP JUMPDEST PUSH1 0xE DUP6 ADD PUSH1 0x0 SWAP1 DUP2 MSTORE DUP14 DUP2 KECCAK256 SWAP4 POP PUSH1 0x1F NOT DUP6 AND SWAP1 DUP15 JUMPDEST DUP3 DUP3 LT PUSH2 0x17BB JUMPI POP POP SWAP1 DUP5 PUSH1 0x1 SWAP6 SWAP5 SWAP4 SWAP3 LT PUSH2 0x17A2 JUMPI JUMPDEST POP POP POP DUP2 SHL ADD PUSH1 0xE DUP3 ADD SSTORE PUSH2 0x143A JUMP JUMPDEST ADD MLOAD PUSH1 0x0 NOT PUSH1 0xF8 DUP5 PUSH1 0x3 SHL AND SHR NOT AND SWAP1 SSTORE DUP12 DUP1 DUP1 PUSH2 0x1792 JUMP JUMPDEST DUP1 PUSH1 0x1 DUP7 SWAP8 DUP3 SWAP5 SWAP8 DUP8 ADD MLOAD DUP2 SSTORE ADD SWAP7 ADD SWAP5 ADD SWAP1 PUSH2 0x177B JUMP JUMPDEST SWAP1 SWAP2 POP PUSH1 0xE DUP5 ADD PUSH1 0x0 MSTORE DUP12 PUSH1 0x0 KECCAK256 PUSH1 0x1F DUP5 ADD PUSH1 0x5 SHR DUP2 ADD DUP14 DUP6 LT PUSH2 0x181D JUMPI JUMPDEST SWAP1 DUP5 SWAP4 SWAP3 SWAP2 JUMPDEST PUSH1 0x1F DUP4 ADD PUSH1 0x5 SHR DUP3 ADD DUP2 LT PUSH2 0x180E JUMPI POP POP PUSH2 0x140C JUMP JUMPDEST PUSH1 0x0 DUP2 SSTORE DUP6 SWAP5 POP PUSH1 0x1 ADD PUSH2 0x17F8 JUMP JUMPDEST POP DUP1 PUSH2 0x17F2 JUMP JUMPDEST ADD MLOAD SWAP1 POP DUP12 DUP1 PUSH2 0x13C5 JUMP JUMPDEST PUSH1 0xD DUP6 ADD PUSH1 0x0 SWAP1 DUP2 MSTORE DUP14 DUP2 KECCAK256 SWAP4 POP PUSH1 0x1F NOT DUP6 AND SWAP1 DUP15 JUMPDEST DUP3 DUP3 LT PUSH2 0x1885 JUMPI POP POP SWAP1 DUP5 PUSH1 0x1 SWAP6 SWAP5 SWAP4 SWAP3 LT PUSH2 0x186C JUMPI JUMPDEST POP POP POP DUP2 SHL ADD PUSH1 0xD DUP3 ADD SSTORE PUSH2 0x13DD JUMP JUMPDEST ADD MLOAD PUSH1 0x0 NOT PUSH1 0xF8 DUP5 PUSH1 0x3 SHL AND SHR NOT AND SWAP1 SSTORE DUP12 DUP1 DUP1 PUSH2 0x185C JUMP JUMPDEST DUP1 PUSH1 0x1 DUP7 SWAP8 DUP3 SWAP5 SWAP8 DUP8 ADD MLOAD DUP2 SSTORE ADD SWAP7 ADD SWAP5 ADD SWAP1 PUSH2 0x1845 JUMP JUMPDEST SWAP1 SWAP2 POP PUSH1 0xD DUP5 ADD PUSH1 0x0 MSTORE DUP12 PUSH1 0x0 KECCAK256 PUSH1 0x1F DUP5 ADD PUSH1 0x5 SHR DUP2 ADD DUP14 DUP6 LT PUSH2 0x18E7 JUMPI JUMPDEST SWAP1 DUP5 SWAP4 SWAP3 SWAP2 JUMPDEST PUSH1 0x1F DUP4 ADD PUSH1 0x5 SHR DUP3 ADD DUP2 LT PUSH2 0x18D8 JUMPI POP POP PUSH2 0x13AF JUMP JUMPDEST PUSH1 0x0 DUP2 SSTORE DUP6 SWAP5 POP PUSH1 0x1 ADD PUSH2 0x18C2 JUMP JUMPDEST POP DUP1 PUSH2 0x18BC JUMP JUMPDEST ADD MLOAD SWAP1 POP DUP12 DUP1 PUSH2 0x1368 JUMP JUMPDEST PUSH1 0xC DUP6 ADD PUSH1 0x0 SWAP1 DUP2 MSTORE DUP14 DUP2 KECCAK256 SWAP4 POP PUSH1 0x1F NOT DUP6 AND SWAP1 DUP15 JUMPDEST DUP3 DUP3 LT PUSH2 0x194F JUMPI POP POP SWAP1 DUP5 PUSH1 0x1 SWAP6 SWAP5 SWAP4 SWAP3 LT PUSH2 0x1936 JUMPI JUMPDEST POP POP POP DUP2 SHL ADD PUSH1 0xC DUP3 ADD SSTORE PUSH2 0x1380 JUMP JUMPDEST ADD MLOAD PUSH1 0x0 NOT PUSH1 0xF8 DUP5 PUSH1 0x3 SHL AND SHR NOT AND SWAP1 SSTORE DUP12 DUP1 DUP1 PUSH2 0x1926 JUMP JUMPDEST DUP1 PUSH1 0x1 DUP7 SWAP8 DUP3 SWAP5 SWAP8 DUP8 ADD MLOAD DUP2 SSTORE ADD SWAP7 ADD SWAP5 ADD SWAP1 PUSH2 0x190F JUMP JUMPDEST SWAP1 SWAP2 POP PUSH1 0xC DUP5 ADD PUSH1 0x0 MSTORE DUP12 PUSH1 0x0 KECCAK256 PUSH1 0x1F DUP5 ADD PUSH1 0x5 SHR DUP2 ADD DUP14 DUP6 LT PUSH2 0x19B1 JUMPI JUMPDEST SWAP1 DUP5 SWAP4 SWAP3 SWAP2 JUMPDEST PUSH1 0x1F DUP4 ADD PUSH1 0x5 SHR DUP3 ADD DUP2 LT PUSH2 0x19A2 JUMPI POP POP PUSH2 0x1352 JUMP JUMPDEST PUSH1 0x0 DUP2 SSTORE DUP6 SWAP5 POP PUSH1 0x1 ADD PUSH2 0x198C JUMP JUMPDEST POP DUP1 PUSH2 0x1986 JUMP JUMPDEST ADD MLOAD SWAP1 POP DUP12 DUP1 PUSH2 0x12B7 JUMP JUMPDEST PUSH1 0x7 DUP6 ADD PUSH1 0x0 SWAP1 DUP2 MSTORE DUP14 DUP2 KECCAK256 SWAP4 POP PUSH1 0x1F NOT DUP6 AND SWAP1 DUP15 JUMPDEST DUP3 DUP3 LT PUSH2 0x1A19 JUMPI POP POP SWAP1 DUP5 PUSH1 0x1 SWAP6 SWAP5 SWAP4 SWAP3 LT PUSH2 0x1A00 JUMPI JUMPDEST POP POP POP DUP2 SHL ADD PUSH1 0x7 DUP3 ADD SSTORE PUSH2 0x12CF JUMP JUMPDEST ADD MLOAD PUSH1 0x0 NOT PUSH1 0xF8 DUP5 PUSH1 0x3 SHL AND SHR NOT AND SWAP1 SSTORE DUP12 DUP1 DUP1 PUSH2 0x19F0 JUMP JUMPDEST DUP1 PUSH1 0x1 DUP7 SWAP8 DUP3 SWAP5 SWAP8 DUP8 ADD MLOAD DUP2 SSTORE ADD SWAP7 ADD SWAP5 ADD SWAP1 PUSH2 0x19D9 JUMP JUMPDEST SWAP1 SWAP2 POP PUSH1 0x7 DUP5 ADD PUSH1 0x0 MSTORE DUP12 PUSH1 0x0 KECCAK256 PUSH1 0x1F DUP5 ADD PUSH1 0x5 SHR DUP2 ADD DUP14 DUP6 LT PUSH2 0x1A7B JUMPI JUMPDEST SWAP1 DUP5 SWAP4 SWAP3 SWAP2 JUMPDEST PUSH1 0x1F DUP4 ADD PUSH1 0x5 SHR DUP3 ADD DUP2 LT PUSH2 0x1A6C JUMPI POP POP PUSH2 0x12A1 JUMP JUMPDEST PUSH1 0x0 DUP2 SSTORE DUP6 SWAP5 POP PUSH1 0x1 ADD PUSH2 0x1A56 JUMP JUMPDEST POP DUP1 PUSH2 0x1A50 JUMP JUMPDEST ADD MLOAD SWAP1 POP DUP12 DUP1 PUSH2 0x125B JUMP JUMPDEST PUSH1 0x6 DUP6 ADD PUSH1 0x0 SWAP1 DUP2 MSTORE DUP14 DUP2 KECCAK256 SWAP4 POP PUSH1 0x1F NOT DUP6 AND SWAP1 DUP15 JUMPDEST DUP3 DUP3 LT PUSH2 0x1AE3 JUMPI POP POP SWAP1 DUP5 PUSH1 0x1 SWAP6 SWAP5 SWAP4 SWAP3 LT PUSH2 0x1ACA JUMPI JUMPDEST POP POP POP DUP2 SHL ADD PUSH1 0x6 DUP3 ADD SSTORE PUSH2 0x1273 JUMP JUMPDEST ADD MLOAD PUSH1 0x0 NOT PUSH1 0xF8 DUP5 PUSH1 0x3 SHL AND SHR NOT AND SWAP1 SSTORE DUP12 DUP1 DUP1 PUSH2 0x1ABA JUMP JUMPDEST DUP1 PUSH1 0x1 DUP7 SWAP8 DUP3 SWAP5 SWAP8 DUP8 ADD MLOAD DUP2 SSTORE ADD SWAP7 ADD SWAP5 ADD SWAP1 PUSH2 0x1AA3 JUMP JUMPDEST SWAP1 SWAP2 POP PUSH1 0x6 DUP5 ADD PUSH1 0x0 MSTORE DUP12 PUSH1 0x0 KECCAK256 PUSH1 0x1F DUP5 ADD PUSH1 0x5 SHR DUP2 ADD DUP14 DUP6 LT PUSH2 0x1B45 JUMPI JUMPDEST SWAP1 DUP5 SWAP4 SWAP3 SWAP2 JUMPDEST PUSH1 0x1F DUP4 ADD PUSH1 0x5 SHR DUP3 ADD DUP2 LT PUSH2 0x1B36 JUMPI POP POP PUSH2 0x1245 JUMP JUMPDEST PUSH1 0x0 DUP2 SSTORE DUP6 SWAP5 POP PUSH1 0x1 ADD PUSH2 0x1B20 JUMP JUMPDEST POP DUP1 PUSH2 0x1B1A JUMP JUMPDEST ADD MLOAD SWAP1 POP DUP12 DUP1 PUSH2 0x11FF JUMP JUMPDEST PUSH1 0x5 DUP6 ADD PUSH1 0x0 SWAP1 DUP2 MSTORE DUP14 DUP2 KECCAK256 SWAP4 POP PUSH1 0x1F NOT DUP6 AND SWAP1 DUP15 JUMPDEST DUP3 DUP3 LT PUSH2 0x1BAD JUMPI POP POP SWAP1 DUP5 PUSH1 0x1 SWAP6 SWAP5 SWAP4 SWAP3 LT PUSH2 0x1B94 JUMPI JUMPDEST POP POP POP DUP2 SHL ADD PUSH1 0x5 DUP3 ADD SSTORE PUSH2 0x1217 JUMP JUMPDEST ADD MLOAD PUSH1 0x0 NOT PUSH1 0xF8 DUP5 PUSH1 0x3 SHL AND SHR NOT AND SWAP1 SSTORE DUP12 DUP1 DUP1 PUSH2 0x1B84 JUMP JUMPDEST DUP1 PUSH1 0x1 DUP7 SWAP8 DUP3 SWAP5 SWAP8 DUP8 ADD MLOAD DUP2 SSTORE ADD SWAP7 ADD SWAP5 ADD SWAP1 PUSH2 0x1B6D JUMP JUMPDEST SWAP1 SWAP2 POP PUSH1 0x5 DUP5 ADD PUSH1 0x0 MSTORE DUP12 PUSH1 0x0 KECCAK256 PUSH1 0x1F DUP5 ADD PUSH1 0x5 SHR DUP2 ADD DUP14 DUP6 LT PUSH2 0x1C0F JUMPI JUMPDEST SWAP1 DUP5 SWAP4 SWAP3 SWAP2 JUMPDEST PUSH1 0x1F DUP4 ADD PUSH1 0x5 SHR DUP3 ADD DUP2 LT PUSH2 0x1C00 JUMPI POP POP PUSH2 0x11E9 JUMP JUMPDEST PUSH1 0x0 DUP2 SSTORE DUP6 SWAP5 POP PUSH1 0x1 ADD PUSH2 0x1BEA JUMP JUMPDEST POP DUP1 PUSH2 0x1BE4 JUMP JUMPDEST ADD MLOAD SWAP1 POP DUP12 DUP1 PUSH2 0x11A3 JUMP JUMPDEST PUSH1 0x4 DUP6 ADD PUSH1 0x0 SWAP1 DUP2 MSTORE DUP14 DUP2 KECCAK256 SWAP4 POP PUSH1 0x1F NOT DUP6 AND SWAP1 DUP15 JUMPDEST DUP3 DUP3 LT PUSH2 0x1C77 JUMPI POP POP SWAP1 DUP5 PUSH1 0x1 SWAP6 SWAP5 SWAP4 SWAP3 LT PUSH2 0x1C5E JUMPI JUMPDEST POP POP POP DUP2 SHL ADD PUSH1 0x4 DUP3 ADD SSTORE PUSH2 0x11BB JUMP JUMPDEST ADD MLOAD PUSH1 0x0 NOT PUSH1 0xF8 DUP5 PUSH1 0x3 SHL AND SHR NOT AND SWAP1 SSTORE DUP12 DUP1 DUP1 PUSH2 0x1C4E JUMP JUMPDEST DUP1 PUSH1 0x1 DUP7 SWAP8 DUP3 SWAP5 SWAP8 DUP8 ADD MLOAD DUP2 SSTORE ADD SWAP7 ADD SWAP5 ADD SWAP1 PUSH2 0x1C37 JUMP JUMPDEST SWAP1 SWAP2 POP PUSH1 0x4 DUP5 ADD PUSH1 0x0 MSTORE DUP12 PUSH1 0x0 KECCAK256 PUSH1 0x1F DUP5 ADD PUSH1 0x5 SHR DUP2 ADD DUP14 DUP6 LT PUSH2 0x1CD9 JUMPI JUMPDEST SWAP1 DUP5 SWAP4 SWAP3 SWAP2 JUMPDEST PUSH1 0x1F DUP4 ADD PUSH1 0x5 SHR DUP3 ADD DUP2 LT PUSH2 0x1CCA JUMPI POP POP PUSH2 0x118D JUMP JUMPDEST PUSH1 0x0 DUP2 SSTORE DUP6 SWAP5 POP PUSH1 0x1 ADD PUSH2 0x1CB4 JUMP JUMPDEST POP DUP1 PUSH2 0x1CAE JUMP JUMPDEST CALLVALUE PUSH2 0x636 JUMPI PUSH1 0x20 CALLDATASIZE PUSH1 0x3 NOT ADD SLT PUSH2 0x636 JUMPI PUSH1 0x4 CALLDATALOAD PUSH1 0x0 MSTORE PUSH1 0x1 PUSH1 0x20 MSTORE PUSH1 0x40 PUSH1 0x0 KECCAK256 DUP1 DUP1 SLOAD PUSH1 0x1 PUSH1 0xA0 SHL PUSH1 0x1 SWAP1 SUB PUSH1 0x1 DUP4 ADD SLOAD AND PUSH1 0xA0 MSTORE PUSH1 0x1 PUSH1 0xA0 SHL PUSH1 0x1 SWAP1 SUB PUSH1 0x2 DUP4 ADD SLOAD AND PUSH1 0xE0 MSTORE PUSH1 0x3 DUP3 ADD SLOAD PUSH1 0x4 DUP4 ADD PUSH2 0x1D3A SWAP1 PUSH2 0x2653 JUMP JUMPDEST PUSH2 0x1D46 PUSH1 0x5 DUP6 ADD PUSH2 0x2653 JUMP JUMPDEST SWAP1 PUSH2 0x1D53 PUSH1 0x6 DUP7 ADD PUSH2 0x2653 JUMP JUMPDEST SWAP2 PUSH2 0x1D60 PUSH1 0x7 DUP8 ADD PUSH2 0x2653 JUMP JUMPDEST SWAP3 PUSH1 0x8 DUP8 ADD SLOAD SWAP4 PUSH1 0x9 DUP9 ADD SLOAD SWAP2 PUSH1 0xA DUP10 ADD SLOAD SWAP4 PUSH1 0xB DUP11 ADD SLOAD SWAP6 PUSH1 0xC DUP12 ADD PUSH2 0x1D86 SWAP1 PUSH2 0x2653 JUMP JUMPDEST SWAP9 PUSH2 0x1D93 PUSH1 0xD DUP14 ADD PUSH2 0x2653 JUMP JUMPDEST SWAP11 PUSH2 0x1DA0 PUSH1 0xE DUP15 ADD PUSH2 0x2653 JUMP JUMPDEST SWAP13 PUSH1 0xF ADD PUSH2 0x1DAD SWAP1 PUSH2 0x2653 JUMP JUMPDEST SWAP14 PUSH1 0x10 ADD PUSH2 0x1DBA SWAP1 PUSH2 0x2653 JUMP JUMPDEST PUSH1 0x80 MSTORE PUSH1 0x40 MLOAD PUSH1 0xC0 MSTORE PUSH1 0xC0 MLOAD MSTORE PUSH1 0xA0 MLOAD PUSH1 0xC0 MLOAD PUSH1 0x20 ADD MSTORE PUSH1 0xE0 MLOAD PUSH1 0xC0 MLOAD PUSH1 0x40 ADD MSTORE PUSH1 0xC0 MLOAD PUSH1 0x60 ADD MSTORE PUSH1 0xC0 MLOAD PUSH1 0x80 ADD PUSH2 0x240 SWAP1 MSTORE PUSH1 0xC0 MLOAD PUSH2 0x240 ADD PUSH2 0x1DFD SWAP2 PUSH2 0x2457 JUMP JUMPDEST PUSH1 0xC0 MLOAD DUP2 SUB PUSH1 0xC0 MLOAD PUSH1 0xA0 ADD MSTORE PUSH2 0x1E12 SWAP2 PUSH2 0x2457 JUMP JUMPDEST PUSH1 0xC0 MLOAD DUP2 SUB PUSH1 0xC0 MLOAD PUSH1 0xC0 ADD MSTORE PUSH2 0x1E27 SWAP2 PUSH2 0x2457 JUMP JUMPDEST PUSH1 0xC0 MLOAD DUP2 SUB PUSH1 0xC0 MLOAD PUSH1 0xE0 ADD MSTORE PUSH2 0x1E3C SWAP2 PUSH2 0x2457 JUMP JUMPDEST SWAP4 PUSH1 0xFF DUP2 AND ISZERO ISZERO PUSH1 0xC0 MLOAD PUSH2 0x100 ADD MSTORE PUSH1 0x8 SHR PUSH1 0xFF AND ISZERO ISZERO PUSH1 0xC0 MLOAD PUSH2 0x120 ADD MSTORE PUSH1 0xC0 MLOAD PUSH2 0x140 ADD MSTORE PUSH1 0xC0 MLOAD PUSH2 0x160 ADD MSTORE PUSH1 0xC0 MLOAD PUSH2 0x180 ADD MSTORE PUSH1 0xC0 MLOAD DUP2 SUB PUSH1 0xC0 MLOAD PUSH2 0x1A0 ADD MSTORE PUSH2 0x1E89 SWAP2 PUSH2 0x2457 JUMP JUMPDEST PUSH1 0xC0 MLOAD DUP2 SUB PUSH1 0xC0 MLOAD PUSH2 0x1C0 ADD MSTORE PUSH2 0x1E9F SWAP2 PUSH2 0x2457 JUMP JUMPDEST PUSH1 0xC0 MLOAD DUP2 SUB PUSH1 0xC0 MLOAD PUSH2 0x1E0 ADD MSTORE PUSH2 0x1EB5 SWAP2 PUSH2 0x2457 JUMP JUMPDEST PUSH1 0xC0 MLOAD DUP2 SUB PUSH1 0xC0 MLOAD PUSH2 0x200 ADD MSTORE PUSH2 0x1ECB SWAP2 PUSH2 0x2457 JUMP JUMPDEST PUSH1 0xC0 MLOAD DUP2 SUB PUSH1 0xC0 MLOAD PUSH2 0x220 ADD MSTORE PUSH1 0xC0 MLOAD SWAP1 PUSH1 0x80 MLOAD SWAP1 PUSH2 0x1EE9 SWAP2 PUSH2 0x2457 JUMP JUMPDEST SUB PUSH1 0xC0 MLOAD RETURN JUMPDEST CALLVALUE PUSH2 0x636 JUMPI PUSH1 0x20 CALLDATASIZE PUSH1 0x3 NOT ADD SLT PUSH2 0x636 JUMPI PUSH1 0x1 PUSH1 0x1 PUSH1 0xA0 SHL SUB PUSH2 0x1F10 PUSH2 0x23C3 JUMP JUMPDEST AND PUSH1 0x0 MSTORE PUSH1 0x2 PUSH1 0x20 MSTORE PUSH1 0x40 PUSH1 0x0 KECCAK256 PUSH1 0x40 MLOAD DUP1 DUP3 PUSH1 0x20 DUP3 SWAP5 SLOAD SWAP4 DUP5 DUP2 MSTORE ADD SWAP1 PUSH1 0x0 MSTORE PUSH1 0x20 PUSH1 0x0 KECCAK256 SWAP3 PUSH1 0x0 JUMPDEST DUP2 DUP2 LT PUSH2 0x1FA3 JUMPI POP POP PUSH2 0x1F4F SWAP3 POP SUB DUP3 PUSH2 0x2632 JUMP JUMPDEST PUSH1 0x0 SWAP1 PUSH1 0x0 JUMPDEST DUP2 MLOAD DUP2 LT ISZERO PUSH2 0xDE7 JUMPI PUSH2 0x1F68 DUP2 DUP4 PUSH2 0x274D JUMP JUMPDEST MLOAD PUSH1 0x0 MSTORE PUSH1 0x1 PUSH1 0x20 MSTORE PUSH1 0xFF PUSH1 0x8 PUSH1 0x40 PUSH1 0x0 KECCAK256 ADD SLOAD AND PUSH2 0x1F8A JUMPI JUMPDEST PUSH1 0x1 ADD PUSH2 0x1F55 JUMP JUMPDEST SWAP2 PUSH2 0x1F9B PUSH1 0x1 SWAP2 PUSH2 0xD9F DUP6 DUP6 PUSH2 0x274D JUMP JUMPDEST SWAP3 SWAP1 POP PUSH2 0x1F82 JUMP JUMPDEST DUP5 SLOAD DUP4 MSTORE PUSH1 0x1 SWAP5 DUP6 ADD SWAP5 DUP7 SWAP5 POP PUSH1 0x20 SWAP1 SWAP4 ADD SWAP3 ADD PUSH2 0x1F3A JUMP JUMPDEST CALLVALUE PUSH2 0x636 JUMPI PUSH1 0x20 CALLDATASIZE PUSH1 0x3 NOT ADD SLT PUSH2 0x636 JUMPI PUSH1 0x4 CALLDATALOAD PUSH2 0x1FD8 PUSH2 0x27B9 JUMP JUMPDEST POP DUP1 ISZERO ISZERO DUP1 PUSH2 0x2017 JUMPI JUMPDEST PUSH2 0x1FEB SWAP1 PUSH2 0x2844 JUMP JUMPDEST PUSH1 0x0 MSTORE PUSH1 0x1 PUSH1 0x20 MSTORE PUSH2 0x7C4 PUSH2 0x2003 PUSH1 0x40 PUSH1 0x0 KECCAK256 PUSH2 0x2885 JUMP JUMPDEST PUSH1 0x40 MLOAD SWAP2 DUP3 SWAP2 PUSH1 0x20 DUP4 MSTORE PUSH1 0x20 DUP4 ADD SWAP1 PUSH2 0x2498 JUMP JUMPDEST POP PUSH1 0x3 SLOAD DUP2 GT ISZERO PUSH2 0x1FE2 JUMP JUMPDEST CALLVALUE PUSH2 0x636 JUMPI PUSH1 0x40 CALLDATASIZE PUSH1 0x3 NOT ADD SLT PUSH2 0x636 JUMPI PUSH2 0x203C PUSH2 0x23D9 JUMP JUMPDEST CALLER PUSH1 0x1 PUSH1 0x1 PUSH1 0xA0 SHL SUB DUP3 AND SUB PUSH2 0x2058 JUMPI PUSH2 0x9D8 SWAP1 PUSH1 0x4 CALLDATALOAD PUSH2 0x2A77 JUMP JUMPDEST PUSH4 0x334BD919 PUSH1 0xE1 SHL PUSH1 0x0 MSTORE PUSH1 0x4 PUSH1 0x0 REVERT JUMPDEST CALLVALUE PUSH2 0x636 JUMPI PUSH1 0x40 CALLDATASIZE PUSH1 0x3 NOT ADD SLT PUSH2 0x636 JUMPI PUSH2 0x9D8 PUSH1 0x4 CALLDATALOAD PUSH2 0x2088 PUSH2 0x23D9 JUMP JUMPDEST SWAP1 PUSH2 0x20A4 PUSH2 0x9CE DUP3 PUSH1 0x0 MSTORE PUSH1 0x0 PUSH1 0x20 MSTORE PUSH1 0x1 PUSH1 0x40 PUSH1 0x0 KECCAK256 ADD SLOAD SWAP1 JUMP JUMPDEST PUSH2 0x29EC JUMP JUMPDEST CALLVALUE PUSH2 0x636 JUMPI PUSH1 0x20 CALLDATASIZE PUSH1 0x3 NOT ADD SLT PUSH2 0x636 JUMPI PUSH1 0x1 PUSH1 0x1 PUSH1 0xA0 SHL SUB PUSH2 0x20CA PUSH2 0x23C3 JUMP JUMPDEST AND PUSH1 0x0 MSTORE PUSH1 0x2 PUSH1 0x20 MSTORE PUSH1 0x40 PUSH1 0x0 KECCAK256 PUSH1 0x40 MLOAD DUP1 DUP3 PUSH1 0x20 DUP3 SWAP5 SLOAD SWAP4 DUP5 DUP2 MSTORE ADD SWAP1 PUSH1 0x0 MSTORE PUSH1 0x20 PUSH1 0x0 KECCAK256 SWAP3 PUSH1 0x0 JUMPDEST DUP2 DUP2 LT PUSH2 0x21B3 JUMPI POP POP PUSH2 0x2109 SWAP3 POP SUB DUP3 PUSH2 0x2632 JUMP JUMPDEST PUSH1 0x0 DUP1 JUMPDEST DUP3 MLOAD DUP2 LT ISZERO PUSH2 0x2156 JUMPI PUSH2 0x2120 DUP2 DUP5 PUSH2 0x274D JUMP JUMPDEST MLOAD PUSH1 0x0 MSTORE PUSH1 0x1 PUSH1 0x20 MSTORE PUSH1 0xFF PUSH1 0x8 PUSH1 0x40 PUSH1 0x0 KECCAK256 ADD SLOAD AND PUSH2 0x2142 JUMPI JUMPDEST PUSH1 0x1 ADD PUSH2 0x210D JUMP JUMPDEST SWAP1 PUSH2 0x214E PUSH1 0x1 SWAP2 PUSH2 0x2761 JUMP JUMPDEST SWAP2 SWAP1 POP PUSH2 0x213A JUMP JUMPDEST POP PUSH2 0x2160 SWAP1 PUSH2 0x2787 JUMP JUMPDEST SWAP1 PUSH1 0x0 DUP1 JUMPDEST DUP3 MLOAD DUP2 LT ISZERO PUSH2 0x7B6 JUMPI PUSH2 0x2178 DUP2 DUP5 PUSH2 0x274D JUMP JUMPDEST MLOAD PUSH1 0x0 MSTORE PUSH1 0x1 PUSH1 0x20 MSTORE PUSH1 0xFF PUSH1 0x8 PUSH1 0x40 PUSH1 0x0 KECCAK256 ADD SLOAD AND PUSH2 0x219A JUMPI JUMPDEST PUSH1 0x1 ADD PUSH2 0x2165 JUMP JUMPDEST SWAP1 PUSH2 0x21AB PUSH1 0x1 SWAP2 PUSH2 0x774 DUP5 DUP7 PUSH2 0x274D JUMP JUMPDEST SWAP2 SWAP1 POP PUSH2 0x2192 JUMP JUMPDEST DUP5 SLOAD DUP4 MSTORE PUSH1 0x1 SWAP5 DUP6 ADD SWAP5 DUP7 SWAP5 POP PUSH1 0x20 SWAP1 SWAP4 ADD SWAP3 ADD PUSH2 0x20F4 JUMP JUMPDEST CALLVALUE PUSH2 0x636 JUMPI PUSH1 0x20 CALLDATASIZE PUSH1 0x3 NOT ADD SLT PUSH2 0x636 JUMPI PUSH1 0x1 PUSH1 0x1 PUSH1 0xA0 SHL SUB PUSH2 0x21ED PUSH2 0x23C3 JUMP JUMPDEST AND PUSH1 0x0 MSTORE PUSH1 0x2 PUSH1 0x20 MSTORE PUSH1 0x40 PUSH1 0x0 KECCAK256 PUSH1 0x40 MLOAD SWAP1 DUP2 PUSH1 0x20 DUP3 SLOAD SWAP2 DUP3 DUP2 MSTORE ADD SWAP2 PUSH1 0x0 MSTORE PUSH1 0x20 PUSH1 0x0 KECCAK256 SWAP1 PUSH1 0x0 JUMPDEST DUP2 DUP2 LT PUSH2 0x2239 JUMPI PUSH2 0x7C4 DUP6 PUSH2 0x222D DUP2 DUP8 SUB DUP3 PUSH2 0x2632 JUMP JUMPDEST PUSH1 0x40 MLOAD SWAP2 DUP3 SWAP2 DUP3 PUSH2 0x241D JUMP JUMPDEST DUP3 SLOAD DUP5 MSTORE PUSH1 0x20 SWAP1 SWAP4 ADD SWAP3 PUSH1 0x1 SWAP3 DUP4 ADD SWAP3 ADD PUSH2 0x2216 JUMP JUMPDEST CALLVALUE PUSH2 0x636 JUMPI PUSH1 0x20 CALLDATASIZE PUSH1 0x3 NOT ADD SLT PUSH2 0x636 JUMPI PUSH1 0x20 PUSH2 0x227C PUSH1 0x4 CALLDATALOAD PUSH1 0x0 MSTORE PUSH1 0x0 PUSH1 0x20 MSTORE PUSH1 0x1 PUSH1 0x40 PUSH1 0x0 KECCAK256 ADD SLOAD SWAP1 JUMP JUMPDEST PUSH1 0x40 MLOAD SWAP1 DUP2 MSTORE RETURN JUMPDEST CALLVALUE PUSH2 0x636 JUMPI PUSH1 0x20 CALLDATASIZE PUSH1 0x3 NOT ADD SLT PUSH2 0x636 JUMPI PUSH1 0x1 PUSH1 0x1 PUSH1 0xA0 SHL SUB PUSH2 0x22A5 PUSH2 0x23C3 JUMP JUMPDEST AND PUSH1 0x0 MSTORE PUSH1 0x2 PUSH1 0x20 MSTORE PUSH1 0x20 PUSH1 0x40 PUSH1 0x0 KECCAK256 SLOAD PUSH1 0x40 MLOAD SWAP1 DUP2 MSTORE RETURN JUMPDEST CALLVALUE PUSH2 0x636 JUMPI PUSH1 0x0 CALLDATASIZE PUSH1 0x3 NOT ADD SLT PUSH2 0x636 JUMPI PUSH1 0x20 PUSH1 0x3 SLOAD PUSH1 0x40 MLOAD SWAP1 DUP2 MSTORE RETURN JUMPDEST CALLVALUE PUSH2 0x636 JUMPI PUSH1 0x40 CALLDATASIZE PUSH1 0x3 NOT ADD SLT PUSH2 0x636 JUMPI PUSH2 0x22F5 PUSH2 0x23C3 JUMP JUMPDEST PUSH1 0x1 PUSH1 0x1 PUSH1 0xA0 SHL SUB AND PUSH1 0x0 SWAP1 DUP2 MSTORE PUSH1 0x2 PUSH1 0x20 MSTORE PUSH1 0x40 SWAP1 KECCAK256 DUP1 SLOAD PUSH1 0x24 CALLDATALOAD SWAP2 SWAP1 DUP3 LT ISZERO PUSH2 0x636 JUMPI PUSH1 0x20 SWAP2 PUSH2 0x2326 SWAP2 PUSH2 0x23EF JUMP JUMPDEST SWAP1 SLOAD SWAP1 PUSH1 0x3 SHL SHR PUSH1 0x40 MLOAD SWAP1 DUP2 MSTORE RETURN JUMPDEST CALLVALUE PUSH2 0x636 JUMPI PUSH1 0x0 CALLDATASIZE PUSH1 0x3 NOT ADD SLT PUSH2 0x636 JUMPI PUSH1 0x20 PUSH1 0x40 MLOAD PUSH32 0x182A37F4CFE4A11C9CC13AF6A96350BC084BEDFD41DF0928670DBABCFE3AEA1 DUP2 MSTORE RETURN JUMPDEST CALLVALUE PUSH2 0x636 JUMPI PUSH1 0x20 CALLDATASIZE PUSH1 0x3 NOT ADD SLT PUSH2 0x636 JUMPI PUSH1 0x4 CALLDATALOAD SWAP1 PUSH4 0xFFFFFFFF PUSH1 0xE0 SHL DUP3 AND DUP1 SWAP3 SUB PUSH2 0x636 JUMPI PUSH1 0x20 SWAP2 PUSH4 0x7965DB0B PUSH1 0xE0 SHL DUP2 EQ SWAP1 DUP2 ISZERO PUSH2 0x23B2 JUMPI JUMPDEST POP ISZERO ISZERO DUP2 MSTORE RETURN JUMPDEST PUSH4 0x1FFC9A7 PUSH1 0xE0 SHL EQ SWAP1 POP DUP4 PUSH2 0x23AB JUMP JUMPDEST PUSH1 0x4 CALLDATALOAD SWAP1 PUSH1 0x1 PUSH1 0x1 PUSH1 0xA0 SHL SUB DUP3 AND DUP3 SUB PUSH2 0x636 JUMPI JUMP JUMPDEST PUSH1 0x24 CALLDATALOAD SWAP1 PUSH1 0x1 PUSH1 0x1 PUSH1 0xA0 SHL SUB DUP3 AND DUP3 SUB PUSH2 0x636 JUMPI JUMP JUMPDEST DUP1 SLOAD DUP3 LT ISZERO PUSH2 0x2407 JUMPI PUSH1 0x0 MSTORE PUSH1 0x20 PUSH1 0x0 KECCAK256 ADD SWAP1 PUSH1 0x0 SWAP1 JUMP JUMPDEST PUSH4 0x4E487B71 PUSH1 0xE0 SHL PUSH1 0x0 MSTORE PUSH1 0x32 PUSH1 0x4 MSTORE PUSH1 0x24 PUSH1 0x0 REVERT JUMPDEST PUSH1 0x20 PUSH1 0x40 DUP2 DUP4 ADD SWAP3 DUP3 DUP2 MSTORE DUP5 MLOAD DUP1 SWAP5 MSTORE ADD SWAP3 ADD SWAP1 PUSH1 0x0 JUMPDEST DUP2 DUP2 LT PUSH2 0x2441 JUMPI POP POP POP SWAP1 JUMP JUMPDEST DUP3 MLOAD DUP5 MSTORE PUSH1 0x20 SWAP4 DUP5 ADD SWAP4 SWAP1 SWAP3 ADD SWAP2 PUSH1 0x1 ADD PUSH2 0x2434 JUMP JUMPDEST SWAP2 SWAP1 DUP3 MLOAD SWAP3 DUP4 DUP3 MSTORE PUSH1 0x0 JUMPDEST DUP5 DUP2 LT PUSH2 0x2483 JUMPI POP POP DUP3 PUSH1 0x0 PUSH1 0x20 DUP1 SWAP5 SWAP6 DUP5 ADD ADD MSTORE PUSH1 0x1F DUP1 NOT SWAP2 ADD AND ADD ADD SWAP1 JUMP JUMPDEST DUP1 PUSH1 0x20 DUP1 SWAP3 DUP5 ADD ADD MLOAD DUP3 DUP3 DUP7 ADD ADD MSTORE ADD PUSH2 0x2462 JUMP JUMPDEST PUSH2 0x25D9 SWAP2 DUP2 MLOAD DUP2 MSTORE PUSH1 0x1 DUP1 PUSH1 0xA0 SHL SUB PUSH1 0x20 DUP4 ADD MLOAD AND PUSH1 0x20 DUP3 ADD MSTORE PUSH1 0x1 DUP1 PUSH1 0xA0 SHL SUB PUSH1 0x40 DUP4 ADD MLOAD AND PUSH1 0x40 DUP3 ADD MSTORE PUSH1 0x60 DUP3 ADD MLOAD PUSH1 0x60 DUP3 ADD MSTORE PUSH2 0x220 PUSH2 0x25C7 PUSH2 0x25B3 PUSH2 0x259F PUSH2 0x258B PUSH2 0x2537 PUSH2 0x2525 PUSH2 0x2513 PUSH2 0x2501 PUSH1 0x80 DUP12 ADD MLOAD PUSH2 0x240 PUSH1 0x80 DUP13 ADD MSTORE PUSH2 0x240 DUP12 ADD SWAP1 PUSH2 0x2457 JUMP JUMPDEST PUSH1 0xA0 DUP12 ADD MLOAD DUP11 DUP3 SUB PUSH1 0xA0 DUP13 ADD MSTORE PUSH2 0x2457 JUMP JUMPDEST PUSH1 0xC0 DUP11 ADD MLOAD DUP10 DUP3 SUB PUSH1 0xC0 DUP12 ADD MSTORE PUSH2 0x2457 JUMP JUMPDEST PUSH1 0xE0 DUP10 ADD MLOAD DUP9 DUP3 SUB PUSH1 0xE0 DUP11 ADD MSTORE PUSH2 0x2457 JUMP JUMPDEST PUSH2 0x100 DUP9 ADD MLOAD ISZERO ISZERO PUSH2 0x100 DUP9 ADD MSTORE PUSH2 0x120 DUP9 ADD MLOAD ISZERO ISZERO PUSH2 0x120 DUP9 ADD MSTORE PUSH2 0x140 DUP9 ADD MLOAD PUSH2 0x140 DUP9 ADD MSTORE PUSH2 0x160 DUP9 ADD MLOAD PUSH2 0x160 DUP9 ADD MSTORE PUSH2 0x180 DUP9 ADD MLOAD PUSH2 0x180 DUP9 ADD MSTORE PUSH2 0x1A0 DUP9 ADD MLOAD DUP8 DUP3 SUB PUSH2 0x1A0 DUP10 ADD MSTORE PUSH2 0x2457 JUMP JUMPDEST PUSH2 0x1C0 DUP8 ADD MLOAD DUP7 DUP3 SUB PUSH2 0x1C0 DUP9 ADD MSTORE PUSH2 0x2457 JUMP JUMPDEST PUSH2 0x1E0 DUP7 ADD MLOAD DUP6 DUP3 SUB PUSH2 0x1E0 DUP8 ADD MSTORE PUSH2 0x2457 JUMP JUMPDEST PUSH2 0x200 DUP6 ADD MLOAD DUP5 DUP3 SUB PUSH2 0x200 DUP7 ADD MSTORE PUSH2 0x2457 JUMP JUMPDEST SWAP3 ADD MLOAD SWAP1 PUSH2 0x220 DUP2 DUP5 SUB SWAP2 ADD MSTORE PUSH2 0x2457 JUMP JUMPDEST SWAP1 JUMP JUMPDEST SWAP1 PUSH1 0x1 DUP3 DUP2 SHR SWAP3 AND DUP1 ISZERO PUSH2 0x260C JUMPI JUMPDEST PUSH1 0x20 DUP4 LT EQ PUSH2 0x25F6 JUMPI JUMP JUMPDEST PUSH4 0x4E487B71 PUSH1 0xE0 SHL PUSH1 0x0 MSTORE PUSH1 0x22 PUSH1 0x4 MSTORE PUSH1 0x24 PUSH1 0x0 REVERT JUMPDEST SWAP2 PUSH1 0x7F AND SWAP2 PUSH2 0x25EB JUMP JUMPDEST PUSH2 0x240 DUP2 ADD SWAP1 DUP2 LT PUSH1 0x1 PUSH1 0x1 PUSH1 0x40 SHL SUB DUP3 GT OR PUSH2 0x432 JUMPI PUSH1 0x40 MSTORE JUMP JUMPDEST SWAP1 PUSH1 0x1F DUP1 NOT SWAP2 ADD AND DUP2 ADD SWAP1 DUP2 LT PUSH1 0x1 PUSH1 0x1 PUSH1 0x40 SHL SUB DUP3 GT OR PUSH2 0x432 JUMPI PUSH1 0x40 MSTORE JUMP JUMPDEST SWAP1 PUSH1 0x40 MLOAD SWAP2 DUP3 PUSH1 0x0 DUP3 SLOAD SWAP3 PUSH2 0x2667 DUP5 PUSH2 0x25DC JUMP JUMPDEST DUP1 DUP5 MSTORE SWAP4 PUSH1 0x1 DUP2 AND SWAP1 DUP2 ISZERO PUSH2 0x26D5 JUMPI POP PUSH1 0x1 EQ PUSH2 0x268E JUMPI JUMPDEST POP PUSH2 0x268C SWAP3 POP SUB DUP4 PUSH2 0x2632 JUMP JUMPDEST JUMP JUMPDEST SWAP1 POP PUSH1 0x0 SWAP3 SWAP2 SWAP3 MSTORE PUSH1 0x20 PUSH1 0x0 KECCAK256 SWAP1 PUSH1 0x0 SWAP2 JUMPDEST DUP2 DUP4 LT PUSH2 0x26B9 JUMPI POP POP SWAP1 PUSH1 0x20 PUSH2 0x268C SWAP3 DUP3 ADD ADD CODESIZE PUSH2 0x267F JUMP JUMPDEST PUSH1 0x20 SWAP2 SWAP4 POP DUP1 PUSH1 0x1 SWAP2 SLOAD DUP4 DUP6 DUP10 ADD ADD MSTORE ADD SWAP2 ADD SWAP1 SWAP2 DUP5 SWAP3 PUSH2 0x26A0 JUMP JUMPDEST SWAP1 POP PUSH1 0x20 SWAP3 POP PUSH2 0x268C SWAP5 SWAP2 POP PUSH1 0xFF NOT AND DUP3 DUP5 ADD MSTORE ISZERO ISZERO PUSH1 0x5 SHL DUP3 ADD ADD CODESIZE PUSH2 0x267F JUMP JUMPDEST DUP2 PUSH1 0x1F DUP3 ADD SLT ISZERO PUSH2 0x636 JUMPI DUP1 CALLDATALOAD SWAP1 PUSH1 0x1 PUSH1 0x1 PUSH1 0x40 SHL SUB DUP3 GT PUSH2 0x432 JUMPI PUSH1 0x40 MLOAD SWAP3 PUSH2 0x272B PUSH1 0x1F DUP5 ADD PUSH1 0x1F NOT AND PUSH1 0x20 ADD DUP6 PUSH2 0x2632 JUMP JUMPDEST DUP3 DUP5 MSTORE PUSH1 0x20 DUP4 DUP4 ADD ADD GT PUSH2 0x636 JUMPI DUP2 PUSH1 0x0 SWAP3 PUSH1 0x20 DUP1 SWAP4 ADD DUP4 DUP7 ADD CALLDATACOPY DUP4 ADD ADD MSTORE SWAP1 JUMP JUMPDEST DUP1 MLOAD DUP3 LT ISZERO PUSH2 0x2407 JUMPI PUSH1 0x20 SWAP2 PUSH1 0x5 SHL ADD ADD SWAP1 JUMP JUMPDEST PUSH1 0x0 NOT DUP2 EQ PUSH2 0xF0D JUMPI PUSH1 0x1 ADD SWAP1 JUMP JUMPDEST PUSH1 0x1 PUSH1 0x1 PUSH1 0x40 SHL SUB DUP2 GT PUSH2 0x432 JUMPI PUSH1 0x5 SHL PUSH1 0x20 ADD SWAP1 JUMP JUMPDEST SWAP1 PUSH2 0x2791 DUP3 PUSH2 0x2770 JUMP JUMPDEST PUSH2 0x279E PUSH1 0x40 MLOAD SWAP2 DUP3 PUSH2 0x2632 JUMP JUMPDEST DUP3 DUP2 MSTORE DUP1 SWAP3 PUSH2 0x27AF PUSH1 0x1F NOT SWAP2 PUSH2 0x2770 JUMP JUMPDEST ADD SWAP1 PUSH1 0x20 CALLDATASIZE SWAP2 ADD CALLDATACOPY JUMP JUMPDEST PUSH1 0x40 MLOAD SWAP1 PUSH2 0x27C6 DUP3 PUSH2 0x2616 JUMP JUMPDEST PUSH1 0x60 PUSH2 0x220 DUP4 PUSH1 0x0 DUP2 MSTORE PUSH1 0x0 PUSH1 0x20 DUP3 ADD MSTORE PUSH1 0x0 PUSH1 0x40 DUP3 ADD MSTORE PUSH1 0x0 DUP4 DUP3 ADD MSTORE DUP3 PUSH1 0x80 DUP3 ADD MSTORE DUP3 PUSH1 0xA0 DUP3 ADD MSTORE DUP3 PUSH1 0xC0 DUP3 ADD MSTORE DUP3 PUSH1 0xE0 DUP3 ADD MSTORE PUSH1 0x0 PUSH2 0x100 DUP3 ADD MSTORE PUSH1 0x0 PUSH2 0x120 DUP3 ADD MSTORE PUSH1 0x0 PUSH2 0x140 DUP3 ADD MSTORE PUSH1 0x0 PUSH2 0x160 DUP3 ADD MSTORE PUSH1 0x0 PUSH2 0x180 DUP3 ADD MSTORE DUP3 PUSH2 0x1A0 DUP3 ADD MSTORE DUP3 PUSH2 0x1C0 DUP3 ADD MSTORE DUP3 PUSH2 0x1E0 DUP3 ADD MSTORE DUP3 PUSH2 0x200 DUP3 ADD MSTORE ADD MSTORE JUMP JUMPDEST ISZERO PUSH2 0x284B JUMPI JUMP JUMPDEST PUSH1 0x40 MLOAD PUSH3 0x461BCD PUSH1 0xE5 SHL DUP2 MSTORE PUSH1 0x20 PUSH1 0x4 DUP3 ADD MSTORE PUSH1 0x12 PUSH1 0x24 DUP3 ADD MSTORE PUSH18 0x125B9D985B1A59081A5B9D9BDA58D9481251 PUSH1 0x72 SHL PUSH1 0x44 DUP3 ADD MSTORE PUSH1 0x64 SWAP1 REVERT JUMPDEST SWAP1 PUSH1 0x40 MLOAD PUSH2 0x2892 DUP2 PUSH2 0x2616 JUMP JUMPDEST DUP3 SLOAD DUP2 MSTORE PUSH1 0x1 DUP4 ADD SLOAD PUSH1 0x1 PUSH1 0x1 PUSH1 0xA0 SHL SUB SWAP1 DUP2 AND PUSH1 0x20 DUP4 ADD MSTORE PUSH1 0x2 DUP5 ADD SLOAD AND PUSH1 0x40 DUP3 ADD MSTORE PUSH1 0x3 DUP4 ADD SLOAD PUSH1 0x60 DUP3 ADD MSTORE SWAP2 DUP3 SWAP1 PUSH2 0x220 SWAP1 PUSH2 0x299F SWAP1 PUSH1 0x10 SWAP1 PUSH2 0x28DA PUSH1 0x4 DUP3 ADD PUSH2 0x2653 JUMP JUMPDEST PUSH1 0x80 DUP7 ADD MSTORE PUSH2 0x28EB PUSH1 0x5 DUP3 ADD PUSH2 0x2653 JUMP JUMPDEST PUSH1 0xA0 DUP7 ADD MSTORE PUSH2 0x28FC PUSH1 0x6 DUP3 ADD PUSH2 0x2653 JUMP JUMPDEST PUSH1 0xC0 DUP7 ADD MSTORE PUSH2 0x290D PUSH1 0x7 DUP3 ADD PUSH2 0x2653 JUMP JUMPDEST PUSH1 0xE0 DUP7 ADD MSTORE PUSH1 0xFF PUSH1 0x8 DUP3 ADD SLOAD DUP2 DUP2 AND ISZERO ISZERO PUSH2 0x100 DUP9 ADD MSTORE PUSH1 0x8 SHR AND ISZERO ISZERO PUSH2 0x120 DUP7 ADD MSTORE PUSH1 0x9 DUP2 ADD SLOAD PUSH2 0x140 DUP7 ADD MSTORE PUSH1 0xA DUP2 ADD SLOAD PUSH2 0x160 DUP7 ADD MSTORE PUSH1 0xB DUP2 ADD SLOAD PUSH2 0x180 DUP7 ADD MSTORE PUSH2 0x295D PUSH1 0xC DUP3 ADD PUSH2 0x2653 JUMP JUMPDEST PUSH2 0x1A0 DUP7 ADD MSTORE PUSH2 0x296F PUSH1 0xD DUP3 ADD PUSH2 0x2653 JUMP JUMPDEST PUSH2 0x1C0 DUP7 ADD MSTORE PUSH2 0x2981 PUSH1 0xE DUP3 ADD PUSH2 0x2653 JUMP JUMPDEST PUSH2 0x1E0 DUP7 ADD MSTORE PUSH2 0x2993 PUSH1 0xF DUP3 ADD PUSH2 0x2653 JUMP JUMPDEST PUSH2 0x200 DUP7 ADD MSTORE ADD PUSH2 0x2653 JUMP JUMPDEST SWAP2 ADD MSTORE JUMP JUMPDEST SWAP2 SWAP1 DUP3 ADD DUP1 SWAP3 GT PUSH2 0xF0D JUMPI JUMP JUMPDEST PUSH1 0x0 DUP2 DUP2 MSTORE PUSH1 0x20 DUP2 DUP2 MSTORE PUSH1 0x40 DUP1 DUP4 KECCAK256 CALLER DUP5 MSTORE SWAP1 SWAP2 MSTORE SWAP1 KECCAK256 SLOAD PUSH1 0xFF AND ISZERO PUSH2 0x29D4 JUMPI POP JUMP JUMPDEST PUSH4 0xE2517D3F PUSH1 0xE0 SHL PUSH1 0x0 MSTORE CALLER PUSH1 0x4 MSTORE PUSH1 0x24 MSTORE PUSH1 0x44 PUSH1 0x0 REVERT JUMPDEST PUSH1 0x0 DUP2 DUP2 MSTORE PUSH1 0x20 DUP2 DUP2 MSTORE PUSH1 0x40 DUP1 DUP4 KECCAK256 PUSH1 0x1 PUSH1 0x1 PUSH1 0xA0 SHL SUB DUP7 AND DUP5 MSTORE SWAP1 SWAP2 MSTORE SWAP1 KECCAK256 SLOAD PUSH1 0xFF AND PUSH2 0x2A70 JUMPI PUSH1 0x0 DUP2 DUP2 MSTORE PUSH1 0x20 DUP2 DUP2 MSTORE PUSH1 0x40 DUP1 DUP4 KECCAK256 PUSH1 0x1 PUSH1 0x1 PUSH1 0xA0 SHL SUB SWAP6 SWAP1 SWAP6 AND DUP1 DUP5 MSTORE SWAP5 SWAP1 SWAP2 MSTORE DUP2 KECCAK256 DUP1 SLOAD PUSH1 0xFF NOT AND PUSH1 0x1 OR SWAP1 SSTORE CALLER SWAP3 SWAP2 SWAP1 PUSH32 0x2F8788117E7EFF1D82E926EC794901D17C78024A50270940304540A733656F0D SWAP1 DUP1 LOG4 PUSH1 0x1 SWAP1 JUMP JUMPDEST POP POP PUSH1 0x0 SWAP1 JUMP JUMPDEST PUSH1 0x0 DUP2 DUP2 MSTORE PUSH1 0x20 DUP2 DUP2 MSTORE PUSH1 0x40 DUP1 DUP4 KECCAK256 PUSH1 0x1 PUSH1 0x1 PUSH1 0xA0 SHL SUB DUP7 AND DUP5 MSTORE SWAP1 SWAP2 MSTORE SWAP1 KECCAK256 SLOAD PUSH1 0xFF AND ISZERO PUSH2 0x2A70 JUMPI PUSH1 0x0 DUP2 DUP2 MSTORE PUSH1 0x20 DUP2 DUP2 MSTORE PUSH1 0x40 DUP1 DUP4 KECCAK256 PUSH1 0x1 PUSH1 0x1 PUSH1 0xA0 SHL SUB SWAP6 SWAP1 SWAP6 AND DUP1 DUP5 MSTORE SWAP5 SWAP1 SWAP2 MSTORE DUP2 KECCAK256 DUP1 SLOAD PUSH1 0xFF NOT AND SWAP1 SSTORE CALLER SWAP3 SWAP2 SWAP1 PUSH32 0xF6391F5C32D9C69D2A47EA670B442974B53935D1EDC7FD64EB21E047A839171B SWAP1 DUP1 LOG4 PUSH1 0x1 SWAP1 JUMP INVALID LOG2 PUSH5 0x6970667358 0x22 SLT KECCAK256 GT 0xEF 0xC3 0x2E DUP10 CALLER MLOAD 0xF6 CALLDATASIZE PUSH13 0x6F2CFADEFF6AEC91E99BBED968 0xA9 NOT EQ PUSH3 0x3EE935 0xBE NOT PUSH5 0x736F6C6343 STOP ADDMOD SHR STOP CALLER 0x2F DUP8 DUP9 GT PUSH31 0x7EFF1D82E926EC794901D17C78024A50270940304540A733656F0DA7A29618 0xDE 0xBA 0xA5 SWAP16 0xF 0xC0 JUMPDEST 0x2B 0xA9 SWAP7 0xE7 0xC1 0xB7 JUMPI 0x22 CREATE2 GT 0xD6 ISZERO EQ SMOD CHAINID 0x24 0xC1 GASPRICE RETURN 0xC8 ADD 0xAD ORIGIN 0x28 0xB6 PUSH23 0xF7D3CD4284A5443F17F1962B36E491B30A40B2405849E5 SWAP8 0xBA PUSH0 0xB5 "},"methodIdentifiers":{"BOARD_ROLE()":"05b11d37","DEFAULT_ADMIN_ROLE()":"a217fddf","PAYMENT_ORACLE_ROLE()":"78defd9e","approveInvoice(uint256)":"b32413b7","cancelInvoice(uint256)":"da9c273d","confirmPayment(uint256,string,string)":"ea20f362","createInvoice(address,uint256,string,string,string,string,uint256,string,string,string)":"511656db","getAllInvoices()":"570bdad6","getInvoice(uint256)":"3a23cc0a","getInvoicesByStatus(bool,bool)":"96c579fa","getPaidInvoices(address)":"2542a1f9","getPendingAmount(address)":"7571af22","getPendingInvoices(address)":"e3f1a28d","getRoleAdmin(bytes32)":"248a9ca3","getTotalRevenue(address)":"49567e01","getUserInvoiceCount(address)":"21e2a791","getUserInvoices(address)":"24d3b3e2","grantRole(bytes32,address)":"2f2ff15d","hasRole(bytes32,address)":"91d14854","invoiceCount()":"1346f0c4","invoices(uint256)":"4e6d1405","renounceRole(bytes32,address)":"36568abe","revokeRole(bytes32,address)":"d547741f","supportsInterface(bytes4)":"01ffc9a7","userInvoices(address,uint256)":"0ad6b0a5"}}}}}