{
  "_format": "hh-sol-artifact-1",
  "contractName": "MezoVaultContract",
  "sourceName": "contracts/MezoVaultContract.sol",
  "abi": [
    {
      "inputs": [],
      "stateMutability": "nonpayable",
      "type": "constructor"
    },
    {
      "inputs": [
        {
          "internalType": "address",
          "name": "owner",
          "type": "address"
        }
      ],
      "name": "OwnableInvalidOwner",
      "type": "error"
    },
    {
      "inputs": [
        {
          "internalType": "address",
          "name": "account",
          "type": "address"
        }
      ],
      "name": "OwnableUnauthorizedAccount",
      "type": "error"
    },
    {
      "inputs": [],
      "name": "ReentrancyGuardReentrantCall",
      "type": "error"
    },
    {
      "anonymous": false,
      "inputs": [
        {
          "indexed": true,
          "internalType": "address",
          "name": "user",
          "type": "address"
        },
        {
          "indexed": false,
          "internalType": "uint256",
          "name": "amount",
          "type": "uint256"
        }
      ],
      "name": "CollateralDeposited",
      "type": "event"
    },
    {
      "anonymous": false,
      "inputs": [
        {
          "indexed": true,
          "internalType": "address",
          "name": "user",
          "type": "address"
        },
        {
          "indexed": false,
          "internalType": "uint256",
          "name": "amount",
          "type": "uint256"
        }
      ],
      "name": "CollateralWithdrawn",
      "type": "event"
    },
    {
      "anonymous": false,
      "inputs": [
        {
          "indexed": true,
          "internalType": "address",
          "name": "user",
          "type": "address"
        },
        {
          "indexed": false,
          "internalType": "uint256",
          "name": "amount",
          "type": "uint256"
        }
      ],
      "name": "MUSDBorrowed",
      "type": "event"
    },
    {
      "anonymous": false,
      "inputs": [
        {
          "indexed": true,
          "internalType": "address",
          "name": "user",
          "type": "address"
        },
        {
          "indexed": false,
          "internalType": "uint256",
          "name": "amount",
          "type": "uint256"
        }
      ],
      "name": "MUSDRepaid",
      "type": "event"
    },
    {
      "anonymous": false,
      "inputs": [
        {
          "indexed": true,
          "internalType": "address",
          "name": "previousOwner",
          "type": "address"
        },
        {
          "indexed": true,
          "internalType": "address",
          "name": "newOwner",
          "type": "address"
        }
      ],
      "name": "OwnershipTransferred",
      "type": "event"
    },
    {
      "anonymous": false,
      "inputs": [
        {
          "indexed": true,
          "internalType": "address",
          "name": "user",
          "type": "address"
        },
        {
          "indexed": false,
          "internalType": "uint256",
          "name": "collateralAmount",
          "type": "uint256"
        },
        {
          "indexed": false,
          "internalType": "uint256",
          "name": "debtAmount",
          "type": "uint256"
        }
      ],
      "name": "VaultLiquidated",
      "type": "event"
    },
    {
      "inputs": [],
      "name": "INTEREST_RATE",
      "outputs": [
        {
          "internalType": "uint256",
          "name": "",
          "type": "uint256"
        }
      ],
      "stateMutability": "view",
      "type": "function"
    },
    {
      "inputs": [],
      "name": "MIN_COLLATERAL_RATIO",
      "outputs": [
        {
          "internalType": "uint256",
          "name": "",
          "type": "uint256"
        }
      ],
      "stateMutability": "view",
      "type": "function"
    },
    {
      "inputs": [],
      "name": "MUSD_TOKEN",
      "outputs": [
        {
          "internalType": "address",
          "name": "",
          "type": "address"
        }
      ],
      "stateMutability": "view",
      "type": "function"
    },
    {
      "inputs": [
        {
          "internalType": "uint256",
          "name": "amount",
          "type": "uint256"
        }
      ],
      "name": "borrowMUSD",
      "outputs": [],
      "stateMutability": "nonpayable",
      "type": "function"
    },
    {
      "inputs": [
        {
          "internalType": "uint256",
          "name": "amount",
          "type": "uint256"
        }
      ],
      "name": "depositCollateral",
      "outputs": [],
      "stateMutability": "payable",
      "type": "function"
    },
    {
      "inputs": [],
      "name": "emergencyWithdraw",
      "outputs": [],
      "stateMutability": "nonpayable",
      "type": "function"
    },
    {
      "inputs": [
        {
          "internalType": "address",
          "name": "user",
          "type": "address"
        }
      ],
      "name": "getBorrowedAmount",
      "outputs": [
        {
          "internalType": "uint256",
          "name": "",
          "type": "uint256"
        }
      ],
      "stateMutability": "view",
      "type": "function"
    },
    {
      "inputs": [
        {
          "internalType": "address",
          "name": "user",
          "type": "address"
        }
      ],
      "name": "getCollateralBalance",
      "outputs": [
        {
          "internalType": "uint256",
          "name": "",
          "type": "uint256"
        }
      ],
      "stateMutability": "view",
      "type": "function"
    },
    {
      "inputs": [
        {
          "internalType": "address",
          "name": "user",
          "type": "address"
        }
      ],
      "name": "getCollateralRatio",
      "outputs": [
        {
          "internalType": "uint256",
          "name": "",
          "type": "uint256"
        }
      ],
      "stateMutability": "view",
      "type": "function"
    },
    {
      "inputs": [
        {
          "internalType": "address",
          "name": "user",
          "type": "address"
        }
      ],
      "name": "getHealthFactor",
      "outputs": [
        {
          "internalType": "uint256",
          "name": "",
          "type": "uint256"
        }
      ],
      "stateMutability": "view",
      "type": "function"
    },
    {
      "inputs": [],
      "name": "getInterestRate",
      "outputs": [
        {
          "internalType": "uint256",
          "name": "",
          "type": "uint256"
        }
      ],
      "stateMutability": "pure",
      "type": "function"
    },
    {
      "inputs": [
        {
          "internalType": "address",
          "name": "user",
          "type": "address"
        }
      ],
      "name": "getLiquidationPrice",
      "outputs": [
        {
          "internalType": "uint256",
          "name": "",
          "type": "uint256"
        }
      ],
      "stateMutability": "view",
      "type": "function"
    },
    {
      "inputs": [],
      "name": "owner",
      "outputs": [
        {
          "internalType": "address",
          "name": "",
          "type": "address"
        }
      ],
      "stateMutability": "view",
      "type": "function"
    },
    {
      "inputs": [],
      "name": "renounceOwnership",
      "outputs": [],
      "stateMutability": "nonpayable",
      "type": "function"
    },
    {
      "inputs": [
        {
          "internalType": "uint256",
          "name": "amount",
          "type": "uint256"
        }
      ],
      "name": "repayMUSD",
      "outputs": [],
      "stateMutability": "nonpayable",
      "type": "function"
    },
    {
      "inputs": [],
      "name": "totalBorrowed",
      "outputs": [
        {
          "internalType": "uint256",
          "name": "",
          "type": "uint256"
        }
      ],
      "stateMutability": "view",
      "type": "function"
    },
    {
      "inputs": [],
      "name": "totalCollateral",
      "outputs": [
        {
          "internalType": "uint256",
          "name": "",
          "type": "uint256"
        }
      ],
      "stateMutability": "view",
      "type": "function"
    },
    {
      "inputs": [
        {
          "internalType": "address",
          "name": "newOwner",
          "type": "address"
        }
      ],
      "name": "transferOwnership",
      "outputs": [],
      "stateMutability": "nonpayable",
      "type": "function"
    },
    {
      "inputs": [
        {
          "internalType": "address",
          "name": "",
          "type": "address"
        }
      ],
      "name": "vaults",
      "outputs": [
        {
          "internalType": "uint256",
          "name": "collateralAmount",
          "type": "uint256"
        },
        {
          "internalType": "uint256",
          "name": "borrowedAmount",
          "type": "uint256"
        },
        {
          "internalType": "uint256",
          "name": "lastUpdateTime",
          "type": "uint256"
        },
        {
          "internalType": "bool",
          "name": "exists",
          "type": "bool"
        }
      ],
      "stateMutability": "view",
      "type": "function"
    },
    {
      "inputs": [
        {
          "internalType": "uint256",
          "name": "amount",
          "type": "uint256"
        }
      ],
      "name": "withdrawCollateral",
      "outputs": [],
      "stateMutability": "nonpayable",
      "type": "function"
    },
    {
      "stateMutability": "payable",
      "type": "receive"
    }
  ],
  "bytecode": "0x6080604052348015600f57600080fd5b5060016000553380603a57604051631e4fbdf760e01b81526000600482015260240160405180910390fd5b6041816046565b506098565b600180546001600160a01b038381166001600160a01b0319831681179093556040519116919082907f8be0079c531659141344cd1fd0a4f28419497f9722a3daafe3b4186f6b6457e090600090a35050565b610f3c806100a76000396000f3fe6080604052600436106101235760003560e01c8063715018a6116100a0578063b9f2c7b511610064578063b9f2c7b514610360578063bad4a01f14610399578063db2e21bc146103ac578063f2fde38b146103c1578063fe6bcd7c146103e157600080fd5b8063715018a61461028f57806378f3ef22146102a45780637a9fffb7146102c45780638da5cb5b146102d9578063a622ee7c146102f757600080fd5b80634ac8eb5f116100e75780634ac8eb5f1461021a5780634c19386c146102305780635257b566146102465780635b72a33a1461025a5780636112fe2e1461026f57600080fd5b806315a3ba431461012f57806317d8de8214610162578063211f0277146101825780632703ee85146101a45780632e5a6e25146101da57600080fd5b3661012a57005b600080fd5b34801561013b57600080fd5b5061014f61014a366004610daf565b610401565b6040519081526020015b60405180910390f35b34801561016e57600080fd5b5061014f61017d366004610daf565b610492565b34801561018e57600080fd5b506101a261019d366004610dd8565b610512565b005b3480156101b057600080fd5b5061014f6101bf366004610daf565b6001600160a01b031660009081526002602052604090205490565b3480156101e657600080fd5b5061020273118917a40faf1cd7a13db0ef56c86de7973ac50381565b6040516001600160a01b039091168152602001610159565b34801561022657600080fd5b5061014f60035481565b34801561023c57600080fd5b5061014f60045481565b34801561025257600080fd5b5060fa61014f565b34801561026657600080fd5b5061014f60fa81565b34801561027b57600080fd5b506101a261028a366004610dd8565b6106cf565b34801561029b57600080fd5b506101a261088b565b3480156102b057600080fd5b506101a26102bf366004610dd8565b61089f565b3480156102d057600080fd5b5061014f606e81565b3480156102e557600080fd5b506001546001600160a01b0316610202565b34801561030357600080fd5b5061033e610312366004610daf565b600260208190526000918252604090912080546001820154928201546003909201549092919060ff1684565b6040805194855260208501939093529183015215156060820152608001610159565b34801561036c57600080fd5b5061014f61037b366004610daf565b6001600160a01b031660009081526002602052604090206001015490565b6101a26103a7366004610dd8565b610a05565b3480156103b857600080fd5b506101a2610b1f565b3480156103cd57600080fd5b506101a26103dc366004610daf565b610b60565b3480156103ed57600080fd5b5061014f6103fc366004610daf565b610b9b565b6001600160a01b0381166000908152600260208181526040808420815160808101835281548152600182015493810184905293810154918401919091526003015460ff1615156060830152820361045b5750600092915050565b805160009061046c9061c350610e07565b602083015190915061048082612710610e07565b61048a9190610e1e565b949350505050565b6001600160a01b03811660009081526002602081815260408084208151608081018352815480825260018301549482019490945293810154918401919091526003015460ff161515606083015282036104ee5750600092915050565b8051602082015161050190606e90610e07565b61050b9190610e1e565b9392505050565b61051a610c28565b600081116105435760405162461bcd60e51b815260040161053a90610e40565b60405180910390fd5b336000908152600260205260409020600381015460ff166105765760405162461bcd60e51b815260040161053a90610e77565b61057f33610c52565b60008282600101546105919190610ea5565b90506105a1826000015482610ce6565b6105ed5760405162461bcd60e51b815260206004820152601760248201527f496e73756666696369656e7420636f6c6c61746572616c000000000000000000604482015260640161053a565b80826001018190555082600460008282546106089190610ea5565b909155505060405163a9059cbb60e01b81523360048201526024810184905273118917a40faf1cd7a13db0ef56c86de7973ac5039063a9059cbb906044016020604051808303816000875af1158015610665573d6000803e3d6000fd5b505050506040513d601f19601f820116820180604052508101906106899190610eb8565b5060405183815233907f20da8f6e39cc42d87e1a570c1a21fe80e2882e71d765e5543d17a07564495278906020015b60405180910390a250506106cc6001600055565b50565b6106d7610c28565b600081116106f75760405162461bcd60e51b815260040161053a90610e40565b336000908152600260205260409020600381015460ff1661072a5760405162461bcd60e51b815260040161053a90610e77565b61073333610c52565b8054600090610743908490610eda565b905081600101548110156107aa5760405162461bcd60e51b815260206004820152602860248201527f43616e6e6f7420776974686472617720616c6c20636f6c6c61746572616c20776044820152671a5d1a081919589d60c21b606482015260840161053a565b60018201541561080e576107c2818360010154610ce6565b61080e5760405162461bcd60e51b815260206004820152601d60248201527f496e73756666696369656e7420636f6c6c61746572616c20726174696f000000604482015260640161053a565b80825560038054849190600090610826908490610eda565b9091555050604051339084156108fc029085906000818181858888f19350505050158015610858573d6000803e3d6000fd5b5060405183815233907fc30fcfbcaac9e0deffa719714eaa82396ff506a0d0d0eebe170830177288715d906020016106b8565b610893610d30565b61089d6000610d5d565b565b6108a7610c28565b600081116108c75760405162461bcd60e51b815260040161053a90610e40565b336000908152600260205260409020600381015460ff166108fa5760405162461bcd60e51b815260040161053a90610e77565b61090333610c52565b600081600101548311610916578261091c565b81600101545b9050808260010160008282546109329190610eda565b92505081905550806004600082825461094b9190610eda565b90915550506040516323b872dd60e01b81523360048201523060248201526044810182905273118917a40faf1cd7a13db0ef56c86de7973ac503906323b872dd906064016020604051808303816000875af11580156109ae573d6000803e3d6000fd5b505050506040513d601f19601f820116820180604052508101906109d29190610eb8565b5060405181815233907fd8e31e478118d9c8ea5f823945962d1e74951bdee736d578121095bff7d55018906020016106b8565b610a0d610c28565b60008111610a2d5760405162461bcd60e51b815260040161053a90610e40565b803414610a735760405162461bcd60e51b8152602060048201526014602482015273125b98dbdc9c9958dd0811551208185b5bdd5b9d60621b604482015260640161053a565b336000908152600260205260409020600381015460ff1615610a9857610a9833610c52565b81816000016000828254610aac9190610ea5565b90915550506003808201805460ff191660011790554260028301558054839190600090610ada908490610ea5565b909155505060405182815233907fd7243f6f8212d5188fd054141cf6ea89cfc0d91facb8c3afe2f88a13584801429060200160405180910390a2506106cc6001600055565b610b27610d30565b6001546040516001600160a01b03909116904780156108fc02916000818181858888f193505050501580156106cc573d6000803e3d6000fd5b610b68610d30565b6001600160a01b038116610b9257604051631e4fbdf760e01b81526000600482015260240161053a565b6106cc81610d5d565b6040516315a3ba4360e01b81526001600160a01b0382166004820152600090819030906315a3ba4390602401602060405180830381865afa158015610be4573d6000803e3d6000fd5b505050506040513d601f19601f82011682018060405250810190610c089190610eed565b905080600003610c1b5750600092915050565b606e610501826064610e07565b600260005403610c4b57604051633ee5aeb560e01b815260040160405180910390fd5b6002600055565b6001600160a01b03811660009081526002602052604081206001810154909103610c7a575050565b6000816002015442610c8c9190610eda565b9050600064496cebb8008260fa8560010154610ca89190610e07565b610cb29190610e07565b610cbc9190610e1e565b905080836001016000828254610cd29190610ea5565b909155505042600290930192909255505050565b600081600003610cf857506001610d2a565b6000610d068461c350610e07565b9050600083610d1783612710610e07565b610d219190610e1e565b606e1115925050505b92915050565b6001546001600160a01b0316331461089d5760405163118cdaa760e01b815233600482015260240161053a565b600180546001600160a01b038381166001600160a01b0319831681179093556040519116919082907f8be0079c531659141344cd1fd0a4f28419497f9722a3daafe3b4186f6b6457e090600090a35050565b600060208284031215610dc157600080fd5b81356001600160a01b038116811461050b57600080fd5b600060208284031215610dea57600080fd5b5035919050565b634e487b7160e01b600052601160045260246000fd5b8082028115828204841417610d2a57610d2a610df1565b600082610e3b57634e487b7160e01b600052601260045260246000fd5b500490565b6020808252601d908201527f416d6f756e74206d7573742062652067726561746572207468616e2030000000604082015260600190565b60208082526014908201527315985d5b1d08191bd95cc81b9bdd08195e1a5cdd60621b604082015260600190565b80820180821115610d2a57610d2a610df1565b600060208284031215610eca57600080fd5b8151801515811461050b57600080fd5b81810381811115610d2a57610d2a610df1565b600060208284031215610eff57600080fd5b505191905056fea26469706673582212201d8f02ad6d365073b5cc98e1e88549217a3ac63656786b19cb89e15e89c9cf3164736f6c634300081c0033",
  "linkReferences": {},
  "deployedLinkReferences": {}
}