{
  "_format": "hh-sol-artifact-1",
  "contractName": "MezoVaultContract",
  "sourceName": "contracts/MezoVaultContract.sol",
  "abi": [
    {
      "inputs": [
        {
          "internalType": "address",
          "name": "_musdToken",
          "type": "address"
        }
      ],
      "stateMutability": "nonpayable",
      "type": "constructor"
    },
    {
      "inputs": [
        {
          "internalType": "address",
          "name": "owner",
          "type": "address"
        }
      ],
      "name": "OwnableInvalidOwner",
      "type": "error"
    },
    {
      "inputs": [
        {
          "internalType": "address",
          "name": "account",
          "type": "address"
        }
      ],
      "name": "OwnableUnauthorizedAccount",
      "type": "error"
    },
    {
      "inputs": [],
      "name": "ReentrancyGuardReentrantCall",
      "type": "error"
    },
    {
      "anonymous": false,
      "inputs": [
        {
          "indexed": true,
          "internalType": "address",
          "name": "user",
          "type": "address"
        },
        {
          "indexed": false,
          "internalType": "uint256",
          "name": "amount",
          "type": "uint256"
        }
      ],
      "name": "CollateralDeposited",
      "type": "event"
    },
    {
      "anonymous": false,
      "inputs": [
        {
          "indexed": true,
          "internalType": "address",
          "name": "user",
          "type": "address"
        },
        {
          "indexed": false,
          "internalType": "uint256",
          "name": "amount",
          "type": "uint256"
        }
      ],
      "name": "CollateralWithdrawn",
      "type": "event"
    },
    {
      "anonymous": false,
      "inputs": [
        {
          "indexed": true,
          "internalType": "address",
          "name": "user",
          "type": "address"
        },
        {
          "indexed": false,
          "internalType": "uint256",
          "name": "amount",
          "type": "uint256"
        }
      ],
      "name": "MUSDBorrowed",
      "type": "event"
    },
    {
      "anonymous": false,
      "inputs": [
        {
          "indexed": true,
          "internalType": "address",
          "name": "user",
          "type": "address"
        },
        {
          "indexed": false,
          "internalType": "uint256",
          "name": "amount",
          "type": "uint256"
        }
      ],
      "name": "MUSDRepaid",
      "type": "event"
    },
    {
      "anonymous": false,
      "inputs": [
        {
          "indexed": true,
          "internalType": "address",
          "name": "previousOwner",
          "type": "address"
        },
        {
          "indexed": true,
          "internalType": "address",
          "name": "newOwner",
          "type": "address"
        }
      ],
      "name": "OwnershipTransferred",
      "type": "event"
    },
    {
      "anonymous": false,
      "inputs": [
        {
          "indexed": true,
          "internalType": "address",
          "name": "user",
          "type": "address"
        },
        {
          "indexed": false,
          "internalType": "uint256",
          "name": "collateralAmount",
          "type": "uint256"
        },
        {
          "indexed": false,
          "internalType": "uint256",
          "name": "debtAmount",
          "type": "uint256"
        }
      ],
      "name": "VaultLiquidated",
      "type": "event"
    },
    {
      "inputs": [],
      "name": "BTC_PRICE_USD",
      "outputs": [
        {
          "internalType": "uint256",
          "name": "",
          "type": "uint256"
        }
      ],
      "stateMutability": "view",
      "type": "function"
    },
    {
      "inputs": [],
      "name": "INTEREST_RATE",
      "outputs": [
        {
          "internalType": "uint256",
          "name": "",
          "type": "uint256"
        }
      ],
      "stateMutability": "view",
      "type": "function"
    },
    {
      "inputs": [],
      "name": "MIN_COLLATERAL_RATIO",
      "outputs": [
        {
          "internalType": "uint256",
          "name": "",
          "type": "uint256"
        }
      ],
      "stateMutability": "view",
      "type": "function"
    },
    {
      "inputs": [
        {
          "internalType": "uint256",
          "name": "amount",
          "type": "uint256"
        }
      ],
      "name": "borrowMUSD",
      "outputs": [],
      "stateMutability": "nonpayable",
      "type": "function"
    },
    {
      "inputs": [
        {
          "internalType": "uint256",
          "name": "amount",
          "type": "uint256"
        }
      ],
      "name": "depositCollateral",
      "outputs": [],
      "stateMutability": "payable",
      "type": "function"
    },
    {
      "inputs": [],
      "name": "emergencyWithdraw",
      "outputs": [],
      "stateMutability": "nonpayable",
      "type": "function"
    },
    {
      "inputs": [
        {
          "internalType": "address",
          "name": "user",
          "type": "address"
        }
      ],
      "name": "getBorrowedAmount",
      "outputs": [
        {
          "internalType": "uint256",
          "name": "",
          "type": "uint256"
        }
      ],
      "stateMutability": "view",
      "type": "function"
    },
    {
      "inputs": [
        {
          "internalType": "address",
          "name": "user",
          "type": "address"
        }
      ],
      "name": "getCollateralBalance",
      "outputs": [
        {
          "internalType": "uint256",
          "name": "",
          "type": "uint256"
        }
      ],
      "stateMutability": "view",
      "type": "function"
    },
    {
      "inputs": [
        {
          "internalType": "address",
          "name": "user",
          "type": "address"
        }
      ],
      "name": "getCollateralRatio",
      "outputs": [
        {
          "internalType": "uint256",
          "name": "",
          "type": "uint256"
        }
      ],
      "stateMutability": "view",
      "type": "function"
    },
    {
      "inputs": [
        {
          "internalType": "address",
          "name": "user",
          "type": "address"
        }
      ],
      "name": "getCurrentDebt",
      "outputs": [
        {
          "internalType": "uint256",
          "name": "",
          "type": "uint256"
        }
      ],
      "stateMutability": "view",
      "type": "function"
    },
    {
      "inputs": [
        {
          "internalType": "address",
          "name": "user",
          "type": "address"
        }
      ],
      "name": "getHealthFactor",
      "outputs": [
        {
          "internalType": "uint256",
          "name": "",
          "type": "uint256"
        }
      ],
      "stateMutability": "view",
      "type": "function"
    },
    {
      "inputs": [],
      "name": "getInterestRate",
      "outputs": [
        {
          "internalType": "uint256",
          "name": "",
          "type": "uint256"
        }
      ],
      "stateMutability": "pure",
      "type": "function"
    },
    {
      "inputs": [
        {
          "internalType": "address",
          "name": "user",
          "type": "address"
        }
      ],
      "name": "getLiquidationPrice",
      "outputs": [
        {
          "internalType": "uint256",
          "name": "",
          "type": "uint256"
        }
      ],
      "stateMutability": "view",
      "type": "function"
    },
    {
      "inputs": [
        {
          "internalType": "address",
          "name": "user",
          "type": "address"
        }
      ],
      "name": "getMaxWithdrawable",
      "outputs": [
        {
          "internalType": "uint256",
          "name": "",
          "type": "uint256"
        }
      ],
      "stateMutability": "view",
      "type": "function"
    },
    {
      "inputs": [],
      "name": "musdToken",
      "outputs": [
        {
          "internalType": "address",
          "name": "",
          "type": "address"
        }
      ],
      "stateMutability": "view",
      "type": "function"
    },
    {
      "inputs": [],
      "name": "owner",
      "outputs": [
        {
          "internalType": "address",
          "name": "",
          "type": "address"
        }
      ],
      "stateMutability": "view",
      "type": "function"
    },
    {
      "inputs": [],
      "name": "renounceOwnership",
      "outputs": [],
      "stateMutability": "nonpayable",
      "type": "function"
    },
    {
      "inputs": [
        {
          "internalType": "uint256",
          "name": "amount",
          "type": "uint256"
        }
      ],
      "name": "repayMUSD",
      "outputs": [],
      "stateMutability": "nonpayable",
      "type": "function"
    },
    {
      "inputs": [],
      "name": "totalBorrowed",
      "outputs": [
        {
          "internalType": "uint256",
          "name": "",
          "type": "uint256"
        }
      ],
      "stateMutability": "view",
      "type": "function"
    },
    {
      "inputs": [],
      "name": "totalCollateral",
      "outputs": [
        {
          "internalType": "uint256",
          "name": "",
          "type": "uint256"
        }
      ],
      "stateMutability": "view",
      "type": "function"
    },
    {
      "inputs": [
        {
          "internalType": "address",
          "name": "newOwner",
          "type": "address"
        }
      ],
      "name": "transferOwnership",
      "outputs": [],
      "stateMutability": "nonpayable",
      "type": "function"
    },
    {
      "inputs": [
        {
          "internalType": "address",
          "name": "",
          "type": "address"
        }
      ],
      "name": "vaults",
      "outputs": [
        {
          "internalType": "uint256",
          "name": "collateralAmount",
          "type": "uint256"
        },
        {
          "internalType": "uint256",
          "name": "borrowedAmount",
          "type": "uint256"
        },
        {
          "internalType": "uint256",
          "name": "lastUpdateTime",
          "type": "uint256"
        },
        {
          "internalType": "bool",
          "name": "exists",
          "type": "bool"
        }
      ],
      "stateMutability": "view",
      "type": "function"
    },
    {
      "inputs": [
        {
          "internalType": "uint256",
          "name": "amount",
          "type": "uint256"
        }
      ],
      "name": "withdrawCollateral",
      "outputs": [],
      "stateMutability": "nonpayable",
      "type": "function"
    },
    {
      "stateMutability": "payable",
      "type": "receive"
    }
  ],
  "bytecode": "0x60803460d657601f61125438819003918201601f19168301916001600160401b0383118484101760db5780849260209460405283398101031260d657516001600160a01b0381169081900360d6576001600055331560c05760018054336001600160a01b0319821681179092556040519291906001600160a01b03167f8be0079c531659141344cd1fd0a4f28419497f9722a3daafe3b4186f6b6457e0600080a3600280546001600160a01b03191691909117905561116290816100f28239f35b631e4fbdf760e01b600052600060045260246000fd5b600080fd5b634e487b7160e01b600052604160045260246000fdfe608080604052600436101561001d575b50361561001b57600080fd5b005b600090813560e01c908163154fefc214610b155750806315a3ba4314610ae457806317d8de8214610ab3578063211f0277146108a15780632703ee85146108645780634ac8eb5f146108465780634c19386c146108285780635257b5661461080c5780635b72a33a1461080c5780636112fe2e146106a8578063652f3a3f14610677578063715018a61461061a57806378f3ef22146104715780637a9fffb7146104555780638da5cb5b1461042c5780639d78d46b14610403578063a622ee7c1461039e578063b86ef1cc1461036d578063b9f2c7b51461032d578063bad4a01f1461023f578063db2e21bc146101ef578063f2fde38b1461015e5763fe6bcd7c0361000f573461015b57602036600319011261015b57600435906001600160a01b038216820361015b57602061015383610f9a565b604051908152f35b80fd5b503461015b57602036600319011261015b576004356001600160a01b038116908190036101eb5761018d611103565b80156101d757600180546001600160a01b0319811683179091556001600160a01b03167f8be0079c531659141344cd1fd0a4f28419497f9722a3daafe3b4186f6b6457e08380a380f35b631e4fbdf760e01b82526004829052602482fd5b5080fd5b503461015b578060031936011261015b57610208611103565b8080808060018060a01b03600154164790828215610236575bf11561022a5780f35b604051903d90823e3d90fd5b506108fc610221565b50602036600319011261015b5760043561025761102f565b610262811515610cce565b8034036102f1573382526003602052604082206003810160ff8154166102e3575b61028e838354610d5d565b8255600160ff198254161790556002429101556102ad81600454610d5d565b6004556040519081527fd7243f6f8212d5188fd054141cf6ea89cfc0d91facb8c3afe2f88a135848014260203392a26001815580f35b6102ec33611051565b610283565b60405162461bcd60e51b8152602060048201526014602482015273125b98dbdc9c9958dd0811551208185b5bdd5b9d60621b6044820152606490fd5b503461015b57602036600319011261015b576004356001600160a01b038116908190036101eb576040826001926020945260038452200154604051908152f35b503461015b57602036600319011261015b57600435906001600160a01b038216820361015b57602061015383610ef9565b503461015b57602036600319011261015b576004356001600160a01b038116908190036101eb57816040916080935260036020522080549060018101549060ff6003600283015492015416916040519384526020840152604083015215156060820152f35b503461015b578060031936011261015b576002546040516001600160a01b039091168152602090f35b503461015b578060031936011261015b576001546040516001600160a01b039091168152602090f35b503461015b578060031936011261015b576020604051606e8152f35b503461015b57602036600319011261015b5760043561048e61102f565b610499811515610cce565b33825260036020526001604083206104b760ff600383015416610d1a565b6104c033611051565b018054918281111561060f57506104d78280610e4e565b90556104e581600554610e4e565b6005556002546040516323b872dd60e01b815233600482015230602482015260448101839052906020908290606490829087906001600160a01b03165af18015610604576105cc575b5060025482906001600160a01b0316803b156101eb57604051632770a7eb60e21b8152306004820152602481018490529082908290604490829084905af180156105c1576105ac575b50506040519081527fd8e31e478118d9c8ea5f823945962d1e74951bdee736d578121095bff7d5501860203392a26001815580f35b816105b691610b63565b6101eb578138610577565b6040513d84823e3d90fd5b6020813d6020116105fc575b816105e560209383610b63565b810103126105f85751801515811461052e575b8280fd5b3d91506105d8565b6040513d85823e3d90fd5b6104d7908093610e4e565b503461015b578060031936011261015b57610633611103565b600180546001600160a01b0319811690915581906001600160a01b03167f8be0079c531659141344cd1fd0a4f28419497f9722a3daafe3b4186f6b6457e08280a380f35b503461015b57602036600319011261015b57600435906001600160a01b038216820361015b57602061015383610e5b565b503461015b57602036600319011261015b576004356106c561102f565b8181156106d28115610cce565b3382526003602052604082206106ee60ff600383015416610d1a565b6106f733611051565b83815461070682821015610d6a565b60018301548061078d575b509061071c91610e4e565b905561072a83600454610e4e565b600455828291610783575b8280929181923390f115610776576040519081527fc30fcfbcaac9e0deffa719714eaa82396ff506a0d0d0eebe170830177288715d60203392a26001815580f35b50604051903d90823e3d90fd5b6108fc9150610735565b90945061079d6107a29286610e4e565b6110ba565b156107b05783859338610711565b60405162461bcd60e51b815260206004820152602e60248201527f496e73756666696369656e7420636f6c6c61746572616c20726174696f20616660448201526d1d195c881dda5d1a191c985dd85b60921b6064820152608490fd5b503461015b578060031936011261015b57602060405160fa8152f35b503461015b578060031936011261015b576020600554604051908152f35b503461015b578060031936011261015b576020600454604051908152f35b503461015b57602036600319011261015b576004356001600160a01b038116908190036101eb578160409160209352600383522054604051908152f35b503461015b57602036600319011261015b576004356108be61102f565b6108c9811515610cce565b3382526003602052604082206108e560ff600383015416610d1a565b6108ee33611051565b6001810161091061090b610903858454610d5d565b8094546110ba565b610d6a565b5561091d81600554610d5d565b6005556002546001600160a01b0316803b156105f8576040516340c10f1960e01b8152336004820152602481018390529083908290604490829084905af19081610a9f575b50610a6c57508060033d11610a5b575b506308c379a0146109c3575b60405162461bcd60e51b815260206004820152601d60248201527f4d696e74696e67206661696c65643a20556e6b6e6f776e206572726f720000006044820152606490fd5b6109cb610db6565b806109d6575061097e565b6044610a4d9160405190610a2560308360208101936f026b4b73a34b733903330b4b632b21d160851b8552610a148151809260208686019101610e2b565b81010301601f198101845283610b63565b60405193849262461bcd60e51b84526020600485015251809281602486015285850190610e2b565b601f01601f19168101030190fd5b9050600481803e5160e01c38610972565b6040519081527f20da8f6e39cc42d87e1a570c1a21fe80e2882e71d765e5543d17a0756449527860203392a26001815580f35b83610aac91949294610b63565b9138610962565b503461015b57602036600319011261015b57600435906001600160a01b038216820361015b57602061015383610c60565b503461015b57602036600319011261015b57600435906001600160a01b038216820361015b57602061015383610bce565b9050346101eb57816003193601126101eb578061c35060209252f35b6080810190811067ffffffffffffffff821117610b4d57604052565b634e487b7160e01b600052604160045260246000fd5b90601f8019910116810190811067ffffffffffffffff821117610b4d57604052565b81810292918115918404141715610b9857565b634e487b7160e01b600052601160045260246000fd5b8115610bb8570490565b634e487b7160e01b600052601260045260246000fd5b60018060a01b031660005260036020526040600020604051610bef81610b31565b815490818152600183015490606060ff6003602084019685885260028101546040860152015416151591015215610c595761c35081029080820461c3501481151715610b9857631dcd650002908082046127101490151715610b9857610c56915190610bae565b90565b5050600090565b60018060a01b03166000526003602052604060002060405190610c8282610b31565b805480835260ff6003600184015493846020870152600281015460408701520154161515606084015215610c5957606e810290808204606e1490151715610b9857610c56915190610bae565b15610cd557565b60405162461bcd60e51b815260206004820152601d60248201527f416d6f756e74206d7573742062652067726561746572207468616e20300000006044820152606490fd5b15610d2157565b60405162461bcd60e51b815260206004820152601460248201527315985d5b1d08191bd95cc81b9bdd08195e1a5cdd60621b6044820152606490fd5b91908201809211610b9857565b15610d7157565b60405162461bcd60e51b815260206004820152601760248201527f496e73756666696369656e7420636f6c6c61746572616c0000000000000000006044820152606490fd5b600060443d10610c56576040513d600319016004823e8051913d602484011167ffffffffffffffff841117610e25578282019283519167ffffffffffffffff8311610e1d573d84016003190185840160200111610e1d5750610c5692910160200190610b63565b949350505050565b92915050565b60005b838110610e3e5750506000910152565b8181015183820152602001610e2e565b91908203918211610b9857565b60018060a01b03166000526003602052604060002060405190610e7d82610b31565b805480835260ff6003600184015493846020870152600281015460408701520154161580159081606086015290610ef1575b610ee9578115610ee3575080606e0290606e820403610b9857631dcd6500900490519080821115610c5957610c5691610e4e565b91505090565b505050600090565b508015610eaf565b60018060a01b03166000526003602052604060002060405190610f1b82610b31565b8054825260606001820154602084019381855260ff600360028601549586604085015201541615908115938491015291610f91575b50610c5957610f5f9042610e4e565b9080519160fa83029280840460fa1490151715610b9857610f8964496cebb80091610c5694610b85565b049051610d5d565b90501538610f50565b6040516315a3ba4360e01b81526001600160a01b039091166004820152602081602481305afa90811561102357600091610ff1575b508015610feb5760648102908104606403610b9857606e900490565b50600090565b906020823d60201161101b575b8161100b60209383610b63565b8101031261015b57505138610fcf565b3d9150610ffe565b6040513d6000823e3d90fd5b600260005414611040576002600055565b633ee5aeb560e01b60005260046000fd5b6001600160a01b031660009081526003602052604090206001810180549182156110b55760020191611084835442610e4e565b9060fa81029181830460fa03610b98576110a764496cebb800916110ae94610b85565b0490610d5d565b9055429055565b505050565b81156110fc5761c35081029080820461c3501481151715610b9857631dcd650002908082046127101490151715610b9857606e916110f791610bae565b101590565b5050600190565b6001546001600160a01b0316330361111757565b63118cdaa760e01b6000523360045260246000fdfea264697066735822122043afd1c708a1489a0ed9b50e50b668dc86db8403aabba0b8d02920e98295fd7664736f6c634300081c0033",
  "linkReferences": {},
  "deployedLinkReferences": {}
}