{
  "_format": "hh-sol-artifact-1",
  "contractName": "MezoVaultContract",
  "sourceName": "contracts/MezoVaultContract.sol",
  "abi": [
    {
      "inputs": [
        {
          "internalType": "address",
          "name": "_musdToken",
          "type": "address"
        }
      ],
      "stateMutability": "nonpayable",
      "type": "constructor"
    },
    {
      "inputs": [
        {
          "internalType": "address",
          "name": "owner",
          "type": "address"
        }
      ],
      "name": "OwnableInvalidOwner",
      "type": "error"
    },
    {
      "inputs": [
        {
          "internalType": "address",
          "name": "account",
          "type": "address"
        }
      ],
      "name": "OwnableUnauthorizedAccount",
      "type": "error"
    },
    {
      "inputs": [],
      "name": "ReentrancyGuardReentrantCall",
      "type": "error"
    },
    {
      "anonymous": false,
      "inputs": [
        {
          "indexed": true,
          "internalType": "address",
          "name": "user",
          "type": "address"
        },
        {
          "indexed": false,
          "internalType": "uint256",
          "name": "amount",
          "type": "uint256"
        }
      ],
      "name": "CollateralDeposited",
      "type": "event"
    },
    {
      "anonymous": false,
      "inputs": [
        {
          "indexed": true,
          "internalType": "address",
          "name": "user",
          "type": "address"
        },
        {
          "indexed": false,
          "internalType": "uint256",
          "name": "amount",
          "type": "uint256"
        }
      ],
      "name": "CollateralWithdrawn",
      "type": "event"
    },
    {
      "anonymous": false,
      "inputs": [
        {
          "indexed": true,
          "internalType": "address",
          "name": "user",
          "type": "address"
        },
        {
          "indexed": false,
          "internalType": "uint256",
          "name": "amount",
          "type": "uint256"
        }
      ],
      "name": "MUSDBorrowed",
      "type": "event"
    },
    {
      "anonymous": false,
      "inputs": [
        {
          "indexed": true,
          "internalType": "address",
          "name": "user",
          "type": "address"
        },
        {
          "indexed": false,
          "internalType": "uint256",
          "name": "amount",
          "type": "uint256"
        }
      ],
      "name": "MUSDRepaid",
      "type": "event"
    },
    {
      "anonymous": false,
      "inputs": [
        {
          "indexed": true,
          "internalType": "address",
          "name": "previousOwner",
          "type": "address"
        },
        {
          "indexed": true,
          "internalType": "address",
          "name": "newOwner",
          "type": "address"
        }
      ],
      "name": "OwnershipTransferred",
      "type": "event"
    },
    {
      "anonymous": false,
      "inputs": [
        {
          "indexed": true,
          "internalType": "address",
          "name": "user",
          "type": "address"
        },
        {
          "indexed": false,
          "internalType": "uint256",
          "name": "collateralAmount",
          "type": "uint256"
        },
        {
          "indexed": false,
          "internalType": "uint256",
          "name": "debtAmount",
          "type": "uint256"
        }
      ],
      "name": "VaultLiquidated",
      "type": "event"
    },
    {
      "inputs": [],
      "name": "BTC_PRICE_USD",
      "outputs": [
        {
          "internalType": "uint256",
          "name": "",
          "type": "uint256"
        }
      ],
      "stateMutability": "view",
      "type": "function"
    },
    {
      "inputs": [],
      "name": "INTEREST_RATE",
      "outputs": [
        {
          "internalType": "uint256",
          "name": "",
          "type": "uint256"
        }
      ],
      "stateMutability": "view",
      "type": "function"
    },
    {
      "inputs": [],
      "name": "MIN_COLLATERAL_RATIO",
      "outputs": [
        {
          "internalType": "uint256",
          "name": "",
          "type": "uint256"
        }
      ],
      "stateMutability": "view",
      "type": "function"
    },
    {
      "inputs": [
        {
          "internalType": "uint256",
          "name": "amount",
          "type": "uint256"
        }
      ],
      "name": "borrowMUSD",
      "outputs": [],
      "stateMutability": "nonpayable",
      "type": "function"
    },
    {
      "inputs": [
        {
          "internalType": "uint256",
          "name": "amount",
          "type": "uint256"
        }
      ],
      "name": "depositCollateral",
      "outputs": [],
      "stateMutability": "payable",
      "type": "function"
    },
    {
      "inputs": [],
      "name": "emergencyWithdraw",
      "outputs": [],
      "stateMutability": "nonpayable",
      "type": "function"
    },
    {
      "inputs": [
        {
          "internalType": "address",
          "name": "user",
          "type": "address"
        }
      ],
      "name": "getBorrowedAmount",
      "outputs": [
        {
          "internalType": "uint256",
          "name": "",
          "type": "uint256"
        }
      ],
      "stateMutability": "view",
      "type": "function"
    },
    {
      "inputs": [
        {
          "internalType": "address",
          "name": "user",
          "type": "address"
        }
      ],
      "name": "getCollateralBalance",
      "outputs": [
        {
          "internalType": "uint256",
          "name": "",
          "type": "uint256"
        }
      ],
      "stateMutability": "view",
      "type": "function"
    },
    {
      "inputs": [
        {
          "internalType": "address",
          "name": "user",
          "type": "address"
        }
      ],
      "name": "getCollateralRatio",
      "outputs": [
        {
          "internalType": "uint256",
          "name": "",
          "type": "uint256"
        }
      ],
      "stateMutability": "view",
      "type": "function"
    },
    {
      "inputs": [
        {
          "internalType": "address",
          "name": "user",
          "type": "address"
        }
      ],
      "name": "getHealthFactor",
      "outputs": [
        {
          "internalType": "uint256",
          "name": "",
          "type": "uint256"
        }
      ],
      "stateMutability": "view",
      "type": "function"
    },
    {
      "inputs": [],
      "name": "getInterestRate",
      "outputs": [
        {
          "internalType": "uint256",
          "name": "",
          "type": "uint256"
        }
      ],
      "stateMutability": "pure",
      "type": "function"
    },
    {
      "inputs": [
        {
          "internalType": "address",
          "name": "user",
          "type": "address"
        }
      ],
      "name": "getLiquidationPrice",
      "outputs": [
        {
          "internalType": "uint256",
          "name": "",
          "type": "uint256"
        }
      ],
      "stateMutability": "view",
      "type": "function"
    },
    {
      "inputs": [],
      "name": "musdToken",
      "outputs": [
        {
          "internalType": "address",
          "name": "",
          "type": "address"
        }
      ],
      "stateMutability": "view",
      "type": "function"
    },
    {
      "inputs": [],
      "name": "owner",
      "outputs": [
        {
          "internalType": "address",
          "name": "",
          "type": "address"
        }
      ],
      "stateMutability": "view",
      "type": "function"
    },
    {
      "inputs": [],
      "name": "renounceOwnership",
      "outputs": [],
      "stateMutability": "nonpayable",
      "type": "function"
    },
    {
      "inputs": [
        {
          "internalType": "uint256",
          "name": "amount",
          "type": "uint256"
        }
      ],
      "name": "repayMUSD",
      "outputs": [],
      "stateMutability": "nonpayable",
      "type": "function"
    },
    {
      "inputs": [],
      "name": "totalBorrowed",
      "outputs": [
        {
          "internalType": "uint256",
          "name": "",
          "type": "uint256"
        }
      ],
      "stateMutability": "view",
      "type": "function"
    },
    {
      "inputs": [],
      "name": "totalCollateral",
      "outputs": [
        {
          "internalType": "uint256",
          "name": "",
          "type": "uint256"
        }
      ],
      "stateMutability": "view",
      "type": "function"
    },
    {
      "inputs": [
        {
          "internalType": "address",
          "name": "newOwner",
          "type": "address"
        }
      ],
      "name": "transferOwnership",
      "outputs": [],
      "stateMutability": "nonpayable",
      "type": "function"
    },
    {
      "inputs": [
        {
          "internalType": "address",
          "name": "",
          "type": "address"
        }
      ],
      "name": "vaults",
      "outputs": [
        {
          "internalType": "uint256",
          "name": "collateralAmount",
          "type": "uint256"
        },
        {
          "internalType": "uint256",
          "name": "borrowedAmount",
          "type": "uint256"
        },
        {
          "internalType": "uint256",
          "name": "lastUpdateTime",
          "type": "uint256"
        },
        {
          "internalType": "bool",
          "name": "exists",
          "type": "bool"
        }
      ],
      "stateMutability": "view",
      "type": "function"
    },
    {
      "inputs": [
        {
          "internalType": "uint256",
          "name": "amount",
          "type": "uint256"
        }
      ],
      "name": "withdrawCollateral",
      "outputs": [],
      "stateMutability": "nonpayable",
      "type": "function"
    },
    {
      "stateMutability": "payable",
      "type": "receive"
    }
  ],
  "bytecode": "0x608060405234801561001057600080fd5b506040516110c83803806110c883398101604081905261002f916100db565b6001600055338061005a57604051631e4fbdf760e01b81526000600482015260240160405180910390fd5b61006381610089565b50600280546001600160a01b0319166001600160a01b039290921691909117905561010b565b600180546001600160a01b038381166001600160a01b0319831681179093556040519116919082907f8be0079c531659141344cd1fd0a4f28419497f9722a3daafe3b4186f6b6457e090600090a35050565b6000602082840312156100ed57600080fd5b81516001600160a01b038116811461010457600080fd5b9392505050565b610fae8061011a6000396000f3fe60806040526004361061012e5760003560e01c8063715018a6116100ab578063a622ee7c1161006f578063a622ee7c1461030c578063b9f2c7b514610375578063bad4a01f146103ae578063db2e21bc146103c1578063f2fde38b146103d6578063fe6bcd7c146103f657600080fd5b8063715018a61461027057806378f3ef22146102855780637a9fffb7146102a55780638da5cb5b146102ba5780639d78d46b146102ec57600080fd5b80634ac8eb5f116100f25780634ac8eb5f146101fb5780634c19386c146102115780635257b566146102275780635b72a33a1461023b5780636112fe2e1461025057600080fd5b8063154fefc21461013a57806315a3ba431461016357806317d8de8214610183578063211f0277146101a35780632703ee85146101c557600080fd5b3661013557005b600080fd5b34801561014657600080fd5b5061015061c35081565b6040519081526020015b60405180910390f35b34801561016f57600080fd5b5061015061017e366004610e21565b610416565b34801561018f57600080fd5b5061015061019e366004610e21565b6104be565b3480156101af57600080fd5b506101c36101be366004610e4a565b61053f565b005b3480156101d157600080fd5b506101506101e0366004610e21565b6001600160a01b031660009081526003602052604090205490565b34801561020757600080fd5b5061015060045481565b34801561021d57600080fd5b5061015060055481565b34801561023357600080fd5b5060fa610150565b34801561024757600080fd5b5061015060fa81565b34801561025c57600080fd5b506101c361026b366004610e4a565b6106df565b34801561027c57600080fd5b506101c3610888565b34801561029157600080fd5b506101c36102a0366004610e4a565b61089c565b3480156102b157600080fd5b50610150606e81565b3480156102c657600080fd5b506001546001600160a01b03165b6040516001600160a01b03909116815260200161015a565b3480156102f857600080fd5b506002546102d4906001600160a01b031681565b34801561031857600080fd5b50610353610327366004610e21565b600360208190526000918252604090912080546001820154600283015492909301549092919060ff1684565b604080519485526020850193909352918301521515606082015260800161015a565b34801561038157600080fd5b50610150610390366004610e21565b6001600160a01b031660009081526003602052604090206001015490565b6101c36103bc366004610e4a565b610a61565b3480156103cd57600080fd5b506101c3610b7e565b3480156103e257600080fd5b506101c36103f1366004610e21565b610bbf565b34801561040257600080fd5b50610150610411366004610e21565b610bfa565b6001600160a01b038116600090815260036020818152604080842081516080810183528154815260018201549381018490526002820154928101929092529092015460ff161515606083015282036104715750600092915050565b6000670de0b6b3a764000061c350836000015161048e9190610e79565b6104989190610e90565b60208301519091506104ac82612710610e79565b6104b69190610e90565b949350505050565b6001600160a01b0381166000908152600360208181526040808420815160808101835281548082526001830154948201949094526002820154928101929092529092015460ff1615156060830152820361051b5750600092915050565b8051602082015161052e90606e90610e79565b6105389190610e90565b9392505050565b610547610c87565b600081116105705760405162461bcd60e51b815260040161056790610eb2565b60405180910390fd5b3360009081526003602081905260409091209081015460ff166105a55760405162461bcd60e51b815260040161056790610ee9565b6105ae33610cb1565b60008282600101546105c09190610f17565b90506105d0826000015482610d45565b6106165760405162461bcd60e51b8152602060048201526017602482015276125b9cdd59999a58da595b9d0818dbdb1b185d195c985b604a1b6044820152606401610567565b80826001018190555082600560008282546106319190610f17565b90915550506002546040516340c10f1960e01b8152336004820152602481018590526001600160a01b03909116906340c10f1990604401600060405180830381600087803b15801561068257600080fd5b505af1158015610696573d6000803e3d6000fd5b50506040518581523392507f20da8f6e39cc42d87e1a570c1a21fe80e2882e71d765e5543d17a0756449527891506020015b60405180910390a250506106dc6001600055565b50565b6106e7610c87565b600081116107075760405162461bcd60e51b815260040161056790610eb2565b3360009081526003602081905260409091209081015460ff1661073c5760405162461bcd60e51b815260040161056790610ee9565b61074533610cb1565b8054600090610755908490610f2a565b90506001820154156107c05761076f818360010154610d45565b6107bb5760405162461bcd60e51b815260206004820152601d60248201527f496e73756666696369656e7420636f6c6c61746572616c20726174696f0000006044820152606401610567565b61080b565b815483111561080b5760405162461bcd60e51b8152602060048201526017602482015276125b9cdd59999a58da595b9d0818dbdb1b185d195c985b604a1b6044820152606401610567565b80825560048054849190600090610823908490610f2a565b9091555050604051339084156108fc029085906000818181858888f19350505050158015610855573d6000803e3d6000fd5b5060405183815233907fc30fcfbcaac9e0deffa719714eaa82396ff506a0d0d0eebe170830177288715d906020016106c8565b610890610da2565b61089a6000610dcf565b565b6108a4610c87565b600081116108c45760405162461bcd60e51b815260040161056790610eb2565b3360009081526003602081905260409091209081015460ff166108f95760405162461bcd60e51b815260040161056790610ee9565b61090233610cb1565b600081600101548311610915578261091b565b81600101545b9050808260010160008282546109319190610f2a565b92505081905550806005600082825461094a9190610f2a565b90915550506002546040516323b872dd60e01b8152336004820152306024820152604481018390526001600160a01b03909116906323b872dd906064016020604051808303816000875af11580156109a6573d6000803e3d6000fd5b505050506040513d601f19601f820116820180604052508101906109ca9190610f3d565b50600254604051632770a7eb60e21b8152306004820152602481018390526001600160a01b0390911690639dc29fac90604401600060405180830381600087803b158015610a1757600080fd5b505af1158015610a2b573d6000803e3d6000fd5b50506040518381523392507fd8e31e478118d9c8ea5f823945962d1e74951bdee736d578121095bff7d5501891506020016106c8565b610a69610c87565b60008111610a895760405162461bcd60e51b815260040161056790610eb2565b803414610acf5760405162461bcd60e51b8152602060048201526014602482015273125b98dbdc9c9958dd0811551208185b5bdd5b9d60621b6044820152606401610567565b3360009081526003602081905260409091209081015460ff1615610af657610af633610cb1565b81816000016000828254610b0a9190610f17565b909155505060038101805460ff1916600117905542600282015560048054839190600090610b39908490610f17565b909155505060405182815233907fd7243f6f8212d5188fd054141cf6ea89cfc0d91facb8c3afe2f88a13584801429060200160405180910390a2506106dc6001600055565b610b86610da2565b6001546040516001600160a01b03909116904780156108fc02916000818181858888f193505050501580156106dc573d6000803e3d6000fd5b610bc7610da2565b6001600160a01b038116610bf157604051631e4fbdf760e01b815260006004820152602401610567565b6106dc81610dcf565b6040516315a3ba4360e01b81526001600160a01b0382166004820152600090819030906315a3ba4390602401602060405180830381865afa158015610c43573d6000803e3d6000fd5b505050506040513d601f19601f82011682018060405250810190610c679190610f5f565b905080600003610c7a5750600092915050565b606e61052e826064610e79565b600260005403610caa57604051633ee5aeb560e01b815260040160405180910390fd5b6002600055565b6001600160a01b03811660009081526003602052604081206001810154909103610cd9575050565b6000816002015442610ceb9190610f2a565b9050600064496cebb8008260fa8560010154610d079190610e79565b610d119190610e79565b610d1b9190610e90565b905080836001016000828254610d319190610f17565b909155505042600290930192909255505050565b600081600003610d5757506001610d9c565b6000670de0b6b3a7640000610d6e61c35086610e79565b610d789190610e90565b9050600083610d8983612710610e79565b610d939190610e90565b606e1115925050505b92915050565b6001546001600160a01b0316331461089a5760405163118cdaa760e01b8152336004820152602401610567565b600180546001600160a01b038381166001600160a01b0319831681179093556040519116919082907f8be0079c531659141344cd1fd0a4f28419497f9722a3daafe3b4186f6b6457e090600090a35050565b600060208284031215610e3357600080fd5b81356001600160a01b038116811461053857600080fd5b600060208284031215610e5c57600080fd5b5035919050565b634e487b7160e01b600052601160045260246000fd5b8082028115828204841417610d9c57610d9c610e63565b600082610ead57634e487b7160e01b600052601260045260246000fd5b500490565b6020808252601d908201527f416d6f756e74206d7573742062652067726561746572207468616e2030000000604082015260600190565b60208082526014908201527315985d5b1d08191bd95cc81b9bdd08195e1a5cdd60621b604082015260600190565b80820180821115610d9c57610d9c610e63565b81810381811115610d9c57610d9c610e63565b600060208284031215610f4f57600080fd5b8151801515811461053857600080fd5b600060208284031215610f7157600080fd5b505191905056fea26469706673582212200e5378bcebe99c97f65839d705336bd0a243961420c4759f4d8dd3f2941736dc64736f6c634300081c0033",
  "linkReferences": {},
  "deployedLinkReferences": {}
}