{
  "_format": "hh-sol-artifact-1",
  "contractName": "InvoiceContract",
  "sourceName": "contracts/InvoiceContract.sol",
  "abi": [
    {
      "anonymous": false,
      "inputs": [
        {
          "indexed": true,
          "internalType": "uint256",
          "name": "id",
          "type": "uint256"
        },
        {
          "indexed": true,
          "internalType": "address",
          "name": "recipient",
          "type": "address"
        },
        {
          "indexed": false,
          "internalType": "uint256",
          "name": "amount",
          "type": "uint256"
        }
      ],
      "name": "InvoiceCreated",
      "type": "event"
    },
    {
      "anonymous": false,
      "inputs": [
        {
          "indexed": true,
          "internalType": "uint256",
          "name": "id",
          "type": "uint256"
        },
        {
          "indexed": false,
          "internalType": "uint256",
          "name": "amount",
          "type": "uint256"
        }
      ],
      "name": "InvoicePaid",
      "type": "event"
    },
    {
      "inputs": [
        {
          "internalType": "address payable",
          "name": "_recipient",
          "type": "address"
        },
        {
          "internalType": "uint256",
          "name": "_amount",
          "type": "uint256"
        },
        {
          "internalType": "string",
          "name": "_description",
          "type": "string"
        }
      ],
      "name": "createInvoice",
      "outputs": [
        {
          "internalType": "uint256",
          "name": "",
          "type": "uint256"
        }
      ],
      "stateMutability": "nonpayable",
      "type": "function"
    },
    {
      "inputs": [
        {
          "internalType": "uint256",
          "name": "_id",
          "type": "uint256"
        }
      ],
      "name": "getInvoice",
      "outputs": [
        {
          "components": [
            {
              "internalType": "uint256",
              "name": "id",
              "type": "uint256"
            },
            {
              "internalType": "address payable",
              "name": "recipient",
              "type": "address"
            },
            {
              "internalType": "uint256",
              "name": "amount",
              "type": "uint256"
            },
            {
              "internalType": "string",
              "name": "description",
              "type": "string"
            },
            {
              "internalType": "bool",
              "name": "paid",
              "type": "bool"
            },
            {
              "internalType": "uint256",
              "name": "createdAt",
              "type": "uint256"
            }
          ],
          "internalType": "struct InvoiceContract.Invoice",
          "name": "",
          "type": "tuple"
        }
      ],
      "stateMutability": "view",
      "type": "function"
    },
    {
      "inputs": [],
      "name": "invoiceCount",
      "outputs": [
        {
          "internalType": "uint256",
          "name": "",
          "type": "uint256"
        }
      ],
      "stateMutability": "view",
      "type": "function"
    },
    {
      "inputs": [
        {
          "internalType": "uint256",
          "name": "",
          "type": "uint256"
        }
      ],
      "name": "invoices",
      "outputs": [
        {
          "internalType": "uint256",
          "name": "id",
          "type": "uint256"
        },
        {
          "internalType": "address payable",
          "name": "recipient",
          "type": "address"
        },
        {
          "internalType": "uint256",
          "name": "amount",
          "type": "uint256"
        },
        {
          "internalType": "string",
          "name": "description",
          "type": "string"
        },
        {
          "internalType": "bool",
          "name": "paid",
          "type": "bool"
        },
        {
          "internalType": "uint256",
          "name": "createdAt",
          "type": "uint256"
        }
      ],
      "stateMutability": "view",
      "type": "function"
    },
    {
      "inputs": [
        {
          "internalType": "uint256",
          "name": "_id",
          "type": "uint256"
        }
      ],
      "name": "payInvoice",
      "outputs": [],
      "stateMutability": "payable",
      "type": "function"
    }
  ],
  "bytecode": "0x6080604052348015600f57600080fd5b506109c68061001f6000396000f3fe60806040526004361061004a5760003560e01c80631346f0c41461004f5780631494ff97146100785780633a23cc0a146100985780634e6d1405146100c5578063ac60a6cd146100f7575b600080fd5b34801561005b57600080fd5b5061006560015481565b6040519081526020015b60405180910390f35b34801561008457600080fd5b5061006561009336600461063b565b61010c565b3480156100a457600080fd5b506100b86100b336600461071c565b610219565b60405161006f919061077b565b3480156100d157600080fd5b506100e56100e036600461071c565b6103ac565b60405161006f969594939291906107df565b61010a61010536600461071c565b610479565b005b600180546000918261011d83610821565b90915550506040805160c081018252600180548083526001600160a01b0388811660208086019182528587018a8152606087018a81526000608089018190524260a08a0152958652918590529690932085518155905193810180546001600160a01b0319169490921693909317905592516002820155915190919060038201906101a790826108d1565b50608082015160048201805460ff191691151591909117905560a0909101516005909101556001546040518481526001600160a01b03861691907f4e27a303d25b2e40e99bc657bbe98e016a53a2ac1696a9a7d3cd6719cad518fa9060200160405180910390a3506001549392505050565b61025d6040518060c001604052806000815260200160006001600160a01b031681526020016000815260200160608152602001600015158152602001600081525090565b60008211801561026f57506001548211155b6102b55760405162461bcd60e51b8152602060048201526012602482015271125b9d985b1a59081a5b9d9bda58d948125160721b60448201526064015b60405180910390fd5b60008281526020818152604091829020825160c0810184528154815260018201546001600160a01b03169281019290925260028101549282019290925260038201805491929160608401919061030a90610848565b80601f016020809104026020016040519081016040528092919081815260200182805461033690610848565b80156103835780601f1061035857610100808354040283529160200191610383565b820191906000526020600020905b81548152906001019060200180831161036657829003601f168201915b5050509183525050600482015460ff161515602082015260059091015460409091015292915050565b600060208190529081526040902080546001820154600283015460038401805493946001600160a01b03909316939192916103e690610848565b80601f016020809104026020016040519081016040528092919081815260200182805461041290610848565b801561045f5780601f106104345761010080835404028352916020019161045f565b820191906000526020600020905b81548152906001019060200180831161044257829003601f168201915b505050506004830154600590930154919260ff1691905086565b60008111801561048b57506001548111155b6104cc5760405162461bcd60e51b8152602060048201526012602482015271125b9d985b1a59081a5b9d9bda58d948125160721b60448201526064016102ac565b60008181526020819052604090206004015460ff16156105255760405162461bcd60e51b8152602060048201526014602482015273125b9d9bda58d948185b1c9958591e481c185a5960621b60448201526064016102ac565b60008181526020819052604090206002015434101561057d5760405162461bcd60e51b8152602060048201526014602482015273125b9cdd59999a58da595b9d081c185e5b595b9d60621b60448201526064016102ac565b60008181526020819052604080822060048101805460ff1916600190811790915581015460029091015491516001600160a01b039091169282156108fc02929190818181858888f193505050501580156105db573d6000803e3d6000fd5b506000818152602081815260409182902060020154915191825282917f39f50c97c960bc24fff7b795fcb02c20edf14e9ac6efff94534865db30101190910160405180910390a250565b634e487b7160e01b600052604160045260246000fd5b60008060006060848603121561065057600080fd5b83356001600160a01b038116811461066757600080fd5b925060208401359150604084013567ffffffffffffffff81111561068a57600080fd5b8401601f8101861361069b57600080fd5b803567ffffffffffffffff8111156106b5576106b5610625565b604051601f8201601f19908116603f0116810167ffffffffffffffff811182821017156106e4576106e4610625565b6040528181528282016020018810156106fc57600080fd5b816020840160208301376000602083830101528093505050509250925092565b60006020828403121561072e57600080fd5b5035919050565b6000815180845260005b8181101561075b5760208185018101518683018201520161073f565b506000602082860101526020601f19601f83011685010191505092915050565b602081528151602082015260018060a01b036020830151166040820152604082015160608201526000606083015160c060808401526107bd60e0840182610735565b90506080840151151560a084015260a084015160c08401528091505092915050565b86815260018060a01b038616602082015284604082015260c06060820152600061080c60c0830186610735565b93151560808301525060a00152949350505050565b60006001820161084157634e487b7160e01b600052601160045260246000fd5b5060010190565b600181811c9082168061085c57607f821691505b60208210810361087c57634e487b7160e01b600052602260045260246000fd5b50919050565b601f8211156108cc57806000526020600020601f840160051c810160208510156108a95750805b601f840160051c820191505b818110156108c957600081556001016108b5565b50505b505050565b815167ffffffffffffffff8111156108eb576108eb610625565b6108ff816108f98454610848565b84610882565b6020601f821160018114610933576000831561091b5750848201515b600019600385901b1c1916600184901b1784556108c9565b600084815260208120601f198516915b828110156109635787850151825560209485019460019092019101610943565b50848210156109815786840151600019600387901b60f8161c191681555b50505050600190811b0190555056fea264697066735822122018c56a15d6c2c42e48f0165e6b86964b3d297cd873e00d730e3628e7a44fd8f164736f6c634300081c0033",
  "linkReferences": {},
  "deployedLinkReferences": {}
}