{
  "_format": "hh-sol-artifact-1",
  "contractName": "InvoiceContract",
  "sourceName": "contracts/InvoiceContract.sol",
  "abi": [
    {
      "anonymous": false,
      "inputs": [
        {
          "indexed": true,
          "internalType": "uint256",
          "name": "id",
          "type": "uint256"
        },
        {
          "indexed": false,
          "internalType": "uint256",
          "name": "timestamp",
          "type": "uint256"
        }
      ],
      "name": "InvoiceCancelled",
      "type": "event"
    },
    {
      "anonymous": false,
      "inputs": [
        {
          "indexed": true,
          "internalType": "uint256",
          "name": "id",
          "type": "uint256"
        },
        {
          "indexed": true,
          "internalType": "address",
          "name": "creator",
          "type": "address"
        },
        {
          "indexed": true,
          "internalType": "address",
          "name": "recipient",
          "type": "address"
        },
        {
          "indexed": false,
          "internalType": "uint256",
          "name": "amount",
          "type": "uint256"
        },
        {
          "indexed": false,
          "internalType": "string",
          "name": "bitcoinAddress",
          "type": "string"
        },
        {
          "indexed": false,
          "internalType": "string",
          "name": "clientName",
          "type": "string"
        }
      ],
      "name": "InvoiceCreated",
      "type": "event"
    },
    {
      "anonymous": false,
      "inputs": [
        {
          "indexed": true,
          "internalType": "uint256",
          "name": "id",
          "type": "uint256"
        },
        {
          "indexed": false,
          "internalType": "uint256",
          "name": "amount",
          "type": "uint256"
        },
        {
          "indexed": false,
          "internalType": "uint256",
          "name": "timestamp",
          "type": "uint256"
        }
      ],
      "name": "InvoicePaid",
      "type": "event"
    },
    {
      "inputs": [
        {
          "internalType": "uint256",
          "name": "_id",
          "type": "uint256"
        }
      ],
      "name": "cancelInvoice",
      "outputs": [],
      "stateMutability": "nonpayable",
      "type": "function"
    },
    {
      "inputs": [
        {
          "internalType": "uint256",
          "name": "_id",
          "type": "uint256"
        }
      ],
      "name": "confirmPayment",
      "outputs": [],
      "stateMutability": "nonpayable",
      "type": "function"
    },
    {
      "inputs": [
        {
          "internalType": "address payable",
          "name": "_recipient",
          "type": "address"
        },
        {
          "internalType": "uint256",
          "name": "_amount",
          "type": "uint256"
        },
        {
          "internalType": "string",
          "name": "_description",
          "type": "string"
        },
        {
          "internalType": "string",
          "name": "_bitcoinAddress",
          "type": "string"
        },
        {
          "internalType": "string",
          "name": "_clientName",
          "type": "string"
        },
        {
          "internalType": "string",
          "name": "_clientCode",
          "type": "string"
        }
      ],
      "name": "createInvoice",
      "outputs": [
        {
          "internalType": "uint256",
          "name": "",
          "type": "uint256"
        }
      ],
      "stateMutability": "nonpayable",
      "type": "function"
    },
    {
      "inputs": [],
      "name": "getAllInvoices",
      "outputs": [
        {
          "components": [
            {
              "internalType": "uint256",
              "name": "id",
              "type": "uint256"
            },
            {
              "internalType": "address payable",
              "name": "creator",
              "type": "address"
            },
            {
              "internalType": "address payable",
              "name": "recipient",
              "type": "address"
            },
            {
              "internalType": "uint256",
              "name": "amount",
              "type": "uint256"
            },
            {
              "internalType": "string",
              "name": "description",
              "type": "string"
            },
            {
              "internalType": "string",
              "name": "bitcoinAddress",
              "type": "string"
            },
            {
              "internalType": "string",
              "name": "clientName",
              "type": "string"
            },
            {
              "internalType": "string",
              "name": "clientCode",
              "type": "string"
            },
            {
              "internalType": "bool",
              "name": "paid",
              "type": "bool"
            },
            {
              "internalType": "bool",
              "name": "cancelled",
              "type": "bool"
            },
            {
              "internalType": "uint256",
              "name": "createdAt",
              "type": "uint256"
            },
            {
              "internalType": "uint256",
              "name": "paidAt",
              "type": "uint256"
            }
          ],
          "internalType": "struct InvoiceContract.Invoice[]",
          "name": "",
          "type": "tuple[]"
        }
      ],
      "stateMutability": "view",
      "type": "function"
    },
    {
      "inputs": [
        {
          "internalType": "uint256",
          "name": "_id",
          "type": "uint256"
        }
      ],
      "name": "getInvoice",
      "outputs": [
        {
          "components": [
            {
              "internalType": "uint256",
              "name": "id",
              "type": "uint256"
            },
            {
              "internalType": "address payable",
              "name": "creator",
              "type": "address"
            },
            {
              "internalType": "address payable",
              "name": "recipient",
              "type": "address"
            },
            {
              "internalType": "uint256",
              "name": "amount",
              "type": "uint256"
            },
            {
              "internalType": "string",
              "name": "description",
              "type": "string"
            },
            {
              "internalType": "string",
              "name": "bitcoinAddress",
              "type": "string"
            },
            {
              "internalType": "string",
              "name": "clientName",
              "type": "string"
            },
            {
              "internalType": "string",
              "name": "clientCode",
              "type": "string"
            },
            {
              "internalType": "bool",
              "name": "paid",
              "type": "bool"
            },
            {
              "internalType": "bool",
              "name": "cancelled",
              "type": "bool"
            },
            {
              "internalType": "uint256",
              "name": "createdAt",
              "type": "uint256"
            },
            {
              "internalType": "uint256",
              "name": "paidAt",
              "type": "uint256"
            }
          ],
          "internalType": "struct InvoiceContract.Invoice",
          "name": "",
          "type": "tuple"
        }
      ],
      "stateMutability": "view",
      "type": "function"
    },
    {
      "inputs": [
        {
          "internalType": "bool",
          "name": "includePaid",
          "type": "bool"
        },
        {
          "internalType": "bool",
          "name": "includeCancelled",
          "type": "bool"
        }
      ],
      "name": "getInvoicesByStatus",
      "outputs": [
        {
          "internalType": "uint256[]",
          "name": "",
          "type": "uint256[]"
        }
      ],
      "stateMutability": "view",
      "type": "function"
    },
    {
      "inputs": [
        {
          "internalType": "address",
          "name": "_user",
          "type": "address"
        }
      ],
      "name": "getPaidInvoices",
      "outputs": [
        {
          "internalType": "uint256[]",
          "name": "",
          "type": "uint256[]"
        }
      ],
      "stateMutability": "view",
      "type": "function"
    },
    {
      "inputs": [
        {
          "internalType": "address",
          "name": "_user",
          "type": "address"
        }
      ],
      "name": "getPendingAmount",
      "outputs": [
        {
          "internalType": "uint256",
          "name": "",
          "type": "uint256"
        }
      ],
      "stateMutability": "view",
      "type": "function"
    },
    {
      "inputs": [
        {
          "internalType": "address",
          "name": "_user",
          "type": "address"
        }
      ],
      "name": "getPendingInvoices",
      "outputs": [
        {
          "internalType": "uint256[]",
          "name": "",
          "type": "uint256[]"
        }
      ],
      "stateMutability": "view",
      "type": "function"
    },
    {
      "inputs": [
        {
          "internalType": "address",
          "name": "_user",
          "type": "address"
        }
      ],
      "name": "getTotalRevenue",
      "outputs": [
        {
          "internalType": "uint256",
          "name": "",
          "type": "uint256"
        }
      ],
      "stateMutability": "view",
      "type": "function"
    },
    {
      "inputs": [
        {
          "internalType": "address",
          "name": "_user",
          "type": "address"
        }
      ],
      "name": "getUserInvoiceCount",
      "outputs": [
        {
          "internalType": "uint256",
          "name": "",
          "type": "uint256"
        }
      ],
      "stateMutability": "view",
      "type": "function"
    },
    {
      "inputs": [
        {
          "internalType": "address",
          "name": "_user",
          "type": "address"
        }
      ],
      "name": "getUserInvoices",
      "outputs": [
        {
          "internalType": "uint256[]",
          "name": "",
          "type": "uint256[]"
        }
      ],
      "stateMutability": "view",
      "type": "function"
    },
    {
      "inputs": [],
      "name": "invoiceCount",
      "outputs": [
        {
          "internalType": "uint256",
          "name": "",
          "type": "uint256"
        }
      ],
      "stateMutability": "view",
      "type": "function"
    },
    {
      "inputs": [
        {
          "internalType": "uint256",
          "name": "",
          "type": "uint256"
        }
      ],
      "name": "invoices",
      "outputs": [
        {
          "internalType": "uint256",
          "name": "id",
          "type": "uint256"
        },
        {
          "internalType": "address payable",
          "name": "creator",
          "type": "address"
        },
        {
          "internalType": "address payable",
          "name": "recipient",
          "type": "address"
        },
        {
          "internalType": "uint256",
          "name": "amount",
          "type": "uint256"
        },
        {
          "internalType": "string",
          "name": "description",
          "type": "string"
        },
        {
          "internalType": "string",
          "name": "bitcoinAddress",
          "type": "string"
        },
        {
          "internalType": "string",
          "name": "clientName",
          "type": "string"
        },
        {
          "internalType": "string",
          "name": "clientCode",
          "type": "string"
        },
        {
          "internalType": "bool",
          "name": "paid",
          "type": "bool"
        },
        {
          "internalType": "bool",
          "name": "cancelled",
          "type": "bool"
        },
        {
          "internalType": "uint256",
          "name": "createdAt",
          "type": "uint256"
        },
        {
          "internalType": "uint256",
          "name": "paidAt",
          "type": "uint256"
        }
      ],
      "stateMutability": "view",
      "type": "function"
    },
    {
      "inputs": [
        {
          "internalType": "address",
          "name": "",
          "type": "address"
        },
        {
          "internalType": "uint256",
          "name": "",
          "type": "uint256"
        }
      ],
      "name": "userInvoices",
      "outputs": [
        {
          "internalType": "uint256",
          "name": "",
          "type": "uint256"
        }
      ],
      "stateMutability": "view",
      "type": "function"
    }
  ],
  "bytecode": "0x6080604052348015600f57600080fd5b506121138061001f6000396000f3fe608060405234801561001057600080fd5b50600436106100f55760003560e01c80634e6d140511610097578063876ca09f11610066578063876ca09f1461021e57806396c579fa14610233578063da9c273d14610246578063e3f1a28d1461025957600080fd5b80634e6d1405146101b8578063570bdad6146101e357806373f578ff146101f85780637571af221461020b57600080fd5b806324d3b3e2116100d357806324d3b3e2146101525780632542a1f9146101725780633a23cc0a1461018557806349567e01146101a557600080fd5b80630ad6b0a5146100fa5780631346f0c41461012057806321e2a79114610129575b600080fd5b61010d6101083660046119f7565b61026c565b6040519081526020015b60405180910390f35b61010d60025481565b61010d610137366004611a23565b6001600160a01b031660009081526001602052604090205490565b610165610160366004611a23565b61029d565b6040516101179190611a47565b610165610180366004611a23565b610309565b610198610193366004611a7f565b6104b5565b6040516101179190611bdd565b61010d6101b3366004611a23565b6107cb565b6101cb6101c6366004611a7f565b6108c4565b6040516101179c9b9a99989796959493929190611bf0565b6101eb610b53565b6040516101179190611c99565b61010d610206366004611db3565b610ecb565b61010d610219366004611a23565b6110b4565b61023161022c366004611a7f565b6111eb565b005b610165610241366004611e9c565b6113b1565b610231610254366004611a7f565b611579565b610165610267366004611a23565b61173b565b6001602052816000526040600020818154811061028857600080fd5b90600052602060002001600091509150505481565b6001600160a01b0381166000908152600160209081526040918290208054835181840281018401909452808452606093928301828280156102fd57602002820191906000526020600020905b8154815260200190600101908083116102e9575b50505050509050919050565b6001600160a01b038116600090815260016020908152604080832080548251818502810185019093528083526060949383018282801561036857602002820191906000526020600020905b815481526020019060010190808311610354575b505050505090506000805b82518110156103cd5760008084838151811061039157610391611ecf565b60209081029190910181015182528101919091526040016000206008015460ff16156103c557816103c181611efb565b9250505b600101610373565b5060008167ffffffffffffffff8111156103e9576103e9611d0e565b604051908082528060200260200182016040528015610412578160200160208202803683370190505b5090506000805b84518110156104aa5760008086838151811061043757610437611ecf565b60209081029190910181015182528101919091526040016000206008015460ff16156104a25784818151811061046f5761046f611ecf565b602002602001015183838151811061048957610489611ecf565b60209081029190910101528161049e81611efb565b9250505b600101610419565b509095945050505050565b6104bd611968565b6000821180156104cf57506002548211155b6104f45760405162461bcd60e51b81526004016104eb90611f14565b60405180910390fd5b600082815260208181526040918290208251610180810184528154815260018201546001600160a01b03908116938201939093526002820154909216928201929092526003820154606082015260048201805491929160808401919061055990611f40565b80601f016020809104026020016040519081016040528092919081815260200182805461058590611f40565b80156105d25780601f106105a7576101008083540402835291602001916105d2565b820191906000526020600020905b8154815290600101906020018083116105b557829003601f168201915b505050505081526020016005820180546105eb90611f40565b80601f016020809104026020016040519081016040528092919081815260200182805461061790611f40565b80156106645780601f1061063957610100808354040283529160200191610664565b820191906000526020600020905b81548152906001019060200180831161064757829003601f168201915b5050505050815260200160068201805461067d90611f40565b80601f01602080910402602001604051908101604052809291908181526020018280546106a990611f40565b80156106f65780601f106106cb576101008083540402835291602001916106f6565b820191906000526020600020905b8154815290600101906020018083116106d957829003601f168201915b5050505050815260200160078201805461070f90611f40565b80601f016020809104026020016040519081016040528092919081815260200182805461073b90611f40565b80156107885780601f1061075d57610100808354040283529160200191610788565b820191906000526020600020905b81548152906001019060200180831161076b57829003601f168201915b5050509183525050600882015460ff80821615156020840152610100909104161515604082015260098201546060820152600a9091015460809091015292915050565b6001600160a01b03811660009081526001602090815260408083208054825181850281018501909352808352849383018282801561082857602002820191906000526020600020905b815481526020019060010190808311610814575b505050505090506000805b82518110156108bc5760008084838151811061085157610851611ecf565b60209081029190910181015182528101919091526040016000206008015460ff16156108b45760008084838151811061088c5761088c611ecf565b6020026020010151815260200190815260200160002060030154826108b19190611f74565b91505b600101610833565b509392505050565b6000602081905290815260409020805460018201546002830154600384015460048501805494956001600160a01b03948516959390941693919261090790611f40565b80601f016020809104026020016040519081016040528092919081815260200182805461093390611f40565b80156109805780601f1061095557610100808354040283529160200191610980565b820191906000526020600020905b81548152906001019060200180831161096357829003601f168201915b50505050509080600501805461099590611f40565b80601f01602080910402602001604051908101604052809291908181526020018280546109c190611f40565b8015610a0e5780601f106109e357610100808354040283529160200191610a0e565b820191906000526020600020905b8154815290600101906020018083116109f157829003601f168201915b505050505090806006018054610a2390611f40565b80601f0160208091040260200160405190810160405280929190818152602001828054610a4f90611f40565b8015610a9c5780601f10610a7157610100808354040283529160200191610a9c565b820191906000526020600020905b815481529060010190602001808311610a7f57829003601f168201915b505050505090806007018054610ab190611f40565b80601f0160208091040260200160405190810160405280929190818152602001828054610add90611f40565b8015610b2a5780601f10610aff57610100808354040283529160200191610b2a565b820191906000526020600020905b815481529060010190602001808311610b0d57829003601f168201915b50505060088401546009850154600a90950154939460ff8083169561010090930416935091508c565b6060600060025467ffffffffffffffff811115610b7257610b72611d0e565b604051908082528060200260200182016040528015610bab57816020015b610b98611968565b815260200190600190039081610b905790505b50905060015b6002548111610ec557600081815260208181526040918290208251610180810184528154815260018201546001600160a01b039081169382019390935260028201549092169282019290925260038201546060820152600482018054919291608084019190610c1f90611f40565b80601f0160208091040260200160405190810160405280929190818152602001828054610c4b90611f40565b8015610c985780601f10610c6d57610100808354040283529160200191610c98565b820191906000526020600020905b815481529060010190602001808311610c7b57829003601f168201915b50505050508152602001600582018054610cb190611f40565b80601f0160208091040260200160405190810160405280929190818152602001828054610cdd90611f40565b8015610d2a5780601f10610cff57610100808354040283529160200191610d2a565b820191906000526020600020905b815481529060010190602001808311610d0d57829003601f168201915b50505050508152602001600682018054610d4390611f40565b80601f0160208091040260200160405190810160405280929190818152602001828054610d6f90611f40565b8015610dbc5780601f10610d9157610100808354040283529160200191610dbc565b820191906000526020600020905b815481529060010190602001808311610d9f57829003601f168201915b50505050508152602001600782018054610dd590611f40565b80601f0160208091040260200160405190810160405280929190818152602001828054610e0190611f40565b8015610e4e5780601f10610e2357610100808354040283529160200191610e4e565b820191906000526020600020905b815481529060010190602001808311610e3157829003601f168201915b5050509183525050600882015460ff80821615156020840152610100909104161515604082015260098201546060820152600a9091015460809091015282610e97600184611f87565b81518110610ea757610ea7611ecf565b60200260200101819052508080610ebd90611efb565b915050610bb1565b50919050565b6002805460009182610edc83611efb565b90915550506040805161018081018252600280548083523360208085019182526001600160a01b038d8116868801908152606087018e8152608088018e815260a089018e905260c089018d905260e089018c905260006101008a018190526101208a01819052426101408b01526101608a0181905296875293869052979094208651815592516001840180549183166001600160a01b03199283161790559351948301805495909116949093169390931790915592516003840155519091906004820190610faa9082611fe9565b5060a08201516005820190610fbf9082611fe9565b5060c08201516006820190610fd49082611fe9565b5060e08201516007820190610fe99082611fe9565b506101008281015160088301805461012086015161ffff1990911692151561ff00191692909217911515909202179055610140820151600982015561016090910151600a9091015533600081815260016020818152604080842060028054825495860183559186529290942090920192909255905490516001600160a01b038a169291907ff5110f108b855f911013722b1af20d455f462e94572766f7a44cfd2e64829fd69061109e908b908a908a906120a8565b60405180910390a4506002549695505050505050565b6001600160a01b03811660009081526001602090815260408083208054825181850281018501909352808352849383018282801561111157602002820191906000526020600020905b8154815260200190600101908083116110fd575b505050505090506000805b82518110156108bc5760008084838151811061113a5761113a611ecf565b60209081029190910181015182528101919091526040016000206008015460ff161580156111a1575060008084838151811061117857611178611ecf565b6020026020010151815260200190815260200160002060080160019054906101000a900460ff16155b156111e3576000808483815181106111bb576111bb611ecf565b6020026020010151815260200190815260200160002060030154826111e09190611f74565b91505b60010161111c565b6000811180156111fd57506002548111155b6112195760405162461bcd60e51b81526004016104eb90611f14565b6000818152602081905260409020600101546001600160a01b031633146112935760405162461bcd60e51b815260206004820152602860248201527f4f6e6c7920696e766f6963652063726561746f722063616e20636f6e6669726d604482015267081c185e5b595b9d60c21b60648201526084016104eb565b60008181526020819052604090206008015460ff16156112ec5760405162461bcd60e51b8152602060048201526014602482015273125b9d9bda58d948185b1c9958591e481c185a5960621b60448201526064016104eb565b600081815260208190526040902060080154610100900460ff161561134a5760405162461bcd60e51b8152602060048201526014602482015273125b9d9bda58d9481a5cc818d85b98d95b1b195960621b60448201526064016104eb565b6000818152602081815260409182902060088101805460ff1916600117905542600a820181905560039091015483519081529182015282917f2a2856cfa1df898bbc0e6d517e310b7056b588c393f1918685a541f213f2f1a791015b60405180910390a250565b6060600060025467ffffffffffffffff8111156113d0576113d0611d0e565b6040519080825280602002602001820160405280156113f9578160200160208202803683370190505b509050600060015b60025481116114db5760008181526020819052604090206008015460ff808216916101009004168180156114325750875b15611467578285858151811061144a5761144a611ecf565b60209081029190910101528361145f81611efb565b9450506114c6565b8080156114715750865b15611489578285858151811061144a5761144a611ecf565b81158015611495575080155b156114c657828585815181106114ad576114ad611ecf565b6020908102919091010152836114c281611efb565b9450505b505080806114d390611efb565b915050611401565b5060008167ffffffffffffffff8111156114f7576114f7611d0e565b604051908082528060200260200182016040528015611520578160200160208202803683370190505b50905060005b8281101561156d5783818151811061154057611540611ecf565b602002602001015182828151811061155a5761155a611ecf565b6020908102919091010152600101611526565b50925050505b92915050565b60008111801561158b57506002548111155b6115a75760405162461bcd60e51b81526004016104eb90611f14565b6000818152602081905260409020600101546001600160a01b031633146116205760405162461bcd60e51b815260206004820152602760248201527f4f6e6c7920696e766f6963652063726561746f722063616e2063616e63656c20604482015266696e766f69636560c81b60648201526084016104eb565b60008181526020819052604090206008015460ff16156116825760405162461bcd60e51b815260206004820152601a60248201527f43616e6e6f742063616e63656c207061696420696e766f69636500000000000060448201526064016104eb565b600081815260208190526040902060080154610100900460ff16156116e95760405162461bcd60e51b815260206004820152601960248201527f496e766f69636520616c72656164792063616e63656c6c65640000000000000060448201526064016104eb565b60008181526020819052604090819020600801805461ff0019166101001790555181907fedaa303e89ee281697ba652192508238167c1d6bb056355d8daacf9887d94697906113a69042815260200190565b6001600160a01b038116600090815260016020908152604080832080548251818502810185019093528083526060949383018282801561179a57602002820191906000526020600020905b815481526020019060010190808311611786575b505050505090506000805b8251811015611845576000808483815181106117c3576117c3611ecf565b60209081029190910181015182528101919091526040016000206008015460ff1615801561182a575060008084838151811061180157611801611ecf565b6020026020010151815260200190815260200160002060080160019054906101000a900460ff16155b1561183d578161183981611efb565b9250505b6001016117a5565b5060008167ffffffffffffffff81111561186157611861611d0e565b60405190808252806020026020018201604052801561188a578160200160208202803683370190505b5090506000805b84518110156104aa576000808683815181106118af576118af611ecf565b60209081029190910181015182528101919091526040016000206008015460ff1615801561191657506000808683815181106118ed576118ed611ecf565b6020026020010151815260200190815260200160002060080160019054906101000a900460ff16155b156119605784818151811061192d5761192d611ecf565b602002602001015183838151811061194757611947611ecf565b60209081029190910101528161195c81611efb565b9250505b600101611891565b6040518061018001604052806000815260200160006001600160a01b0316815260200160006001600160a01b03168152602001600081526020016060815260200160608152602001606081526020016060815260200160001515815260200160001515815260200160008152602001600081525090565b6001600160a01b03811681146119f457600080fd5b50565b60008060408385031215611a0a57600080fd5b8235611a15816119df565b946020939093013593505050565b600060208284031215611a3557600080fd5b8135611a40816119df565b9392505050565b602080825282518282018190526000918401906040840190835b818110156104aa578351835260209384019390920191600101611a61565b600060208284031215611a9157600080fd5b5035919050565b6000815180845260005b81811015611abe57602081850181015186830182015201611aa2565b506000602082860101526020601f19601f83011685010191505092915050565b8051825260006020820151611afe60208501826001600160a01b03169052565b506040820151611b1960408501826001600160a01b03169052565b506060820151606084015260808201516101806080850152611b3f610180850182611a98565b905060a083015184820360a0860152611b588282611a98565b91505060c083015184820360c0860152611b728282611a98565b91505060e083015184820360e0860152611b8c8282611a98565b915050610100830151611ba461010086018215159052565b50610120830151611bba61012086018215159052565b506101408301516101408501526101608301516101608501528091505092915050565b602081526000611a406020830184611ade565b8c81526001600160a01b038c811660208301528b16604082015289606082015261018060808201526000611c2861018083018b611a98565b82810360a0840152611c3a818b611a98565b905082810360c0840152611c4e818a611a98565b905082810360e0840152611c628189611a98565b915050611c7461010083018715159052565b84151561012083015261014082019390935261016001529a9950505050505050505050565b6000602082016020835280845180835260408501915060408160051b86010192506020860160005b82811015611cf257603f19878603018452611cdd858351611ade565b94506020938401939190910190600101611cc1565b50929695505050505050565b8035611d09816119df565b919050565b634e487b7160e01b600052604160045260246000fd5b600082601f830112611d3557600080fd5b813567ffffffffffffffff811115611d4f57611d4f611d0e565b604051601f8201601f19908116603f0116810167ffffffffffffffff81118282101715611d7e57611d7e611d0e565b604052818152838201602001851015611d9657600080fd5b816020850160208301376000918101602001919091529392505050565b60008060008060008060c08789031215611dcc57600080fd5b611dd587611cfe565b955060208701359450604087013567ffffffffffffffff811115611df857600080fd5b611e0489828a01611d24565b945050606087013567ffffffffffffffff811115611e2157600080fd5b611e2d89828a01611d24565b935050608087013567ffffffffffffffff811115611e4a57600080fd5b611e5689828a01611d24565b92505060a087013567ffffffffffffffff811115611e7357600080fd5b611e7f89828a01611d24565b9150509295509295509295565b80358015158114611d0957600080fd5b60008060408385031215611eaf57600080fd5b611eb883611e8c565b9150611ec660208401611e8c565b90509250929050565b634e487b7160e01b600052603260045260246000fd5b634e487b7160e01b600052601160045260246000fd5b600060018201611f0d57611f0d611ee5565b5060010190565b602080825260129082015271125b9d985b1a59081a5b9d9bda58d948125160721b604082015260600190565b600181811c90821680611f5457607f821691505b602082108103610ec557634e487b7160e01b600052602260045260246000fd5b8082018082111561157357611573611ee5565b8181038181111561157357611573611ee5565b601f821115611fe457806000526020600020601f840160051c81016020851015611fc15750805b601f840160051c820191505b81811015611fe15760008155600101611fcd565b50505b505050565b815167ffffffffffffffff81111561200357612003611d0e565b612017816120118454611f40565b84611f9a565b6020601f82116001811461204b57600083156120335750848201515b600019600385901b1c1916600184901b178455611fe1565b600084815260208120601f198516915b8281101561207b578785015182556020948501946001909201910161205b565b50848210156120995786840151600019600387901b60f8161c191681555b50505050600190811b01905550565b8381526060602082015260006120c16060830185611a98565b82810360408401526120d38185611a98565b969550505050505056fea2646970667358221220bc7fb262f454ae8b1eb2822127a7436f1aacfdcfcc067c0b6bd21c109695d7bf64736f6c634300081c0033",
  "linkReferences": {},
  "deployedLinkReferences": {}
}