{
  "_format": "hh-sol-artifact-1",
  "contractName": "InvoiceContract",
  "sourceName": "contracts/InvoiceContract.sol",
  "abi": [
    {
      "anonymous": false,
      "inputs": [
        {
          "indexed": true,
          "internalType": "uint256",
          "name": "id",
          "type": "uint256"
        },
        {
          "indexed": false,
          "internalType": "uint256",
          "name": "timestamp",
          "type": "uint256"
        }
      ],
      "name": "InvoiceCancelled",
      "type": "event"
    },
    {
      "anonymous": false,
      "inputs": [
        {
          "indexed": true,
          "internalType": "uint256",
          "name": "id",
          "type": "uint256"
        },
        {
          "indexed": true,
          "internalType": "address",
          "name": "creator",
          "type": "address"
        },
        {
          "indexed": true,
          "internalType": "address",
          "name": "recipient",
          "type": "address"
        },
        {
          "indexed": false,
          "internalType": "uint256",
          "name": "amount",
          "type": "uint256"
        },
        {
          "indexed": false,
          "internalType": "string",
          "name": "bitcoinAddress",
          "type": "string"
        },
        {
          "indexed": false,
          "internalType": "string",
          "name": "clientName",
          "type": "string"
        },
        {
          "indexed": false,
          "internalType": "string",
          "name": "payToAddress",
          "type": "string"
        },
        {
          "indexed": false,
          "internalType": "string",
          "name": "currency",
          "type": "string"
        },
        {
          "indexed": false,
          "internalType": "uint256",
          "name": "expiresAt",
          "type": "uint256"
        }
      ],
      "name": "InvoiceCreated",
      "type": "event"
    },
    {
      "anonymous": false,
      "inputs": [
        {
          "indexed": true,
          "internalType": "uint256",
          "name": "id",
          "type": "uint256"
        },
        {
          "indexed": false,
          "internalType": "uint256",
          "name": "amount",
          "type": "uint256"
        },
        {
          "indexed": false,
          "internalType": "uint256",
          "name": "timestamp",
          "type": "uint256"
        },
        {
          "indexed": false,
          "internalType": "string",
          "name": "paymentTxHash",
          "type": "string"
        },
        {
          "indexed": false,
          "internalType": "string",
          "name": "observedInboundAmount",
          "type": "string"
        }
      ],
      "name": "InvoicePaid",
      "type": "event"
    },
    {
      "inputs": [
        {
          "internalType": "uint256",
          "name": "_id",
          "type": "uint256"
        }
      ],
      "name": "cancelInvoice",
      "outputs": [],
      "stateMutability": "nonpayable",
      "type": "function"
    },
    {
      "inputs": [
        {
          "internalType": "uint256",
          "name": "_id",
          "type": "uint256"
        },
        {
          "internalType": "string",
          "name": "_paymentTxHash",
          "type": "string"
        },
        {
          "internalType": "string",
          "name": "_observedInboundAmount",
          "type": "string"
        }
      ],
      "name": "confirmPayment",
      "outputs": [],
      "stateMutability": "nonpayable",
      "type": "function"
    },
    {
      "inputs": [
        {
          "internalType": "address payable",
          "name": "_recipient",
          "type": "address"
        },
        {
          "internalType": "uint256",
          "name": "_amount",
          "type": "uint256"
        },
        {
          "internalType": "string",
          "name": "_description",
          "type": "string"
        },
        {
          "internalType": "string",
          "name": "_bitcoinAddress",
          "type": "string"
        },
        {
          "internalType": "string",
          "name": "_clientName",
          "type": "string"
        },
        {
          "internalType": "string",
          "name": "_clientCode",
          "type": "string"
        },
        {
          "internalType": "uint256",
          "name": "_expiresAt",
          "type": "uint256"
        },
        {
          "internalType": "string",
          "name": "_payToAddress",
          "type": "string"
        },
        {
          "internalType": "string",
          "name": "_currency",
          "type": "string"
        },
        {
          "internalType": "string",
          "name": "_balanceAtCreation",
          "type": "string"
        }
      ],
      "name": "createInvoice",
      "outputs": [
        {
          "internalType": "uint256",
          "name": "",
          "type": "uint256"
        }
      ],
      "stateMutability": "nonpayable",
      "type": "function"
    },
    {
      "inputs": [],
      "name": "getAllInvoices",
      "outputs": [
        {
          "components": [
            {
              "internalType": "uint256",
              "name": "id",
              "type": "uint256"
            },
            {
              "internalType": "address payable",
              "name": "creator",
              "type": "address"
            },
            {
              "internalType": "address payable",
              "name": "recipient",
              "type": "address"
            },
            {
              "internalType": "uint256",
              "name": "amount",
              "type": "uint256"
            },
            {
              "internalType": "string",
              "name": "description",
              "type": "string"
            },
            {
              "internalType": "string",
              "name": "bitcoinAddress",
              "type": "string"
            },
            {
              "internalType": "string",
              "name": "clientName",
              "type": "string"
            },
            {
              "internalType": "string",
              "name": "clientCode",
              "type": "string"
            },
            {
              "internalType": "bool",
              "name": "paid",
              "type": "bool"
            },
            {
              "internalType": "bool",
              "name": "cancelled",
              "type": "bool"
            },
            {
              "internalType": "uint256",
              "name": "createdAt",
              "type": "uint256"
            },
            {
              "internalType": "uint256",
              "name": "paidAt",
              "type": "uint256"
            },
            {
              "internalType": "uint256",
              "name": "expiresAt",
              "type": "uint256"
            },
            {
              "internalType": "string",
              "name": "payToAddress",
              "type": "string"
            },
            {
              "internalType": "string",
              "name": "paymentTxHash",
              "type": "string"
            },
            {
              "internalType": "string",
              "name": "observedInboundAmount",
              "type": "string"
            },
            {
              "internalType": "string",
              "name": "currency",
              "type": "string"
            },
            {
              "internalType": "string",
              "name": "balanceAtCreation",
              "type": "string"
            }
          ],
          "internalType": "struct InvoiceContract.Invoice[]",
          "name": "",
          "type": "tuple[]"
        }
      ],
      "stateMutability": "view",
      "type": "function"
    },
    {
      "inputs": [
        {
          "internalType": "uint256",
          "name": "_id",
          "type": "uint256"
        }
      ],
      "name": "getInvoice",
      "outputs": [
        {
          "components": [
            {
              "internalType": "uint256",
              "name": "id",
              "type": "uint256"
            },
            {
              "internalType": "address payable",
              "name": "creator",
              "type": "address"
            },
            {
              "internalType": "address payable",
              "name": "recipient",
              "type": "address"
            },
            {
              "internalType": "uint256",
              "name": "amount",
              "type": "uint256"
            },
            {
              "internalType": "string",
              "name": "description",
              "type": "string"
            },
            {
              "internalType": "string",
              "name": "bitcoinAddress",
              "type": "string"
            },
            {
              "internalType": "string",
              "name": "clientName",
              "type": "string"
            },
            {
              "internalType": "string",
              "name": "clientCode",
              "type": "string"
            },
            {
              "internalType": "bool",
              "name": "paid",
              "type": "bool"
            },
            {
              "internalType": "bool",
              "name": "cancelled",
              "type": "bool"
            },
            {
              "internalType": "uint256",
              "name": "createdAt",
              "type": "uint256"
            },
            {
              "internalType": "uint256",
              "name": "paidAt",
              "type": "uint256"
            },
            {
              "internalType": "uint256",
              "name": "expiresAt",
              "type": "uint256"
            },
            {
              "internalType": "string",
              "name": "payToAddress",
              "type": "string"
            },
            {
              "internalType": "string",
              "name": "paymentTxHash",
              "type": "string"
            },
            {
              "internalType": "string",
              "name": "observedInboundAmount",
              "type": "string"
            },
            {
              "internalType": "string",
              "name": "currency",
              "type": "string"
            },
            {
              "internalType": "string",
              "name": "balanceAtCreation",
              "type": "string"
            }
          ],
          "internalType": "struct InvoiceContract.Invoice",
          "name": "",
          "type": "tuple"
        }
      ],
      "stateMutability": "view",
      "type": "function"
    },
    {
      "inputs": [
        {
          "internalType": "bool",
          "name": "includePaid",
          "type": "bool"
        },
        {
          "internalType": "bool",
          "name": "includeCancelled",
          "type": "bool"
        }
      ],
      "name": "getInvoicesByStatus",
      "outputs": [
        {
          "internalType": "uint256[]",
          "name": "",
          "type": "uint256[]"
        }
      ],
      "stateMutability": "view",
      "type": "function"
    },
    {
      "inputs": [
        {
          "internalType": "address",
          "name": "_user",
          "type": "address"
        }
      ],
      "name": "getPaidInvoices",
      "outputs": [
        {
          "internalType": "uint256[]",
          "name": "",
          "type": "uint256[]"
        }
      ],
      "stateMutability": "view",
      "type": "function"
    },
    {
      "inputs": [
        {
          "internalType": "address",
          "name": "_user",
          "type": "address"
        }
      ],
      "name": "getPendingAmount",
      "outputs": [
        {
          "internalType": "uint256",
          "name": "",
          "type": "uint256"
        }
      ],
      "stateMutability": "view",
      "type": "function"
    },
    {
      "inputs": [
        {
          "internalType": "address",
          "name": "_user",
          "type": "address"
        }
      ],
      "name": "getPendingInvoices",
      "outputs": [
        {
          "internalType": "uint256[]",
          "name": "",
          "type": "uint256[]"
        }
      ],
      "stateMutability": "view",
      "type": "function"
    },
    {
      "inputs": [
        {
          "internalType": "address",
          "name": "_user",
          "type": "address"
        }
      ],
      "name": "getTotalRevenue",
      "outputs": [
        {
          "internalType": "uint256",
          "name": "",
          "type": "uint256"
        }
      ],
      "stateMutability": "view",
      "type": "function"
    },
    {
      "inputs": [
        {
          "internalType": "address",
          "name": "_user",
          "type": "address"
        }
      ],
      "name": "getUserInvoiceCount",
      "outputs": [
        {
          "internalType": "uint256",
          "name": "",
          "type": "uint256"
        }
      ],
      "stateMutability": "view",
      "type": "function"
    },
    {
      "inputs": [
        {
          "internalType": "address",
          "name": "_user",
          "type": "address"
        }
      ],
      "name": "getUserInvoices",
      "outputs": [
        {
          "internalType": "uint256[]",
          "name": "",
          "type": "uint256[]"
        }
      ],
      "stateMutability": "view",
      "type": "function"
    },
    {
      "inputs": [],
      "name": "invoiceCount",
      "outputs": [
        {
          "internalType": "uint256",
          "name": "",
          "type": "uint256"
        }
      ],
      "stateMutability": "view",
      "type": "function"
    },
    {
      "inputs": [
        {
          "internalType": "uint256",
          "name": "",
          "type": "uint256"
        }
      ],
      "name": "invoices",
      "outputs": [
        {
          "internalType": "uint256",
          "name": "id",
          "type": "uint256"
        },
        {
          "internalType": "address payable",
          "name": "creator",
          "type": "address"
        },
        {
          "internalType": "address payable",
          "name": "recipient",
          "type": "address"
        },
        {
          "internalType": "uint256",
          "name": "amount",
          "type": "uint256"
        },
        {
          "internalType": "string",
          "name": "description",
          "type": "string"
        },
        {
          "internalType": "string",
          "name": "bitcoinAddress",
          "type": "string"
        },
        {
          "internalType": "string",
          "name": "clientName",
          "type": "string"
        },
        {
          "internalType": "string",
          "name": "clientCode",
          "type": "string"
        },
        {
          "internalType": "bool",
          "name": "paid",
          "type": "bool"
        },
        {
          "internalType": "bool",
          "name": "cancelled",
          "type": "bool"
        },
        {
          "internalType": "uint256",
          "name": "createdAt",
          "type": "uint256"
        },
        {
          "internalType": "uint256",
          "name": "paidAt",
          "type": "uint256"
        },
        {
          "internalType": "uint256",
          "name": "expiresAt",
          "type": "uint256"
        },
        {
          "internalType": "string",
          "name": "payToAddress",
          "type": "string"
        },
        {
          "internalType": "string",
          "name": "paymentTxHash",
          "type": "string"
        },
        {
          "internalType": "string",
          "name": "observedInboundAmount",
          "type": "string"
        },
        {
          "internalType": "string",
          "name": "currency",
          "type": "string"
        },
        {
          "internalType": "string",
          "name": "balanceAtCreation",
          "type": "string"
        }
      ],
      "stateMutability": "view",
      "type": "function"
    },
    {
      "inputs": [
        {
          "internalType": "address",
          "name": "",
          "type": "address"
        },
        {
          "internalType": "uint256",
          "name": "",
          "type": "uint256"
        }
      ],
      "name": "userInvoices",
      "outputs": [
        {
          "internalType": "uint256",
          "name": "",
          "type": "uint256"
        }
      ],
      "stateMutability": "view",
      "type": "function"
    }
  ],
  "bytecode": "0x6080806040523460155761257f908161001b8239f35b600080fdfe610100604052600436101561001357600080fd5b60003560e01c80630ad6b0a514611f185780631346f0c414611efa57806321e2a79114611ec057806324d3b3e214611e3d5780632542a1f914611d1a5780633a23cc0a14611cb357806349567e0114611be65780634e6d1405146119db578063511656db14610c39578063570bdad614610b0a5780637571af22146109ea57806396c579fa146108a0578063da9c273d146106ef578063e3f1a28d146105495763ea20f362146100c257600080fd5b34610544576060366003190112610544576004356024356001600160401b038111610544576100f590369060040161228f565b906044356001600160401b0381116105445761011590369060040161228f565b9181151580610538575b610128906123dc565b6000828152602081905260409020600101546001600160a01b031633036104e25781600052600060205260ff600860406000200154166104a65781600052600060205260ff60086040600020015460081c1661046a57600082815260208190526040902060088101805460ff1916600117905542600a8201558151600d909101906001600160401b03811161039e576101c18254612174565b601f8111610422575b50806020601f82116001146103bf576000916103b4575b508160011b916000199060031b1c19161790555b816000526000602052600e604060002001928051936001600160401b03851161039e576102228154612174565b601f8111610356575b506020601f86116001146102d05794807f261990519d41077a811fccda6680889d2ad9a7d4ae275f44d741c9364c2a370195966000916102c5575b508160011b916000199060031b1c19161790555b8360005260006020526102c0600360406000200154916102b26040519485948552426020860152608060408601526080850190611fef565b908382036060850152611fef565b0390a2005b905083015138610266565b601f1986169082600052806000209160005b81811061033e57509187917f261990519d41077a811fccda6680889d2ad9a7d4ae275f44d741c9364c2a3701979860019410610325575b5050811b01905561027a565b85015160001960f88460031b161c191690553880610319565b919260206001819286890151815501940192016102e2565b816000526020600020601f870160051c81019160208810610394575b601f0160051c01905b818110610388575061022b565b6000815560010161037b565b9091508190610372565b634e487b7160e01b600052604160045260246000fd5b9050830151386101e1565b60008481528181209250601f198416905b81811061040a575090836001949392106103f1575b5050811b0190556101f5565b85015160001960f88460031b161c1916905538806103e5565b9192602060018192868a0151815501940192016103d0565b826000526020600020601f830160051c81019160208410610460575b601f0160051c01905b81811061045457506101ca565b60008155600101610447565b909150819061043e565b60405162461bcd60e51b8152602060048201526014602482015273125b9d9bda58d9481a5cc818d85b98d95b1b195960621b6044820152606490fd5b60405162461bcd60e51b8152602060048201526014602482015273125b9d9bda58d948185b1c9958591e481c185a5960621b6044820152606490fd5b60405162461bcd60e51b815260206004820152602860248201527f4f6e6c7920696e766f6963652063726561746f722063616e20636f6e6669726d604482015267081c185e5b595b9d60c21b6064820152608490fd5b5060025482111561011f565b600080fd5b34610544576020366003190112610544576001600160a01b0361056a611f71565b16600052600160205260406000206040518082602082945493848152019060005260206000209260005b8181106106d65750506105a9925003826121ca565b6000805b8251811015610626576105c081846122e5565b51600052600060205260ff6008604060002001541615806105fd575b6105e9575b6001016105ad565b906105f56001916122f9565b9190506105e1565b5061060881846122e5565b51600052600060205260ff60086040600020015460081c16156105dc565b506106309061231f565b906000805b82518110156106c45761064881846122e5565b51600052600060205260ff60086040600020015416158061069b575b610671575b600101610635565b9061069360019161068284866122e5565b5161068d82886122e5565b526122f9565b919050610669565b506106a681846122e5565b51600052600060205260ff60086040600020015460081c1615610664565b604051806106d28682611fb5565b0390f35b8454835260019485019486945060209093019201610594565b346105445760203660031901126105445760043580151580610894575b610715906123dc565b6000818152602081905260409020600101546001600160a01b0316330361083f5780600052600060205260ff600860406000200154166107fa5780600052600060205260ff60086040600020015460081c166107b557806000526000602052600860406000200161010061ff00198254161790557fedaa303e89ee281697ba652192508238167c1d6bb056355d8daacf9887d946976020604051428152a2005b60405162461bcd60e51b815260206004820152601960248201527f496e766f69636520616c72656164792063616e63656c6c6564000000000000006044820152606490fd5b60405162461bcd60e51b815260206004820152601a60248201527f43616e6e6f742063616e63656c207061696420696e766f6963650000000000006044820152606490fd5b60405162461bcd60e51b815260206004820152602760248201527f4f6e6c7920696e766f6963652063726561746f722063616e2063616e63656c20604482015266696e766f69636560c81b6064820152608490fd5b5060025481111561070c565b346105445760403660031901126105445760043580151581036105445760243580151581036105445790600254916108d78361231f565b926000926001925b8284111561092a5785856108f28161231f565b9160005b82811061090b57604051806106d28682611fb5565b80610918600192846122e5565b5161092382876122e5565b52016108f6565b6000848152602081905260409020600890810154949593949293919260ff9181901c8216911680806109e3575b1561097e575050610970818661068d610976948a6122e5565b946122f9565b9291906108df565b81806109dc575b1561099e575050610970818661068d610976948a6122e5565b9591951590816109d3575b506109b8575b610976906122f9565b936109cb818661068d610976948a6122e5565b9490506109af565b905015876109a9565b5083610985565b5084610957565b34610544576020366003190112610544576001600160a01b03610a0b611f71565b16600052600160205260406000206040518082602082945493848152019060005260206000209260005b818110610af1575050610a4a925003826121ca565b60009060005b8151811015610ae657610a6381836122e5565b51600052600060205260ff600860406000200154161580610abd575b610a8c575b600101610a50565b91610ab5600191610a9d85856122e5565b5160005260006020526003604060002001549061253c565b929050610a84565b50610ac881836122e5565b51600052600060205260ff60086040600020015460081c1615610a7f565b602083604051908152f35b8454835260019485019486945060209093019201610a35565b3461054457600036600319011261054457600254610b2781612308565b90610b3560405192836121ca565b808252601f19610b4482612308565b0160005b818110610c2257505060015b81811115610bc457826040518091602082016020835281518091526040830190602060408260051b8601019301916000905b828210610b9557505050500390f35b91936001919395506020610bb48192603f198a82030186528851612030565b9601920192018594939192610b86565b806000526000602052604060002090600019810191818311610c0c57610c0792610bf0610c019261241d565b610bfa82886122e5565b52856122e5565b506122f9565b610b54565b634e487b7160e01b600052601160045260246000fd5b602090610c2d612351565b82828701015201610b48565b3461054457610140366003190112610544576004356001600160a01b0381168103610544576044356001600160401b03811161054457610c7d90369060040161228f565b906064356001600160401b03811161054457610c9d90369060040161228f565b906084356001600160401b03811161054457610cbd90369060040161228f565b9060a4356001600160401b03811161054457610cdd90369060040161228f565b9260e4356001600160401b03811161054457610cfd90369060040161228f565b92610104356001600160401b03811161054457610d1e90369060040161228f565b91610124356001600160401b03811161054457610d3f90369060040161228f565b96610d4b6002546122f9565b968760025560405191610d5d836121ae565b88835233602084015260018060a01b0387166040840152602435606084015260808301528260a08301528360c083015260e08201526000610100820152600061012082015242610140820152600061016082015260c435610180820152856101a0820152602097604051610dd18a826121ca565b600081526101c0830152604051610de88a826121ca565b60008082526101e084019190915261020083018690526102208301919091528781528089526040908190208251815560208301516001820180546001600160a01b03199081166001600160a01b0393841617909155928401516002830180549094169116179091556060820151600382015560808201518051906001600160401b03821161039e578190610e7f6004850154612174565b601f811161198a575b508b90601f831160011461191c57600092611911575b50508160011b916000199060031b1c19161760048201555b60a08201518051906001600160401b03821161039e578190610edb6005850154612174565b601f81116118c0575b508b90601f831160011461185257600092611847575b50508160011b916000199060031b1c19161760058201555b60c08201518051906001600160401b03821161039e578190610f376006850154612174565b601f81116117f6575b508b90601f83116001146117885760009261177d575b50508160011b916000199060031b1c19161760068201555b60e08201518051906001600160401b03821161039e578190610f936007850154612174565b601f811161172c575b508b90601f83116001146116be576000926116b3575b50508160011b916000199060031b1c19161760078201555b60088101610100830151151560ff80198354169116178155610120830151151561ff0082549160081b169061ff0019161790556101408201516009820155610160820151600a820155610180820151600b8201556101a08201518051906001600160401b03821161039e578190611044600c850154612174565b601f8111611662575b508b90601f83116001146115f4576000926115e9575b50508160011b916000199060031b1c191617600c8201555b6101c08201518051906001600160401b03821161039e5781906110a1600d850154612174565b601f8111611598575b508b90601f831160011461152a5760009261151f575b50508160011b916000199060031b1c191617600d8201555b6101e08201518051906001600160401b03821161039e5781906110fe600e850154612174565b601f81116114ce575b508b90601f831160011461146057600092611455575b50508160011b916000199060031b1c191617600e8201555b600f81016102008301518051906001600160401b03821161039e578b61115b8454612174565b601f811161140d575b50508b908c601f841160011461139d57509180601094926102209694600092611392575b50508160011b916000199060031b1c19161790555b019101518051906001600160401b03821161039e5781906111be8454612174565b601f8111611341575b508a90601f83116001146112dc576000926112d1575b50508160011b916000199060031b1c19161790555b33600052600187526040600020928354916801000000000000000083101561039e5788966112927f6b007c52cce1ea806e675913586ecd79214160b00f30204fdc38092b60ca07a0956112846112a094611256888e9b60016112ae9b018155611f87565b81549060031b908c821b91600019901b191617905560c06040519c8d60243590528d015260c08c0190611fef565b908a820360408c0152611fef565b9088820360608a0152611fef565b908682036080880152611fef565b60c43560a08601526001600160a01b0390931693339381900390a4604051908152f35b015190508a806111dd565b60008581528c81209350601f198516905b8d82821061132b575050908460019594939210611312575b505050811b0190556111f2565b015160001960f88460031b161c191690558a8080611305565b60018596829396860151815501950193016112ed565b909150836000528a600020601f840160051c8101918c8510611388575b90601f859493920160051c01905b81811061137957506111c7565b6000815584935060010161136c565b909150819061135e565b015190508e80611188565b9190601f1984168560005283600020936000905b8282106113f5575050926001928592610220989660109896106113dc575b505050811b01905561119d565b015160001960f88460031b161c191690558e80806113cf565b806001869782949787015181550196019401906113b1565b846000528160002090601f850160051c820192851061144b575b601f0160051c01905b81811061143f578d9150611164565b60008155600101611430565b9091508190611427565b015190508b8061111d565b600e850160009081528d81209350601f198516908e5b8282106114b657505090846001959493921061149d575b505050811b01600e820155611135565b015160001960f88460031b161c191690558b808061148d565b80600186978294978701518155019601940190611476565b909150600e84016000528b600020601f840160051c81018d8510611518575b90849392915b601f830160051c82018110611509575050611107565b600081558594506001016114f3565b50806114ed565b015190508b806110c0565b600d850160009081528d81209350601f198516908e5b828210611580575050908460019594939210611567575b505050811b01600d8201556110d8565b015160001960f88460031b161c191690558b8080611557565b80600186978294978701518155019601940190611540565b909150600d84016000528b600020601f840160051c81018d85106115e2575b90849392915b601f830160051c820181106115d35750506110aa565b600081558594506001016115bd565b50806115b7565b015190508b80611063565b600c850160009081528d81209350601f198516908e5b82821061164a575050908460019594939210611631575b505050811b01600c82015561107b565b015160001960f88460031b161c191690558b8080611621565b8060018697829497870151815501960194019061160a565b909150600c84016000528b600020601f840160051c81018d85106116ac575b90849392915b601f830160051c8201811061169d57505061104d565b60008155859450600101611687565b5080611681565b015190508b80610fb2565b6007850160009081528d81209350601f198516908e5b8282106117145750509084600195949392106116fb575b505050811b016007820155610fca565b015160001960f88460031b161c191690558b80806116eb565b806001869782949787015181550196019401906116d4565b909150600784016000528b600020601f840160051c81018d8510611776575b90849392915b601f830160051c82018110611767575050610f9c565b60008155859450600101611751565b508061174b565b015190508b80610f56565b6006850160009081528d81209350601f198516908e5b8282106117de5750509084600195949392106117c5575b505050811b016006820155610f6e565b015160001960f88460031b161c191690558b80806117b5565b8060018697829497870151815501960194019061179e565b909150600684016000528b600020601f840160051c81018d8510611840575b90849392915b601f830160051c82018110611831575050610f40565b6000815585945060010161181b565b5080611815565b015190508b80610efa565b6005850160009081528d81209350601f198516908e5b8282106118a857505090846001959493921061188f575b505050811b016005820155610f12565b015160001960f88460031b161c191690558b808061187f565b80600186978294978701518155019601940190611868565b909150600584016000528b600020601f840160051c81018d851061190a575b90849392915b601f830160051c820181106118fb575050610ee4565b600081558594506001016118e5565b50806118df565b015190508b80610e9e565b6004850160009081528d81209350601f198516908e5b828210611972575050908460019594939210611959575b505050811b016004820155610eb6565b015160001960f88460031b161c191690558b8080611949565b80600186978294978701518155019601940190611932565b909150600484016000528b600020601f840160051c81018d85106119d4575b90849392915b601f830160051c820181106119c5575050610e88565b600081558594506001016119af565b50806119a9565b3461054457602036600319011261054457600480356000908152602081905260409020805460018201546001600160a01b0390811660a05260028301541660e05260038201549192839290611a319084016121eb565b611a3d600585016121eb565b90611a4a600686016121eb565b91611a57600787016121eb565b92600887015493600988015491600a89015493600b8a015495600c8b01611a7d906121eb565b98611a8a600d8d016121eb565b9a611a97600e8e016121eb565b9c600f01611aa4906121eb565b9d601001611ab1906121eb565b60805260405160c05260c0515260a05160c0516020015260e05160c0516040015260c0516060015260c051608001610240905260c05161024001611af491611fef565b60c051810360c05160a00152611b0991611fef565b60c051810360c05160c00152611b1e91611fef565b60c051810360c05160e00152611b3391611fef565b9360ff8116151560c051610100015260081c60ff16151560c051610120015260c051610140015260c051610160015260c051610180015260c051810360c0516101a00152611b8091611fef565b60c051810360c0516101c00152611b9691611fef565b60c051810360c0516101e00152611bac91611fef565b60c051810360c0516102000152611bc291611fef565b60c051810360c051610220015260c0519060805190611be091611fef565b0360c051f35b34610544576020366003190112610544576001600160a01b03611c07611f71565b16600052600160205260406000206040518082602082945493848152019060005260206000209260005b818110611c9a575050611c46925003826121ca565b60009060005b8151811015610ae657611c5f81836122e5565b51600052600060205260ff60086040600020015416611c81575b600101611c4c565b91611c92600191610a9d85856122e5565b929050611c79565b8454835260019485019486945060209093019201611c31565b3461054457602036600319011261054457600435611ccf612351565b5080151580611d0e575b611ce2906123dc565b60005260006020526106d2611cfa604060002061241d565b604051918291602083526020830190612030565b50600254811115611cd9565b34610544576020366003190112610544576001600160a01b03611d3b611f71565b16600052600160205260406000206040518082602082945493848152019060005260206000209260005b818110611e24575050611d7a925003826121ca565b6000805b8251811015611dc757611d9181846122e5565b51600052600060205260ff60086040600020015416611db3575b600101611d7e565b90611dbf6001916122f9565b919050611dab565b50611dd19061231f565b906000805b82518110156106c457611de981846122e5565b51600052600060205260ff60086040600020015416611e0b575b600101611dd6565b90611e1c60019161068284866122e5565b919050611e03565b8454835260019485019486945060209093019201611d65565b34610544576020366003190112610544576001600160a01b03611e5e611f71565b166000526001602052604060002060405190816020825491828152019160005260206000209060005b818110611eaa576106d285611e9e818703826121ca565b60405191829182611fb5565b8254845260209093019260019283019201611e87565b34610544576020366003190112610544576001600160a01b03611ee1611f71565b1660005260016020526020604060002054604051908152f35b34610544576000366003190112610544576020600254604051908152f35b3461054457604036600319011261054457611f31611f71565b6001600160a01b031660009081526001602052604090208054602435919082101561054457602091611f6291611f87565b90549060031b1c604051908152f35b600435906001600160a01b038216820361054457565b8054821015611f9f5760005260206000200190600090565b634e487b7160e01b600052603260045260246000fd5b602060408183019282815284518094520192019060005b818110611fd95750505090565b8251845260209384019390920191600101611fcc565b919082519283825260005b84811061201b575050826000602080949584010152601f8019910116010190565b80602080928401015182828601015201611ffa565b612171918151815260018060a01b03602083015116602082015260018060a01b0360408301511660408201526060820151606082015261022061215f61214b6121376121236120cf6120bd6120ab61209960808b015161024060808c01526102408b0190611fef565b60a08b01518a820360a08c0152611fef565b60c08a015189820360c08b0152611fef565b60e089015188820360e08a0152611fef565b610100880151151561010088015261012088015115156101208801526101408801516101408801526101608801516101608801526101808801516101808801526101a08801518782036101a0890152611fef565b6101c08701518682036101c0880152611fef565b6101e08601518582036101e0870152611fef565b610200850151848203610200860152611fef565b92015190610220818403910152611fef565b90565b90600182811c921680156121a4575b602083101461218e57565b634e487b7160e01b600052602260045260246000fd5b91607f1691612183565b61024081019081106001600160401b0382111761039e57604052565b90601f801991011681019081106001600160401b0382111761039e57604052565b90604051918260008254926121ff84612174565b808452936001811690811561226d5750600114612226575b50612224925003836121ca565b565b90506000929192526020600020906000915b8183106122515750509060206122249282010138612217565b6020919350806001915483858901015201910190918492612238565b90506020925061222494915060ff191682840152151560051b82010138612217565b81601f82011215610544578035906001600160401b03821161039e57604051926122c3601f8401601f1916602001856121ca565b8284526020838301011161054457816000926020809301838601378301015290565b8051821015611f9f5760209160051b010190565b6000198114610c0c5760010190565b6001600160401b03811161039e5760051b60200190565b9061232982612308565b61233660405191826121ca565b8281528092612347601f1991612308565b0190602036910137565b6040519061235e826121ae565b6060610220836000815260006020820152600060408201526000838201528260808201528260a08201528260c08201528260e082015260006101008201526000610120820152600061014082015260006101608201526000610180820152826101a0820152826101c0820152826101e0820152826102008201520152565b156123e357565b60405162461bcd60e51b8152602060048201526012602482015271125b9d985b1a59081a5b9d9bda58d948125160721b6044820152606490fd5b9060405161242a816121ae565b8254815260018301546001600160a01b0390811660208301526002840154166040820152600383015460608201529182906102209061253790601090612472600482016121eb565b6080860152612483600582016121eb565b60a0860152612494600682016121eb565b60c08601526124a5600782016121eb565b60e086015260ff6008820154818116151561010088015260081c1615156101208601526009810154610140860152600a810154610160860152600b8101546101808601526124f5600c82016121eb565b6101a0860152612507600d82016121eb565b6101c0860152612519600e82016121eb565b6101e086015261252b600f82016121eb565b610200860152016121eb565b910152565b91908201809211610c0c5756fea2646970667358221220f475284050c4d6d4f10e343daee9153e2a75ba042868d1918b7c3c9d4b9f0a1e64736f6c634300081c0033",
  "linkReferences": {},
  "deployedLinkReferences": {}
}