{
  "_format": "hh-sol-artifact-1",
  "contractName": "InvoiceContract",
  "sourceName": "contracts/InvoiceContract.sol",
  "abi": [
    {
      "anonymous": false,
      "inputs": [
        {
          "indexed": true,
          "internalType": "uint256",
          "name": "id",
          "type": "uint256"
        },
        {
          "indexed": false,
          "internalType": "uint256",
          "name": "timestamp",
          "type": "uint256"
        }
      ],
      "name": "InvoiceCancelled",
      "type": "event"
    },
    {
      "anonymous": false,
      "inputs": [
        {
          "indexed": true,
          "internalType": "uint256",
          "name": "id",
          "type": "uint256"
        },
        {
          "indexed": true,
          "internalType": "address",
          "name": "creator",
          "type": "address"
        },
        {
          "indexed": true,
          "internalType": "address",
          "name": "recipient",
          "type": "address"
        },
        {
          "indexed": false,
          "internalType": "uint256",
          "name": "amount",
          "type": "uint256"
        },
        {
          "indexed": false,
          "internalType": "string",
          "name": "bitcoinAddress",
          "type": "string"
        },
        {
          "indexed": false,
          "internalType": "string",
          "name": "clientName",
          "type": "string"
        }
      ],
      "name": "InvoiceCreated",
      "type": "event"
    },
    {
      "anonymous": false,
      "inputs": [
        {
          "indexed": true,
          "internalType": "uint256",
          "name": "id",
          "type": "uint256"
        },
        {
          "indexed": false,
          "internalType": "uint256",
          "name": "amount",
          "type": "uint256"
        },
        {
          "indexed": false,
          "internalType": "uint256",
          "name": "timestamp",
          "type": "uint256"
        }
      ],
      "name": "InvoicePaid",
      "type": "event"
    },
    {
      "inputs": [
        {
          "internalType": "uint256",
          "name": "_id",
          "type": "uint256"
        }
      ],
      "name": "cancelInvoice",
      "outputs": [],
      "stateMutability": "nonpayable",
      "type": "function"
    },
    {
      "inputs": [
        {
          "internalType": "uint256",
          "name": "_id",
          "type": "uint256"
        }
      ],
      "name": "confirmPayment",
      "outputs": [],
      "stateMutability": "nonpayable",
      "type": "function"
    },
    {
      "inputs": [
        {
          "internalType": "address payable",
          "name": "_recipient",
          "type": "address"
        },
        {
          "internalType": "uint256",
          "name": "_amount",
          "type": "uint256"
        },
        {
          "internalType": "string",
          "name": "_description",
          "type": "string"
        },
        {
          "internalType": "string",
          "name": "_bitcoinAddress",
          "type": "string"
        },
        {
          "internalType": "string",
          "name": "_clientName",
          "type": "string"
        },
        {
          "internalType": "string",
          "name": "_clientCode",
          "type": "string"
        }
      ],
      "name": "createInvoice",
      "outputs": [
        {
          "internalType": "uint256",
          "name": "",
          "type": "uint256"
        }
      ],
      "stateMutability": "nonpayable",
      "type": "function"
    },
    {
      "inputs": [
        {
          "internalType": "uint256",
          "name": "_id",
          "type": "uint256"
        }
      ],
      "name": "getInvoice",
      "outputs": [
        {
          "components": [
            {
              "internalType": "uint256",
              "name": "id",
              "type": "uint256"
            },
            {
              "internalType": "address payable",
              "name": "creator",
              "type": "address"
            },
            {
              "internalType": "address payable",
              "name": "recipient",
              "type": "address"
            },
            {
              "internalType": "uint256",
              "name": "amount",
              "type": "uint256"
            },
            {
              "internalType": "string",
              "name": "description",
              "type": "string"
            },
            {
              "internalType": "string",
              "name": "bitcoinAddress",
              "type": "string"
            },
            {
              "internalType": "string",
              "name": "clientName",
              "type": "string"
            },
            {
              "internalType": "string",
              "name": "clientCode",
              "type": "string"
            },
            {
              "internalType": "bool",
              "name": "paid",
              "type": "bool"
            },
            {
              "internalType": "bool",
              "name": "cancelled",
              "type": "bool"
            },
            {
              "internalType": "uint256",
              "name": "createdAt",
              "type": "uint256"
            },
            {
              "internalType": "uint256",
              "name": "paidAt",
              "type": "uint256"
            }
          ],
          "internalType": "struct InvoiceContract.Invoice",
          "name": "",
          "type": "tuple"
        }
      ],
      "stateMutability": "view",
      "type": "function"
    },
    {
      "inputs": [
        {
          "internalType": "address",
          "name": "_user",
          "type": "address"
        }
      ],
      "name": "getPaidInvoices",
      "outputs": [
        {
          "internalType": "uint256[]",
          "name": "",
          "type": "uint256[]"
        }
      ],
      "stateMutability": "view",
      "type": "function"
    },
    {
      "inputs": [
        {
          "internalType": "address",
          "name": "_user",
          "type": "address"
        }
      ],
      "name": "getPendingAmount",
      "outputs": [
        {
          "internalType": "uint256",
          "name": "",
          "type": "uint256"
        }
      ],
      "stateMutability": "view",
      "type": "function"
    },
    {
      "inputs": [
        {
          "internalType": "address",
          "name": "_user",
          "type": "address"
        }
      ],
      "name": "getPendingInvoices",
      "outputs": [
        {
          "internalType": "uint256[]",
          "name": "",
          "type": "uint256[]"
        }
      ],
      "stateMutability": "view",
      "type": "function"
    },
    {
      "inputs": [
        {
          "internalType": "address",
          "name": "_user",
          "type": "address"
        }
      ],
      "name": "getTotalRevenue",
      "outputs": [
        {
          "internalType": "uint256",
          "name": "",
          "type": "uint256"
        }
      ],
      "stateMutability": "view",
      "type": "function"
    },
    {
      "inputs": [
        {
          "internalType": "address",
          "name": "_user",
          "type": "address"
        }
      ],
      "name": "getUserInvoiceCount",
      "outputs": [
        {
          "internalType": "uint256",
          "name": "",
          "type": "uint256"
        }
      ],
      "stateMutability": "view",
      "type": "function"
    },
    {
      "inputs": [
        {
          "internalType": "address",
          "name": "_user",
          "type": "address"
        }
      ],
      "name": "getUserInvoices",
      "outputs": [
        {
          "internalType": "uint256[]",
          "name": "",
          "type": "uint256[]"
        }
      ],
      "stateMutability": "view",
      "type": "function"
    },
    {
      "inputs": [],
      "name": "invoiceCount",
      "outputs": [
        {
          "internalType": "uint256",
          "name": "",
          "type": "uint256"
        }
      ],
      "stateMutability": "view",
      "type": "function"
    },
    {
      "inputs": [
        {
          "internalType": "uint256",
          "name": "",
          "type": "uint256"
        }
      ],
      "name": "invoices",
      "outputs": [
        {
          "internalType": "uint256",
          "name": "id",
          "type": "uint256"
        },
        {
          "internalType": "address payable",
          "name": "creator",
          "type": "address"
        },
        {
          "internalType": "address payable",
          "name": "recipient",
          "type": "address"
        },
        {
          "internalType": "uint256",
          "name": "amount",
          "type": "uint256"
        },
        {
          "internalType": "string",
          "name": "description",
          "type": "string"
        },
        {
          "internalType": "string",
          "name": "bitcoinAddress",
          "type": "string"
        },
        {
          "internalType": "string",
          "name": "clientName",
          "type": "string"
        },
        {
          "internalType": "string",
          "name": "clientCode",
          "type": "string"
        },
        {
          "internalType": "bool",
          "name": "paid",
          "type": "bool"
        },
        {
          "internalType": "bool",
          "name": "cancelled",
          "type": "bool"
        },
        {
          "internalType": "uint256",
          "name": "createdAt",
          "type": "uint256"
        },
        {
          "internalType": "uint256",
          "name": "paidAt",
          "type": "uint256"
        }
      ],
      "stateMutability": "view",
      "type": "function"
    },
    {
      "inputs": [
        {
          "internalType": "address",
          "name": "",
          "type": "address"
        },
        {
          "internalType": "uint256",
          "name": "",
          "type": "uint256"
        }
      ],
      "name": "userInvoices",
      "outputs": [
        {
          "internalType": "uint256",
          "name": "",
          "type": "uint256"
        }
      ],
      "stateMutability": "view",
      "type": "function"
    }
  ],
  "bytecode": "0x6080604052348015600f57600080fd5b50611ac68061001f6000396000f3fe608060405234801561001057600080fd5b50600436106100cf5760003560e01c806349567e011161008c5780637571af22116100665780637571af22146101d0578063876ca09f146101e3578063da9c273d146101f8578063e3f1a28d1461020b57600080fd5b806349567e011461017f5780634e6d14051461019257806373f578ff146101bd57600080fd5b80630ad6b0a5146100d45780631346f0c4146100fa57806321e2a7911461010357806324d3b3e21461012c5780632542a1f91461014c5780633a23cc0a1461015f575b600080fd5b6100e76100e2366004611464565b61021e565b6040519081526020015b60405180910390f35b6100e760025481565b6100e7610111366004611490565b6001600160a01b031660009081526001602052604090205490565b61013f61013a366004611490565b61024f565b6040516100f191906114b4565b61013f61015a366004611490565b6102bb565b61017261016d3660046114ec565b610467565b6040516100f1919061154b565b6100e761018d366004611490565b6107ef565b6101a56101a03660046114ec565b6108e8565b6040516100f19c9b9a99989796959493929190611652565b6100e76101cb3660046117b0565b610b77565b6100e76101de366004611490565b610d60565b6101f66101f13660046114ec565b610e97565b005b6101f66102063660046114ec565b61105d565b61013f610219366004611490565b61121f565b6001602052816000526040600020818154811061023a57600080fd5b90600052602060002001600091509150505481565b6001600160a01b0381166000908152600160209081526040918290208054835181840281018401909452808452606093928301828280156102af57602002820191906000526020600020905b81548152602001906001019080831161029b575b50505050509050919050565b6001600160a01b038116600090815260016020908152604080832080548251818502810185019093528083526060949383018282801561031a57602002820191906000526020600020905b815481526020019060010190808311610306575b505050505090506000805b825181101561037f5760008084838151811061034357610343611889565b60209081029190910181015182528101919091526040016000206008015460ff16156103775781610373816118b5565b9250505b600101610325565b5060008167ffffffffffffffff81111561039b5761039b61170b565b6040519080825280602002602001820160405280156103c4578160200160208202803683370190505b5090506000805b845181101561045c576000808683815181106103e9576103e9611889565b60209081029190910181015182528101919091526040016000206008015460ff16156104545784818151811061042157610421611889565b602002602001015183838151811061043b5761043b611889565b602090810291909101015281610450816118b5565b9250505b6001016103cb565b509095945050505050565b6104e16040518061018001604052806000815260200160006001600160a01b0316815260200160006001600160a01b03168152602001600081526020016060815260200160608152602001606081526020016060815260200160001515815260200160001515815260200160008152602001600081525090565b6000821180156104f357506002548211155b6105185760405162461bcd60e51b815260040161050f906118ce565b60405180910390fd5b600082815260208181526040918290208251610180810184528154815260018201546001600160a01b03908116938201939093526002820154909216928201929092526003820154606082015260048201805491929160808401919061057d906118fa565b80601f01602080910402602001604051908101604052809291908181526020018280546105a9906118fa565b80156105f65780601f106105cb576101008083540402835291602001916105f6565b820191906000526020600020905b8154815290600101906020018083116105d957829003601f168201915b5050505050815260200160058201805461060f906118fa565b80601f016020809104026020016040519081016040528092919081815260200182805461063b906118fa565b80156106885780601f1061065d57610100808354040283529160200191610688565b820191906000526020600020905b81548152906001019060200180831161066b57829003601f168201915b505050505081526020016006820180546106a1906118fa565b80601f01602080910402602001604051908101604052809291908181526020018280546106cd906118fa565b801561071a5780601f106106ef5761010080835404028352916020019161071a565b820191906000526020600020905b8154815290600101906020018083116106fd57829003601f168201915b50505050508152602001600782018054610733906118fa565b80601f016020809104026020016040519081016040528092919081815260200182805461075f906118fa565b80156107ac5780601f10610781576101008083540402835291602001916107ac565b820191906000526020600020905b81548152906001019060200180831161078f57829003601f168201915b5050509183525050600882015460ff80821615156020840152610100909104161515604082015260098201546060820152600a9091015460809091015292915050565b6001600160a01b03811660009081526001602090815260408083208054825181850281018501909352808352849383018282801561084c57602002820191906000526020600020905b815481526020019060010190808311610838575b505050505090506000805b82518110156108e05760008084838151811061087557610875611889565b60209081029190910181015182528101919091526040016000206008015460ff16156108d8576000808483815181106108b0576108b0611889565b6020026020010151815260200190815260200160002060030154826108d59190611934565b91505b600101610857565b509392505050565b6000602081905290815260409020805460018201546002830154600384015460048501805494956001600160a01b03948516959390941693919261092b906118fa565b80601f0160208091040260200160405190810160405280929190818152602001828054610957906118fa565b80156109a45780601f10610979576101008083540402835291602001916109a4565b820191906000526020600020905b81548152906001019060200180831161098757829003601f168201915b5050505050908060050180546109b9906118fa565b80601f01602080910402602001604051908101604052809291908181526020018280546109e5906118fa565b8015610a325780601f10610a0757610100808354040283529160200191610a32565b820191906000526020600020905b815481529060010190602001808311610a1557829003601f168201915b505050505090806006018054610a47906118fa565b80601f0160208091040260200160405190810160405280929190818152602001828054610a73906118fa565b8015610ac05780601f10610a9557610100808354040283529160200191610ac0565b820191906000526020600020905b815481529060010190602001808311610aa357829003601f168201915b505050505090806007018054610ad5906118fa565b80601f0160208091040260200160405190810160405280929190818152602001828054610b01906118fa565b8015610b4e5780601f10610b2357610100808354040283529160200191610b4e565b820191906000526020600020905b815481529060010190602001808311610b3157829003601f168201915b50505060088401546009850154600a90950154939460ff8083169561010090930416935091508c565b6002805460009182610b88836118b5565b90915550506040805161018081018252600280548083523360208085019182526001600160a01b038d8116868801908152606087018e8152608088018e815260a089018e905260c089018d905260e089018c905260006101008a018190526101208a01819052426101408b01526101608a0181905296875293869052979094208651815592516001840180549183166001600160a01b03199283161790559351948301805495909116949093169390931790915592516003840155519091906004820190610c56908261199c565b5060a08201516005820190610c6b908261199c565b5060c08201516006820190610c80908261199c565b5060e08201516007820190610c95908261199c565b506101008281015160088301805461012086015161ffff1990911692151561ff00191692909217911515909202179055610140820151600982015561016090910151600a9091015533600081815260016020818152604080842060028054825495860183559186529290942090920192909255905490516001600160a01b038a169291907ff5110f108b855f911013722b1af20d455f462e94572766f7a44cfd2e64829fd690610d4a908b908a908a90611a5b565b60405180910390a4506002549695505050505050565b6001600160a01b038116600090815260016020908152604080832080548251818502810185019093528083528493830182828015610dbd57602002820191906000526020600020905b815481526020019060010190808311610da9575b505050505090506000805b82518110156108e057600080848381518110610de657610de6611889565b60209081029190910181015182528101919091526040016000206008015460ff16158015610e4d5750600080848381518110610e2457610e24611889565b6020026020010151815260200190815260200160002060080160019054906101000a900460ff16155b15610e8f57600080848381518110610e6757610e67611889565b602002602001015181526020019081526020016000206003015482610e8c9190611934565b91505b600101610dc8565b600081118015610ea957506002548111155b610ec55760405162461bcd60e51b815260040161050f906118ce565b6000818152602081905260409020600101546001600160a01b03163314610f3f5760405162461bcd60e51b815260206004820152602860248201527f4f6e6c7920696e766f6963652063726561746f722063616e20636f6e6669726d604482015267081c185e5b595b9d60c21b606482015260840161050f565b60008181526020819052604090206008015460ff1615610f985760405162461bcd60e51b8152602060048201526014602482015273125b9d9bda58d948185b1c9958591e481c185a5960621b604482015260640161050f565b600081815260208190526040902060080154610100900460ff1615610ff65760405162461bcd60e51b8152602060048201526014602482015273125b9d9bda58d9481a5cc818d85b98d95b1b195960621b604482015260640161050f565b6000818152602081815260409182902060088101805460ff1916600117905542600a820181905560039091015483519081529182015282917f2a2856cfa1df898bbc0e6d517e310b7056b588c393f1918685a541f213f2f1a791015b60405180910390a250565b60008111801561106f57506002548111155b61108b5760405162461bcd60e51b815260040161050f906118ce565b6000818152602081905260409020600101546001600160a01b031633146111045760405162461bcd60e51b815260206004820152602760248201527f4f6e6c7920696e766f6963652063726561746f722063616e2063616e63656c20604482015266696e766f69636560c81b606482015260840161050f565b60008181526020819052604090206008015460ff16156111665760405162461bcd60e51b815260206004820152601a60248201527f43616e6e6f742063616e63656c207061696420696e766f696365000000000000604482015260640161050f565b600081815260208190526040902060080154610100900460ff16156111cd5760405162461bcd60e51b815260206004820152601960248201527f496e766f69636520616c72656164792063616e63656c6c656400000000000000604482015260640161050f565b60008181526020819052604090819020600801805461ff0019166101001790555181907fedaa303e89ee281697ba652192508238167c1d6bb056355d8daacf9887d94697906110529042815260200190565b6001600160a01b038116600090815260016020908152604080832080548251818502810185019093528083526060949383018282801561127e57602002820191906000526020600020905b81548152602001906001019080831161126a575b505050505090506000805b8251811015611329576000808483815181106112a7576112a7611889565b60209081029190910181015182528101919091526040016000206008015460ff1615801561130e57506000808483815181106112e5576112e5611889565b6020026020010151815260200190815260200160002060080160019054906101000a900460ff16155b15611321578161131d816118b5565b9250505b600101611289565b5060008167ffffffffffffffff8111156113455761134561170b565b60405190808252806020026020018201604052801561136e578160200160208202803683370190505b5090506000805b845181101561045c5760008086838151811061139357611393611889565b60209081029190910181015182528101919091526040016000206008015460ff161580156113fa57506000808683815181106113d1576113d1611889565b6020026020010151815260200190815260200160002060080160019054906101000a900460ff16155b156114445784818151811061141157611411611889565b602002602001015183838151811061142b5761142b611889565b602090810291909101015281611440816118b5565b9250505b600101611375565b6001600160a01b038116811461146157600080fd5b50565b6000806040838503121561147757600080fd5b82356114828161144c565b946020939093013593505050565b6000602082840312156114a257600080fd5b81356114ad8161144c565b9392505050565b602080825282518282018190526000918401906040840190835b8181101561045c5783518352602093840193909201916001016114ce565b6000602082840312156114fe57600080fd5b5035919050565b6000815180845260005b8181101561152b5760208185018101518683018201520161150f565b506000602082860101526020601f19601f83011685010191505092915050565b60208152815160208201526000602083015161157260408401826001600160a01b03169052565b5060408301516001600160a01b03811660608401525060608301516080830152608083015161018060a08401526115ad6101a0840182611505565b905060a0840151601f198483030160c08501526115ca8282611505565b91505060c0840151601f198483030160e08501526115e88282611505565b91505060e0840151601f19848303016101008501526116078282611505565b91505061010084015161161f61012085018215159052565b50610120840151801515610140850152506101408401516101608401526101608401516101808401528091505092915050565b8c81526001600160a01b038c811660208301528b1660408201528960608201526101806080820152600061168a61018083018b611505565b82810360a084015261169c818b611505565b905082810360c08401526116b0818a611505565b905082810360e08401526116c48189611505565b9150506116d661010083018715159052565b84151561012083015261014082019390935261016001529a9950505050505050505050565b80356117068161144c565b919050565b634e487b7160e01b600052604160045260246000fd5b600082601f83011261173257600080fd5b813567ffffffffffffffff81111561174c5761174c61170b565b604051601f8201601f19908116603f0116810167ffffffffffffffff8111828210171561177b5761177b61170b565b60405281815283820160200185101561179357600080fd5b816020850160208301376000918101602001919091529392505050565b60008060008060008060c087890312156117c957600080fd5b6117d2876116fb565b955060208701359450604087013567ffffffffffffffff8111156117f557600080fd5b61180189828a01611721565b945050606087013567ffffffffffffffff81111561181e57600080fd5b61182a89828a01611721565b935050608087013567ffffffffffffffff81111561184757600080fd5b61185389828a01611721565b92505060a087013567ffffffffffffffff81111561187057600080fd5b61187c89828a01611721565b9150509295509295509295565b634e487b7160e01b600052603260045260246000fd5b634e487b7160e01b600052601160045260246000fd5b6000600182016118c7576118c761189f565b5060010190565b602080825260129082015271125b9d985b1a59081a5b9d9bda58d948125160721b604082015260600190565b600181811c9082168061190e57607f821691505b60208210810361192e57634e487b7160e01b600052602260045260246000fd5b50919050565b808201808211156119475761194761189f565b92915050565b601f82111561199757806000526020600020601f840160051c810160208510156119745750805b601f840160051c820191505b818110156119945760008155600101611980565b50505b505050565b815167ffffffffffffffff8111156119b6576119b661170b565b6119ca816119c484546118fa565b8461194d565b6020601f8211600181146119fe57600083156119e65750848201515b600019600385901b1c1916600184901b178455611994565b600084815260208120601f198516915b82811015611a2e5787850151825560209485019460019092019101611a0e565b5084821015611a4c5786840151600019600387901b60f8161c191681555b50505050600190811b01905550565b838152606060208201526000611a746060830185611505565b8281036040840152611a868185611505565b969550505050505056fea2646970667358221220a9cdd2072c0692da3f76d9f3d6727ef7cc4d86a5276d4d5c710d62ff44b8eeed64736f6c634300081c0033",
  "linkReferences": {},
  "deployedLinkReferences": {}
}