{
  "_format": "hh-sol-artifact-1",
  "contractName": "InvoiceContract",
  "sourceName": "contracts/InvoiceContract.sol",
  "abi": [
    {
      "inputs": [],
      "stateMutability": "nonpayable",
      "type": "constructor"
    },
    {
      "inputs": [],
      "name": "AccessControlBadConfirmation",
      "type": "error"
    },
    {
      "inputs": [
        {
          "internalType": "address",
          "name": "account",
          "type": "address"
        },
        {
          "internalType": "bytes32",
          "name": "neededRole",
          "type": "bytes32"
        }
      ],
      "name": "AccessControlUnauthorizedAccount",
      "type": "error"
    },
    {
      "anonymous": false,
      "inputs": [
        {
          "indexed": true,
          "internalType": "uint256",
          "name": "id",
          "type": "uint256"
        },
        {
          "indexed": true,
          "internalType": "address",
          "name": "approver",
          "type": "address"
        },
        {
          "indexed": false,
          "internalType": "uint256",
          "name": "timestamp",
          "type": "uint256"
        }
      ],
      "name": "InvoiceApproved",
      "type": "event"
    },
    {
      "anonymous": false,
      "inputs": [
        {
          "indexed": true,
          "internalType": "uint256",
          "name": "id",
          "type": "uint256"
        },
        {
          "indexed": false,
          "internalType": "uint256",
          "name": "timestamp",
          "type": "uint256"
        }
      ],
      "name": "InvoiceCancelled",
      "type": "event"
    },
    {
      "anonymous": false,
      "inputs": [
        {
          "indexed": true,
          "internalType": "uint256",
          "name": "id",
          "type": "uint256"
        },
        {
          "indexed": true,
          "internalType": "address",
          "name": "creator",
          "type": "address"
        },
        {
          "indexed": true,
          "internalType": "address",
          "name": "recipient",
          "type": "address"
        },
        {
          "indexed": false,
          "internalType": "uint256",
          "name": "amount",
          "type": "uint256"
        },
        {
          "indexed": false,
          "internalType": "string",
          "name": "bitcoinAddress",
          "type": "string"
        },
        {
          "indexed": false,
          "internalType": "string",
          "name": "clientName",
          "type": "string"
        },
        {
          "indexed": false,
          "internalType": "string",
          "name": "payToAddress",
          "type": "string"
        },
        {
          "indexed": false,
          "internalType": "string",
          "name": "currency",
          "type": "string"
        },
        {
          "indexed": false,
          "internalType": "uint256",
          "name": "expiresAt",
          "type": "uint256"
        }
      ],
      "name": "InvoiceCreated",
      "type": "event"
    },
    {
      "anonymous": false,
      "inputs": [
        {
          "indexed": true,
          "internalType": "uint256",
          "name": "id",
          "type": "uint256"
        },
        {
          "indexed": false,
          "internalType": "uint256",
          "name": "amount",
          "type": "uint256"
        },
        {
          "indexed": false,
          "internalType": "uint256",
          "name": "timestamp",
          "type": "uint256"
        },
        {
          "indexed": false,
          "internalType": "string",
          "name": "paymentTxHash",
          "type": "string"
        },
        {
          "indexed": false,
          "internalType": "string",
          "name": "observedInboundAmount",
          "type": "string"
        }
      ],
      "name": "InvoicePaid",
      "type": "event"
    },
    {
      "anonymous": false,
      "inputs": [
        {
          "indexed": true,
          "internalType": "bytes32",
          "name": "role",
          "type": "bytes32"
        },
        {
          "indexed": true,
          "internalType": "bytes32",
          "name": "previousAdminRole",
          "type": "bytes32"
        },
        {
          "indexed": true,
          "internalType": "bytes32",
          "name": "newAdminRole",
          "type": "bytes32"
        }
      ],
      "name": "RoleAdminChanged",
      "type": "event"
    },
    {
      "anonymous": false,
      "inputs": [
        {
          "indexed": true,
          "internalType": "bytes32",
          "name": "role",
          "type": "bytes32"
        },
        {
          "indexed": true,
          "internalType": "address",
          "name": "account",
          "type": "address"
        },
        {
          "indexed": true,
          "internalType": "address",
          "name": "sender",
          "type": "address"
        }
      ],
      "name": "RoleGranted",
      "type": "event"
    },
    {
      "anonymous": false,
      "inputs": [
        {
          "indexed": true,
          "internalType": "bytes32",
          "name": "role",
          "type": "bytes32"
        },
        {
          "indexed": true,
          "internalType": "address",
          "name": "account",
          "type": "address"
        },
        {
          "indexed": true,
          "internalType": "address",
          "name": "sender",
          "type": "address"
        }
      ],
      "name": "RoleRevoked",
      "type": "event"
    },
    {
      "inputs": [],
      "name": "BOARD_ROLE",
      "outputs": [
        {
          "internalType": "bytes32",
          "name": "",
          "type": "bytes32"
        }
      ],
      "stateMutability": "view",
      "type": "function"
    },
    {
      "inputs": [],
      "name": "DEFAULT_ADMIN_ROLE",
      "outputs": [
        {
          "internalType": "bytes32",
          "name": "",
          "type": "bytes32"
        }
      ],
      "stateMutability": "view",
      "type": "function"
    },
    {
      "inputs": [],
      "name": "PAYMENT_ORACLE_ROLE",
      "outputs": [
        {
          "internalType": "bytes32",
          "name": "",
          "type": "bytes32"
        }
      ],
      "stateMutability": "view",
      "type": "function"
    },
    {
      "inputs": [
        {
          "internalType": "uint256",
          "name": "_id",
          "type": "uint256"
        }
      ],
      "name": "approveInvoice",
      "outputs": [],
      "stateMutability": "nonpayable",
      "type": "function"
    },
    {
      "inputs": [
        {
          "internalType": "uint256",
          "name": "_id",
          "type": "uint256"
        }
      ],
      "name": "cancelInvoice",
      "outputs": [],
      "stateMutability": "nonpayable",
      "type": "function"
    },
    {
      "inputs": [
        {
          "internalType": "uint256",
          "name": "_id",
          "type": "uint256"
        },
        {
          "internalType": "string",
          "name": "_paymentTxHash",
          "type": "string"
        },
        {
          "internalType": "string",
          "name": "_observedInboundAmount",
          "type": "string"
        }
      ],
      "name": "confirmPayment",
      "outputs": [],
      "stateMutability": "nonpayable",
      "type": "function"
    },
    {
      "inputs": [
        {
          "internalType": "address payable",
          "name": "_recipient",
          "type": "address"
        },
        {
          "internalType": "uint256",
          "name": "_amount",
          "type": "uint256"
        },
        {
          "internalType": "string",
          "name": "_description",
          "type": "string"
        },
        {
          "internalType": "string",
          "name": "_bitcoinAddress",
          "type": "string"
        },
        {
          "internalType": "string",
          "name": "_clientName",
          "type": "string"
        },
        {
          "internalType": "string",
          "name": "_clientCode",
          "type": "string"
        },
        {
          "internalType": "uint256",
          "name": "_expiresAt",
          "type": "uint256"
        },
        {
          "internalType": "string",
          "name": "_payToAddress",
          "type": "string"
        },
        {
          "internalType": "string",
          "name": "_currency",
          "type": "string"
        },
        {
          "internalType": "string",
          "name": "_balanceAtCreation",
          "type": "string"
        }
      ],
      "name": "createInvoice",
      "outputs": [
        {
          "internalType": "uint256",
          "name": "",
          "type": "uint256"
        }
      ],
      "stateMutability": "nonpayable",
      "type": "function"
    },
    {
      "inputs": [],
      "name": "getAllInvoices",
      "outputs": [
        {
          "components": [
            {
              "internalType": "uint256",
              "name": "id",
              "type": "uint256"
            },
            {
              "internalType": "address payable",
              "name": "creator",
              "type": "address"
            },
            {
              "internalType": "address payable",
              "name": "recipient",
              "type": "address"
            },
            {
              "internalType": "uint256",
              "name": "amount",
              "type": "uint256"
            },
            {
              "internalType": "string",
              "name": "description",
              "type": "string"
            },
            {
              "internalType": "string",
              "name": "bitcoinAddress",
              "type": "string"
            },
            {
              "internalType": "string",
              "name": "clientName",
              "type": "string"
            },
            {
              "internalType": "string",
              "name": "clientCode",
              "type": "string"
            },
            {
              "internalType": "bool",
              "name": "paid",
              "type": "bool"
            },
            {
              "internalType": "bool",
              "name": "cancelled",
              "type": "bool"
            },
            {
              "internalType": "uint256",
              "name": "createdAt",
              "type": "uint256"
            },
            {
              "internalType": "uint256",
              "name": "paidAt",
              "type": "uint256"
            },
            {
              "internalType": "uint256",
              "name": "expiresAt",
              "type": "uint256"
            },
            {
              "internalType": "string",
              "name": "payToAddress",
              "type": "string"
            },
            {
              "internalType": "string",
              "name": "paymentTxHash",
              "type": "string"
            },
            {
              "internalType": "string",
              "name": "observedInboundAmount",
              "type": "string"
            },
            {
              "internalType": "string",
              "name": "currency",
              "type": "string"
            },
            {
              "internalType": "string",
              "name": "balanceAtCreation",
              "type": "string"
            }
          ],
          "internalType": "struct InvoiceContract.Invoice[]",
          "name": "",
          "type": "tuple[]"
        }
      ],
      "stateMutability": "view",
      "type": "function"
    },
    {
      "inputs": [
        {
          "internalType": "uint256",
          "name": "_id",
          "type": "uint256"
        }
      ],
      "name": "getInvoice",
      "outputs": [
        {
          "components": [
            {
              "internalType": "uint256",
              "name": "id",
              "type": "uint256"
            },
            {
              "internalType": "address payable",
              "name": "creator",
              "type": "address"
            },
            {
              "internalType": "address payable",
              "name": "recipient",
              "type": "address"
            },
            {
              "internalType": "uint256",
              "name": "amount",
              "type": "uint256"
            },
            {
              "internalType": "string",
              "name": "description",
              "type": "string"
            },
            {
              "internalType": "string",
              "name": "bitcoinAddress",
              "type": "string"
            },
            {
              "internalType": "string",
              "name": "clientName",
              "type": "string"
            },
            {
              "internalType": "string",
              "name": "clientCode",
              "type": "string"
            },
            {
              "internalType": "bool",
              "name": "paid",
              "type": "bool"
            },
            {
              "internalType": "bool",
              "name": "cancelled",
              "type": "bool"
            },
            {
              "internalType": "uint256",
              "name": "createdAt",
              "type": "uint256"
            },
            {
              "internalType": "uint256",
              "name": "paidAt",
              "type": "uint256"
            },
            {
              "internalType": "uint256",
              "name": "expiresAt",
              "type": "uint256"
            },
            {
              "internalType": "string",
              "name": "payToAddress",
              "type": "string"
            },
            {
              "internalType": "string",
              "name": "paymentTxHash",
              "type": "string"
            },
            {
              "internalType": "string",
              "name": "observedInboundAmount",
              "type": "string"
            },
            {
              "internalType": "string",
              "name": "currency",
              "type": "string"
            },
            {
              "internalType": "string",
              "name": "balanceAtCreation",
              "type": "string"
            }
          ],
          "internalType": "struct InvoiceContract.Invoice",
          "name": "",
          "type": "tuple"
        }
      ],
      "stateMutability": "view",
      "type": "function"
    },
    {
      "inputs": [
        {
          "internalType": "bool",
          "name": "includePaid",
          "type": "bool"
        },
        {
          "internalType": "bool",
          "name": "includeCancelled",
          "type": "bool"
        }
      ],
      "name": "getInvoicesByStatus",
      "outputs": [
        {
          "internalType": "uint256[]",
          "name": "",
          "type": "uint256[]"
        }
      ],
      "stateMutability": "view",
      "type": "function"
    },
    {
      "inputs": [
        {
          "internalType": "address",
          "name": "_user",
          "type": "address"
        }
      ],
      "name": "getPaidInvoices",
      "outputs": [
        {
          "internalType": "uint256[]",
          "name": "",
          "type": "uint256[]"
        }
      ],
      "stateMutability": "view",
      "type": "function"
    },
    {
      "inputs": [
        {
          "internalType": "address",
          "name": "_user",
          "type": "address"
        }
      ],
      "name": "getPendingAmount",
      "outputs": [
        {
          "internalType": "uint256",
          "name": "",
          "type": "uint256"
        }
      ],
      "stateMutability": "view",
      "type": "function"
    },
    {
      "inputs": [
        {
          "internalType": "address",
          "name": "_user",
          "type": "address"
        }
      ],
      "name": "getPendingInvoices",
      "outputs": [
        {
          "internalType": "uint256[]",
          "name": "",
          "type": "uint256[]"
        }
      ],
      "stateMutability": "view",
      "type": "function"
    },
    {
      "inputs": [
        {
          "internalType": "bytes32",
          "name": "role",
          "type": "bytes32"
        }
      ],
      "name": "getRoleAdmin",
      "outputs": [
        {
          "internalType": "bytes32",
          "name": "",
          "type": "bytes32"
        }
      ],
      "stateMutability": "view",
      "type": "function"
    },
    {
      "inputs": [
        {
          "internalType": "address",
          "name": "_user",
          "type": "address"
        }
      ],
      "name": "getTotalRevenue",
      "outputs": [
        {
          "internalType": "uint256",
          "name": "",
          "type": "uint256"
        }
      ],
      "stateMutability": "view",
      "type": "function"
    },
    {
      "inputs": [
        {
          "internalType": "address",
          "name": "_user",
          "type": "address"
        }
      ],
      "name": "getUserInvoiceCount",
      "outputs": [
        {
          "internalType": "uint256",
          "name": "",
          "type": "uint256"
        }
      ],
      "stateMutability": "view",
      "type": "function"
    },
    {
      "inputs": [
        {
          "internalType": "address",
          "name": "_user",
          "type": "address"
        }
      ],
      "name": "getUserInvoices",
      "outputs": [
        {
          "internalType": "uint256[]",
          "name": "",
          "type": "uint256[]"
        }
      ],
      "stateMutability": "view",
      "type": "function"
    },
    {
      "inputs": [
        {
          "internalType": "bytes32",
          "name": "role",
          "type": "bytes32"
        },
        {
          "internalType": "address",
          "name": "account",
          "type": "address"
        }
      ],
      "name": "grantRole",
      "outputs": [],
      "stateMutability": "nonpayable",
      "type": "function"
    },
    {
      "inputs": [
        {
          "internalType": "bytes32",
          "name": "role",
          "type": "bytes32"
        },
        {
          "internalType": "address",
          "name": "account",
          "type": "address"
        }
      ],
      "name": "hasRole",
      "outputs": [
        {
          "internalType": "bool",
          "name": "",
          "type": "bool"
        }
      ],
      "stateMutability": "view",
      "type": "function"
    },
    {
      "inputs": [],
      "name": "invoiceCount",
      "outputs": [
        {
          "internalType": "uint256",
          "name": "",
          "type": "uint256"
        }
      ],
      "stateMutability": "view",
      "type": "function"
    },
    {
      "inputs": [
        {
          "internalType": "uint256",
          "name": "",
          "type": "uint256"
        }
      ],
      "name": "invoices",
      "outputs": [
        {
          "internalType": "uint256",
          "name": "id",
          "type": "uint256"
        },
        {
          "internalType": "address payable",
          "name": "creator",
          "type": "address"
        },
        {
          "internalType": "address payable",
          "name": "recipient",
          "type": "address"
        },
        {
          "internalType": "uint256",
          "name": "amount",
          "type": "uint256"
        },
        {
          "internalType": "string",
          "name": "description",
          "type": "string"
        },
        {
          "internalType": "string",
          "name": "bitcoinAddress",
          "type": "string"
        },
        {
          "internalType": "string",
          "name": "clientName",
          "type": "string"
        },
        {
          "internalType": "string",
          "name": "clientCode",
          "type": "string"
        },
        {
          "internalType": "bool",
          "name": "paid",
          "type": "bool"
        },
        {
          "internalType": "bool",
          "name": "cancelled",
          "type": "bool"
        },
        {
          "internalType": "uint256",
          "name": "createdAt",
          "type": "uint256"
        },
        {
          "internalType": "uint256",
          "name": "paidAt",
          "type": "uint256"
        },
        {
          "internalType": "uint256",
          "name": "expiresAt",
          "type": "uint256"
        },
        {
          "internalType": "string",
          "name": "payToAddress",
          "type": "string"
        },
        {
          "internalType": "string",
          "name": "paymentTxHash",
          "type": "string"
        },
        {
          "internalType": "string",
          "name": "observedInboundAmount",
          "type": "string"
        },
        {
          "internalType": "string",
          "name": "currency",
          "type": "string"
        },
        {
          "internalType": "string",
          "name": "balanceAtCreation",
          "type": "string"
        }
      ],
      "stateMutability": "view",
      "type": "function"
    },
    {
      "inputs": [
        {
          "internalType": "bytes32",
          "name": "role",
          "type": "bytes32"
        },
        {
          "internalType": "address",
          "name": "callerConfirmation",
          "type": "address"
        }
      ],
      "name": "renounceRole",
      "outputs": [],
      "stateMutability": "nonpayable",
      "type": "function"
    },
    {
      "inputs": [
        {
          "internalType": "bytes32",
          "name": "role",
          "type": "bytes32"
        },
        {
          "internalType": "address",
          "name": "account",
          "type": "address"
        }
      ],
      "name": "revokeRole",
      "outputs": [],
      "stateMutability": "nonpayable",
      "type": "function"
    },
    {
      "inputs": [
        {
          "internalType": "bytes4",
          "name": "interfaceId",
          "type": "bytes4"
        }
      ],
      "name": "supportsInterface",
      "outputs": [
        {
          "internalType": "bool",
          "name": "",
          "type": "bool"
        }
      ],
      "stateMutability": "view",
      "type": "function"
    },
    {
      "inputs": [
        {
          "internalType": "address",
          "name": "",
          "type": "address"
        },
        {
          "internalType": "uint256",
          "name": "",
          "type": "uint256"
        }
      ],
      "name": "userInvoices",
      "outputs": [
        {
          "internalType": "uint256",
          "name": "",
          "type": "uint256"
        }
      ],
      "stateMutability": "view",
      "type": "function"
    }
  ],
  "bytecode": "0x60806040523461002c5761001233610031565b5061001c336100ad565b50604051612b2f90816101468239f35b600080fd5b6001600160a01b0381166000908152600080516020612cb5833981519152602052604090205460ff166100a7576001600160a01b03166000818152600080516020612cb583398151915260205260408120805460ff19166001179055339190600080516020612c758339815191528180a4600190565b50600090565b6001600160a01b0381166000908152600080516020612c95833981519152602052604090205460ff166100a7576001600160a01b03166000818152600080516020612c9583398151915260205260408120805460ff191660011790553391907f0182a37f4cfe4a11c9cc13af6a96350bc084bedfd41df0928670dbabcfe3aea190600080516020612c758339815191529080a460019056fe61010080604052600436101561001457600080fd5b60003560e01c90816301ffc9a7146123705750806305b11d37146123355780630ad6b0a5146122dc5780631346f0c4146122be57806321e2a79114612284578063248a9ca31461224f57806324d3b3e2146121cc5780632542a1f9146120a95780632f2ff15d1461206957806336568abe146120235780633a23cc0a14611fbc57806349567e0114611eef5780634e6d140514611ce0578063511656db14610f3a578063570bdad614610e0b5780637571af2214610cec57806378defd9e14610cb157806391d1485414610c6457806396c579fa14610b1a578063a217fddf14610afe578063b32413b7146109da578063d547741f14610993578063da9c273d146107e1578063e3f1a28d1461063b5763ea20f3621461013357600080fd5b34610636576060366003190112610636576004356024356001600160401b038111610636576101669036906004016126f7565b906044356001600160401b038111610636576101869036906004016126f7565b918115158061062a575b61019990612844565b81600052600160205260ff600860406000200154166105ee5781600052600160205260ff60086040600020015460081c166105b257816000526001602052600b60406000200154421161057b5781600052600160205260018060a01b036001604060002001541633148015610543575b156104fe57600082815260016020819052604090912060088101805460ff191690921790915542600a8201558151600d909101906001600160401b0381116104325761025582546125dc565b601f81116104b6575b50806020601f821160011461045357600091610448575b508160011b916000199060031b1c19161790555b816000526001602052600e604060002001928051936001600160401b038511610432576102b681546125dc565b601f81116103ea575b506020601f86116001146103645794807f261990519d41077a811fccda6680889d2ad9a7d4ae275f44d741c9364c2a37019596600091610359575b508160011b916000199060031b1c19161790555b836000526001602052610354600360406000200154916103466040519485948552426020860152608060408601526080850190612457565b908382036060850152612457565b0390a2005b9050830151386102fa565b601f1986169082600052806000209160005b8181106103d257509187917f261990519d41077a811fccda6680889d2ad9a7d4ae275f44d741c9364c2a37019798600194106103b9575b5050811b01905561030e565b85015160001960f88460031b161c1916905538806103ad565b91926020600181928689015181550194019201610376565b816000526020600020601f870160051c81019160208810610428575b601f0160051c01905b81811061041c57506102bf565b6000815560010161040f565b9091508190610406565b634e487b7160e01b600052604160045260246000fd5b905083015138610275565b60008481528181209250601f198416905b81811061049e57509083600194939210610485575b5050811b019055610289565b85015160001960f88460031b161c191690553880610479565b9192602060018192868a015181550194019201610464565b826000526020600020601f830160051c810191602084106104f4575b601f0160051c01905b8181106104e8575061025e565b600081556001016104db565b90915081906104d2565b60405162461bcd60e51b815260206004820152601960248201527f4e6f7420617574686f72697a656420746f20636f6e6669726d000000000000006044820152606490fd5b503360009081527f7f9dbda07a537866789973ab16b834c90972ae7073b94d82f3d33f1b9e5c4cbb602052604090205460ff16610209565b60405162461bcd60e51b815260206004820152600f60248201526e125b9d9bda58d948195e1c1a5c9959608a1b6044820152606490fd5b60405162461bcd60e51b8152602060048201526014602482015273125b9d9bda58d9481a5cc818d85b98d95b1b195960621b6044820152606490fd5b60405162461bcd60e51b8152602060048201526014602482015273125b9d9bda58d948185b1c9958591e481c185a5960621b6044820152606490fd5b50600354821115610190565b600080fd5b34610636576020366003190112610636576001600160a01b0361065c6123c3565b16600052600260205260406000206040518082602082945493848152019060005260206000209260005b8181106107c857505061069b92500382612632565b6000805b8251811015610718576106b2818461274d565b51600052600160205260ff6008604060002001541615806106ef575b6106db575b60010161069f565b906106e7600191612761565b9190506106d3565b506106fa818461274d565b51600052600160205260ff60086040600020015460081c16156106ce565b5061072290612787565b906000805b82518110156107b65761073a818461274d565b51600052600160205260ff60086040600020015416158061078d575b610763575b600101610727565b90610785600191610774848661274d565b5161077f828861274d565b52612761565b91905061075b565b50610798818461274d565b51600052600160205260ff60086040600020015460081c1615610756565b604051806107c4868261241d565b0390f35b8454835260019485019486945060209093019201610686565b346106365760203660031901126106365760043580151580610987575b61080790612844565b600081815260016020819052604090912001546001600160a01b031633036109325780600052600160205260ff600860406000200154166108ed5780600052600160205260ff60086040600020015460081c166108a857806000526001602052600860406000200161010061ff00198254161790557fedaa303e89ee281697ba652192508238167c1d6bb056355d8daacf9887d946976020604051428152a2005b60405162461bcd60e51b815260206004820152601960248201527f496e766f69636520616c72656164792063616e63656c6c6564000000000000006044820152606490fd5b60405162461bcd60e51b815260206004820152601a60248201527f43616e6e6f742063616e63656c207061696420696e766f6963650000000000006044820152606490fd5b60405162461bcd60e51b815260206004820152602760248201527f4f6e6c7920696e766f6963652063726561746f722063616e2063616e63656c20604482015266696e766f69636560c81b6064820152608490fd5b506003548111156107fe565b34610636576040366003190112610636576109d86004356109b26123d9565b906109d36109ce82600052600060205260016040600020015490565b6129b1565b612a77565b005b34610636576020366003190112610636573360009081527fa7a29618debaa59f0fc05b2ba996e7c1b75722f511d61514074624c13af3c80160205260409020546004359060ff1615610ac55780151580610ab9575b610a3890612844565b80600052600160205260ff6008604060002001541615610a8157604051904282527f4573fe636d53209670f6ddf9b5ca0a3b206c1d4bda8cd616f82f8ef48f06624660203393a3005b60405162461bcd60e51b815260206004820152601060248201526f125b9d9bda58d9481b9bdd081c185a5960821b6044820152606490fd5b50600354811115610a2f565b63e2517d3f60e01b600052336004527f0182a37f4cfe4a11c9cc13af6a96350bc084bedfd41df0928670dbabcfe3aea160245260446000fd5b3461063657600036600319011261063657602060405160008152f35b34610636576040366003190112610636576004358015158103610636576024358015158103610636579060035491610b5183612787565b926000926001925b82841115610ba4578585610b6c81612787565b9160005b828110610b8557604051806107c4868261241d565b80610b926001928461274d565b51610b9d828761274d565b5201610b70565b6000848152600160205260409020600890810154949593949293919260ff9181901c821691168080610c5d575b15610bf8575050610bea818661077f610bf0948a61274d565b94612761565b929190610b59565b8180610c56575b15610c18575050610bea818661077f610bf0948a61274d565b959195159081610c4d575b50610c32575b610bf090612761565b93610c45818661077f610bf0948a61274d565b949050610c29565b90501587610c23565b5083610bff565b5084610bd1565b3461063657604036600319011261063657610c7d6123d9565b600435600052600060205260406000209060018060a01b0316600052602052602060ff604060002054166040519015158152f35b346106365760003660031901126106365760206040517fe9b912fd022fbec9e35b4431d7e4d4ec1d1069c0ba719cc57abaa4f7052354ac8152f35b34610636576020366003190112610636576001600160a01b03610d0d6123c3565b16600052600260205260406000206040518082602082945493848152019060005260206000209260005b818110610df2575050610d4c92500382612632565b60009060005b8151811015610de757610d65818361274d565b51600052600160205260ff600860406000200154161580610dbe575b610d8e575b600101610d52565b91610db6600191610d9f858561274d565b5160005282602052600360406000200154906129a4565b929050610d86565b50610dc9818361274d565b51600052600160205260ff60086040600020015460081c1615610d81565b602083604051908152f35b8454835260019485019486945060209093019201610d37565b3461063657600036600319011261063657600354610e2881612770565b90610e366040519283612632565b808252601f19610e4582612770565b0160005b818110610f2357505060015b81811115610ec557826040518091602082016020835281518091526040830190602060408260051b8601019301916000905b828210610e9657505050500390f35b91936001919395506020610eb58192603f198a82030186528851612498565b9601920192018594939192610e87565b806000526001602052604060002090600019810191818311610f0d57610f0892610ef1610f0292612885565b610efb828861274d565b528561274d565b50612761565b610e55565b634e487b7160e01b600052601160045260246000fd5b602090610f2e6127b9565b82828701015201610e49565b3461063657610140366003190112610636576004356001600160a01b0381168103610636576044356001600160401b03811161063657610f7e9036906004016126f7565b906064356001600160401b03811161063657610f9e9036906004016126f7565b906084356001600160401b03811161063657610fbe9036906004016126f7565b9060a4356001600160401b03811161063657610fde9036906004016126f7565b9260e4356001600160401b03811161063657610ffe9036906004016126f7565b92610104356001600160401b0381116106365761101f9036906004016126f7565b91610124356001600160401b038111610636576110409036906004016126f7565b9661104c600354612761565b96876003556040519161105e83612616565b88835233602084015260018060a01b0387166040840152602435606084015260808301528260a08301528360c083015260e08201526000610100820152600061012082015242610140820152600061016082015260c435610180820152856101a08201526020976040516110d28a82612632565b600081526101c08301526040516110e98a82612632565b60008082526101e084019190915261020083018690526102208301919091528781526001808a5260409182902083518155602084015191810180546001600160a01b03199081166001600160a01b0394851617909155928401516002820180549094169216919091179091556060820151600382015560808201518051906001600160401b03821161043257819061118460048501546125dc565b601f8111611c8f575b508b90601f8311600114611c2157600092611c16575b50508160011b916000199060031b1c19161760048201555b60a08201518051906001600160401b0382116104325781906111e060058501546125dc565b601f8111611bc5575b508b90601f8311600114611b5757600092611b4c575b50508160011b916000199060031b1c19161760058201555b60c08201518051906001600160401b03821161043257819061123c60068501546125dc565b601f8111611afb575b508b90601f8311600114611a8d57600092611a82575b50508160011b916000199060031b1c19161760068201555b60e08201518051906001600160401b03821161043257819061129860078501546125dc565b601f8111611a31575b508b90601f83116001146119c3576000926119b8575b50508160011b916000199060031b1c19161760078201555b60088101610100830151151560ff80198354169116178155610120830151151561ff0082549160081b169061ff0019161790556101408201516009820155610160820151600a820155610180820151600b8201556101a08201518051906001600160401b038211610432578190611349600c8501546125dc565b601f8111611967575b508b90601f83116001146118f9576000926118ee575b50508160011b916000199060031b1c191617600c8201555b6101c08201518051906001600160401b0382116104325781906113a6600d8501546125dc565b601f811161189d575b508b90601f831160011461182f57600092611824575b50508160011b916000199060031b1c191617600d8201555b6101e08201518051906001600160401b038211610432578190611403600e8501546125dc565b601f81116117d3575b508b90601f83116001146117655760009261175a575b50508160011b916000199060031b1c191617600e8201555b600f81016102008301518051906001600160401b038211610432578b61146084546125dc565b601f8111611712575b50508b908c601f84116001146116a257509180601094926102209694600092611697575b50508160011b916000199060031b1c19161790555b019101518051906001600160401b0382116104325781906114c384546125dc565b601f8111611646575b508a90601f83116001146115e1576000926115d6575b50508160011b916000199060031b1c19161790555b3360005260028752604060002092835491680100000000000000008310156104325788966115977f6b007c52cce1ea806e675913586ecd79214160b00f30204fdc38092b60ca07a0956115896115a59461155b888e9b60016115b39b0181556123ef565b81549060031b908c821b91600019901b191617905560c06040519c8d60243590528d015260c08c0190612457565b908a820360408c0152612457565b9088820360608a0152612457565b908682036080880152612457565b60c43560a08601526001600160a01b0390931693339381900390a4604051908152f35b015190508a806114e2565b60008581528c81209350601f198516905b8d828210611630575050908460019594939210611617575b505050811b0190556114f7565b015160001960f88460031b161c191690558a808061160a565b60018596829396860151815501950193016115f2565b909150836000528a600020601f840160051c8101918c851061168d575b90601f859493920160051c01905b81811061167e57506114cc565b60008155849350600101611671565b9091508190611663565b015190508e8061148d565b9190601f1984168560005283600020936000905b8282106116fa575050926001928592610220989660109896106116e1575b505050811b0190556114a2565b015160001960f88460031b161c191690558e80806116d4565b806001869782949787015181550196019401906116b6565b846000528160002090601f850160051c8201928510611750575b601f0160051c01905b818110611744578d9150611469565b60008155600101611735565b909150819061172c565b015190508b80611422565b600e850160009081528d81209350601f198516908e5b8282106117bb5750509084600195949392106117a2575b505050811b01600e82015561143a565b015160001960f88460031b161c191690558b8080611792565b8060018697829497870151815501960194019061177b565b909150600e84016000528b600020601f840160051c81018d851061181d575b90849392915b601f830160051c8201811061180e57505061140c565b600081558594506001016117f8565b50806117f2565b015190508b806113c5565b600d850160009081528d81209350601f198516908e5b82821061188557505090846001959493921061186c575b505050811b01600d8201556113dd565b015160001960f88460031b161c191690558b808061185c565b80600186978294978701518155019601940190611845565b909150600d84016000528b600020601f840160051c81018d85106118e7575b90849392915b601f830160051c820181106118d85750506113af565b600081558594506001016118c2565b50806118bc565b015190508b80611368565b600c850160009081528d81209350601f198516908e5b82821061194f575050908460019594939210611936575b505050811b01600c820155611380565b015160001960f88460031b161c191690558b8080611926565b8060018697829497870151815501960194019061190f565b909150600c84016000528b600020601f840160051c81018d85106119b1575b90849392915b601f830160051c820181106119a2575050611352565b6000815585945060010161198c565b5080611986565b015190508b806112b7565b6007850160009081528d81209350601f198516908e5b828210611a19575050908460019594939210611a00575b505050811b0160078201556112cf565b015160001960f88460031b161c191690558b80806119f0565b806001869782949787015181550196019401906119d9565b909150600784016000528b600020601f840160051c81018d8510611a7b575b90849392915b601f830160051c82018110611a6c5750506112a1565b60008155859450600101611a56565b5080611a50565b015190508b8061125b565b6006850160009081528d81209350601f198516908e5b828210611ae3575050908460019594939210611aca575b505050811b016006820155611273565b015160001960f88460031b161c191690558b8080611aba565b80600186978294978701518155019601940190611aa3565b909150600684016000528b600020601f840160051c81018d8510611b45575b90849392915b601f830160051c82018110611b36575050611245565b60008155859450600101611b20565b5080611b1a565b015190508b806111ff565b6005850160009081528d81209350601f198516908e5b828210611bad575050908460019594939210611b94575b505050811b016005820155611217565b015160001960f88460031b161c191690558b8080611b84565b80600186978294978701518155019601940190611b6d565b909150600584016000528b600020601f840160051c81018d8510611c0f575b90849392915b601f830160051c82018110611c005750506111e9565b60008155859450600101611bea565b5080611be4565b015190508b806111a3565b6004850160009081528d81209350601f198516908e5b828210611c77575050908460019594939210611c5e575b505050811b0160048201556111bb565b015160001960f88460031b161c191690558b8080611c4e565b80600186978294978701518155019601940190611c37565b909150600484016000528b600020601f840160051c81018d8510611cd9575b90849392915b601f830160051c82018110611cca57505061118d565b60008155859450600101611cb4565b5080611cae565b346106365760203660031901126106365760043560005260016020526040600020808054600160a01b6001900360018301541660a052600160a01b6001900360028301541660e052600382015460048301611d3a90612653565b611d4660058501612653565b90611d5360068601612653565b91611d6060078701612653565b92600887015493600988015491600a89015493600b8a015495600c8b01611d8690612653565b98611d93600d8d01612653565b9a611da0600e8e01612653565b9c600f01611dad90612653565b9d601001611dba90612653565b60805260405160c05260c0515260a05160c0516020015260e05160c0516040015260c0516060015260c051608001610240905260c05161024001611dfd91612457565b60c051810360c05160a00152611e1291612457565b60c051810360c05160c00152611e2791612457565b60c051810360c05160e00152611e3c91612457565b9360ff8116151560c051610100015260081c60ff16151560c051610120015260c051610140015260c051610160015260c051610180015260c051810360c0516101a00152611e8991612457565b60c051810360c0516101c00152611e9f91612457565b60c051810360c0516101e00152611eb591612457565b60c051810360c0516102000152611ecb91612457565b60c051810360c051610220015260c0519060805190611ee991612457565b0360c051f35b34610636576020366003190112610636576001600160a01b03611f106123c3565b16600052600260205260406000206040518082602082945493848152019060005260206000209260005b818110611fa3575050611f4f92500382612632565b60009060005b8151811015610de757611f68818361274d565b51600052600160205260ff60086040600020015416611f8a575b600101611f55565b91611f9b600191610d9f858561274d565b929050611f82565b8454835260019485019486945060209093019201611f3a565b3461063657602036600319011261063657600435611fd86127b9565b5080151580612017575b611feb90612844565b60005260016020526107c46120036040600020612885565b604051918291602083526020830190612498565b50600354811115611fe2565b346106365760403660031901126106365761203c6123d9565b336001600160a01b03821603612058576109d890600435612a77565b63334bd91960e11b60005260046000fd5b34610636576040366003190112610636576109d86004356120886123d9565b906120a46109ce82600052600060205260016040600020015490565b6129ec565b34610636576020366003190112610636576001600160a01b036120ca6123c3565b16600052600260205260406000206040518082602082945493848152019060005260206000209260005b8181106121b357505061210992500382612632565b6000805b825181101561215657612120818461274d565b51600052600160205260ff60086040600020015416612142575b60010161210d565b9061214e600191612761565b91905061213a565b5061216090612787565b906000805b82518110156107b657612178818461274d565b51600052600160205260ff6008604060002001541661219a575b600101612165565b906121ab600191610774848661274d565b919050612192565b84548352600194850194869450602090930192016120f4565b34610636576020366003190112610636576001600160a01b036121ed6123c3565b166000526002602052604060002060405190816020825491828152019160005260206000209060005b818110612239576107c48561222d81870382612632565b6040519182918261241d565b8254845260209093019260019283019201612216565b3461063657602036600319011261063657602061227c600435600052600060205260016040600020015490565b604051908152f35b34610636576020366003190112610636576001600160a01b036122a56123c3565b1660005260026020526020604060002054604051908152f35b34610636576000366003190112610636576020600354604051908152f35b34610636576040366003190112610636576122f56123c3565b6001600160a01b031660009081526002602052604090208054602435919082101561063657602091612326916123ef565b90549060031b1c604051908152f35b346106365760003660031901126106365760206040517f0182a37f4cfe4a11c9cc13af6a96350bc084bedfd41df0928670dbabcfe3aea18152f35b34610636576020366003190112610636576004359063ffffffff60e01b821680920361063657602091637965db0b60e01b81149081156123b2575b5015158152f35b6301ffc9a760e01b149050836123ab565b600435906001600160a01b038216820361063657565b602435906001600160a01b038216820361063657565b80548210156124075760005260206000200190600090565b634e487b7160e01b600052603260045260246000fd5b602060408183019282815284518094520192019060005b8181106124415750505090565b8251845260209384019390920191600101612434565b919082519283825260005b848110612483575050826000602080949584010152601f8019910116010190565b80602080928401015182828601015201612462565b6125d9918151815260018060a01b03602083015116602082015260018060a01b036040830151166040820152606082015160608201526102206125c76125b361259f61258b61253761252561251361250160808b015161024060808c01526102408b0190612457565b60a08b01518a820360a08c0152612457565b60c08a015189820360c08b0152612457565b60e089015188820360e08a0152612457565b610100880151151561010088015261012088015115156101208801526101408801516101408801526101608801516101608801526101808801516101808801526101a08801518782036101a0890152612457565b6101c08701518682036101c0880152612457565b6101e08601518582036101e0870152612457565b610200850151848203610200860152612457565b92015190610220818403910152612457565b90565b90600182811c9216801561260c575b60208310146125f657565b634e487b7160e01b600052602260045260246000fd5b91607f16916125eb565b61024081019081106001600160401b0382111761043257604052565b90601f801991011681019081106001600160401b0382111761043257604052565b9060405191826000825492612667846125dc565b80845293600181169081156126d5575060011461268e575b5061268c92500383612632565b565b90506000929192526020600020906000915b8183106126b957505090602061268c928201013861267f565b60209193508060019154838589010152019101909184926126a0565b90506020925061268c94915060ff191682840152151560051b8201013861267f565b81601f82011215610636578035906001600160401b038211610432576040519261272b601f8401601f191660200185612632565b8284526020838301011161063657816000926020809301838601378301015290565b80518210156124075760209160051b010190565b6000198114610f0d5760010190565b6001600160401b0381116104325760051b60200190565b9061279182612770565b61279e6040519182612632565b82815280926127af601f1991612770565b0190602036910137565b604051906127c682612616565b6060610220836000815260006020820152600060408201526000838201528260808201528260a08201528260c08201528260e082015260006101008201526000610120820152600061014082015260006101608201526000610180820152826101a0820152826101c0820152826101e0820152826102008201520152565b1561284b57565b60405162461bcd60e51b8152602060048201526012602482015271125b9d985b1a59081a5b9d9bda58d948125160721b6044820152606490fd5b9060405161289281612616565b8254815260018301546001600160a01b0390811660208301526002840154166040820152600383015460608201529182906102209061299f906010906128da60048201612653565b60808601526128eb60058201612653565b60a08601526128fc60068201612653565b60c086015261290d60078201612653565b60e086015260ff6008820154818116151561010088015260081c1615156101208601526009810154610140860152600a810154610160860152600b81015461018086015261295d600c8201612653565b6101a086015261296f600d8201612653565b6101c0860152612981600e8201612653565b6101e0860152612993600f8201612653565b61020086015201612653565b910152565b91908201809211610f0d57565b60008181526020818152604080832033845290915290205460ff16156129d45750565b63e2517d3f60e01b6000523360045260245260446000fd5b6000818152602081815260408083206001600160a01b038616845290915290205460ff16612a70576000818152602081815260408083206001600160a01b0395909516808452949091528120805460ff19166001179055339291907f2f8788117e7eff1d82e926ec794901d17c78024a50270940304540a733656f0d9080a4600190565b5050600090565b6000818152602081815260408083206001600160a01b038616845290915290205460ff1615612a70576000818152602081815260408083206001600160a01b0395909516808452949091528120805460ff19169055339291907ff6391f5c32d9c69d2a47ea670b442974b53935d1edc7fd64eb21e047a839171b9080a460019056fea2646970667358221220e79a1a52c994c99809d7dc61ce7f695e790c6d42f467fffbd5bb66537695a20764736f6c634300081c00332f8788117e7eff1d82e926ec794901d17c78024a50270940304540a733656f0da7a29618debaa59f0fc05b2ba996e7c1b75722f511d61514074624c13af3c801ad3228b676f7d3cd4284a5443f17f1962b36e491b30a40b2405849e597ba5fb5",
  "linkReferences": {},
  "deployedLinkReferences": {}
}