{
  "_format": "hh-sol-artifact-1",
  "contractName": "MUSDToken",
  "sourceName": "contracts/MUSDToken.sol",
  "abi": [
    {
      "inputs": [],
      "stateMutability": "nonpayable",
      "type": "constructor"
    },
    {
      "inputs": [
        {
          "internalType": "address",
          "name": "spender",
          "type": "address"
        },
        {
          "internalType": "uint256",
          "name": "allowance",
          "type": "uint256"
        },
        {
          "internalType": "uint256",
          "name": "needed",
          "type": "uint256"
        }
      ],
      "name": "ERC20InsufficientAllowance",
      "type": "error"
    },
    {
      "inputs": [
        {
          "internalType": "address",
          "name": "sender",
          "type": "address"
        },
        {
          "internalType": "uint256",
          "name": "balance",
          "type": "uint256"
        },
        {
          "internalType": "uint256",
          "name": "needed",
          "type": "uint256"
        }
      ],
      "name": "ERC20InsufficientBalance",
      "type": "error"
    },
    {
      "inputs": [
        {
          "internalType": "address",
          "name": "approver",
          "type": "address"
        }
      ],
      "name": "ERC20InvalidApprover",
      "type": "error"
    },
    {
      "inputs": [
        {
          "internalType": "address",
          "name": "receiver",
          "type": "address"
        }
      ],
      "name": "ERC20InvalidReceiver",
      "type": "error"
    },
    {
      "inputs": [
        {
          "internalType": "address",
          "name": "sender",
          "type": "address"
        }
      ],
      "name": "ERC20InvalidSender",
      "type": "error"
    },
    {
      "inputs": [
        {
          "internalType": "address",
          "name": "spender",
          "type": "address"
        }
      ],
      "name": "ERC20InvalidSpender",
      "type": "error"
    },
    {
      "inputs": [
        {
          "internalType": "address",
          "name": "owner",
          "type": "address"
        }
      ],
      "name": "OwnableInvalidOwner",
      "type": "error"
    },
    {
      "inputs": [
        {
          "internalType": "address",
          "name": "account",
          "type": "address"
        }
      ],
      "name": "OwnableUnauthorizedAccount",
      "type": "error"
    },
    {
      "anonymous": false,
      "inputs": [
        {
          "indexed": true,
          "internalType": "address",
          "name": "owner",
          "type": "address"
        },
        {
          "indexed": true,
          "internalType": "address",
          "name": "spender",
          "type": "address"
        },
        {
          "indexed": false,
          "internalType": "uint256",
          "name": "value",
          "type": "uint256"
        }
      ],
      "name": "Approval",
      "type": "event"
    },
    {
      "anonymous": false,
      "inputs": [
        {
          "indexed": true,
          "internalType": "address",
          "name": "minter",
          "type": "address"
        }
      ],
      "name": "MinterAdded",
      "type": "event"
    },
    {
      "anonymous": false,
      "inputs": [
        {
          "indexed": true,
          "internalType": "address",
          "name": "minter",
          "type": "address"
        }
      ],
      "name": "MinterRemoved",
      "type": "event"
    },
    {
      "anonymous": false,
      "inputs": [
        {
          "indexed": true,
          "internalType": "address",
          "name": "previousOwner",
          "type": "address"
        },
        {
          "indexed": true,
          "internalType": "address",
          "name": "newOwner",
          "type": "address"
        }
      ],
      "name": "OwnershipTransferred",
      "type": "event"
    },
    {
      "anonymous": false,
      "inputs": [
        {
          "indexed": true,
          "internalType": "address",
          "name": "from",
          "type": "address"
        },
        {
          "indexed": true,
          "internalType": "address",
          "name": "to",
          "type": "address"
        },
        {
          "indexed": false,
          "internalType": "uint256",
          "name": "value",
          "type": "uint256"
        }
      ],
      "name": "Transfer",
      "type": "event"
    },
    {
      "inputs": [
        {
          "internalType": "address",
          "name": "minter",
          "type": "address"
        }
      ],
      "name": "addMinter",
      "outputs": [],
      "stateMutability": "nonpayable",
      "type": "function"
    },
    {
      "inputs": [
        {
          "internalType": "address",
          "name": "owner",
          "type": "address"
        },
        {
          "internalType": "address",
          "name": "spender",
          "type": "address"
        }
      ],
      "name": "allowance",
      "outputs": [
        {
          "internalType": "uint256",
          "name": "",
          "type": "uint256"
        }
      ],
      "stateMutability": "view",
      "type": "function"
    },
    {
      "inputs": [
        {
          "internalType": "address",
          "name": "spender",
          "type": "address"
        },
        {
          "internalType": "uint256",
          "name": "value",
          "type": "uint256"
        }
      ],
      "name": "approve",
      "outputs": [
        {
          "internalType": "bool",
          "name": "",
          "type": "bool"
        }
      ],
      "stateMutability": "nonpayable",
      "type": "function"
    },
    {
      "inputs": [
        {
          "internalType": "address",
          "name": "account",
          "type": "address"
        }
      ],
      "name": "balanceOf",
      "outputs": [
        {
          "internalType": "uint256",
          "name": "",
          "type": "uint256"
        }
      ],
      "stateMutability": "view",
      "type": "function"
    },
    {
      "inputs": [
        {
          "internalType": "address",
          "name": "from",
          "type": "address"
        },
        {
          "internalType": "uint256",
          "name": "amount",
          "type": "uint256"
        }
      ],
      "name": "burn",
      "outputs": [],
      "stateMutability": "nonpayable",
      "type": "function"
    },
    {
      "inputs": [],
      "name": "decimals",
      "outputs": [
        {
          "internalType": "uint8",
          "name": "",
          "type": "uint8"
        }
      ],
      "stateMutability": "pure",
      "type": "function"
    },
    {
      "inputs": [
        {
          "internalType": "address",
          "name": "to",
          "type": "address"
        },
        {
          "internalType": "uint256",
          "name": "amount",
          "type": "uint256"
        }
      ],
      "name": "mint",
      "outputs": [],
      "stateMutability": "nonpayable",
      "type": "function"
    },
    {
      "inputs": [
        {
          "internalType": "address",
          "name": "",
          "type": "address"
        }
      ],
      "name": "minters",
      "outputs": [
        {
          "internalType": "bool",
          "name": "",
          "type": "bool"
        }
      ],
      "stateMutability": "view",
      "type": "function"
    },
    {
      "inputs": [],
      "name": "name",
      "outputs": [
        {
          "internalType": "string",
          "name": "",
          "type": "string"
        }
      ],
      "stateMutability": "view",
      "type": "function"
    },
    {
      "inputs": [],
      "name": "owner",
      "outputs": [
        {
          "internalType": "address",
          "name": "",
          "type": "address"
        }
      ],
      "stateMutability": "view",
      "type": "function"
    },
    {
      "inputs": [
        {
          "internalType": "address",
          "name": "minter",
          "type": "address"
        }
      ],
      "name": "removeMinter",
      "outputs": [],
      "stateMutability": "nonpayable",
      "type": "function"
    },
    {
      "inputs": [],
      "name": "renounceOwnership",
      "outputs": [],
      "stateMutability": "nonpayable",
      "type": "function"
    },
    {
      "inputs": [],
      "name": "symbol",
      "outputs": [
        {
          "internalType": "string",
          "name": "",
          "type": "string"
        }
      ],
      "stateMutability": "view",
      "type": "function"
    },
    {
      "inputs": [],
      "name": "totalSupply",
      "outputs": [
        {
          "internalType": "uint256",
          "name": "",
          "type": "uint256"
        }
      ],
      "stateMutability": "view",
      "type": "function"
    },
    {
      "inputs": [
        {
          "internalType": "address",
          "name": "to",
          "type": "address"
        },
        {
          "internalType": "uint256",
          "name": "value",
          "type": "uint256"
        }
      ],
      "name": "transfer",
      "outputs": [
        {
          "internalType": "bool",
          "name": "",
          "type": "bool"
        }
      ],
      "stateMutability": "nonpayable",
      "type": "function"
    },
    {
      "inputs": [
        {
          "internalType": "address",
          "name": "from",
          "type": "address"
        },
        {
          "internalType": "address",
          "name": "to",
          "type": "address"
        },
        {
          "internalType": "uint256",
          "name": "value",
          "type": "uint256"
        }
      ],
      "name": "transferFrom",
      "outputs": [
        {
          "internalType": "bool",
          "name": "",
          "type": "bool"
        }
      ],
      "stateMutability": "nonpayable",
      "type": "function"
    },
    {
      "inputs": [
        {
          "internalType": "address",
          "name": "newOwner",
          "type": "address"
        }
      ],
      "name": "transferOwnership",
      "outputs": [],
      "stateMutability": "nonpayable",
      "type": "function"
    }
  ],
  "bytecode": "0x6080604052346103a057604080519081016001600160401b038111828210176102ab5760409081526008825267135bd8dac81554d160c21b602083015280519081016001600160401b038111828210176102ab576040526004815263135554d160e21b602082015281516001600160401b0381116102ab57600354600181811c91168015610396575b602082101461028b57601f8111610331575b50602092601f82116001146102cc57928192936000926102c1575b50508160011b916000199060031b1c1916176003555b80516001600160401b0381116102ab57600454600181811c911680156102a1575b602082101461028b57601f8111610226575b50602091601f82116001146101c2579181926000926101b7575b50508160011b916000199060031b1c1916176004555b33156101a15760058054336001600160a01b03198216811790925560405191906001600160a01b03167f8be0079c531659141344cd1fd0a4f28419497f9722a3daafe3b4186f6b6457e0600080a33360005260066020526040600020600160ff19825416179055610b1d90816103a68239f35b631e4fbdf760e01b600052600060045260246000fd5b015190503880610118565b601f198216926004600052806000209160005b85811061020e575083600195106101f5575b505050811b0160045561012e565b015160001960f88460031b161c191690553880806101e7565b919260206001819286850151815501940192016101d5565b60046000527f8a35acfbc15ff81a39ae7d344fd709f28e8600b4aa8c65c6b64bfe7fe36bd19b601f830160051c81019160208410610281575b601f0160051c01905b81811061027557506100fe565b60008155600101610268565b909150819061025f565b634e487b7160e01b600052602260045260246000fd5b90607f16906100ec565b634e487b7160e01b600052604160045260246000fd5b0151905038806100b5565b601f198216936003600052806000209160005b8681106103195750836001959610610300575b505050811b016003556100cb565b015160001960f88460031b161c191690553880806102f2565b919260206001819286850151815501940192016102df565b60036000527fc2575a0e9e593c00f959f8c92f12db2869c3395a3b0502d05e2516446f71f85b601f830160051c8101916020841061038c575b601f0160051c01905b818110610380575061009a565b60008155600101610373565b909150819061036a565b90607f1690610088565b600080fdfe608080604052600436101561001357600080fd5b60003560e01c90816306fdde031461083457508063095ea7b3146107ae57806318160ddd1461079057806323b872dd146106a35780633092afd51461063d578063313ce5671461062157806340c10f191461055057806370a0823114610516578063715018a6146104b95780638da5cb5b1461049057806395d89b411461036f578063983b2d56146103065780639dc29fac1461022a578063a9059cbb146101f9578063dd62ed3e146101a8578063f2fde38b1461011e5763f46eccc4146100da57600080fd5b34610119576020366003190112610119576001600160a01b036100fb610950565b166000526006602052602060ff604060002054166040519015158152f35b600080fd5b3461011957602036600319011261011957610137610950565b61013f610abe565b6001600160a01b0316801561019257600580546001600160a01b0319811683179091556001600160a01b03167f8be0079c531659141344cd1fd0a4f28419497f9722a3daafe3b4186f6b6457e0600080a3005b631e4fbdf760e01b600052600060045260246000fd5b34610119576040366003190112610119576101c1610950565b6101c9610966565b6001600160a01b039182166000908152600160209081526040808320949093168252928352819020549051908152f35b346101195760403660031901126101195761021f610215610950565b6024359033610a25565b602060405160018152f35b3461011957604036600319011261011957610243610950565b6024359033600052600660205261026160ff6040600020541661097c565b61026c8215156109c8565b6001600160a01b03169081156102f0576000908282528160205260408220548181106102d85760208285937fddf252ad1be2c89b69c2b068fc378daa952ba7f163c4a11628f55a4df523b3ef93869787528684520360408620558060025403600255604051908152a380f35b60649363391434e360e21b8452600452602452604452fd5b634b637e8f60e11b600052600060045260246000fd5b346101195760203660031901126101195761031f610950565b610327610abe565b6001600160a01b03166000818152600660205260408120805460ff191660011790557f6ae172837ea30b801fbfcdd4108aa1d5bf8ff775444fd70256b44e6bf3dfc3f69080a2005b346101195760003660031901126101195760405160006004548060011c90600181168015610486575b6020831081146104725782855290811561045657506001146103ff575b50819003601f01601f191681019067ffffffffffffffff8211818310176103e9576103e582918260405282610907565b0390f35b634e487b7160e01b600052604160045260246000fd5b905060046000527f8a35acfbc15ff81a39ae7d344fd709f28e8600b4aa8c65c6b64bfe7fe36bd19b6000905b828210610440575060209150820101826103b5565b600181602092548385880101520191019061042b565b90506020925060ff191682840152151560051b820101826103b5565b634e487b7160e01b84526022600452602484fd5b91607f1691610398565b34610119576000366003190112610119576005546040516001600160a01b039091168152602090f35b34610119576000366003190112610119576104d2610abe565b600580546001600160a01b031981169091556000906001600160a01b03167f8be0079c531659141344cd1fd0a4f28419497f9722a3daafe3b4186f6b6457e08280a3005b34610119576020366003190112610119576001600160a01b03610537610950565b1660005260006020526020604060002054604051908152f35b3461011957604036600319011261011957610569610950565b6024359033600052600660205261058760ff6040600020541661097c565b6105928215156109c8565b6001600160a01b0316801561060b57600254918083018093116105f5576020926002557fddf252ad1be2c89b69c2b068fc378daa952ba7f163c4a11628f55a4df523b3ef600093849284845283825260408420818154019055604051908152a380f35b634e487b7160e01b600052601160045260246000fd5b63ec442f0560e01b600052600060045260246000fd5b3461011957600036600319011261011957602060405160128152f35b3461011957602036600319011261011957610656610950565b61065e610abe565b6001600160a01b03166000818152600660205260408120805460ff191690557fe94479a9f7e1952cc78f2d6baab678adc1b772d936c6583def489e524cb666929080a2005b34610119576060366003190112610119576106bc610950565b6106c4610966565b6001600160a01b0382166000818152600160209081526040808320338452909152902054909260443592916000198110610704575b5061021f9350610a25565b83811061077357841561075d5733156107475761021f946000526001602052604060002060018060a01b03331660005260205283604060002091039055846106f9565b634a1406b160e11b600052600060045260246000fd5b63e602df0560e01b600052600060045260246000fd5b8390637dc7a0d960e11b6000523360045260245260445260646000fd5b34610119576000366003190112610119576020600254604051908152f35b34610119576040366003190112610119576107c7610950565b60243590331561075d576001600160a01b031690811561074757336000526001602052604060002082600052602052806040600020556040519081527f8c5be1e5ebec7d5bd14f71427d1e84f3dd0314c0f7b2291e5b200ac8c7c3b92560203392a3602060405160018152f35b346101195760003660031901126101195760006003548060011c906001811680156108fd575b6020831081146104725782855290811561045657506001146108a65750819003601f01601f191681019067ffffffffffffffff8211818310176103e9576103e582918260405282610907565b905060036000527fc2575a0e9e593c00f959f8c92f12db2869c3395a3b0502d05e2516446f71f85b6000905b8282106108e7575060209150820101826103b5565b60018160209254838588010152019101906108d2565b91607f169161085a565b91909160208152825180602083015260005b81811061093a575060409293506000838284010152601f8019910116010190565b8060208092870101516040828601015201610919565b600435906001600160a01b038216820361011957565b602435906001600160a01b038216820361011957565b1561098357565b60405162461bcd60e51b815260206004820152601760248201527f4d555344546f6b656e3a206e6f742061206d696e7465720000000000000000006044820152606490fd5b156109cf57565b60405162461bcd60e51b815260206004820152602860248201527f4d555344546f6b656e3a20616d6f756e74206d75737420626520677265617465604482015267072207468616e20360c41b6064820152608490fd5b6001600160a01b03169081156102f0576001600160a01b031691821561060b576000828152806020526040812054828110610aa45791604082827fddf252ad1be2c89b69c2b068fc378daa952ba7f163c4a11628f55a4df523b3ef958760209652828652038282205586815280845220818154019055604051908152a3565b916064928463391434e360e21b8452600452602452604452fd5b6005546001600160a01b03163303610ad257565b63118cdaa760e01b6000523360045260246000fdfea2646970667358221220a407141766ae392c34285b2d91e8f608ea8d528cd30c5e64497e7f947c298e2164736f6c634300081c0033",
  "linkReferences": {},
  "deployedLinkReferences": {}
}