{
  "_format": "hh-sol-artifact-1",
  "contractName": "MUSDToken",
  "sourceName": "contracts/MUSDToken.sol",
  "abi": [
    {
      "inputs": [],
      "stateMutability": "nonpayable",
      "type": "constructor"
    },
    {
      "inputs": [
        {
          "internalType": "address",
          "name": "spender",
          "type": "address"
        },
        {
          "internalType": "uint256",
          "name": "allowance",
          "type": "uint256"
        },
        {
          "internalType": "uint256",
          "name": "needed",
          "type": "uint256"
        }
      ],
      "name": "ERC20InsufficientAllowance",
      "type": "error"
    },
    {
      "inputs": [
        {
          "internalType": "address",
          "name": "sender",
          "type": "address"
        },
        {
          "internalType": "uint256",
          "name": "balance",
          "type": "uint256"
        },
        {
          "internalType": "uint256",
          "name": "needed",
          "type": "uint256"
        }
      ],
      "name": "ERC20InsufficientBalance",
      "type": "error"
    },
    {
      "inputs": [
        {
          "internalType": "address",
          "name": "approver",
          "type": "address"
        }
      ],
      "name": "ERC20InvalidApprover",
      "type": "error"
    },
    {
      "inputs": [
        {
          "internalType": "address",
          "name": "receiver",
          "type": "address"
        }
      ],
      "name": "ERC20InvalidReceiver",
      "type": "error"
    },
    {
      "inputs": [
        {
          "internalType": "address",
          "name": "sender",
          "type": "address"
        }
      ],
      "name": "ERC20InvalidSender",
      "type": "error"
    },
    {
      "inputs": [
        {
          "internalType": "address",
          "name": "spender",
          "type": "address"
        }
      ],
      "name": "ERC20InvalidSpender",
      "type": "error"
    },
    {
      "inputs": [
        {
          "internalType": "address",
          "name": "owner",
          "type": "address"
        }
      ],
      "name": "OwnableInvalidOwner",
      "type": "error"
    },
    {
      "inputs": [
        {
          "internalType": "address",
          "name": "account",
          "type": "address"
        }
      ],
      "name": "OwnableUnauthorizedAccount",
      "type": "error"
    },
    {
      "anonymous": false,
      "inputs": [
        {
          "indexed": true,
          "internalType": "address",
          "name": "owner",
          "type": "address"
        },
        {
          "indexed": true,
          "internalType": "address",
          "name": "spender",
          "type": "address"
        },
        {
          "indexed": false,
          "internalType": "uint256",
          "name": "value",
          "type": "uint256"
        }
      ],
      "name": "Approval",
      "type": "event"
    },
    {
      "anonymous": false,
      "inputs": [
        {
          "indexed": true,
          "internalType": "address",
          "name": "minter",
          "type": "address"
        }
      ],
      "name": "MinterAdded",
      "type": "event"
    },
    {
      "anonymous": false,
      "inputs": [
        {
          "indexed": true,
          "internalType": "address",
          "name": "minter",
          "type": "address"
        }
      ],
      "name": "MinterRemoved",
      "type": "event"
    },
    {
      "anonymous": false,
      "inputs": [
        {
          "indexed": true,
          "internalType": "address",
          "name": "previousOwner",
          "type": "address"
        },
        {
          "indexed": true,
          "internalType": "address",
          "name": "newOwner",
          "type": "address"
        }
      ],
      "name": "OwnershipTransferred",
      "type": "event"
    },
    {
      "anonymous": false,
      "inputs": [
        {
          "indexed": true,
          "internalType": "address",
          "name": "from",
          "type": "address"
        },
        {
          "indexed": true,
          "internalType": "address",
          "name": "to",
          "type": "address"
        },
        {
          "indexed": false,
          "internalType": "uint256",
          "name": "value",
          "type": "uint256"
        }
      ],
      "name": "Transfer",
      "type": "event"
    },
    {
      "inputs": [],
      "name": "MIN_AMOUNT",
      "outputs": [
        {
          "internalType": "uint256",
          "name": "",
          "type": "uint256"
        }
      ],
      "stateMutability": "view",
      "type": "function"
    },
    {
      "inputs": [
        {
          "internalType": "address",
          "name": "minter",
          "type": "address"
        }
      ],
      "name": "addMinter",
      "outputs": [],
      "stateMutability": "nonpayable",
      "type": "function"
    },
    {
      "inputs": [
        {
          "internalType": "address",
          "name": "owner",
          "type": "address"
        },
        {
          "internalType": "address",
          "name": "spender",
          "type": "address"
        }
      ],
      "name": "allowance",
      "outputs": [
        {
          "internalType": "uint256",
          "name": "",
          "type": "uint256"
        }
      ],
      "stateMutability": "view",
      "type": "function"
    },
    {
      "inputs": [
        {
          "internalType": "address",
          "name": "spender",
          "type": "address"
        },
        {
          "internalType": "uint256",
          "name": "value",
          "type": "uint256"
        }
      ],
      "name": "approve",
      "outputs": [
        {
          "internalType": "bool",
          "name": "",
          "type": "bool"
        }
      ],
      "stateMutability": "nonpayable",
      "type": "function"
    },
    {
      "inputs": [
        {
          "internalType": "address",
          "name": "account",
          "type": "address"
        }
      ],
      "name": "balanceOf",
      "outputs": [
        {
          "internalType": "uint256",
          "name": "",
          "type": "uint256"
        }
      ],
      "stateMutability": "view",
      "type": "function"
    },
    {
      "inputs": [
        {
          "internalType": "address",
          "name": "from",
          "type": "address"
        },
        {
          "internalType": "uint256",
          "name": "amount",
          "type": "uint256"
        }
      ],
      "name": "burn",
      "outputs": [],
      "stateMutability": "nonpayable",
      "type": "function"
    },
    {
      "inputs": [],
      "name": "decimals",
      "outputs": [
        {
          "internalType": "uint8",
          "name": "",
          "type": "uint8"
        }
      ],
      "stateMutability": "pure",
      "type": "function"
    },
    {
      "inputs": [
        {
          "internalType": "address",
          "name": "to",
          "type": "address"
        },
        {
          "internalType": "uint256",
          "name": "amount",
          "type": "uint256"
        }
      ],
      "name": "mint",
      "outputs": [],
      "stateMutability": "nonpayable",
      "type": "function"
    },
    {
      "inputs": [
        {
          "internalType": "address",
          "name": "",
          "type": "address"
        }
      ],
      "name": "minters",
      "outputs": [
        {
          "internalType": "bool",
          "name": "",
          "type": "bool"
        }
      ],
      "stateMutability": "view",
      "type": "function"
    },
    {
      "inputs": [],
      "name": "name",
      "outputs": [
        {
          "internalType": "string",
          "name": "",
          "type": "string"
        }
      ],
      "stateMutability": "view",
      "type": "function"
    },
    {
      "inputs": [],
      "name": "owner",
      "outputs": [
        {
          "internalType": "address",
          "name": "",
          "type": "address"
        }
      ],
      "stateMutability": "view",
      "type": "function"
    },
    {
      "inputs": [
        {
          "internalType": "address",
          "name": "minter",
          "type": "address"
        }
      ],
      "name": "removeMinter",
      "outputs": [],
      "stateMutability": "nonpayable",
      "type": "function"
    },
    {
      "inputs": [],
      "name": "renounceOwnership",
      "outputs": [],
      "stateMutability": "nonpayable",
      "type": "function"
    },
    {
      "inputs": [],
      "name": "symbol",
      "outputs": [
        {
          "internalType": "string",
          "name": "",
          "type": "string"
        }
      ],
      "stateMutability": "view",
      "type": "function"
    },
    {
      "inputs": [],
      "name": "totalSupply",
      "outputs": [
        {
          "internalType": "uint256",
          "name": "",
          "type": "uint256"
        }
      ],
      "stateMutability": "view",
      "type": "function"
    },
    {
      "inputs": [
        {
          "internalType": "address",
          "name": "to",
          "type": "address"
        },
        {
          "internalType": "uint256",
          "name": "value",
          "type": "uint256"
        }
      ],
      "name": "transfer",
      "outputs": [
        {
          "internalType": "bool",
          "name": "",
          "type": "bool"
        }
      ],
      "stateMutability": "nonpayable",
      "type": "function"
    },
    {
      "inputs": [
        {
          "internalType": "address",
          "name": "from",
          "type": "address"
        },
        {
          "internalType": "address",
          "name": "to",
          "type": "address"
        },
        {
          "internalType": "uint256",
          "name": "value",
          "type": "uint256"
        }
      ],
      "name": "transferFrom",
      "outputs": [
        {
          "internalType": "bool",
          "name": "",
          "type": "bool"
        }
      ],
      "stateMutability": "nonpayable",
      "type": "function"
    },
    {
      "inputs": [
        {
          "internalType": "address",
          "name": "newOwner",
          "type": "address"
        }
      ],
      "name": "transferOwnership",
      "outputs": [],
      "stateMutability": "nonpayable",
      "type": "function"
    }
  ],
  "bytecode": "0x608060405234801561001057600080fd5b503360405180604001604052806008815260200167135bd8dac81554d160c21b81525060405180604001604052806004815260200163135554d160e21b815250816003908161005f91906101b7565b50600461006c82826101b7565b5050506001600160a01b03811661009d57604051631e4fbdf760e01b81526000600482015260240160405180910390fd5b6100a6816100c6565b50336000908152600660205260409020805460ff19166001179055610275565b600580546001600160a01b038381166001600160a01b0319831681179093556040519116919082907f8be0079c531659141344cd1fd0a4f28419497f9722a3daafe3b4186f6b6457e090600090a35050565b634e487b7160e01b600052604160045260246000fd5b600181811c9082168061014257607f821691505b60208210810361016257634e487b7160e01b600052602260045260246000fd5b50919050565b601f8211156101b257806000526020600020601f840160051c8101602085101561018f5750805b601f840160051c820191505b818110156101af576000815560010161019b565b50505b505050565b81516001600160401b038111156101d0576101d0610118565b6101e4816101de845461012e565b84610168565b6020601f82116001811461021857600083156102005750848201515b600019600385901b1c1916600184901b1784556101af565b600084815260208120601f198516915b828110156102485787850151825560209485019460019092019101610228565b50848210156102665786840151600019600387901b60f8161c191681555b50505050600190811b01905550565b610ba5806102846000396000f3fe608060405234801561001057600080fd5b50600436106101165760003560e01c80638da5cb5b116100a2578063a9059cbb11610071578063a9059cbb14610232578063dd62ed3e14610245578063ddbcb5fa1461027e578063f2fde38b14610287578063f46eccc41461029a57600080fd5b80638da5cb5b146101e957806395d89b4114610204578063983b2d561461020c5780639dc29fac1461021f57600080fd5b80633092afd5116100e95780633092afd514610181578063313ce5671461019657806340c10f19146101a557806370a08231146101b8578063715018a6146101e157600080fd5b806306fdde031461011b578063095ea7b31461013957806318160ddd1461015c57806323b872dd1461016e575b600080fd5b6101236102bd565b60405161013091906109ee565b60405180910390f35b61014c610147366004610a58565b61034f565b6040519015158152602001610130565b6002545b604051908152602001610130565b61014c61017c366004610a82565b610369565b61019461018f366004610abf565b61038d565b005b60405160128152602001610130565b6101946101b3366004610a58565b6103de565b6101606101c6366004610abf565b6001600160a01b031660009081526020819052604090205490565b61019461049c565b6005546040516001600160a01b039091168152602001610130565b6101236104b0565b61019461021a366004610abf565b6104bf565b61019461022d366004610a58565b610513565b61014c610240366004610a58565b6105c8565b610160610253366004610ae1565b6001600160a01b03918216600090815260016020908152604080832093909416825291909152205490565b6101606103e881565b610194610295366004610abf565b6105d6565b61014c6102a8366004610abf565b60066020526000908152604090205460ff1681565b6060600380546102cc90610b14565b80601f01602080910402602001604051908101604052809291908181526020018280546102f890610b14565b80156103455780601f1061031a57610100808354040283529160200191610345565b820191906000526020600020905b81548152906001019060200180831161032857829003601f168201915b5050505050905090565b60003361035d818585610614565b60019150505b92915050565b600033610377858285610626565b6103828585856106a5565b506001949350505050565b610395610704565b6001600160a01b038116600081815260066020526040808220805460ff19169055517fe94479a9f7e1952cc78f2d6baab678adc1b772d936c6583def489e524cb666929190a250565b3360009081526006602052604090205460ff1661043c5760405162461bcd60e51b815260206004820152601760248201527626aaa9a22a37b5b2b71d103737ba10309036b4b73a32b960491b60448201526064015b60405180910390fd5b6103e881101561048e5760405162461bcd60e51b815260206004820152601b60248201527f4d555344546f6b656e3a20616d6f756e7420746f6f20736d616c6c00000000006044820152606401610433565b6104988282610731565b5050565b6104a4610704565b6104ae6000610767565b565b6060600480546102cc90610b14565b6104c7610704565b6001600160a01b038116600081815260066020526040808220805460ff19166001179055517f6ae172837ea30b801fbfcdd4108aa1d5bf8ff775444fd70256b44e6bf3dfc3f69190a250565b3360009081526006602052604090205460ff1661056c5760405162461bcd60e51b815260206004820152601760248201527626aaa9a22a37b5b2b71d103737ba10309036b4b73a32b960491b6044820152606401610433565b6103e88110156105be5760405162461bcd60e51b815260206004820152601b60248201527f4d555344546f6b656e3a20616d6f756e7420746f6f20736d616c6c00000000006044820152606401610433565b61049882826107b9565b60003361035d8185856106a5565b6105de610704565b6001600160a01b03811661060857604051631e4fbdf760e01b815260006004820152602401610433565b61061181610767565b50565b61062183838360016107ef565b505050565b6001600160a01b0383811660009081526001602090815260408083209386168352929052205460001981101561069f578181101561069057604051637dc7a0d960e11b81526001600160a01b03841660048201526024810182905260448101839052606401610433565b61069f848484840360006107ef565b50505050565b6001600160a01b0383166106cf57604051634b637e8f60e11b815260006004820152602401610433565b6001600160a01b0382166106f95760405163ec442f0560e01b815260006004820152602401610433565b6106218383836108c4565b6005546001600160a01b031633146104ae5760405163118cdaa760e01b8152336004820152602401610433565b6001600160a01b03821661075b5760405163ec442f0560e01b815260006004820152602401610433565b610498600083836108c4565b600580546001600160a01b038381166001600160a01b0319831681179093556040519116919082907f8be0079c531659141344cd1fd0a4f28419497f9722a3daafe3b4186f6b6457e090600090a35050565b6001600160a01b0382166107e357604051634b637e8f60e11b815260006004820152602401610433565b610498826000836108c4565b6001600160a01b0384166108195760405163e602df0560e01b815260006004820152602401610433565b6001600160a01b03831661084357604051634a1406b160e11b815260006004820152602401610433565b6001600160a01b038085166000908152600160209081526040808320938716835292905220829055801561069f57826001600160a01b0316846001600160a01b03167f8c5be1e5ebec7d5bd14f71427d1e84f3dd0314c0f7b2291e5b200ac8c7c3b925846040516108b691815260200190565b60405180910390a350505050565b6001600160a01b0383166108ef5780600260008282546108e49190610b4e565b909155506109619050565b6001600160a01b038316600090815260208190526040902054818110156109425760405163391434e360e21b81526001600160a01b03851660048201526024810182905260448101839052606401610433565b6001600160a01b03841660009081526020819052604090209082900390555b6001600160a01b03821661097d5760028054829003905561099c565b6001600160a01b03821660009081526020819052604090208054820190555b816001600160a01b0316836001600160a01b03167fddf252ad1be2c89b69c2b068fc378daa952ba7f163c4a11628f55a4df523b3ef836040516109e191815260200190565b60405180910390a3505050565b602081526000825180602084015260005b81811015610a1c57602081860181015160408684010152016109ff565b506000604082850101526040601f19601f83011684010191505092915050565b80356001600160a01b0381168114610a5357600080fd5b919050565b60008060408385031215610a6b57600080fd5b610a7483610a3c565b946020939093013593505050565b600080600060608486031215610a9757600080fd5b610aa084610a3c565b9250610aae60208501610a3c565b929592945050506040919091013590565b600060208284031215610ad157600080fd5b610ada82610a3c565b9392505050565b60008060408385031215610af457600080fd5b610afd83610a3c565b9150610b0b60208401610a3c565b90509250929050565b600181811c90821680610b2857607f821691505b602082108103610b4857634e487b7160e01b600052602260045260246000fd5b50919050565b8082018082111561036357634e487b7160e01b600052601160045260246000fdfea26469706673582212206699a64b91a403246da45b04fc7f42a5442736ea1f9f9a6b151de774c0b5dc8d64736f6c634300081c0033",
  "linkReferences": {},
  "deployedLinkReferences": {}
}